{
  "contractName": "Batch",
  "abi": [
    {
      "inputs": [],
      "stateMutability": "nonpayable",
      "type": "constructor"
    },
    {
      "inputs": [],
      "name": "AlreadySupportedToken",
      "type": "error"
    },
    {
      "inputs": [],
      "name": "CallerIsNotStrategyRouter",
      "type": "error"
    },
    {
      "inputs": [],
      "name": "CantRemoveTokenOfActiveStrategy",
      "type": "error"
    },
    {
      "inputs": [],
      "name": "CycleClosed",
      "type": "error"
    },
    {
      "inputs": [],
      "name": "DepositUnderMinimum",
      "type": "error"
    },
    {
      "inputs": [],
      "name": "NotEnoughBalanceInBatch",
      "type": "error"
    },
    {
      "inputs": [],
      "name": "NotReceiptOwner",
      "type": "error"
    },
    {
      "inputs": [],
      "name": "UnsupportedToken",
      "type": "error"
    },
    {
      "anonymous": false,
      "inputs": [
        {
          "indexed": true,
          "internalType": "address",
          "name": "previousOwner",
          "type": "address"
        },
        {
          "indexed": true,
          "internalType": "address",
          "name": "newOwner",
          "type": "address"
        }
      ],
      "name": "OwnershipTransferred",
      "type": "event"
    },
    {
      "anonymous": false,
      "inputs": [
        {
          "indexed": false,
          "internalType": "contract Exchange",
          "name": "_exchange",
          "type": "address"
        },
        {
          "indexed": false,
          "internalType": "contract IUsdOracle",
          "name": "_oracle",
          "type": "address"
        },
        {
          "indexed": false,
          "internalType": "contract StrategyRouter",
          "name": "_router",
          "type": "address"
        },
        {
          "indexed": false,
          "internalType": "contract ReceiptNFT",
          "name": "_receiptNft",
          "type": "address"
        }
      ],
      "name": "SetAddresses",
      "type": "event"
    },
    {
      "anonymous": false,
      "inputs": [
        {
          "indexed": true,
          "internalType": "address",
          "name": "user",
          "type": "address"
        },
        {
          "indexed": false,
          "internalType": "address",
          "name": "token",
          "type": "address"
        },
        {
          "indexed": false,
          "internalType": "uint256",
          "name": "amount",
          "type": "uint256"
        }
      ],
      "name": "WithdrawFromBatch",
      "type": "event"
    },
    {
      "inputs": [],
      "name": "REBALANCE_SWAP_THRESHOLD",
      "outputs": [
        {
          "internalType": "uint256",
          "name": "",
          "type": "uint256"
        }
      ],
      "stateMutability": "view",
      "type": "function"
    },
    {
      "inputs": [],
      "name": "UNIFORM_DECIMALS",
      "outputs": [
        {
          "internalType": "uint8",
          "name": "",
          "type": "uint8"
        }
      ],
      "stateMutability": "view",
      "type": "function"
    },
    {
      "inputs": [],
      "name": "exchange",
      "outputs": [
        {
          "internalType": "contract Exchange",
          "name": "",
          "type": "address"
        }
      ],
      "stateMutability": "view",
      "type": "function"
    },
    {
      "inputs": [],
      "name": "minDeposit",
      "outputs": [
        {
          "internalType": "uint256",
          "name": "",
          "type": "uint256"
        }
      ],
      "stateMutability": "view",
      "type": "function"
    },
    {
      "inputs": [],
      "name": "oracle",
      "outputs": [
        {
          "internalType": "contract IUsdOracle",
          "name": "",
          "type": "address"
        }
      ],
      "stateMutability": "view",
      "type": "function"
    },
    {
      "inputs": [],
      "name": "owner",
      "outputs": [
        {
          "internalType": "address",
          "name": "",
          "type": "address"
        }
      ],
      "stateMutability": "view",
      "type": "function"
    },
    {
      "inputs": [],
      "name": "receiptContract",
      "outputs": [
        {
          "internalType": "contract ReceiptNFT",
          "name": "",
          "type": "address"
        }
      ],
      "stateMutability": "view",
      "type": "function"
    },
    {
      "inputs": [],
      "name": "renounceOwnership",
      "outputs": [],
      "stateMutability": "nonpayable",
      "type": "function"
    },
    {
      "inputs": [],
      "name": "router",
      "outputs": [
        {
          "internalType": "contract StrategyRouter",
          "name": "",
          "type": "address"
        }
      ],
      "stateMutability": "view",
      "type": "function"
    },
    {
      "inputs": [
        {
          "internalType": "address",
          "name": "newOwner",
          "type": "address"
        }
      ],
      "name": "transferOwnership",
      "outputs": [],
      "stateMutability": "nonpayable",
      "type": "function"
    },
    {
      "inputs": [
        {
          "internalType": "contract Exchange",
          "name": "_exchange",
          "type": "address"
        },
        {
          "internalType": "contract IUsdOracle",
          "name": "_oracle",
          "type": "address"
        },
        {
          "internalType": "contract StrategyRouter",
          "name": "_router",
          "type": "address"
        },
        {
          "internalType": "contract ReceiptNFT",
          "name": "_receiptNft",
          "type": "address"
        }
      ],
      "name": "setAddresses",
      "outputs": [],
      "stateMutability": "nonpayable",
      "type": "function"
    },
    {
      "inputs": [
        {
          "internalType": "address",
          "name": "tokenAddress",
          "type": "address"
        }
      ],
      "name": "supportsToken",
      "outputs": [
        {
          "internalType": "bool",
          "name": "",
          "type": "bool"
        }
      ],
      "stateMutability": "view",
      "type": "function"
    },
    {
      "inputs": [],
      "name": "getSupportedTokens",
      "outputs": [
        {
          "internalType": "address[]",
          "name": "",
          "type": "address[]"
        }
      ],
      "stateMutability": "view",
      "type": "function"
    },
    {
      "inputs": [],
      "name": "getBatchValueUsd",
      "outputs": [
        {
          "internalType": "uint256",
          "name": "totalBalanceUsd",
          "type": "uint256"
        },
        {
          "internalType": "uint256[]",
          "name": "supportedTokenBalancesUsd",
          "type": "uint256[]"
        }
      ],
      "stateMutability": "view",
      "type": "function"
    },
    {
      "inputs": [
        {
          "internalType": "address",
          "name": "receiptOwner",
          "type": "address"
        },
        {
          "internalType": "uint256[]",
          "name": "receiptIds",
          "type": "uint256[]"
        },
        {
          "internalType": "uint256",
          "name": "_currentCycleId",
          "type": "uint256"
        }
      ],
      "name": "withdraw",
      "outputs": [],
      "stateMutability": "nonpayable",
      "type": "function"
    },
    {
      "inputs": [
        {
          "internalType": "address",
          "name": "depositor",
          "type": "address"
        },
        {
          "internalType": "address",
          "name": "depositToken",
          "type": "address"
        },
        {
          "internalType": "uint256",
          "name": "_amount",
          "type": "uint256"
        },
        {
          "internalType": "uint256",
          "name": "_currentCycleId",
          "type": "uint256"
        }
      ],
      "name": "deposit",
      "outputs": [],
      "stateMutability": "nonpayable",
      "type": "function"
    },
    {
      "inputs": [
        {
          "internalType": "address",
          "name": "token",
          "type": "address"
        },
        {
          "internalType": "address",
          "name": "to",
          "type": "address"
        },
        {
          "internalType": "uint256",
          "name": "amount",
          "type": "uint256"
        }
      ],
      "name": "transfer",
      "outputs": [],
      "stateMutability": "nonpayable",
      "type": "function"
    },
    {
      "inputs": [
        {
          "internalType": "uint256",
          "name": "amount",
          "type": "uint256"
        }
      ],
      "name": "setMinDepositUsd",
      "outputs": [],
      "stateMutability": "nonpayable",
      "type": "function"
    },
    {
      "inputs": [],
      "name": "rebalance",
      "outputs": [
        {
          "internalType": "uint256[]",
          "name": "balances",
          "type": "uint256[]"
        }
      ],
      "stateMutability": "nonpayable",
      "type": "function"
    },
    {
      "inputs": [
        {
          "internalType": "address",
          "name": "tokenAddress",
          "type": "address"
        },
        {
          "internalType": "bool",
          "name": "supported",
          "type": "bool"
        }
      ],
      "name": "setSupportedToken",
      "outputs": [],
      "stateMutability": "nonpayable",
      "type": "function"
    }
  ],
  "bytecode": "0x60806040523480156200001157600080fd5b5062000032620000266200003860201b60201c565b6200004060201b60201c565b62000104565b600033905090565b60008060009054906101000a900473ffffffffffffffffffffffffffffffffffffffff169050816000806101000a81548173ffffffffffffffffffffffffffffffffffffffff021916908373ffffffffffffffffffffffffffffffffffffffff1602179055508173ffffffffffffffffffffffffffffffffffffffff168173ffffffffffffffffffffffffffffffffffffffff167f8be0079c531659141344cd1fd0a4f28419497f9722a3daafe3b4186f6b6457e060405160405180910390a35050565b613b7980620001146000396000f3fe608060405234801561001057600080fd5b506004361061012c5760003560e01c80638da5cb5b116100ad578063d435b3a311610071578063d435b3a3146102e8578063e798646614610306578063edbfcae514610322578063f2fde38b14610340578063f887ea401461035c5761012c565b80638da5cb5b146102565780638db7773114610274578063beabacc814610290578063d2f7265a146102ac578063d3c7c2c7146102ca5761012c565b80634a945f8d116100f45780634a945f8d146101d8578063715018a6146101f457806373b69321146101fe5780637d7c2a1c1461021a5780637dc0d1d0146102385761012c565b8063061f7650146101315780630d04e3871461016157806320e8c565146101805780632a5d90801461019c57806341b3d185146101ba575b600080fd5b61014b60048036038101906101469190612b23565b61037a565b6040516101589190612b6b565b60405180910390f35b610169610397565b604051610177929190612c5d565b60405180910390f35b61019a60048036038101906101959190612cb9565b6105ad565b005b6101a461082b565b6040516101b19190612d3c565b60405180910390f35b6101c2610830565b6040516101cf9190612d57565b60405180910390f35b6101f260048036038101906101ed9190612e6a565b610836565b005b6101fc610985565b005b61021860048036038101906102139190612ed1565b610999565b005b610222610a2a565b60405161022f9190612efe565b60405180910390f35b6102406119e2565b60405161024d9190612f7f565b60405180910390f35b61025e611a08565b60405161026b9190612fa9565b60405180910390f35b61028e60048036038101906102899190613029565b611a31565b005b6102aa60048036038101906102a5919061309d565b611e58565b005b6102b4611f63565b6040516102c19190613111565b60405180910390f35b6102d2611f89565b6040516102df91906131ea565b60405180910390f35b6102f0611f9a565b6040516102fd919061322d565b60405180910390f35b610320600480360381019061031b9190613274565b611fc0565b005b61032a612282565b6040516103379190612d57565b60405180910390f35b61035a60048036038101906103559190612b23565b61228e565b005b610364612311565b60405161037191906132d5565b60405180910390f35b600061039082600661233790919063ffffffff16565b9050919050565b600060606103a56006612367565b67ffffffffffffffff8111156103be576103bd6132f0565b5b6040519080825280602002602001820160405280156103ec5781602001602082028036833780820191505090505b50905060005b81518110156105a857600061041182600661237c90919063ffffffff16565b905060008173ffffffffffffffffffffffffffffffffffffffff166370a08231306040518263ffffffff1660e01b815260040161044e9190612fa9565b602060405180830381865afa15801561046b573d6000803e3d6000fd5b505050506040513d601f19601f8201168201806040525081019061048f9190613334565b9050600080600560009054906101000a900473ffffffffffffffffffffffffffffffffffffffff1673ffffffffffffffffffffffffffffffffffffffff1662593bcf856040518263ffffffff1660e01b81526004016104ee9190612fa9565b6040805180830381865afa15801561050a573d6000803e3d6000fd5b505050506040513d601f19601f8201168201806040525081019061052e919061338d565b9150915080600a61053f919061352f565b828461054b919061357a565b6105559190613603565b92506105618385612396565b92508286868151811061057757610576613634565b5b602002602001018181525050828761058f9190613663565b96505050505080806105a0906136b9565b9150506103f2565b509091565b600460009054906101000a900473ffffffffffffffffffffffffffffffffffffffff1673ffffffffffffffffffffffffffffffffffffffff163373ffffffffffffffffffffffffffffffffffffffff1614610634576040517f4afaa67300000000000000000000000000000000000000000000000000000000815260040160405180910390fd5b61063d8361037a565b610673576040517f6a17288200000000000000000000000000000000000000000000000000000000815260040160405180910390fd5b600080600560009054906101000a900473ffffffffffffffffffffffffffffffffffffffff1673ffffffffffffffffffffffffffffffffffffffff1662593bcf866040518263ffffffff1660e01b81526004016106d09190612fa9565b6040805180830381865afa1580156106ec573d6000803e3d6000fd5b505050506040513d601f19601f82011682018060405250810190610710919061338d565b91509150600061074282600a610726919061352f565b8487610732919061357a565b61073c9190613603565b87612396565b9050806001541115610780576040517f43abfb9400000000000000000000000000000000000000000000000000000000815260040160405180910390fd5b600061078c8688612396565b9050600260009054906101000a900473ffffffffffffffffffffffffffffffffffffffff1673ffffffffffffffffffffffffffffffffffffffff16635734b96886838a8c6040518563ffffffff1660e01b81526004016107ef9493929190613701565b600060405180830381600087803b15801561080957600080fd5b505af115801561081d573d6000803e3d6000fd5b505050505050505050505050565b601281565b60015481565b61083e61241a565b83600360006101000a81548173ffffffffffffffffffffffffffffffffffffffff021916908373ffffffffffffffffffffffffffffffffffffffff16021790555082600560006101000a81548173ffffffffffffffffffffffffffffffffffffffff021916908373ffffffffffffffffffffffffffffffffffffffff16021790555081600460006101000a81548173ffffffffffffffffffffffffffffffffffffffff021916908373ffffffffffffffffffffffffffffffffffffffff16021790555080600260006101000a81548173ffffffffffffffffffffffffffffffffffffffff021916908373ffffffffffffffffffffffffffffffffffffffff1602179055507faaa9fbd44f151f33e813cad14b3227af4d0b1ec931d5dd2bc2c7e1f8925043a9848484846040516109779493929190613746565b60405180910390a150505050565b61098d61241a565b6109976000612498565b565b600460009054906101000a900473ffffffffffffffffffffffffffffffffffffffff1673ffffffffffffffffffffffffffffffffffffffff163373ffffffffffffffffffffffffffffffffffffffff1614610a20576040517f4afaa67300000000000000000000000000000000000000000000000000000000815260040160405180910390fd5b8060018190555050565b6060600460009054906101000a900473ffffffffffffffffffffffffffffffffffffffff1673ffffffffffffffffffffffffffffffffffffffff163373ffffffffffffffffffffffffffffffffffffffff1614610ab3576040517f4afaa67300000000000000000000000000000000000000000000000000000000815260040160405180910390fd5b600080610ac06006612367565b905060008167ffffffffffffffff811115610ade57610add6132f0565b5b604051908082528060200260200182016040528015610b0c5781602001602082028036833780820191505090505b50905060008267ffffffffffffffff811115610b2b57610b2a6132f0565b5b604051908082528060200260200182016040528015610b595781602001602082028036833780820191505090505b50905060005b83811015610cd957610b7b81600661237c90919063ffffffff16565b838281518110610b8e57610b8d613634565b5b602002602001019073ffffffffffffffffffffffffffffffffffffffff16908173ffffffffffffffffffffffffffffffffffffffff1681525050828181518110610bdb57610bda613634565b5b602002602001015173ffffffffffffffffffffffffffffffffffffffff166370a08231306040518263ffffffff1660e01b8152600401610c1b9190612fa9565b602060405180830381865afa158015610c38573d6000803e3d6000fd5b505050506040513d601f19601f82011682018060405250810190610c5c9190613334565b828281518110610c6f57610c6e613634565b5b602002602001018181525050610cb9828281518110610c9157610c90613634565b5b6020026020010151848381518110610cac57610cab613634565b5b6020026020010151612396565b85610cc49190613663565b94508080610cd1906136b9565b915050610b5f565b506000600460009054906101000a900473ffffffffffffffffffffffffffffffffffffffff1673ffffffffffffffffffffffffffffffffffffffff16638f6a49a16040518163ffffffff1660e01b8152600401602060405180830381865afa158015610d49573d6000803e3d6000fd5b505050506040513d601f19601f82011682018060405250810190610d6d9190613334565b905060008482610d7d9190613663565b67ffffffffffffffff811115610d9657610d956132f0565b5b604051908082528060200260200182016040528015610dc45781602001602082028036833780820191505090505b50905060005b82811015610f79576000600460009054906101000a900473ffffffffffffffffffffffffffffffffffffffff1673ffffffffffffffffffffffffffffffffffffffff1663a4b5f93b836040518263ffffffff1660e01b8152600401610e2f9190612d57565b602060405180830381865afa158015610e4c573d6000803e3d6000fd5b505050506040513d601f19601f82011682018060405250810190610e7091906137a0565b905060005b87811015610f6457868181518110610e9057610e8f613634565b5b602002602001015173ffffffffffffffffffffffffffffffffffffffff168273ffffffffffffffffffffffffffffffffffffffff16148015610eec57506000868281518110610ee257610ee1613634565b5b6020026020010151115b15610f5157858181518110610f0457610f03613634565b5b6020026020010151848481518110610f1f57610f1e613634565b5b6020026020010181815250506000868281518110610f4057610f3f613634565b5b602002602001018181525050610f64565b8080610f5c906136b9565b915050610e75565b50508080610f71906136b9565b915050610dca565b5060008290505b8151811015610fe157838382610f9691906137cd565b81518110610fa757610fa6613634565b5b6020026020010151828281518110610fc257610fc1613634565b5b6020026020010181815250508080610fd9906136b9565b915050610f80565b5060008267ffffffffffffffff811115610ffe57610ffd6132f0565b5b60405190808252806020026020018201604052801561102c5781602001602082028036833780820191505090505b5090506000825167ffffffffffffffff81111561104c5761104b6132f0565b5b60405190808252806020026020018201604052801561107a5781602001602082028036833780820191505090505b50905060005b848110156112c4576000670de0b6b3a7640000600460009054906101000a900473ffffffffffffffffffffffffffffffffffffffff1673ffffffffffffffffffffffffffffffffffffffff166313669f6c846040518263ffffffff1660e01b81526004016110ee9190612d57565b602060405180830381865afa15801561110b573d6000803e3d6000fd5b505050506040513d601f19601f8201168201806040525081019061112f9190613334565b8b61113a919061357a565b6111449190613603565b90506111eb81600460009054906101000a900473ffffffffffffffffffffffffffffffffffffffff1673ffffffffffffffffffffffffffffffffffffffff1663a4b5f93b856040518263ffffffff1660e01b81526004016111a59190612d57565b602060405180830381865afa1580156111c2573d6000803e3d6000fd5b505050506040513d601f19601f820116820180604052508101906111e691906137a0565b61255c565b9050848281518110611200576111ff613634565b5b60200260200101518111156112505784828151811061122257611221613634565b5b6020026020010151810384838151811061123f5761123e613634565b5b6020026020010181815250506112b0565b84828151811061126357611262613634565b5b60200260200101518110156112af578085838151811061128657611285613634565b5b6020026020010151038383815181106112a2576112a1613634565b5b6020026020010181815250505b5b5080806112bc906136b9565b915050611080565b5060008490505b8351811015611321578381815181106112e7576112e6613634565b5b602002602001015182828151811061130257611301613634565b5b6020026020010181815250508080611319906136b9565b9150506112cb565b5060005b835181101561192f5760005b8581101561191b57600083838151811061134e5761134d613634565b5b602002602001015111801561137d5750600084828151811061137357611372613634565b5b6020026020010151115b1561190857600060018761139191906137cd565b831161143857600460009054906101000a900473ffffffffffffffffffffffffffffffffffffffff1673ffffffffffffffffffffffffffffffffffffffff1663a4b5f93b846040518263ffffffff1660e01b81526004016113f29190612d57565b602060405180830381865afa15801561140f573d6000803e3d6000fd5b505050506040513d601f19601f8201168201806040525081019061143391906137a0565b61145f565b88878461144591906137cd565b8151811061145657611455613634565b5b60200260200101515b90506000600460009054906101000a900473ffffffffffffffffffffffffffffffffffffffff1673ffffffffffffffffffffffffffffffffffffffff1663a4b5f93b846040518263ffffffff1660e01b81526004016114be9190612d57565b602060405180830381865afa1580156114db573d6000803e3d6000fd5b505050506040513d601f19601f820116820180604052508101906114ff91906137a0565b9050600061152786868151811061151957611518613634565b5b602002602001015184612396565b9050600061154f88868151811061154157611540613634565b5b602002602001015184612396565b9050600081831161157a5787878151811061156d5761156c613634565b5b60200260200101516115f5565b6115f48260128773ffffffffffffffffffffffffffffffffffffffff1663313ce5676040518163ffffffff1660e01b8152600401602060405180830381865afa1580156115cb573d6000803e3d6000fd5b505050506040513d601f19601f820116820180604052508101906115ef9190613801565b6125e0565b5b905067016345785d8a000061160a8287612396565b101561175057600088888151811061162557611624613634565b5b602002602001018181525050611718818673ffffffffffffffffffffffffffffffffffffffff1663313ce5676040518163ffffffff1660e01b8152600401602060405180830381865afa158015611680573d6000803e3d6000fd5b505050506040513d601f19601f820116820180604052508101906116a49190613801565b8673ffffffffffffffffffffffffffffffffffffffff1663313ce5676040518163ffffffff1660e01b8152600401602060405180830381865afa1580156116ef573d6000803e3d6000fd5b505050506040513d601f19601f820116820180604052508101906117139190613801565b6125e0565b89878151811061172b5761172a613634565b5b6020026020010181815161173f91906137cd565b91508181525050505050505061191b565b600061175d82878761265d565b9050818b898151811061177357611772613634565b5b6020026020010181815161178791906137cd565b91508181525050808b88815181106117a2576117a1613634565b5b602002602001018181516117b69190613663565b91508181525050818989815181106117d1576117d0613634565b5b602002602001018181516117e591906137cd565b915081815250506118d3828773ffffffffffffffffffffffffffffffffffffffff1663313ce5676040518163ffffffff1660e01b8152600401602060405180830381865afa15801561183b573d6000803e3d6000fd5b505050506040513d601f19601f8201168201806040525081019061185f9190613801565b8773ffffffffffffffffffffffffffffffffffffffff1663313ce5676040518163ffffffff1660e01b8152600401602060405180830381865afa1580156118aa573d6000803e3d6000fd5b505050506040513d601f19601f820116820180604052508101906118ce9190613801565b6125e0565b8a88815181106118e6576118e5613634565b5b602002602001018181516118fa91906137cd565b915081815250505050505050505b8080611913906136b9565b915050611331565b508080611927906136b9565b915050611325565b508367ffffffffffffffff81111561194a576119496132f0565b5b6040519080825280602002602001820160405280156119785781602001602082028036833780820191505090505b50945060005b848110156119d35783818151811061199957611998613634565b5b60200260200101518682815181106119b4576119b3613634565b5b60200260200101818152505080806119cb906136b9565b91505061197e565b50849850505050505050505090565b600560009054906101000a900473ffffffffffffffffffffffffffffffffffffffff1681565b60008060009054906101000a900473ffffffffffffffffffffffffffffffffffffffff16905090565b600460009054906101000a900473ffffffffffffffffffffffffffffffffffffffff1673ffffffffffffffffffffffffffffffffffffffff163373ffffffffffffffffffffffffffffffffffffffff1614611ab8576040517f4afaa67300000000000000000000000000000000000000000000000000000000815260040160405180910390fd5b60005b83839050811015611e51576000848483818110611adb57611ada613634565b5b9050602002013590508573ffffffffffffffffffffffffffffffffffffffff16600260009054906101000a900473ffffffffffffffffffffffffffffffffffffffff1673ffffffffffffffffffffffffffffffffffffffff16636352211e836040518263ffffffff1660e01b8152600401611b569190612d57565b602060405180830381865afa158015611b73573d6000803e3d6000fd5b505050506040513d601f19601f82011682018060405250810190611b9791906137a0565b73ffffffffffffffffffffffffffffffffffffffff1614611be4576040517faef2965e00000000000000000000000000000000000000000000000000000000815260040160405180910390fd5b6000600260009054906101000a900473ffffffffffffffffffffffffffffffffffffffff1673ffffffffffffffffffffffffffffffffffffffff1663b63e6ac3836040518263ffffffff1660e01b8152600401611c419190612d57565b606060405180830381865afa158015611c5e573d6000803e3d6000fd5b505050506040513d601f19601f82011682018060405250810190611c8291906138f4565b905083816000015114611cc1576040517f7937f72b00000000000000000000000000000000000000000000000000000000815260040160405180910390fd5b6000611cd58260200151836040015161255c565b9050816040015173ffffffffffffffffffffffffffffffffffffffff1663a9059cbb89836040518363ffffffff1660e01b8152600401611d16929190613921565b6020604051808303816000875af1158015611d35573d6000803e3d6000fd5b505050506040513d601f19601f82011682018060405250810190611d59919061395f565b50600260009054906101000a900473ffffffffffffffffffffffffffffffffffffffff1673ffffffffffffffffffffffffffffffffffffffff166342966c68846040518263ffffffff1660e01b8152600401611db59190612d57565b600060405180830381600087803b158015611dcf57600080fd5b505af1158015611de3573d6000803e3d6000fd5b505050503373ffffffffffffffffffffffffffffffffffffffff167fb1599cb702c470f03d1927e1905cbcc743c28ba815828b7ee4eb51f84af52099836040015183604051611e33929190613921565b60405180910390a25050508080611e49906136b9565b915050611abb565b5050505050565b600460009054906101000a900473ffffffffffffffffffffffffffffffffffffffff1673ffffffffffffffffffffffffffffffffffffffff163373ffffffffffffffffffffffffffffffffffffffff1614611edf576040517f4afaa67300000000000000000000000000000000000000000000000000000000815260040160405180910390fd5b8273ffffffffffffffffffffffffffffffffffffffff1663a9059cbb83836040518363ffffffff1660e01b8152600401611f1a929190613921565b6020604051808303816000875af1158015611f39573d6000803e3d6000fd5b505050506040513d601f19601f82011682018060405250810190611f5d919061395f565b50505050565b600360009054906101000a900473ffffffffffffffffffffffffffffffffffffffff1681565b6060611f9560066127e9565b905090565b600260009054906101000a900473ffffffffffffffffffffffffffffffffffffffff1681565b600460009054906101000a900473ffffffffffffffffffffffffffffffffffffffff1673ffffffffffffffffffffffffffffffffffffffff163373ffffffffffffffffffffffffffffffffffffffff1614612047576040517f4afaa67300000000000000000000000000000000000000000000000000000000815260040160405180910390fd5b80801561205957506120588261037a565b5b15612090576040517f3ef79e6a00000000000000000000000000000000000000000000000000000000815260040160405180910390fd5b80156120b0576120aa82600661280a90919063ffffffff16565b5061227e565b6000600460009054906101000a900473ffffffffffffffffffffffffffffffffffffffff1673ffffffffffffffffffffffffffffffffffffffff16638f6a49a16040518163ffffffff1660e01b8152600401602060405180830381865afa15801561211f573d6000803e3d6000fd5b505050506040513d601f19601f820116820180604052508101906121439190613334565b905060005b8160ff16811015612266578373ffffffffffffffffffffffffffffffffffffffff16600460009054906101000a900473ffffffffffffffffffffffffffffffffffffffff1673ffffffffffffffffffffffffffffffffffffffff1663a4b5f93b836040518263ffffffff1660e01b81526004016121c59190612d57565b602060405180830381865afa1580156121e2573d6000803e3d6000fd5b505050506040513d601f19601f8201168201806040525081019061220691906137a0565b73ffffffffffffffffffffffffffffffffffffffff1603612253576040517fb7d0b65400000000000000000000000000000000000000000000000000000000815260040160405180910390fd5b808061225e906136b9565b915050612148565b5061227b83600661283a90919063ffffffff16565b50505b5050565b67016345785d8a000081565b61229661241a565b600073ffffffffffffffffffffffffffffffffffffffff168173ffffffffffffffffffffffffffffffffffffffff1603612305576040517f08c379a00000000000000000000000000000000000000000000000000000000081526004016122fc90613a0f565b60405180910390fd5b61230e81612498565b50565b600460009054906101000a900473ffffffffffffffffffffffffffffffffffffffff1681565b600061235f836000018373ffffffffffffffffffffffffffffffffffffffff1660001b61286a565b905092915050565b60006123758260000161288d565b9050919050565b600061238b836000018361289e565b60001c905092915050565b6000612412838373ffffffffffffffffffffffffffffffffffffffff1663313ce5676040518163ffffffff1660e01b8152600401602060405180830381865afa1580156123e7573d6000803e3d6000fd5b505050506040513d601f19601f8201168201806040525081019061240b9190613801565b60126125e0565b905092915050565b6124226128c9565b73ffffffffffffffffffffffffffffffffffffffff16612440611a08565b73ffffffffffffffffffffffffffffffffffffffff1614612496576040517f08c379a000000000000000000000000000000000000000000000000000000000815260040161248d90613a7b565b60405180910390fd5b565b60008060009054906101000a900473ffffffffffffffffffffffffffffffffffffffff169050816000806101000a81548173ffffffffffffffffffffffffffffffffffffffff021916908373ffffffffffffffffffffffffffffffffffffffff1602179055508173ffffffffffffffffffffffffffffffffffffffff168173ffffffffffffffffffffffffffffffffffffffff167f8be0079c531659141344cd1fd0a4f28419497f9722a3daafe3b4186f6b6457e060405160405180910390a35050565b60006125d88360128473ffffffffffffffffffffffffffffffffffffffff1663313ce5676040518163ffffffff1660e01b8152600401602060405180830381865afa1580156125af573d6000803e3d6000fd5b505050506040513d601f19601f820116820180604052508101906125d39190613801565b6125e0565b905092915050565b60008160ff168360ff16101561261a5782826125fc9190613a9b565b600a612608919061352f565b84612613919061357a565b9050612656565b8160ff168360ff1611156126525781836126349190613a9b565b600a612640919061352f565b8461264b9190613603565b9050612656565b8390505b9392505050565b60008173ffffffffffffffffffffffffffffffffffffffff168373ffffffffffffffffffffffffffffffffffffffff16146127de578273ffffffffffffffffffffffffffffffffffffffff1663a9059cbb600360009054906101000a900473ffffffffffffffffffffffffffffffffffffffff16866040518363ffffffff1660e01b81526004016126ef929190613921565b6020604051808303816000875af115801561270e573d6000803e3d6000fd5b505050506040513d601f19601f82011682018060405250810190612732919061395f565b50600360009054906101000a900473ffffffffffffffffffffffffffffffffffffffff1673ffffffffffffffffffffffffffffffffffffffff166388156e65858585306040518563ffffffff1660e01b81526004016127949493929190613acf565b6020604051808303816000875af11580156127b3573d6000803e3d6000fd5b505050506040513d601f19601f820116820180604052508101906127d79190613334565b90506127e2565b8390505b9392505050565b606060006127f9836000016128d1565b905060608190508092505050919050565b6000612832836000018373ffffffffffffffffffffffffffffffffffffffff1660001b61292d565b905092915050565b6000612862836000018373ffffffffffffffffffffffffffffffffffffffff1660001b61299d565b905092915050565b600080836001016000848152602001908152602001600020541415905092915050565b600081600001805490509050919050565b60008260000182815481106128b6576128b5613634565b5b9060005260206000200154905092915050565b600033905090565b60608160000180548060200260200160405190810160405280929190818152602001828054801561292157602002820191906000526020600020905b81548152602001906001019080831161290d575b50505050509050919050565b6000612939838361286a565b612992578260000182908060018154018082558091505060019003906000526020600020016000909190919091505582600001805490508360010160008481526020019081526020016000208190555060019050612997565b600090505b92915050565b60008083600101600084815260200190815260200160002054905060008114612aa55760006001826129cf91906137cd565b90506000600186600001805490506129e791906137cd565b9050818114612a56576000866000018281548110612a0857612a07613634565b5b9060005260206000200154905080876000018481548110612a2c57612a2b613634565b5b90600052602060002001819055508387600101600083815260200190815260200160002081905550505b85600001805480612a6a57612a69613b14565b5b600190038181906000526020600020016000905590558560010160008681526020019081526020016000206000905560019350505050612aab565b60009150505b92915050565b6000604051905090565b600080fd5b600080fd5b600073ffffffffffffffffffffffffffffffffffffffff82169050919050565b6000612af082612ac5565b9050919050565b612b0081612ae5565b8114612b0b57600080fd5b50565b600081359050612b1d81612af7565b92915050565b600060208284031215612b3957612b38612abb565b5b6000612b4784828501612b0e565b91505092915050565b60008115159050919050565b612b6581612b50565b82525050565b6000602082019050612b806000830184612b5c565b92915050565b6000819050919050565b612b9981612b86565b82525050565b600081519050919050565b600082825260208201905092915050565b6000819050602082019050919050565b612bd481612b86565b82525050565b6000612be68383612bcb565b60208301905092915050565b6000602082019050919050565b6000612c0a82612b9f565b612c148185612baa565b9350612c1f83612bbb565b8060005b83811015612c50578151612c378882612bda565b9750612c4283612bf2565b925050600181019050612c23565b5085935050505092915050565b6000604082019050612c726000830185612b90565b8181036020830152612c848184612bff565b90509392505050565b612c9681612b86565b8114612ca157600080fd5b50565b600081359050612cb381612c8d565b92915050565b60008060008060808587031215612cd357612cd2612abb565b5b6000612ce187828801612b0e565b9450506020612cf287828801612b0e565b9350506040612d0387828801612ca4565b9250506060612d1487828801612ca4565b91505092959194509250565b600060ff82169050919050565b612d3681612d20565b82525050565b6000602082019050612d516000830184612d2d565b92915050565b6000602082019050612d6c6000830184612b90565b92915050565b6000612d7d82612ae5565b9050919050565b612d8d81612d72565b8114612d9857600080fd5b50565b600081359050612daa81612d84565b92915050565b6000612dbb82612ae5565b9050919050565b612dcb81612db0565b8114612dd657600080fd5b50565b600081359050612de881612dc2565b92915050565b6000612df982612ae5565b9050919050565b612e0981612dee565b8114612e1457600080fd5b50565b600081359050612e2681612e00565b92915050565b6000612e3782612ae5565b9050919050565b612e4781612e2c565b8114612e5257600080fd5b50565b600081359050612e6481612e3e565b92915050565b60008060008060808587031215612e8457612e83612abb565b5b6000612e9287828801612d9b565b9450506020612ea387828801612dd9565b9350506040612eb487828801612e17565b9250506060612ec587828801612e55565b91505092959194509250565b600060208284031215612ee757612ee6612abb565b5b6000612ef584828501612ca4565b91505092915050565b60006020820190508181036000830152612f188184612bff565b905092915050565b6000819050919050565b6000612f45612f40612f3b84612ac5565b612f20565b612ac5565b9050919050565b6000612f5782612f2a565b9050919050565b6000612f6982612f4c565b9050919050565b612f7981612f5e565b82525050565b6000602082019050612f946000830184612f70565b92915050565b612fa381612ae5565b82525050565b6000602082019050612fbe6000830184612f9a565b92915050565b600080fd5b600080fd5b600080fd5b60008083601f840112612fe957612fe8612fc4565b5b8235905067ffffffffffffffff81111561300657613005612fc9565b5b60208301915083602082028301111561302257613021612fce565b5b9250929050565b6000806000806060858703121561304357613042612abb565b5b600061305187828801612b0e565b945050602085013567ffffffffffffffff81111561307257613071612ac0565b5b61307e87828801612fd3565b9350935050604061309187828801612ca4565b91505092959194509250565b6000806000606084860312156130b6576130b5612abb565b5b60006130c486828701612b0e565b93505060206130d586828701612b0e565b92505060406130e686828701612ca4565b9150509250925092565b60006130fb82612f4c565b9050919050565b61310b816130f0565b82525050565b60006020820190506131266000830184613102565b92915050565b600081519050919050565b600082825260208201905092915050565b6000819050602082019050919050565b61316181612ae5565b82525050565b60006131738383613158565b60208301905092915050565b6000602082019050919050565b60006131978261312c565b6131a18185613137565b93506131ac83613148565b8060005b838110156131dd5781516131c48882613167565b97506131cf8361317f565b9250506001810190506131b0565b5085935050505092915050565b60006020820190508181036000830152613204818461318c565b905092915050565b600061321782612f4c565b9050919050565b6132278161320c565b82525050565b6000602082019050613242600083018461321e565b92915050565b61325181612b50565b811461325c57600080fd5b50565b60008135905061326e81613248565b92915050565b6000806040838503121561328b5761328a612abb565b5b600061329985828601612b0e565b92505060206132aa8582860161325f565b9150509250929050565b60006132bf82612f4c565b9050919050565b6132cf816132b4565b82525050565b60006020820190506132ea60008301846132c6565b92915050565b7f4e487b7100000000000000000000000000000000000000000000000000000000600052604160045260246000fd5b60008151905061332e81612c8d565b92915050565b60006020828403121561334a57613349612abb565b5b60006133588482850161331f565b91505092915050565b61336a81612d20565b811461337557600080fd5b50565b60008151905061338781613361565b92915050565b600080604083850312156133a4576133a3612abb565b5b60006133b28582860161331f565b92505060206133c385828601613378565b9150509250929050565b7f4e487b7100000000000000000000000000000000000000000000000000000000600052601160045260246000fd5b60008160011c9050919050565b6000808291508390505b60018511156134535780860481111561342f5761342e6133cd565b5b600185161561343e5780820291505b808102905061344c856133fc565b9450613413565b94509492505050565b60008261346c5760019050613528565b8161347a5760009050613528565b8160018114613490576002811461349a576134c9565b6001915050613528565b60ff8411156134ac576134ab6133cd565b5b8360020a9150848211156134c3576134c26133cd565b5b50613528565b5060208310610133831016604e8410600b84101617156134fe5782820a9050838111156134f9576134f86133cd565b5b613528565b61350b8484846001613409565b92509050818404811115613522576135216133cd565b5b81810290505b9392505050565b600061353a82612b86565b915061354583612d20565b92506135727fffffffffffffffffffffffffffffffffffffffffffffffffffffffffffffffff848461345c565b905092915050565b600061358582612b86565b915061359083612b86565b9250817fffffffffffffffffffffffffffffffffffffffffffffffffffffffffffffffff04831182151516156135c9576135c86133cd565b5b828202905092915050565b7f4e487b7100000000000000000000000000000000000000000000000000000000600052601260045260246000fd5b600061360e82612b86565b915061361983612b86565b925082613629576136286135d4565b5b828204905092915050565b7f4e487b7100000000000000000000000000000000000000000000000000000000600052603260045260246000fd5b600061366e82612b86565b915061367983612b86565b9250827fffffffffffffffffffffffffffffffffffffffffffffffffffffffffffffffff038211156136ae576136ad6133cd565b5b828201905092915050565b60006136c482612b86565b91507fffffffffffffffffffffffffffffffffffffffffffffffffffffffffffffffff82036136f6576136f56133cd565b5b600182019050919050565b60006080820190506137166000830187612b90565b6137236020830186612b90565b6137306040830185612f9a565b61373d6060830184612f9a565b95945050505050565b600060808201905061375b6000830187613102565b6137686020830186612f70565b61377560408301856132c6565b613782606083018461321e565b95945050505050565b60008151905061379a81612af7565b92915050565b6000602082840312156137b6576137b5612abb565b5b60006137c48482850161378b565b91505092915050565b60006137d882612b86565b91506137e383612b86565b9250828210156137f6576137f56133cd565b5b828203905092915050565b60006020828403121561381757613816612abb565b5b600061382584828501613378565b91505092915050565b600080fd5b6000601f19601f8301169050919050565b61384d82613833565b810181811067ffffffffffffffff8211171561386c5761386b6132f0565b5b80604052505050565b600061387f612ab1565b905061388b8282613844565b919050565b6000606082840312156138a6576138a561382e565b5b6138b06060613875565b905060006138c08482850161331f565b60008301525060206138d48482850161331f565b60208301525060406138e88482850161378b565b60408301525092915050565b60006060828403121561390a57613909612abb565b5b600061391884828501613890565b91505092915050565b60006040820190506139366000830185612f9a565b6139436020830184612b90565b9392505050565b60008151905061395981613248565b92915050565b60006020828403121561397557613974612abb565b5b60006139838482850161394a565b91505092915050565b600082825260208201905092915050565b7f4f776e61626c653a206e6577206f776e657220697320746865207a65726f206160008201527f6464726573730000000000000000000000000000000000000000000000000000602082015250565b60006139f960268361398c565b9150613a048261399d565b604082019050919050565b60006020820190508181036000830152613a28816139ec565b9050919050565b7f4f776e61626c653a2063616c6c6572206973206e6f7420746865206f776e6572600082015250565b6000613a6560208361398c565b9150613a7082613a2f565b602082019050919050565b60006020820190508181036000830152613a9481613a58565b9050919050565b6000613aa682612d20565b9150613ab183612d20565b925082821015613ac457613ac36133cd565b5b828203905092915050565b6000608082019050613ae46000830187612b90565b613af16020830186612f9a565b613afe6040830185612f9a565b613b0b6060830184612f9a565b95945050505050565b7f4e487b7100000000000000000000000000000000000000000000000000000000600052603160045260246000fdfea2646970667358221220e37445e0077dad9d335046f78622b7e8cfe3db1bde665c2cdceb4d5191c98a0d64736f6c634300080f0033",
  "immutableReferences": {},
  "source": "//SPDX-License-Identifier: Unlicense\r\n\r\npragma solidity ^0.8.0;\r\n\r\nimport \"@openzeppelin/contracts/token/ERC20/IERC20.sol\";\r\nimport \"@openzeppelin/contracts/token/ERC20/ERC20.sol\";\r\nimport \"@openzeppelin/contracts/utils/structs/EnumerableSet.sol\";\r\nimport \"@openzeppelin/contracts/access/Ownable.sol\";\r\n// import \"@openzeppelin/contracts/proxy/utils/Initializable.sol\";\r\n// import \"@openzeppelin/contracts/proxy/utils/UUPS.sol\";\r\nimport \"@uniswap/v2-periphery/contracts/interfaces/IUniswapV2Router02.sol\";\r\nimport \"../interfaces/IStrategy.sol\";\r\nimport {ReceiptNFT} from \"./ReceiptNFT.sol\";\r\nimport {StrategyRouter} from \"./StrategyRouter.sol\";\r\nimport {Exchange} from \"../exchange/Exchange.sol\";\r\nimport \"../deps/EnumerableSetExtension.sol\";\r\nimport \"../interfaces/IUsdOracle.sol\";\r\n\r\n/// @notice This contract contains batch related code, serves as part of StrategyRouter.\r\n/// @notice This contract should be owned by StrategyRouter.\r\ncontract Batch is Ownable {\r\n    using EnumerableSet for EnumerableSet.AddressSet;\r\n    using EnumerableSetExtension for EnumerableSet.AddressSet;\r\n\r\n    /* ERRORS */\r\n\r\n    error AlreadySupportedToken();\r\n    error CantRemoveTokenOfActiveStrategy();\r\n    error UnsupportedToken();\r\n    error NotReceiptOwner();\r\n    error CycleClosed();\r\n    error DepositUnderMinimum();\r\n    error NotEnoughBalanceInBatch();\r\n    error CallerIsNotStrategyRouter();\r\n\r\n    /// @notice Fires when user withdraw from batch.\r\n    /// @param token Supported token that user requested to receive after withdraw.\r\n    /// @param amount Amount of `token` received by user.\r\n    event WithdrawFromBatch(address indexed user, address token, uint256 amount);\r\n    event SetAddresses(Exchange _exchange, IUsdOracle _oracle, StrategyRouter _router, ReceiptNFT _receiptNft);\r\n\r\n    uint8 public constant UNIFORM_DECIMALS = 18;\r\n    // used in rebalance function, UNIFORM_DECIMALS, so 1e17 == 0.1\r\n    uint256 public constant REBALANCE_SWAP_THRESHOLD = 1e17;\r\n\r\n    uint256 public minDeposit;\r\n\r\n    ReceiptNFT public receiptContract;\r\n    Exchange public exchange;\r\n    StrategyRouter public router;\r\n    IUsdOracle public oracle;\r\n\r\n    EnumerableSet.AddressSet private supportedTokens;\r\n\r\n    modifier onlyStrategyRouter() {\r\n        if (msg.sender != address(router)) revert CallerIsNotStrategyRouter();\r\n        _;\r\n    }\r\n\r\n    /// @custom:oz-upgrades-unsafe-allow constructor\r\n    constructor() {\r\n        // lock implementation\r\n        // _disableInitializers();\r\n    }\r\n\r\n    // function initialize() external initializer {\r\n    //     __Ownable_init();\r\n    //     __UUPSUpgradeable_init();\r\n    // }\r\n\r\n    function setAddresses(\r\n        Exchange _exchange,\r\n        IUsdOracle _oracle,\r\n        StrategyRouter _router,\r\n        ReceiptNFT _receiptNft\r\n    ) external onlyOwner {\r\n        exchange = _exchange;\r\n        oracle = _oracle;\r\n        router = _router;\r\n        receiptContract = _receiptNft;\r\n        emit SetAddresses(_exchange, _oracle, _router, _receiptNft);\r\n    }\r\n\r\n    // function _authorizeUpgrade(address newImplementation) internal override onlyOwner {}\r\n\r\n    // Universal Functions\r\n\r\n    function supportsToken(address tokenAddress) public view returns (bool) {\r\n        return supportedTokens.contains(tokenAddress);\r\n    }\r\n\r\n    /// @dev Returns list of supported tokens.\r\n    function getSupportedTokens() public view returns (address[] memory) {\r\n        return supportedTokens.values();\r\n    }\r\n\r\n    function getBatchValueUsd()\r\n        public\r\n        view\r\n        returns (uint256 totalBalanceUsd, uint256[] memory supportedTokenBalancesUsd)\r\n    {\r\n        supportedTokenBalancesUsd = new uint256[](supportedTokens.length());\r\n        for (uint256 i; i < supportedTokenBalancesUsd.length; i++) {\r\n            address token = supportedTokens.at(i);\r\n            uint256 balance = ERC20(token).balanceOf(address(this));\r\n\r\n            (uint256 price, uint8 priceDecimals) = oracle.getTokenUsdPrice(token);\r\n            balance = ((balance * price) / 10**priceDecimals);\r\n            balance = toUniform(balance, token);\r\n            supportedTokenBalancesUsd[i] = balance;\r\n            totalBalanceUsd += balance;\r\n        }\r\n    }\r\n\r\n    // User Functions\r\n\r\n    /// @notice Withdraw tokens from batch while receipts are in batch.\r\n    /// @notice Receipts are burned.\r\n    /// @param receiptIds Receipt NFTs ids.\r\n    /// @dev Only callable by user wallets.\r\n    function withdraw(\r\n        address receiptOwner,\r\n        uint256[] calldata receiptIds,\r\n        uint256 _currentCycleId\r\n    ) public onlyStrategyRouter {\r\n        for (uint256 i = 0; i < receiptIds.length; i++) {\r\n            uint256 receiptId = receiptIds[i];\r\n            if (receiptContract.ownerOf(receiptId) != receiptOwner) revert NotReceiptOwner();\r\n\r\n            ReceiptNFT.ReceiptData memory receipt = receiptContract.getReceipt(receiptId);\r\n\r\n            // only for receipts in current batch\r\n            if (receipt.cycleId != _currentCycleId) revert CycleClosed();\r\n\r\n            uint256 transferAmount = fromUniform(receipt.tokenAmountUniform, receipt.token);\r\n            ERC20(receipt.token).transfer(receiptOwner, transferAmount);\r\n            receiptContract.burn(receiptId);\r\n            emit WithdrawFromBatch(msg.sender, receipt.token, transferAmount);\r\n        }\r\n    }\r\n\r\n    /// @notice converting token USD amount to token amount, i.e $1000 worth of token with price of $0.5 is 2000 tokens\r\n    function calculateTokenAmountFromUsdAmount(uint256 valueUsd, address token)\r\n        internal\r\n        view\r\n        returns (uint256 tokenAmountToTransfer)\r\n    {\r\n        (uint256 tokenUsdPrice, uint8 oraclePriceDecimals) = oracle.getTokenUsdPrice(token);\r\n        tokenAmountToTransfer = (valueUsd * 10**oraclePriceDecimals) / tokenUsdPrice;\r\n        tokenAmountToTransfer = fromUniform(tokenAmountToTransfer, token);\r\n    }\r\n\r\n    /// @notice Deposit token into batch.\r\n    /// @notice Tokens not deposited into strategies immediately.\r\n    /// @param depositToken Supported token to deposit (Must be an NFT).\r\n    /// @param _amount Amount to deposit.\r\n    /// @dev User should approve `_amount` of `depositToken` to this contract.\r\n    /// @dev Only callable by user wallets.\r\n    function deposit(\r\n        address depositor,\r\n        address depositToken,\r\n        uint256 _amount,\r\n        uint256 _currentCycleId\r\n    ) external onlyStrategyRouter {\r\n        if (!supportsToken(depositToken)) revert UnsupportedToken();\r\n        (uint256 price, uint8 priceDecimals) = oracle.getTokenUsdPrice(depositToken);\r\n        uint256 depositedUsd = toUniform((_amount * price) / 10**priceDecimals, depositToken);\r\n        if (minDeposit > depositedUsd) revert DepositUnderMinimum();\r\n\r\n        uint256 amountUniform = toUniform(_amount, depositToken);\r\n\r\n        receiptContract.mint(_currentCycleId, amountUniform, depositToken, depositor);\r\n    }\r\n\r\n    function transfer(\r\n        address token,\r\n        address to,\r\n        uint256 amount\r\n    ) external onlyStrategyRouter {\r\n        ERC20(token).transfer(to, amount);\r\n    }\r\n\r\n    // Admin functions\r\n\r\n    /// @notice Minimum to be deposited in the batch.\r\n    /// @param amount Amount of usd, must be `UNIFORM_DECIMALS` decimals.\r\n    /// @dev Admin function.\r\n    function setMinDepositUsd(uint256 amount) external onlyStrategyRouter {\r\n        minDeposit = amount;\r\n    }\r\n\r\n    /// @notice Rebalance batch, so that token balances will match strategies weight.\r\n    /// @return balances Amounts to be deposited in strategies, balanced according to strategies weights.\r\n    function rebalance() public onlyStrategyRouter returns (uint256[] memory balances) {\r\n        /*\r\n        1 store supported-tokens (set of unique addresses)\r\n            [a,b,c]\r\n        2 store their balances\r\n            [10, 6, 8]\r\n        3 store their sum with uniform decimals\r\n            24\r\n        4 create array of length = supported_tokens + strategies_tokens (e.g. [a])\r\n            [a, b, c] + [a] = 4\r\n        5 store in that array balances from step 2, duplicated tokens should be ignored\r\n            [10, 0, 6, 8] (instead of [10,10...] we got [10,0...] because first two are both token a)\r\n        6a get desired balance for every strategy using their weights\r\n            [12, 0, 4.8, 7.2] (our 1st strategy will get 50%, 2nd and 3rd will get 20% and 30% respectively)\r\n        6b store amounts that we need to sell or buy for each balance in order to match desired balances\r\n            toSell [0, 0, 1.2, 0.8]\r\n            toBuy  [2, 0, 0, 0]\r\n            these arrays contain amounts with tokens' original decimals\r\n        7 now sell 'toSell' amounts of respective tokens for 'toBuy' tokens\r\n            (token to amount connection is derived by index in the array)\r\n            (also track new strategies balances for cases where 1 token is shared by multiple strategies)\r\n        */\r\n        uint256 totalInBatch;\r\n\r\n        // point 1\r\n        uint256 supportedTokensCount = supportedTokens.length();\r\n        address[] memory _tokens = new address[](supportedTokensCount);\r\n        uint256[] memory _balances = new uint256[](supportedTokensCount);\r\n\r\n        // point 2\r\n        for (uint256 i; i < supportedTokensCount; i++) {\r\n            _tokens[i] = supportedTokens.at(i);\r\n            _balances[i] = ERC20(_tokens[i]).balanceOf(address(this));\r\n\r\n            // point 3\r\n            totalInBatch += toUniform(_balances[i], _tokens[i]);\r\n        }\r\n\r\n        // point 4\r\n        uint256 strategiesCount = router.getStrategiesCount();\r\n\r\n        uint256[] memory _strategiesAndSupportedTokensBalances = new uint256[](strategiesCount + supportedTokensCount);\r\n\r\n        // point 5\r\n        // We fill in strategies balances with tokens that strategies are accepting and ignoring duplicates\r\n        for (uint256 i; i < strategiesCount; i++) {\r\n            address depositToken = router.getStrategyDepositToken(i);\r\n            for (uint256 j; j < supportedTokensCount; j++) {\r\n                if (depositToken == _tokens[j] && _balances[j] > 0) {\r\n                    _strategiesAndSupportedTokensBalances[i] = _balances[j];\r\n                    _balances[j] = 0;\r\n                    break;\r\n                }\r\n            }\r\n        }\r\n\r\n        // we fill in strategies balances with balances of remaining tokens that are supported as deposits but are not\r\n        // accepted in strategies\r\n        for (uint256 i = strategiesCount; i < _strategiesAndSupportedTokensBalances.length; i++) {\r\n            _strategiesAndSupportedTokensBalances[i] = _balances[i - strategiesCount];\r\n        }\r\n\r\n        // point 6a\r\n        uint256[] memory toBuy = new uint256[](strategiesCount);\r\n        uint256[] memory toSell = new uint256[](_strategiesAndSupportedTokensBalances.length);\r\n        for (uint256 i; i < strategiesCount; i++) {\r\n            uint256 desiredBalance = (totalInBatch * router.getStrategyPercentWeight(i)) / 1e18;\r\n            desiredBalance = fromUniform(desiredBalance, router.getStrategyDepositToken(i));\r\n            // we skip safemath check since we already do comparison in if clauses\r\n            unchecked {\r\n                // point 6b\r\n                if (desiredBalance > _strategiesAndSupportedTokensBalances[i]) {\r\n                    toBuy[i] = desiredBalance - _strategiesAndSupportedTokensBalances[i];\r\n                } else if (desiredBalance < _strategiesAndSupportedTokensBalances[i]) {\r\n                    toSell[i] = _strategiesAndSupportedTokensBalances[i] - desiredBalance;\r\n                }\r\n            }\r\n        }\r\n\r\n        // point 7\r\n        // all tokens we accept to deposit but are not part of strategies therefore we are going to swap them\r\n        // to tokens that strategies are accepting\r\n        for (uint256 i = strategiesCount; i < _strategiesAndSupportedTokensBalances.length; i++) {\r\n            toSell[i] = _strategiesAndSupportedTokensBalances[i];\r\n        }\r\n\r\n        for (uint256 i; i < _strategiesAndSupportedTokensBalances.length; i++) {\r\n            for (uint256 j; j < strategiesCount; j++) {\r\n                // if we are not going to buy this token (nothing to sell), we simply skip to the next one\r\n                // if we can sell this token we go into swap routine\r\n                // we proceed to swap routine if there is some tokens to buy and some tokens sell\r\n                // if found which token to buy and which token to sell we proceed to swap routine\r\n                if (toSell[i] > 0 && toBuy[j] > 0) {\r\n                    // if toSell's 'i' greater than strats-1 (e.g. strats 2, tokens 2, i=2, 2>2-1==true)\r\n                    // then take supported_token[2-2=0]\r\n                    // otherwise take strategy_token[0 or 1]\r\n                    address sellToken = i > strategiesCount - 1\r\n                        ? _tokens[i - strategiesCount]\r\n                        : router.getStrategyDepositToken(i);\r\n                    address buyToken = router.getStrategyDepositToken(j);\r\n\r\n                    uint256 toSellUniform = toUniform(toSell[i], sellToken);\r\n                    uint256 toBuyUniform = toUniform(toBuy[j], buyToken);\r\n                    /*\r\n                    Weight of strategies is in token amount not usd equivalent\r\n                    In case of stablecoin depeg an administrative decision will be made to move out of the strategy\r\n                    that has exposure to depegged stablecoin.\r\n                    curSell should have sellToken decimals\r\n                    */\r\n                    uint256 curSell = toSellUniform > toBuyUniform\r\n                        ? changeDecimals(toBuyUniform, UNIFORM_DECIMALS, ERC20(sellToken).decimals())\r\n                        : toSell[i];\r\n\r\n                    // no need to swap small amounts\r\n                    if (toUniform(curSell, sellToken) < REBALANCE_SWAP_THRESHOLD) {\r\n                        toSell[i] = 0;\r\n                        toBuy[j] -= changeDecimals(curSell, ERC20(sellToken).decimals(), ERC20(buyToken).decimals());\r\n                        break;\r\n                    }\r\n                    uint256 received = _trySwap(curSell, sellToken, buyToken);\r\n\r\n                    _strategiesAndSupportedTokensBalances[i] -= curSell;\r\n                    _strategiesAndSupportedTokensBalances[j] += received;\r\n                    toSell[i] -= curSell;\r\n                    toBuy[j] -= changeDecimals(curSell, ERC20(sellToken).decimals(), ERC20(buyToken).decimals());\r\n                }\r\n            }\r\n        }\r\n\r\n        _balances = new uint256[](strategiesCount);\r\n        for (uint256 i; i < strategiesCount; i++) {\r\n            _balances[i] = _strategiesAndSupportedTokensBalances[i];\r\n        }\r\n\r\n        return _balances;\r\n    }\r\n\r\n    /// @notice Set token as supported for user deposit and withdraw.\r\n    /// @dev Admin function.\r\n    function setSupportedToken(address tokenAddress, bool supported) external onlyStrategyRouter {\r\n        if (supported && supportsToken(tokenAddress)) revert AlreadySupportedToken();\r\n\r\n        if (supported) {\r\n            supportedTokens.add(tokenAddress);\r\n        } else {\r\n            uint8 len = uint8(router.getStrategiesCount());\r\n            // don't remove tokens that are in use by active strategies\r\n            for (uint256 i = 0; i < len; i++) {\r\n                if (router.getStrategyDepositToken(i) == tokenAddress) {\r\n                    revert CantRemoveTokenOfActiveStrategy();\r\n                }\r\n            }\r\n            supportedTokens.remove(tokenAddress);\r\n        }\r\n    }\r\n\r\n    // Internals\r\n\r\n    /// @dev Change decimal places of number from `oldDecimals` to `newDecimals`.\r\n    function changeDecimals(\r\n        uint256 amount,\r\n        uint8 oldDecimals,\r\n        uint8 newDecimals\r\n    ) private pure returns (uint256) {\r\n        if (oldDecimals < newDecimals) {\r\n            return amount * (10**(newDecimals - oldDecimals));\r\n        } else if (oldDecimals > newDecimals) {\r\n            return amount / (10**(oldDecimals - newDecimals));\r\n        }\r\n        return amount;\r\n    }\r\n\r\n    /// @dev Swap tokens if they are different (i.e. not the same token)\r\n    function _trySwap(\r\n        uint256 amount, // tokenFromAmount\r\n        address from, // tokenFrom\r\n        address to // tokenTo\r\n    ) private returns (uint256 result) {\r\n        if (from != to) {\r\n            IERC20(from).transfer(address(exchange), amount);\r\n            result = exchange.swap(amount, from, to, address(this));\r\n            return result;\r\n        }\r\n        return amount;\r\n    }\r\n\r\n    /// @dev Change decimal places from token decimals to `UNIFORM_DECIMALS`.\r\n    function toUniform(uint256 amount, address token) private view returns (uint256) {\r\n        return changeDecimals(amount, ERC20(token).decimals(), UNIFORM_DECIMALS);\r\n    }\r\n\r\n    /// @dev Convert decimal places from `UNIFORM_DECIMALS` to token decimals.\r\n    function fromUniform(uint256 amount, address token) private view returns (uint256) {\r\n        return changeDecimals(amount, UNIFORM_DECIMALS, ERC20(token).decimals());\r\n    }\r\n}\r\n",
  "sourcePath": "C:\\Users\\FVO_MMILLLER\\Desktop\\elvolution\\Testers\\contracts\\main\\Batch.sol",
  "compiler": {
    "name": "solc",
    "version": "0.8.15+commit.e14f2714.Emscripten.clang"
  },
  "schemaVersion": "3.4.8",
  "updatedAt": "2022-09-08T16:23:09.262Z",
  "devdoc": {
    "events": {
      "WithdrawFromBatch(address,address,uint256)": {
        "params": {
          "amount": "Amount of `token` received by user.",
          "token": "Supported token that user requested to receive after withdraw."
        }
      }
    },
    "kind": "dev",
    "methods": {
      "constructor": {
        "custom:oz-upgrades-unsafe-allow": "constructor"
      },
      "deposit(address,address,uint256,uint256)": {
        "details": "User should approve `_amount` of `depositToken` to this contract.Only callable by user wallets.",
        "params": {
          "_amount": "Amount to deposit.",
          "depositToken": "Supported token to deposit (Must be an NFT)."
        }
      },
      "getSupportedTokens()": {
        "details": "Returns list of supported tokens."
      },
      "owner()": {
        "details": "Returns the address of the current owner."
      },
      "rebalance()": {
        "returns": {
          "balances": "Amounts to be deposited in strategies, balanced according to strategies weights."
        }
      },
      "renounceOwnership()": {
        "details": "Leaves the contract without owner. It will not be possible to call `onlyOwner` functions anymore. Can only be called by the current owner. NOTE: Renouncing ownership will leave the contract without an owner, thereby removing any functionality that is only available to the owner."
      },
      "setMinDepositUsd(uint256)": {
        "details": "Admin function.",
        "params": {
          "amount": "Amount of usd, must be `UNIFORM_DECIMALS` decimals."
        }
      },
      "setSupportedToken(address,bool)": {
        "details": "Admin function."
      },
      "transferOwnership(address)": {
        "details": "Transfers ownership of the contract to a new account (`newOwner`). Can only be called by the current owner."
      },
      "withdraw(address,uint256[],uint256)": {
        "details": "Only callable by user wallets.",
        "params": {
          "receiptIds": "Receipt NFTs ids."
        }
      }
    },
    "version": 1
  },
  "userdoc": {
    "events": {
      "WithdrawFromBatch(address,address,uint256)": {
        "notice": "Fires when user withdraw from batch."
      }
    },
    "kind": "user",
    "methods": {
      "deposit(address,address,uint256,uint256)": {
        "notice": "Deposit token into batch.Tokens not deposited into strategies immediately."
      },
      "rebalance()": {
        "notice": "Rebalance batch, so that token balances will match strategies weight."
      },
      "setMinDepositUsd(uint256)": {
        "notice": "Minimum to be deposited in the batch."
      },
      "setSupportedToken(address,bool)": {
        "notice": "Set token as supported for user deposit and withdraw."
      },
      "withdraw(address,uint256[],uint256)": {
        "notice": "Withdraw tokens from batch while receipts are in batch.Receipts are burned."
      }
    },
    "notice": "This contract contains batch related code, serves as part of StrategyRouter.This contract should be owned by StrategyRouter.",
    "version": 1
  }
}