{
  "contractName": "ChainlinkOracle",
  "abi": [
    {
      "inputs": [],
      "stateMutability": "nonpayable",
      "type": "constructor"
    },
    {
      "inputs": [],
      "name": "BadPrice",
      "type": "error"
    },
    {
      "inputs": [],
      "name": "StaleChainlinkPrice",
      "type": "error"
    },
    {
      "anonymous": false,
      "inputs": [
        {
          "indexed": false,
          "internalType": "address",
          "name": "previousAdmin",
          "type": "address"
        },
        {
          "indexed": false,
          "internalType": "address",
          "name": "newAdmin",
          "type": "address"
        }
      ],
      "name": "AdminChanged",
      "type": "event"
    },
    {
      "anonymous": false,
      "inputs": [
        {
          "indexed": true,
          "internalType": "address",
          "name": "beacon",
          "type": "address"
        }
      ],
      "name": "BeaconUpgraded",
      "type": "event"
    },
    {
      "anonymous": false,
      "inputs": [
        {
          "indexed": false,
          "internalType": "uint8",
          "name": "version",
          "type": "uint8"
        }
      ],
      "name": "Initialized",
      "type": "event"
    },
    {
      "anonymous": false,
      "inputs": [
        {
          "indexed": true,
          "internalType": "address",
          "name": "previousOwner",
          "type": "address"
        },
        {
          "indexed": true,
          "internalType": "address",
          "name": "newOwner",
          "type": "address"
        }
      ],
      "name": "OwnershipTransferred",
      "type": "event"
    },
    {
      "anonymous": false,
      "inputs": [
        {
          "indexed": true,
          "internalType": "address",
          "name": "implementation",
          "type": "address"
        }
      ],
      "name": "Upgraded",
      "type": "event"
    },
    {
      "inputs": [
        {
          "internalType": "address",
          "name": "",
          "type": "address"
        }
      ],
      "name": "feeds",
      "outputs": [
        {
          "internalType": "address",
          "name": "",
          "type": "address"
        }
      ],
      "stateMutability": "view",
      "type": "function"
    },
    {
      "inputs": [],
      "name": "owner",
      "outputs": [
        {
          "internalType": "address",
          "name": "",
          "type": "address"
        }
      ],
      "stateMutability": "view",
      "type": "function"
    },
    {
      "inputs": [],
      "name": "proxiableUUID",
      "outputs": [
        {
          "internalType": "bytes32",
          "name": "",
          "type": "bytes32"
        }
      ],
      "stateMutability": "view",
      "type": "function"
    },
    {
      "inputs": [],
      "name": "renounceOwnership",
      "outputs": [],
      "stateMutability": "nonpayable",
      "type": "function"
    },
    {
      "inputs": [
        {
          "internalType": "address",
          "name": "newOwner",
          "type": "address"
        }
      ],
      "name": "transferOwnership",
      "outputs": [],
      "stateMutability": "nonpayable",
      "type": "function"
    },
    {
      "inputs": [
        {
          "internalType": "address",
          "name": "newImplementation",
          "type": "address"
        }
      ],
      "name": "upgradeTo",
      "outputs": [],
      "stateMutability": "nonpayable",
      "type": "function"
    },
    {
      "inputs": [
        {
          "internalType": "address",
          "name": "newImplementation",
          "type": "address"
        },
        {
          "internalType": "bytes",
          "name": "data",
          "type": "bytes"
        }
      ],
      "name": "upgradeToAndCall",
      "outputs": [],
      "stateMutability": "payable",
      "type": "function"
    },
    {
      "inputs": [],
      "name": "initialize",
      "outputs": [],
      "stateMutability": "nonpayable",
      "type": "function"
    },
    {
      "inputs": [
        {
          "internalType": "address[]",
          "name": "token",
          "type": "address[]"
        },
        {
          "internalType": "address[]",
          "name": "feed",
          "type": "address[]"
        }
      ],
      "name": "setPriceFeeds",
      "outputs": [],
      "stateMutability": "nonpayable",
      "type": "function"
    },
    {
      "inputs": [
        {
          "internalType": "address",
          "name": "base",
          "type": "address"
        }
      ],
      "name": "getTokenUsdPrice",
      "outputs": [
        {
          "internalType": "uint256",
          "name": "price",
          "type": "uint256"
        },
        {
          "internalType": "uint8",
          "name": "decimals",
          "type": "uint8"
        }
      ],
      "stateMutability": "view",
      "type": "function"
    }
  ],
  "bytecode": "0x60a06040523073ffffffffffffffffffffffffffffffffffffffff1660809073ffffffffffffffffffffffffffffffffffffffff168152503480156200004457600080fd5b50620000556200005b60201b60201c565b62000206565b600060019054906101000a900460ff1615620000ae576040517f08c379a0000000000000000000000000000000000000000000000000000000008152600401620000a590620001a9565b60405180910390fd5b60ff801660008054906101000a900460ff1660ff161015620001205760ff6000806101000a81548160ff021916908360ff1602179055507f7f26b83ff96e1f2b6a682f133852f6798a09c465da95921460cefb384740249860ff604051620001179190620001e9565b60405180910390a15b565b600082825260208201905092915050565b7f496e697469616c697a61626c653a20636f6e747261637420697320696e69746960008201527f616c697a696e6700000000000000000000000000000000000000000000000000602082015250565b60006200019160278362000122565b91506200019e8262000133565b604082019050919050565b60006020820190508181036000830152620001c48162000182565b9050919050565b600060ff82169050919050565b620001e381620001cb565b82525050565b6000602082019050620002006000830184620001d8565b92915050565b6080516120066200023e6000396000818161043d015281816104cb015281816105c501528181610653015261070301526120066000f3fe6080604052600436106100905760003560e01c8063715018a611610059578063715018a6146101805780638129fc1c146101975780638da5cb5b146101ae57806392aeb53a146101d9578063f2fde38b1461020257610090565b8062593bcf146100955780632fba4aa9146100d35780633659cfe6146101105780634f1ef2861461013957806352d1902d14610155575b600080fd5b3480156100a157600080fd5b506100bc60048036038101906100b7919061120a565b61022b565b6040516100ca92919061126c565b60405180910390f35b3480156100df57600080fd5b506100fa60048036038101906100f5919061120a565b610408565b60405161010791906112a4565b60405180910390f35b34801561011c57600080fd5b506101376004803603810190610132919061120a565b61043b565b005b610153600480360381019061014e9190611405565b6105c3565b005b34801561016157600080fd5b5061016a6106ff565b604051610177919061147a565b60405180910390f35b34801561018c57600080fd5b506101956107b8565b005b3480156101a357600080fd5b506101ac6107cc565b005b3480156101ba57600080fd5b506101c3610912565b6040516101d091906112a4565b60405180910390f35b3480156101e557600080fd5b5061020060048036038101906101fb91906114f5565b61093c565b005b34801561020e57600080fd5b506102296004803603810190610224919061120a565b610a38565b005b600080600060c960008573ffffffffffffffffffffffffffffffffffffffff1673ffffffffffffffffffffffffffffffffffffffff16815260200190815260200160002060009054906101000a900473ffffffffffffffffffffffffffffffffffffffff1690506000808273ffffffffffffffffffffffffffffffffffffffff1663feaf968c6040518163ffffffff1660e01b815260040160a060405180830381865afa1580156102e0573d6000803e3d6000fd5b505050506040513d601f19601f82011682018060405250810190610304919061161a565b50935050925050620151804261031a91906116c4565b8111610352576040517f3c7d145900000000000000000000000000000000000000000000000000000000815260040160405180910390fd5b6000821361038c576040517ffd1ee34900000000000000000000000000000000000000000000000000000000815260040160405180910390fd5b818373ffffffffffffffffffffffffffffffffffffffff1663313ce5676040518163ffffffff1660e01b8152600401602060405180830381865afa1580156103d8573d6000803e3d6000fd5b505050506040513d601f19601f820116820180604052508101906103fc9190611724565b94509450505050915091565b60c96020528060005260406000206000915054906101000a900473ffffffffffffffffffffffffffffffffffffffff1681565b7f000000000000000000000000000000000000000000000000000000000000000073ffffffffffffffffffffffffffffffffffffffff163073ffffffffffffffffffffffffffffffffffffffff16036104c9576040517f08c379a00000000000000000000000000000000000000000000000000000000081526004016104c0906117d4565b60405180910390fd5b7f000000000000000000000000000000000000000000000000000000000000000073ffffffffffffffffffffffffffffffffffffffff16610508610abb565b73ffffffffffffffffffffffffffffffffffffffff161461055e576040517f08c379a000000000000000000000000000000000000000000000000000000000815260040161055590611866565b60405180910390fd5b61056781610b12565b6105c081600067ffffffffffffffff811115610586576105856112da565b5b6040519080825280601f01601f1916602001820160405280156105b85781602001600182028036833780820191505090505b506000610b1d565b50565b7f000000000000000000000000000000000000000000000000000000000000000073ffffffffffffffffffffffffffffffffffffffff163073ffffffffffffffffffffffffffffffffffffffff1603610651576040517f08c379a0000000000000000000000000000000000000000000000000000000008152600401610648906117d4565b60405180910390fd5b7f000000000000000000000000000000000000000000000000000000000000000073ffffffffffffffffffffffffffffffffffffffff16610690610abb565b73ffffffffffffffffffffffffffffffffffffffff16146106e6576040517f08c379a00000000000000000000000000000000000000000000000000000000081526004016106dd90611866565b60405180910390fd5b6106ef82610b12565b6106fb82826001610b1d565b5050565b60007f000000000000000000000000000000000000000000000000000000000000000073ffffffffffffffffffffffffffffffffffffffff163073ffffffffffffffffffffffffffffffffffffffff161461078f576040517f08c379a0000000000000000000000000000000000000000000000000000000008152600401610786906118f8565b60405180910390fd5b7f360894a13ba1a3210667c828492db98dca3e2076cc3735a920a3ca505d382bbc60001b905090565b6107c0610c8b565b6107ca6000610d09565b565b60008060019054906101000a900460ff161590508080156107fd5750600160008054906101000a900460ff1660ff16105b8061082a575061080c30610dcf565b1580156108295750600160008054906101000a900460ff1660ff16145b5b610869576040517f08c379a00000000000000000000000000000000000000000000000000000000081526004016108609061198a565b60405180910390fd5b60016000806101000a81548160ff021916908360ff16021790555080156108a6576001600060016101000a81548160ff0219169083151502179055505b6108ae610df2565b6108b6610e4b565b801561090f5760008060016101000a81548160ff0219169083151502179055507f7f26b83ff96e1f2b6a682f133852f6798a09c465da95921460cefb3847402498600160405161090691906119ef565b60405180910390a15b50565b6000609760009054906101000a900473ffffffffffffffffffffffffffffffffffffffff16905090565b610944610c8b565b60005b84849050811015610a315782828281811061096557610964611a0a565b5b905060200201602081019061097a919061120a565b60c9600087878581811061099157610990611a0a565b5b90506020020160208101906109a6919061120a565b73ffffffffffffffffffffffffffffffffffffffff1673ffffffffffffffffffffffffffffffffffffffff16815260200190815260200160002060006101000a81548173ffffffffffffffffffffffffffffffffffffffff021916908373ffffffffffffffffffffffffffffffffffffffff1602179055508080610a2990611a39565b915050610947565b5050505050565b610a40610c8b565b600073ffffffffffffffffffffffffffffffffffffffff168173ffffffffffffffffffffffffffffffffffffffff1603610aaf576040517f08c379a0000000000000000000000000000000000000000000000000000000008152600401610aa690611af3565b60405180910390fd5b610ab881610d09565b50565b6000610ae97f360894a13ba1a3210667c828492db98dca3e2076cc3735a920a3ca505d382bbc60001b610e9c565b60000160009054906101000a900473ffffffffffffffffffffffffffffffffffffffff16905090565b610b1a610c8b565b50565b610b497f4910fdfa16fed3260ed0e7147f7cc6da11a60208b5b9406d12a635614ffd914360001b610ea6565b60000160009054906101000a900460ff1615610b6d57610b6883610eb0565b610c86565b8273ffffffffffffffffffffffffffffffffffffffff166352d1902d6040518163ffffffff1660e01b8152600401602060405180830381865afa925050508015610bd557506040513d601f19601f82011682018060405250810190610bd29190611b3f565b60015b610c14576040517f08c379a0000000000000000000000000000000000000000000000000000000008152600401610c0b90611bde565b60405180910390fd5b7f360894a13ba1a3210667c828492db98dca3e2076cc3735a920a3ca505d382bbc60001b8114610c79576040517f08c379a0000000000000000000000000000000000000000000000000000000008152600401610c7090611c70565b60405180910390fd5b50610c85838383610f69565b5b505050565b610c93610f95565b73ffffffffffffffffffffffffffffffffffffffff16610cb1610912565b73ffffffffffffffffffffffffffffffffffffffff1614610d07576040517f08c379a0000000000000000000000000000000000000000000000000000000008152600401610cfe90611cdc565b60405180910390fd5b565b6000609760009054906101000a900473ffffffffffffffffffffffffffffffffffffffff16905081609760006101000a81548173ffffffffffffffffffffffffffffffffffffffff021916908373ffffffffffffffffffffffffffffffffffffffff1602179055508173ffffffffffffffffffffffffffffffffffffffff168173ffffffffffffffffffffffffffffffffffffffff167f8be0079c531659141344cd1fd0a4f28419497f9722a3daafe3b4186f6b6457e060405160405180910390a35050565b6000808273ffffffffffffffffffffffffffffffffffffffff163b119050919050565b600060019054906101000a900460ff16610e41576040517f08c379a0000000000000000000000000000000000000000000000000000000008152600401610e3890611d6e565b60405180910390fd5b610e49610f9d565b565b600060019054906101000a900460ff16610e9a576040517f08c379a0000000000000000000000000000000000000000000000000000000008152600401610e9190611d6e565b60405180910390fd5b565b6000819050919050565b6000819050919050565b610eb981610dcf565b610ef8576040517f08c379a0000000000000000000000000000000000000000000000000000000008152600401610eef90611e00565b60405180910390fd5b80610f257f360894a13ba1a3210667c828492db98dca3e2076cc3735a920a3ca505d382bbc60001b610e9c565b60000160006101000a81548173ffffffffffffffffffffffffffffffffffffffff021916908373ffffffffffffffffffffffffffffffffffffffff16021790555050565b610f7283610ffe565b600082511180610f7f5750805b15610f9057610f8e838361104d565b505b505050565b600033905090565b600060019054906101000a900460ff16610fec576040517f08c379a0000000000000000000000000000000000000000000000000000000008152600401610fe390611d6e565b60405180910390fd5b610ffc610ff7610f95565b610d09565b565b61100781610eb0565b8073ffffffffffffffffffffffffffffffffffffffff167fbc7cd75a20ee27fd9adebab32041f755214dbc6bffa90cc0225b39da2e5c2d3b60405160405180910390a250565b606061105883610dcf565b611097576040517f08c379a000000000000000000000000000000000000000000000000000000000815260040161108e90611e92565b60405180910390fd5b6000808473ffffffffffffffffffffffffffffffffffffffff16846040516110bf9190611f2c565b600060405180830381855af49150503d80600081146110fa576040519150601f19603f3d011682016040523d82523d6000602084013e6110ff565b606091505b50915091506111278282604051806060016040528060278152602001611faa60279139611131565b9250505092915050565b6060831561114157829050611191565b6000835111156111545782518084602001fd5b816040517f08c379a00000000000000000000000000000000000000000000000000000000081526004016111889190611f87565b60405180910390fd5b9392505050565b6000604051905090565b600080fd5b600080fd5b600073ffffffffffffffffffffffffffffffffffffffff82169050919050565b60006111d7826111ac565b9050919050565b6111e7816111cc565b81146111f257600080fd5b50565b600081359050611204816111de565b92915050565b6000602082840312156112205761121f6111a2565b5b600061122e848285016111f5565b91505092915050565b6000819050919050565b61124a81611237565b82525050565b600060ff82169050919050565b61126681611250565b82525050565b60006040820190506112816000830185611241565b61128e602083018461125d565b9392505050565b61129e816111cc565b82525050565b60006020820190506112b96000830184611295565b92915050565b600080fd5b600080fd5b6000601f19601f8301169050919050565b7f4e487b7100000000000000000000000000000000000000000000000000000000600052604160045260246000fd5b611312826112c9565b810181811067ffffffffffffffff82111715611331576113306112da565b5b80604052505050565b6000611344611198565b90506113508282611309565b919050565b600067ffffffffffffffff8211156113705761136f6112da565b5b611379826112c9565b9050602081019050919050565b82818337600083830152505050565b60006113a86113a384611355565b61133a565b9050828152602081018484840111156113c4576113c36112c4565b5b6113cf848285611386565b509392505050565b600082601f8301126113ec576113eb6112bf565b5b81356113fc848260208601611395565b91505092915050565b6000806040838503121561141c5761141b6111a2565b5b600061142a858286016111f5565b925050602083013567ffffffffffffffff81111561144b5761144a6111a7565b5b611457858286016113d7565b9150509250929050565b6000819050919050565b61147481611461565b82525050565b600060208201905061148f600083018461146b565b92915050565b600080fd5b600080fd5b60008083601f8401126114b5576114b46112bf565b5b8235905067ffffffffffffffff8111156114d2576114d1611495565b5b6020830191508360208202830111156114ee576114ed61149a565b5b9250929050565b6000806000806040858703121561150f5761150e6111a2565b5b600085013567ffffffffffffffff81111561152d5761152c6111a7565b5b6115398782880161149f565b9450945050602085013567ffffffffffffffff81111561155c5761155b6111a7565b5b6115688782880161149f565b925092505092959194509250565b600069ffffffffffffffffffff82169050919050565b61159581611576565b81146115a057600080fd5b50565b6000815190506115b28161158c565b92915050565b6000819050919050565b6115cb816115b8565b81146115d657600080fd5b50565b6000815190506115e8816115c2565b92915050565b6115f781611237565b811461160257600080fd5b50565b600081519050611614816115ee565b92915050565b600080600080600060a08688031215611636576116356111a2565b5b6000611644888289016115a3565b9550506020611655888289016115d9565b945050604061166688828901611605565b935050606061167788828901611605565b9250506080611688888289016115a3565b9150509295509295909350565b7f4e487b7100000000000000000000000000000000000000000000000000000000600052601160045260246000fd5b60006116cf82611237565b91506116da83611237565b9250828210156116ed576116ec611695565b5b828203905092915050565b61170181611250565b811461170c57600080fd5b50565b60008151905061171e816116f8565b92915050565b60006020828403121561173a576117396111a2565b5b60006117488482850161170f565b91505092915050565b600082825260208201905092915050565b7f46756e6374696f6e206d7573742062652063616c6c6564207468726f7567682060008201527f64656c656761746563616c6c0000000000000000000000000000000000000000602082015250565b60006117be602c83611751565b91506117c982611762565b604082019050919050565b600060208201905081810360008301526117ed816117b1565b9050919050565b7f46756e6374696f6e206d7573742062652063616c6c6564207468726f7567682060008201527f6163746976652070726f78790000000000000000000000000000000000000000602082015250565b6000611850602c83611751565b915061185b826117f4565b604082019050919050565b6000602082019050818103600083015261187f81611843565b9050919050565b7f555550535570677261646561626c653a206d757374206e6f742062652063616c60008201527f6c6564207468726f7567682064656c656761746563616c6c0000000000000000602082015250565b60006118e2603883611751565b91506118ed82611886565b604082019050919050565b60006020820190508181036000830152611911816118d5565b9050919050565b7f496e697469616c697a61626c653a20636f6e747261637420697320616c72656160008201527f647920696e697469616c697a6564000000000000000000000000000000000000602082015250565b6000611974602e83611751565b915061197f82611918565b604082019050919050565b600060208201905081810360008301526119a381611967565b9050919050565b6000819050919050565b6000819050919050565b60006119d96119d46119cf846119aa565b6119b4565b611250565b9050919050565b6119e9816119be565b82525050565b6000602082019050611a0460008301846119e0565b92915050565b7f4e487b7100000000000000000000000000000000000000000000000000000000600052603260045260246000fd5b6000611a4482611237565b91507fffffffffffffffffffffffffffffffffffffffffffffffffffffffffffffffff8203611a7657611a75611695565b5b600182019050919050565b7f4f776e61626c653a206e6577206f776e657220697320746865207a65726f206160008201527f6464726573730000000000000000000000000000000000000000000000000000602082015250565b6000611add602683611751565b9150611ae882611a81565b604082019050919050565b60006020820190508181036000830152611b0c81611ad0565b9050919050565b611b1c81611461565b8114611b2757600080fd5b50565b600081519050611b3981611b13565b92915050565b600060208284031215611b5557611b546111a2565b5b6000611b6384828501611b2a565b91505092915050565b7f45524331393637557067726164653a206e657720696d706c656d656e7461746960008201527f6f6e206973206e6f742055555053000000000000000000000000000000000000602082015250565b6000611bc8602e83611751565b9150611bd382611b6c565b604082019050919050565b60006020820190508181036000830152611bf781611bbb565b9050919050565b7f45524331393637557067726164653a20756e737570706f727465642070726f7860008201527f6961626c65555549440000000000000000000000000000000000000000000000602082015250565b6000611c5a602983611751565b9150611c6582611bfe565b604082019050919050565b60006020820190508181036000830152611c8981611c4d565b9050919050565b7f4f776e61626c653a2063616c6c6572206973206e6f7420746865206f776e6572600082015250565b6000611cc6602083611751565b9150611cd182611c90565b602082019050919050565b60006020820190508181036000830152611cf581611cb9565b9050919050565b7f496e697469616c697a61626c653a20636f6e7472616374206973206e6f74206960008201527f6e697469616c697a696e67000000000000000000000000000000000000000000602082015250565b6000611d58602b83611751565b9150611d6382611cfc565b604082019050919050565b60006020820190508181036000830152611d8781611d4b565b9050919050565b7f455243313936373a206e657720696d706c656d656e746174696f6e206973206e60008201527f6f74206120636f6e747261637400000000000000000000000000000000000000602082015250565b6000611dea602d83611751565b9150611df582611d8e565b604082019050919050565b60006020820190508181036000830152611e1981611ddd565b9050919050565b7f416464726573733a2064656c65676174652063616c6c20746f206e6f6e2d636f60008201527f6e74726163740000000000000000000000000000000000000000000000000000602082015250565b6000611e7c602683611751565b9150611e8782611e20565b604082019050919050565b60006020820190508181036000830152611eab81611e6f565b9050919050565b600081519050919050565b600081905092915050565b60005b83811015611ee6578082015181840152602081019050611ecb565b83811115611ef5576000848401525b50505050565b6000611f0682611eb2565b611f108185611ebd565b9350611f20818560208601611ec8565b80840191505092915050565b6000611f388284611efb565b915081905092915050565b600081519050919050565b6000611f5982611f43565b611f638185611751565b9350611f73818560208601611ec8565b611f7c816112c9565b840191505092915050565b60006020820190508181036000830152611fa18184611f4e565b90509291505056fe416464726573733a206c6f772d6c6576656c2064656c65676174652063616c6c206661696c6564a2646970667358221220054f4b4e5dd7c921eeb434958b0eff4f2ba8538e1e38333f381f6ad894cb018064736f6c634300080f0033",
  "immutableReferences": {
    "1233": [
      {
        "length": 32,
        "start": 1085
      },
      {
        "length": 32,
        "start": 1227
      },
      {
        "length": 32,
        "start": 1477
      },
      {
        "length": 32,
        "start": 1619
      },
      {
        "length": 32,
        "start": 1795
      }
    ]
  },
  "source": "//SPDX-License-Identifier: Unlicense\r\npragma solidity ^0.8.0;\r\n\r\nimport \"@chainlink/contracts/src/v0.8/interfaces/AggregatorV3Interface.sol\";\r\nimport \"@chainlink/contracts/src/v0.8/Denominations.sol\";\r\nimport \"@openzeppelin/contracts-upgradeable/access/OwnableUpgradeable.sol\";\r\nimport \"@openzeppelin/contracts-upgradeable/proxy/utils/UUPSUpgradeable.sol\";\r\nimport \"../interfaces/IUsdOracle.sol\";\r\n\r\ncontract ChainlinkOracle is IUsdOracle, UUPSUpgradeable, OwnableUpgradeable {\r\n    error StaleChainlinkPrice();\r\n    error BadPrice();\r\n\r\n    // token address => token/usd feed address\r\n    mapping(address => address) public feeds;\r\n\r\n    /// @custom:oz-upgrades-unsafe-allow constructor\r\n    constructor() {\r\n        // lock implementation\r\n        _disableInitializers();\r\n    }\r\n\r\n    function initialize() external initializer {\r\n        __Ownable_init();\r\n        __UUPSUpgradeable_init();\r\n    }\r\n\r\n    function _authorizeUpgrade(address newImplementation) internal override onlyOwner {}\r\n\r\n    /// @notice Set multiple price feed for token / usd.\r\n    function setPriceFeeds(address[] calldata token, address[] calldata feed) external onlyOwner {\r\n        for (uint256 i = 0; i < token.length; i++) {\r\n            feeds[token[i]] = feed[i];\r\n        }\r\n    }\r\n\r\n    /**\r\n     * Returns the latest token / usd price and its decimals\r\n     */\r\n    function getTokenUsdPrice(address base) public view override returns (uint256 price, uint8 decimals) {\r\n        AggregatorV3Interface feed = AggregatorV3Interface(feeds[base]);\r\n\r\n        (, int256 _price, , uint256 updatedAt, ) = feed.latestRoundData();\r\n\r\n        if (updatedAt <= block.timestamp - 24 hours) revert StaleChainlinkPrice();\r\n        if (_price <= 0) revert BadPrice();\r\n\r\n        return (uint256(_price), feed.decimals());\r\n    }\r\n}\r\n",
  "sourcePath": "C:\\Users\\FVO_MMILLLER\\Desktop\\elvolution\\Testers\\contracts\\oracles\\ChainlinkOracle.sol",
  "compiler": {
    "name": "solc",
    "version": "0.8.15+commit.e14f2714.Emscripten.clang"
  },
  "schemaVersion": "3.4.8",
  "updatedAt": "2022-09-08T16:23:09.383Z",
  "devdoc": {
    "kind": "dev",
    "methods": {
      "constructor": {
        "custom:oz-upgrades-unsafe-allow": "constructor"
      },
      "owner()": {
        "details": "Returns the address of the current owner."
      },
      "proxiableUUID()": {
        "details": "Implementation of the ERC1822 {proxiableUUID} function. This returns the storage slot used by the implementation. It is used to validate that the this implementation remains valid after an upgrade. IMPORTANT: A proxy pointing at a proxiable contract should not be considered proxiable itself, because this risks bricking a proxy that upgrades to it, by delegating to itself until out of gas. Thus it is critical that this function revert if invoked through a proxy. This is guaranteed by the `notDelegated` modifier."
      },
      "renounceOwnership()": {
        "details": "Leaves the contract without owner. It will not be possible to call `onlyOwner` functions anymore. Can only be called by the current owner. NOTE: Renouncing ownership will leave the contract without an owner, thereby removing any functionality that is only available to the owner."
      },
      "transferOwnership(address)": {
        "details": "Transfers ownership of the contract to a new account (`newOwner`). Can only be called by the current owner."
      },
      "upgradeTo(address)": {
        "details": "Upgrade the implementation of the proxy to `newImplementation`. Calls {_authorizeUpgrade}. Emits an {Upgraded} event."
      },
      "upgradeToAndCall(address,bytes)": {
        "details": "Upgrade the implementation of the proxy to `newImplementation`, and subsequently execute the function call encoded in `data`. Calls {_authorizeUpgrade}. Emits an {Upgraded} event."
      }
    },
    "version": 1
  },
  "userdoc": {
    "kind": "user",
    "methods": {
      "getTokenUsdPrice(address)": {
        "notice": "Returns the latest token / usd price and its decimals"
      },
      "setPriceFeeds(address[],address[])": {
        "notice": "Set multiple price feed for token / usd."
      }
    },
    "version": 1
  }
}