{
  "contractName": "CurvePlugin",
  "abi": [
    {
      "inputs": [],
      "stateMutability": "nonpayable",
      "type": "constructor"
    },
    {
      "inputs": [],
      "name": "RouteNotFound",
      "type": "error"
    },
    {
      "inputs": [],
      "name": "RoutedSwapFailed",
      "type": "error"
    },
    {
      "anonymous": false,
      "inputs": [
        {
          "indexed": true,
          "internalType": "address",
          "name": "previousOwner",
          "type": "address"
        },
        {
          "indexed": true,
          "internalType": "address",
          "name": "newOwner",
          "type": "address"
        }
      ],
      "name": "OwnershipTransferred",
      "type": "event"
    },
    {
      "inputs": [
        {
          "internalType": "address",
          "name": "",
          "type": "address"
        },
        {
          "internalType": "address",
          "name": "",
          "type": "address"
        }
      ],
      "name": "coinIds",
      "outputs": [
        {
          "internalType": "int128",
          "name": "",
          "type": "int128"
        }
      ],
      "stateMutability": "view",
      "type": "function"
    },
    {
      "inputs": [],
      "name": "owner",
      "outputs": [
        {
          "internalType": "address",
          "name": "",
          "type": "address"
        }
      ],
      "stateMutability": "view",
      "type": "function"
    },
    {
      "inputs": [
        {
          "internalType": "address",
          "name": "",
          "type": "address"
        },
        {
          "internalType": "address",
          "name": "",
          "type": "address"
        }
      ],
      "name": "pools",
      "outputs": [
        {
          "internalType": "address",
          "name": "",
          "type": "address"
        }
      ],
      "stateMutability": "view",
      "type": "function"
    },
    {
      "inputs": [],
      "name": "renounceOwnership",
      "outputs": [],
      "stateMutability": "nonpayable",
      "type": "function"
    },
    {
      "inputs": [
        {
          "internalType": "address",
          "name": "newOwner",
          "type": "address"
        }
      ],
      "name": "transferOwnership",
      "outputs": [],
      "stateMutability": "nonpayable",
      "type": "function"
    },
    {
      "inputs": [
        {
          "internalType": "address",
          "name": "tokenA",
          "type": "address"
        },
        {
          "internalType": "address",
          "name": "tokenB",
          "type": "address"
        },
        {
          "internalType": "address",
          "name": "pool",
          "type": "address"
        }
      ],
      "name": "setCurvePool",
      "outputs": [],
      "stateMutability": "nonpayable",
      "type": "function"
    },
    {
      "inputs": [
        {
          "internalType": "address",
          "name": "_curvePool",
          "type": "address"
        },
        {
          "internalType": "address[]",
          "name": "tokens",
          "type": "address[]"
        },
        {
          "internalType": "int128[]",
          "name": "_coinIds",
          "type": "int128[]"
        }
      ],
      "name": "setCoinIds",
      "outputs": [],
      "stateMutability": "nonpayable",
      "type": "function"
    },
    {
      "inputs": [
        {
          "internalType": "address",
          "name": "tokenA",
          "type": "address"
        },
        {
          "internalType": "address",
          "name": "tokenB",
          "type": "address"
        }
      ],
      "name": "getFee",
      "outputs": [
        {
          "internalType": "uint256",
          "name": "feePercent",
          "type": "uint256"
        }
      ],
      "stateMutability": "view",
      "type": "function"
    },
    {
      "inputs": [
        {
          "internalType": "uint256",
          "name": "amountA",
          "type": "uint256"
        },
        {
          "internalType": "address",
          "name": "tokenA",
          "type": "address"
        },
        {
          "internalType": "address",
          "name": "tokenB",
          "type": "address"
        }
      ],
      "name": "getAmountOut",
      "outputs": [
        {
          "internalType": "uint256",
          "name": "amountOut",
          "type": "uint256"
        }
      ],
      "stateMutability": "view",
      "type": "function"
    },
    {
      "inputs": [
        {
          "internalType": "uint256",
          "name": "amountA",
          "type": "uint256"
        },
        {
          "internalType": "address",
          "name": "tokenA",
          "type": "address"
        },
        {
          "internalType": "address",
          "name": "tokenB",
          "type": "address"
        },
        {
          "internalType": "address",
          "name": "to",
          "type": "address"
        }
      ],
      "name": "swap",
      "outputs": [
        {
          "internalType": "uint256",
          "name": "amountReceivedTokenB",
          "type": "uint256"
        }
      ],
      "stateMutability": "nonpayable",
      "type": "function"
    }
  ],
  "bytecode": "0x608060405234801561001057600080fd5b5061002d61002261003260201b60201c565b61003a60201b60201c565b6100fe565b600033905090565b60008060009054906101000a900473ffffffffffffffffffffffffffffffffffffffff169050816000806101000a81548173ffffffffffffffffffffffffffffffffffffffff021916908373ffffffffffffffffffffffffffffffffffffffff1602179055508173ffffffffffffffffffffffffffffffffffffffff168173ffffffffffffffffffffffffffffffffffffffff167f8be0079c531659141344cd1fd0a4f28419497f9722a3daafe3b4186f6b6457e060405160405180910390a35050565b61154f8061010d6000396000f3fe608060405234801561001057600080fd5b506004361061009e5760003560e01c806388156e651161006657806388156e65146101455780638da5cb5b14610175578063901754d714610193578063f2fde38b146101c3578063fee99898146101df5761009e565b80631a96e16d146100a35780631e673d3d146100d357806328c5826b146100ef5780635e1e63251461010b578063715018a61461013b575b600080fd5b6100bd60048036038101906100b89190610d35565b61020f565b6040516100ca9190610d91565b60405180910390f35b6100ed60048036038101906100e89190610dac565b61023e565b005b61010960048036038101906101049190610eba565b610319565b005b61012560048036038101906101209190610f85565b61044e565b6040516101329190610fe7565b60405180910390f35b610143610603565b005b61015f600480360381019061015a9190611002565b610617565b60405161016c9190610fe7565b60405180910390f35b61017d6108d6565b60405161018a9190611078565b60405180910390f35b6101ad60048036038101906101a89190610d35565b6108ff565b6040516101ba9190611078565b60405180910390f35b6101dd60048036038101906101d89190611093565b610941565b005b6101f960048036038101906101f49190610d35565b6109c4565b6040516102069190610fe7565b60405180910390f35b60026020528160005260406000206020528060005260406000206000915091509054906101000a9004600f0b81565b610246610a7a565b6000806102538585610af8565b9150915082600160008473ffffffffffffffffffffffffffffffffffffffff1673ffffffffffffffffffffffffffffffffffffffff16815260200190815260200160002060008373ffffffffffffffffffffffffffffffffffffffff1673ffffffffffffffffffffffffffffffffffffffff16815260200190815260200160002060006101000a81548173ffffffffffffffffffffffffffffffffffffffff021916908373ffffffffffffffffffffffffffffffffffffffff1602179055505050505050565b610321610a7a565b60005b8484905081101561044657828282818110610342576103416110c0565b5b9050602002016020810190610357919061111b565b600260008873ffffffffffffffffffffffffffffffffffffffff1673ffffffffffffffffffffffffffffffffffffffff16815260200190815260200160002060008787858181106103ab576103aa6110c0565b5b90506020020160208101906103c09190611093565b73ffffffffffffffffffffffffffffffffffffffff1673ffffffffffffffffffffffffffffffffffffffff16815260200190815260200160002060006101000a8154816fffffffffffffffffffffffffffffffff0219169083600f0b6fffffffffffffffffffffffffffffffff160217905550808061043e90611177565b915050610324565b505050505050565b60008061045b8484610b47565b90506000600260008373ffffffffffffffffffffffffffffffffffffffff1673ffffffffffffffffffffffffffffffffffffffff16815260200190815260200160002060008673ffffffffffffffffffffffffffffffffffffffff1673ffffffffffffffffffffffffffffffffffffffff16815260200190815260200160002060009054906101000a9004600f0b90506000600260008473ffffffffffffffffffffffffffffffffffffffff1673ffffffffffffffffffffffffffffffffffffffff16815260200190815260200160002060008673ffffffffffffffffffffffffffffffffffffffff1673ffffffffffffffffffffffffffffffffffffffff16815260200190815260200160002060009054906101000a9004600f0b90508273ffffffffffffffffffffffffffffffffffffffff16635e0d443f83838a6040518463ffffffff1660e01b81526004016105b6939291906111bf565b602060405180830381865afa1580156105d3573d6000803e3d6000fd5b505050506040513d601f19601f820116820180604052508101906105f7919061120b565b93505050509392505050565b61060b610a7a565b6106156000610c01565b565b6000806106248585610b47565b90508473ffffffffffffffffffffffffffffffffffffffff1663095ea7b382886040518363ffffffff1660e01b8152600401610661929190611238565b6020604051808303816000875af1158015610680573d6000803e3d6000fd5b505050506040513d601f19601f820116820180604052508101906106a49190611299565b506000600260008373ffffffffffffffffffffffffffffffffffffffff1673ffffffffffffffffffffffffffffffffffffffff16815260200190815260200160002060008773ffffffffffffffffffffffffffffffffffffffff1673ffffffffffffffffffffffffffffffffffffffff16815260200190815260200160002060009054906101000a9004600f0b90506000600260008473ffffffffffffffffffffffffffffffffffffffff1673ffffffffffffffffffffffffffffffffffffffff16815260200190815260200160002060008773ffffffffffffffffffffffffffffffffffffffff1673ffffffffffffffffffffffffffffffffffffffff16815260200190815260200160002060009054906101000a9004600f0b905060008373ffffffffffffffffffffffffffffffffffffffff16633df0212484848c60006040518563ffffffff1660e01b8152600401610803949392919061130b565b6020604051808303816000875af1158015610822573d6000803e3d6000fd5b505050506040513d601f19601f82011682018060405250810190610846919061120b565b90508673ffffffffffffffffffffffffffffffffffffffff1663a9059cbb87836040518363ffffffff1660e01b8152600401610883929190611238565b6020604051808303816000875af11580156108a2573d6000803e3d6000fd5b505050506040513d601f19601f820116820180604052508101906108c69190611299565b5080945050505050949350505050565b60008060009054906101000a900473ffffffffffffffffffffffffffffffffffffffff16905090565b60016020528160005260406000206020528060005260406000206000915091509054906101000a900473ffffffffffffffffffffffffffffffffffffffff1681565b610949610a7a565b600073ffffffffffffffffffffffffffffffffffffffff168173ffffffffffffffffffffffffffffffffffffffff16036109b8576040517f08c379a00000000000000000000000000000000000000000000000000000000081526004016109af906113d3565b60405180910390fd5b6109c181610c01565b50565b6000806402540be400905060006109db8585610b47565b905060008173ffffffffffffffffffffffffffffffffffffffff1663ddca3f436040518163ffffffff1660e01b8152600401602060405180830381865afa158015610a2a573d6000803e3d6000fd5b505050506040513d601f19601f82011682018060405250810190610a4e919061120b565b905082670de0b6b3a7640000610a649190611422565b81610a6f9190611453565b935050505092915050565b610a82610cc5565b73ffffffffffffffffffffffffffffffffffffffff16610aa06108d6565b73ffffffffffffffffffffffffffffffffffffffff1614610af6576040517f08c379a0000000000000000000000000000000000000000000000000000000008152600401610aed906114f9565b60405180910390fd5b565b6000808273ffffffffffffffffffffffffffffffffffffffff168473ffffffffffffffffffffffffffffffffffffffff1610610b35578284610b38565b83835b80925081935050509250929050565b6000806000610b568585610af8565b91509150600160008373ffffffffffffffffffffffffffffffffffffffff1673ffffffffffffffffffffffffffffffffffffffff16815260200190815260200160002060008273ffffffffffffffffffffffffffffffffffffffff1673ffffffffffffffffffffffffffffffffffffffff16815260200190815260200160002060009054906101000a900473ffffffffffffffffffffffffffffffffffffffff169250505092915050565b60008060009054906101000a900473ffffffffffffffffffffffffffffffffffffffff169050816000806101000a81548173ffffffffffffffffffffffffffffffffffffffff021916908373ffffffffffffffffffffffffffffffffffffffff1602179055508173ffffffffffffffffffffffffffffffffffffffff168173ffffffffffffffffffffffffffffffffffffffff167f8be0079c531659141344cd1fd0a4f28419497f9722a3daafe3b4186f6b6457e060405160405180910390a35050565b600033905090565b600080fd5b600080fd5b600073ffffffffffffffffffffffffffffffffffffffff82169050919050565b6000610d0282610cd7565b9050919050565b610d1281610cf7565b8114610d1d57600080fd5b50565b600081359050610d2f81610d09565b92915050565b60008060408385031215610d4c57610d4b610ccd565b5b6000610d5a85828601610d20565b9250506020610d6b85828601610d20565b9150509250929050565b600081600f0b9050919050565b610d8b81610d75565b82525050565b6000602082019050610da66000830184610d82565b92915050565b600080600060608486031215610dc557610dc4610ccd565b5b6000610dd386828701610d20565b9350506020610de486828701610d20565b9250506040610df586828701610d20565b9150509250925092565b600080fd5b600080fd5b600080fd5b60008083601f840112610e2457610e23610dff565b5b8235905067ffffffffffffffff811115610e4157610e40610e04565b5b602083019150836020820283011115610e5d57610e5c610e09565b5b9250929050565b60008083601f840112610e7a57610e79610dff565b5b8235905067ffffffffffffffff811115610e9757610e96610e04565b5b602083019150836020820283011115610eb357610eb2610e09565b5b9250929050565b600080600080600060608688031215610ed657610ed5610ccd565b5b6000610ee488828901610d20565b955050602086013567ffffffffffffffff811115610f0557610f04610cd2565b5b610f1188828901610e0e565b9450945050604086013567ffffffffffffffff811115610f3457610f33610cd2565b5b610f4088828901610e64565b92509250509295509295909350565b6000819050919050565b610f6281610f4f565b8114610f6d57600080fd5b50565b600081359050610f7f81610f59565b92915050565b600080600060608486031215610f9e57610f9d610ccd565b5b6000610fac86828701610f70565b9350506020610fbd86828701610d20565b9250506040610fce86828701610d20565b9150509250925092565b610fe181610f4f565b82525050565b6000602082019050610ffc6000830184610fd8565b92915050565b6000806000806080858703121561101c5761101b610ccd565b5b600061102a87828801610f70565b945050602061103b87828801610d20565b935050604061104c87828801610d20565b925050606061105d87828801610d20565b91505092959194509250565b61107281610cf7565b82525050565b600060208201905061108d6000830184611069565b92915050565b6000602082840312156110a9576110a8610ccd565b5b60006110b784828501610d20565b91505092915050565b7f4e487b7100000000000000000000000000000000000000000000000000000000600052603260045260246000fd5b6110f881610d75565b811461110357600080fd5b50565b600081359050611115816110ef565b92915050565b60006020828403121561113157611130610ccd565b5b600061113f84828501611106565b91505092915050565b7f4e487b7100000000000000000000000000000000000000000000000000000000600052601160045260246000fd5b600061118282610f4f565b91507fffffffffffffffffffffffffffffffffffffffffffffffffffffffffffffffff82036111b4576111b3611148565b5b600182019050919050565b60006060820190506111d46000830186610d82565b6111e16020830185610d82565b6111ee6040830184610fd8565b949350505050565b60008151905061120581610f59565b92915050565b60006020828403121561122157611220610ccd565b5b600061122f848285016111f6565b91505092915050565b600060408201905061124d6000830185611069565b61125a6020830184610fd8565b9392505050565b60008115159050919050565b61127681611261565b811461128157600080fd5b50565b6000815190506112938161126d565b92915050565b6000602082840312156112af576112ae610ccd565b5b60006112bd84828501611284565b91505092915050565b6000819050919050565b6000819050919050565b60006112f56112f06112eb846112c6565b6112d0565b610f4f565b9050919050565b611305816112da565b82525050565b60006080820190506113206000830187610d82565b61132d6020830186610d82565b61133a6040830185610fd8565b61134760608301846112fc565b95945050505050565b600082825260208201905092915050565b7f4f776e61626c653a206e6577206f776e657220697320746865207a65726f206160008201527f6464726573730000000000000000000000000000000000000000000000000000602082015250565b60006113bd602683611350565b91506113c882611361565b604082019050919050565b600060208201905081810360008301526113ec816113b0565b9050919050565b7f4e487b7100000000000000000000000000000000000000000000000000000000600052601260045260246000fd5b600061142d82610f4f565b915061143883610f4f565b925082611448576114476113f3565b5b828204905092915050565b600061145e82610f4f565b915061146983610f4f565b9250817fffffffffffffffffffffffffffffffffffffffffffffffffffffffffffffffff04831182151516156114a2576114a1611148565b5b828202905092915050565b7f4f776e61626c653a2063616c6c6572206973206e6f7420746865206f776e6572600082015250565b60006114e3602083611350565b91506114ee826114ad565b602082019050919050565b60006020820190508181036000830152611512816114d6565b905091905056fea2646970667358221220986d1d40226e62018f6d28ba9bcbc99fa37c52e58a61ec0afb17561c0b863f8664736f6c634300080f0033",
  "immutableReferences": {},
  "source": "//SPDX-License-Identifier: Unlicense\r\npragma solidity ^0.8.0;\r\nimport \"@openzeppelin/contracts/token/ERC20/IERC20.sol\";\r\nimport \"@openzeppelin/contracts/access/Ownable.sol\";\r\nimport \"@uniswap/v2-periphery/contracts/interfaces/IUniswapV2Router02.sol\";\r\nimport \"../interfaces/ICurvePool.sol\";\r\nimport \"../interfaces/IExchangePlugin.sol\";\r\nimport \"../main/StrategyRouter.sol\";\r\n\r\n// import \"hardhat/console.sol\";\r\n\r\ncontract CurvePlugin is IExchangePlugin, Ownable {\r\n    error RoutedSwapFailed();\r\n    error RouteNotFound();\r\n\r\n    // tokenA -> tokenB -> pool to use as exchange\r\n    mapping(address => mapping(address => address)) public pools;\r\n    // curve-like pool -> token -> id of the token in the pool\r\n    mapping(address => mapping(address => int128)) public coinIds;\r\n\r\n    constructor() {}\r\n\r\n    /// @notice Set curve-like pool to user to swap pair.\r\n    function setCurvePool(\r\n        address tokenA,\r\n        address tokenB,\r\n        address pool\r\n    ) external onlyOwner {\r\n        (address token0, address token1) = sortTokens(tokenA, tokenB);\r\n        pools[token0][token1] = pool;\r\n    }\r\n\r\n    /// @notice Cache pool's token ids.\r\n    function setCoinIds(\r\n        address _curvePool,\r\n        address[] calldata tokens,\r\n        int128[] calldata _coinIds\r\n    ) external onlyOwner {\r\n        for (uint256 i = 0; i < tokens.length; i++) {\r\n            coinIds[address(_curvePool)][tokens[i]] = _coinIds[i];\r\n        }\r\n    }\r\n\r\n    function getFee(address tokenA, address tokenB) public view override returns (uint256 feePercent) {\r\n        uint256 feeDenominator = 1e10;\r\n        address pool = getPool(tokenA, tokenB);\r\n        uint256 fee = ICurvePool(pool).fee();\r\n        // change precision from 10 to 18 decimals, 10 + (18 - 10)\r\n        return fee * (1e18 / feeDenominator); // 0.01% or 0.0001 with 18 decimals\r\n    }\r\n\r\n    function getAmountOut(\r\n        uint256 amountA,\r\n        address tokenA,\r\n        address tokenB\r\n    ) external view override returns (uint256 amountOut) {\r\n        address pool = getPool(tokenA, tokenB);\r\n\r\n        int128 _tokenAIndex = coinIds[address(pool)][tokenA];\r\n        int128 _tokenBIndex = coinIds[address(pool)][tokenB];\r\n\r\n        return ICurvePool(pool).get_dy(_tokenAIndex, _tokenBIndex, amountA);\r\n    }\r\n\r\n    function swap(\r\n        uint256 amountA,\r\n        address tokenA,\r\n        address tokenB,\r\n        address to\r\n    ) public override returns (uint256 amountReceivedTokenB) {\r\n        address pool = getPool(tokenA, tokenB);\r\n        IERC20(tokenA).approve(address(pool), amountA);\r\n\r\n        int128 _tokenAIndex = coinIds[address(pool)][tokenA];\r\n        int128 _tokenBIndex = coinIds[address(pool)][tokenB];\r\n\r\n        uint256 received = ICurvePool(pool).exchange(_tokenAIndex, _tokenBIndex, amountA, 0);\r\n\r\n        IERC20(tokenB).transfer(to, received);\r\n\r\n        return received;\r\n    }\r\n\r\n    function getPool(address tokenA, address tokenB) internal view returns (address) {\r\n        (address token0, address token1) = sortTokens(tokenA, tokenB);\r\n        return pools[token0][token1];\r\n    }\r\n\r\n    function sortTokens(address tokenA, address tokenB) internal pure returns (address token0, address token1) {\r\n        (token0, token1) = tokenA < tokenB ? (tokenA, tokenB) : (tokenB, tokenA);\r\n    }\r\n}\r\n",
  "sourcePath": "C:\\Users\\FVO_MMILLLER\\Desktop\\elvolution\\Testers\\contracts\\exchange\\CurvePlugin.sol",
  "compiler": {
    "name": "solc",
    "version": "0.8.15+commit.e14f2714.Emscripten.clang"
  },
  "schemaVersion": "3.4.8",
  "updatedAt": "2022-09-08T16:23:06.350Z",
  "devdoc": {
    "kind": "dev",
    "methods": {
      "getFee(address,address)": {
        "details": "Fee percent has 18 decimals."
      },
      "owner()": {
        "details": "Returns the address of the current owner."
      },
      "renounceOwnership()": {
        "details": "Leaves the contract without owner. It will not be possible to call `onlyOwner` functions anymore. Can only be called by the current owner. NOTE: Renouncing ownership will leave the contract without an owner, thereby removing any functionality that is only available to the owner."
      },
      "transferOwnership(address)": {
        "details": "Transfers ownership of the contract to a new account (`newOwner`). Can only be called by the current owner."
      }
    },
    "version": 1
  },
  "userdoc": {
    "kind": "user",
    "methods": {
      "getAmountOut(uint256,address,address)": {
        "notice": "Synonym of the uniswapV2's function, estimates amount you receive after swap."
      },
      "getFee(address,address)": {
        "notice": "Returns percent taken by DEX on which we swap provided tokens."
      },
      "setCoinIds(address,address[],int128[])": {
        "notice": "Cache pool's token ids."
      },
      "setCurvePool(address,address,address)": {
        "notice": "Set curve-like pool to user to swap pair."
      }
    },
    "version": 1
  }
}