{
  "contractName": "DodoStrategy",
  "abi": [
    {
      "inputs": [],
      "stateMutability": "nonpayable",
      "type": "constructor"
    },
    {
      "inputs": [],
      "name": "AmountExceedTotalSupply",
      "type": "error"
    },
    {
      "inputs": [],
      "name": "AmountNotSpecified",
      "type": "error"
    },
    {
      "inputs": [],
      "name": "CantRemoveLastStrategy",
      "type": "error"
    },
    {
      "inputs": [],
      "name": "CycleClosed",
      "type": "error"
    },
    {
      "inputs": [],
      "name": "CycleNotClosableYet",
      "type": "error"
    },
    {
      "inputs": [],
      "name": "CycleNotClosed",
      "type": "error"
    },
    {
      "inputs": [],
      "name": "DuplicateStrategy",
      "type": "error"
    },
    {
      "inputs": [],
      "name": "InsufficientShares",
      "type": "error"
    },
    {
      "inputs": [],
      "name": "NodepositDetected",
      "type": "error"
    },
    {
      "inputs": [],
      "name": "NotModerator",
      "type": "error"
    },
    {
      "inputs": [],
      "name": "NotReceiptOwner",
      "type": "error"
    },
    {
      "inputs": [],
      "name": "NothingToRebalance",
      "type": "error"
    },
    {
      "inputs": [],
      "name": "UnsupportedToken",
      "type": "error"
    },
    {
      "anonymous": false,
      "inputs": [
        {
          "indexed": true,
          "internalType": "uint256",
          "name": "closedCycleId",
          "type": "uint256"
        },
        {
          "indexed": false,
          "internalType": "uint256",
          "name": "amount",
          "type": "uint256"
        }
      ],
      "name": "AllocateToStrategies",
      "type": "event"
    },
    {
      "anonymous": false,
      "inputs": [
        {
          "indexed": true,
          "internalType": "address",
          "name": "user",
          "type": "address"
        },
        {
          "indexed": false,
          "internalType": "address",
          "name": "token",
          "type": "address"
        },
        {
          "indexed": false,
          "internalType": "uint256",
          "name": "amount",
          "type": "uint256"
        }
      ],
      "name": "Deposit",
      "type": "event"
    },
    {
      "anonymous": false,
      "inputs": [
        {
          "indexed": true,
          "internalType": "address",
          "name": "previousOwner",
          "type": "address"
        },
        {
          "indexed": true,
          "internalType": "address",
          "name": "newOwner",
          "type": "address"
        }
      ],
      "name": "OwnershipTransferred",
      "type": "event"
    },
    {
      "anonymous": false,
      "inputs": [
        {
          "indexed": true,
          "internalType": "address",
          "name": "user",
          "type": "address"
        },
        {
          "indexed": false,
          "internalType": "uint256",
          "name": "shares",
          "type": "uint256"
        },
        {
          "indexed": false,
          "internalType": "uint256[]",
          "name": "receiptIds",
          "type": "uint256[]"
        }
      ],
      "name": "RedeemReceiptsToShares",
      "type": "event"
    },
    {
      "anonymous": false,
      "inputs": [
        {
          "indexed": true,
          "internalType": "address",
          "name": "moderator",
          "type": "address"
        },
        {
          "indexed": false,
          "internalType": "uint256[]",
          "name": "receiptIds",
          "type": "uint256[]"
        }
      ],
      "name": "RedeemReceiptsToSharesByModerators",
      "type": "event"
    },
    {
      "anonymous": false,
      "inputs": [
        {
          "indexed": false,
          "internalType": "contract Exchange",
          "name": "_exchange",
          "type": "address"
        },
        {
          "indexed": false,
          "internalType": "contract IUsdOracle",
          "name": "_oracle",
          "type": "address"
        },
        {
          "indexed": false,
          "internalType": "contract SharesToken",
          "name": "_sharesToken",
          "type": "address"
        },
        {
          "indexed": false,
          "internalType": "contract Batch",
          "name": "_batch",
          "type": "address"
        },
        {
          "indexed": false,
          "internalType": "contract ReceiptNFT",
          "name": "_receiptNft",
          "type": "address"
        }
      ],
      "name": "SetAddresses",
      "type": "event"
    },
    {
      "anonymous": false,
      "inputs": [
        {
          "indexed": false,
          "internalType": "uint256",
          "name": "newDuration",
          "type": "uint256"
        }
      ],
      "name": "SetCycleDuration",
      "type": "event"
    },
    {
      "anonymous": false,
      "inputs": [
        {
          "indexed": false,
          "internalType": "address",
          "name": "newAddress",
          "type": "address"
        }
      ],
      "name": "SetFeeAddress",
      "type": "event"
    },
    {
      "anonymous": false,
      "inputs": [
        {
          "indexed": false,
          "internalType": "uint256",
          "name": "newPercent",
          "type": "uint256"
        }
      ],
      "name": "SetFeePercent",
      "type": "event"
    },
    {
      "anonymous": false,
      "inputs": [
        {
          "indexed": false,
          "internalType": "uint256",
          "name": "newAmount",
          "type": "uint256"
        }
      ],
      "name": "SetMinDeposit",
      "type": "event"
    },
    {
      "anonymous": false,
      "inputs": [
        {
          "indexed": false,
          "internalType": "uint256",
          "name": "newAmount",
          "type": "uint256"
        }
      ],
      "name": "SetMinUsdPerCycle",
      "type": "event"
    },
    {
      "anonymous": false,
      "inputs": [
        {
          "indexed": true,
          "internalType": "address",
          "name": "user",
          "type": "address"
        },
        {
          "indexed": false,
          "internalType": "address",
          "name": "token",
          "type": "address"
        },
        {
          "indexed": false,
          "internalType": "uint256",
          "name": "amount",
          "type": "uint256"
        }
      ],
      "name": "WithdrawFromBatch",
      "type": "event"
    },
    {
      "anonymous": false,
      "inputs": [
        {
          "indexed": true,
          "internalType": "address",
          "name": "user",
          "type": "address"
        },
        {
          "indexed": false,
          "internalType": "address",
          "name": "token",
          "type": "address"
        },
        {
          "indexed": false,
          "internalType": "uint256",
          "name": "amount",
          "type": "uint256"
        }
      ],
      "name": "WithdrawFromStrategies",
      "type": "event"
    },
    {
      "inputs": [],
      "name": "owner",
      "outputs": [
        {
          "internalType": "address",
          "name": "",
          "type": "address"
        }
      ],
      "stateMutability": "view",
      "type": "function"
    },
    {
      "inputs": [],
      "name": "renounceOwnership",
      "outputs": [],
      "stateMutability": "nonpayable",
      "type": "function"
    },
    {
      "inputs": [
        {
          "internalType": "address",
          "name": "newOwner",
          "type": "address"
        }
      ],
      "name": "transferOwnership",
      "outputs": [],
      "stateMutability": "nonpayable",
      "type": "function"
    },
    {
      "inputs": [
        {
          "internalType": "contract StrategyRouter",
          "name": "_strategyRouter",
          "type": "address"
        },
        {
          "internalType": "uint256",
          "name": "_poolId",
          "type": "uint256"
        },
        {
          "internalType": "contract ERC20",
          "name": "_tokenA",
          "type": "address"
        },
        {
          "internalType": "contract ERC20",
          "name": "_tokenB",
          "type": "address"
        },
        {
          "internalType": "contract ERC20",
          "name": "_lpToken",
          "type": "address"
        },
        {
          "internalType": "address",
          "name": "_farm",
          "type": "address"
        },
        {
          "internalType": "address",
          "name": "_dodoRouter",
          "type": "address"
        }
      ],
      "name": "initializeState",
      "outputs": [],
      "stateMutability": "nonpayable",
      "type": "function"
    },
    {
      "inputs": [],
      "name": "depositToken",
      "outputs": [
        {
          "internalType": "address",
          "name": "",
          "type": "address"
        }
      ],
      "stateMutability": "view",
      "type": "function"
    },
    {
      "inputs": [
        {
          "internalType": "uint256",
          "name": "amount",
          "type": "uint256"
        }
      ],
      "name": "deposit",
      "outputs": [],
      "stateMutability": "nonpayable",
      "type": "function"
    },
    {
      "inputs": [
        {
          "internalType": "uint256",
          "name": "strategyTokenAmountToWithdraw",
          "type": "uint256"
        }
      ],
      "name": "withdraw",
      "outputs": [
        {
          "internalType": "uint256",
          "name": "amountWithdrawn",
          "type": "uint256"
        }
      ],
      "stateMutability": "nonpayable",
      "type": "function"
    },
    {
      "inputs": [],
      "name": "compound",
      "outputs": [],
      "stateMutability": "nonpayable",
      "type": "function"
    },
    {
      "inputs": [],
      "name": "totalTokens",
      "outputs": [
        {
          "internalType": "uint256",
          "name": "",
          "type": "uint256"
        }
      ],
      "stateMutability": "view",
      "type": "function"
    },
    {
      "inputs": [],
      "name": "withdrawAll",
      "outputs": [
        {
          "internalType": "uint256",
          "name": "amountWithdrawn",
          "type": "uint256"
        }
      ],
      "stateMutability": "nonpayable",
      "type": "function"
    }
  ],
  "bytecode": "0x60806040523480156200001157600080fd5b5062000032620000266200003860201b60201c565b6200004060201b60201c565b62000104565b600033905090565b60008060009054906101000a900473ffffffffffffffffffffffffffffffffffffffff169050816000806101000a81548173ffffffffffffffffffffffffffffffffffffffff021916908373ffffffffffffffffffffffffffffffffffffffff1602179055508173ffffffffffffffffffffffffffffffffffffffff168173ffffffffffffffffffffffffffffffffffffffff167f8be0079c531659141344cd1fd0a4f28419497f9722a3daafe3b4186f6b6457e060405160405180910390a35050565b6148ea80620001146000396000f3fe608060405234801561001057600080fd5b506004361061009e5760003560e01c8063b6b55f2511610066578063b6b55f2514610137578063b8889b3714610153578063c89039c51461016f578063f2fde38b1461018d578063f69e2046146101a95761009e565b80632e1a7d4d146100a3578063715018a6146100d35780637e1c0c09146100dd578063853828b6146100fb5780638da5cb5b14610119575b600080fd5b6100bd60048036038101906100b89190613ac0565b6101b3565b6040516100ca9190613afc565b60405180910390f35b6100db610bb1565b005b6100e5610bc5565b6040516100f29190613afc565b60405180910390f35b61010361107a565b6040516101109190613afc565b60405180910390f35b6101216118c2565b60405161012e9190613b58565b60405180910390f35b610151600480360381019061014c9190613ac0565b6118eb565b005b61016d60048036038101906101689190613c1b565b611ef4565b005b610177612194565b6040516101849190613b58565b60405180910390f35b6101a760048036038101906101a29190613cbd565b6121be565b005b6101b1612241565b005b60006101bd612940565b6000600360009054906101000a900473ffffffffffffffffffffffffffffffffffffffff1673ffffffffffffffffffffffffffffffffffffffff16630dfe16816040518163ffffffff1660e01b8152600401602060405180830381865afa15801561022c573d6000803e3d6000fd5b505050506040513d601f19601f820116820180604052508101906102509190613cff565b90506000600360009054906101000a900473ffffffffffffffffffffffffffffffffffffffff1673ffffffffffffffffffffffffffffffffffffffff1663d21220a76040518163ffffffff1660e01b8152600401602060405180830381865afa1580156102c1573d6000803e3d6000fd5b505050506040513d601f19601f820116820180604052508101906102e59190613cff565b905060008273ffffffffffffffffffffffffffffffffffffffff166370a08231600360009054906101000a900473ffffffffffffffffffffffffffffffffffffffff166040518263ffffffff1660e01b81526004016103449190613b58565b602060405180830381865afa158015610361573d6000803e3d6000fd5b505050506040513d601f19601f820116820180604052508101906103859190613d41565b905060008273ffffffffffffffffffffffffffffffffffffffff166370a08231600360009054906101000a900473ffffffffffffffffffffffffffffffffffffffff166040518263ffffffff1660e01b81526004016103e49190613b58565b602060405180830381865afa158015610401573d6000803e3d6000fd5b505050506040513d601f19601f820116820180604052508101906104259190613d41565b905060006002876104369190613dcc565b9050600081886104469190613dfd565b9050600160009054906101000a900473ffffffffffffffffffffffffffffffffffffffff1673ffffffffffffffffffffffffffffffffffffffff168673ffffffffffffffffffffffffffffffffffffffff16146104a45782846104a7565b83835b8094508195505050600660009054906101000a900473ffffffffffffffffffffffffffffffffffffffff1673ffffffffffffffffffffffffffffffffffffffff1663ad615dec8286866040518463ffffffff1660e01b815260040161050e93929190613e31565b602060405180830381865afa15801561052b573d6000803e3d6000fd5b505050506040513d601f19601f8201168201806040525081019061054f9190613d41565b90506000838561055f9190613e68565b828461056b9190613e68565b600360009054906101000a900473ffffffffffffffffffffffffffffffffffffffff1673ffffffffffffffffffffffffffffffffffffffff166318160ddd6040518163ffffffff1660e01b8152600401602060405180830381865afa1580156105d8573d6000803e3d6000fd5b505050506040513d601f19601f820116820180604052508101906105fc9190613d41565b6106069190613ebe565b6106109190613dcc565b9050600560009054906101000a900473ffffffffffffffffffffffffffffffffffffffff1673ffffffffffffffffffffffffffffffffffffffff1663441a3e70600754836040518363ffffffff1660e01b8152600401610671929190613f18565b600060405180830381600087803b15801561068b57600080fd5b505af115801561069f573d6000803e3d6000fd5b50505050600360009054906101000a900473ffffffffffffffffffffffffffffffffffffffff1673ffffffffffffffffffffffffffffffffffffffff1663095ea7b3600660009054906101000a900473ffffffffffffffffffffffffffffffffffffffff16836040518363ffffffff1660e01b8152600401610722929190613f41565b6020604051808303816000875af1158015610741573d6000803e3d6000fd5b505050506040513d601f19601f820116820180604052508101906107659190613fa2565b50600660009054906101000a900473ffffffffffffffffffffffffffffffffffffffff1673ffffffffffffffffffffffffffffffffffffffff1663baa2abde600160009054906101000a900473ffffffffffffffffffffffffffffffffffffffff16600260009054906101000a900473ffffffffffffffffffffffffffffffffffffffff16600360009054906101000a900473ffffffffffffffffffffffffffffffffffffffff1673ffffffffffffffffffffffffffffffffffffffff166370a08231306040518263ffffffff1660e01b81526004016108459190613b58565b602060405180830381865afa158015610862573d6000803e3d6000fd5b505050506040513d601f19601f820116820180604052508101906108869190613d41565b60008030426040518863ffffffff1660e01b81526004016108ad9796959493929190614014565b60408051808303816000875af11580156108cb573d6000803e3d6000fd5b505050506040513d601f19601f820116820180604052508101906108ef9190614083565b80935081945050506000600460009054906101000a900473ffffffffffffffffffffffffffffffffffffffff1673ffffffffffffffffffffffffffffffffffffffff1663f807cd226040518163ffffffff1660e01b8152600401602060405180830381865afa158015610966573d6000803e3d6000fd5b505050506040513d601f19601f8201168201806040525081019061098a9190614101565b9050600260009054906101000a900473ffffffffffffffffffffffffffffffffffffffff1673ffffffffffffffffffffffffffffffffffffffff1663095ea7b382856040518363ffffffff1660e01b81526004016109e9929190613f41565b6020604051808303816000875af1158015610a08573d6000803e3d6000fd5b505050506040513d601f19601f82011682018060405250810190610a2c9190613fa2565b508073ffffffffffffffffffffffffffffffffffffffff166388156e6584600260009054906101000a900473ffffffffffffffffffffffffffffffffffffffff16600160009054906101000a900473ffffffffffffffffffffffffffffffffffffffff16306040518563ffffffff1660e01b8152600401610ab0949392919061412e565b6020604051808303816000875af1158015610acf573d6000803e3d6000fd5b505050506040513d601f19601f82011682018060405250810190610af39190613d41565b84610afe9190613e68565b9350600160009054906101000a900473ffffffffffffffffffffffffffffffffffffffff1673ffffffffffffffffffffffffffffffffffffffff1663a9059cbb33866040518363ffffffff1660e01b8152600401610b5d929190613f41565b6020604051808303816000875af1158015610b7c573d6000803e3d6000fd5b505050506040513d601f19601f82011682018060405250810190610ba09190613fa2565b508398505050505050505050919050565b610bb9612940565b610bc360006129be565b565b600080600560009054906101000a900473ffffffffffffffffffffffffffffffffffffffff1673ffffffffffffffffffffffffffffffffffffffff166393f1a40b600754306040518363ffffffff1660e01b8152600401610c27929190614173565b6040805180830381865afa158015610c43573d6000803e3d6000fd5b505050506040513d601f19601f82011682018060405250810190610c679190614083565b5090506000600360009054906101000a900473ffffffffffffffffffffffffffffffffffffffff1673ffffffffffffffffffffffffffffffffffffffff166318160ddd6040518163ffffffff1660e01b8152600401602060405180830381865afa158015610cd9573d6000803e3d6000fd5b505050506040513d601f19601f82011682018060405250810190610cfd9190613d41565b90506000600160009054906101000a900473ffffffffffffffffffffffffffffffffffffffff1673ffffffffffffffffffffffffffffffffffffffff166370a08231600360009054906101000a900473ffffffffffffffffffffffffffffffffffffffff166040518263ffffffff1660e01b8152600401610d7e9190613b58565b602060405180830381865afa158015610d9b573d6000803e3d6000fd5b505050506040513d601f19601f82011682018060405250810190610dbf9190613d41565b90506000600260009054906101000a900473ffffffffffffffffffffffffffffffffffffffff1673ffffffffffffffffffffffffffffffffffffffff166370a08231600360009054906101000a900473ffffffffffffffffffffffffffffffffffffffff166040518263ffffffff1660e01b8152600401610e409190613b58565b602060405180830381865afa158015610e5d573d6000803e3d6000fd5b505050506040513d601f19601f82011682018060405250810190610e819190613d41565b90506000838386610e929190613ebe565b610e9c9190613dcc565b90506000848387610ead9190613ebe565b610eb79190613dcc565b9050600081111561106e576000600360009054906101000a900473ffffffffffffffffffffffffffffffffffffffff1673ffffffffffffffffffffffffffffffffffffffff16630dfe16816040518163ffffffff1660e01b8152600401602060405180830381865afa158015610f31573d6000803e3d6000fd5b505050506040513d601f19601f82011682018060405250810190610f559190613cff565b9050600080600260009054906101000a900473ffffffffffffffffffffffffffffffffffffffff1673ffffffffffffffffffffffffffffffffffffffff168373ffffffffffffffffffffffffffffffffffffffff1614610fb6578686610fb9565b85875b91509150600660009054906101000a900473ffffffffffffffffffffffffffffffffffffffff1673ffffffffffffffffffffffffffffffffffffffff1663ad615dec8584846040518463ffffffff1660e01b815260040161101c93929190613e31565b602060405180830381865afa158015611039573d6000803e3d6000fd5b505050506040513d601f19601f8201168201806040525081019061105d9190613d41565b856110689190613e68565b94505050505b81965050505050505090565b6000611084612940565b6000600560009054906101000a900473ffffffffffffffffffffffffffffffffffffffff1673ffffffffffffffffffffffffffffffffffffffff166393f1a40b600754306040518363ffffffff1660e01b81526004016110e5929190614173565b6040805180830381865afa158015611101573d6000803e3d6000fd5b505050506040513d601f19601f820116820180604052508101906111259190614083565b50905060008111156114b257600560009054906101000a900473ffffffffffffffffffffffffffffffffffffffff1673ffffffffffffffffffffffffffffffffffffffff1663441a3e70600754836040518363ffffffff1660e01b8152600401611190929190613f18565b600060405180830381600087803b1580156111aa57600080fd5b505af11580156111be573d6000803e3d6000fd5b505050506000600360009054906101000a900473ffffffffffffffffffffffffffffffffffffffff1673ffffffffffffffffffffffffffffffffffffffff166370a08231306040518263ffffffff1660e01b815260040161121f9190613b58565b602060405180830381865afa15801561123c573d6000803e3d6000fd5b505050506040513d601f19601f820116820180604052508101906112609190613d41565b9050600360009054906101000a900473ffffffffffffffffffffffffffffffffffffffff1673ffffffffffffffffffffffffffffffffffffffff1663095ea7b3600660009054906101000a900473ffffffffffffffffffffffffffffffffffffffff16836040518363ffffffff1660e01b81526004016112e1929190613f41565b6020604051808303816000875af1158015611300573d6000803e3d6000fd5b505050506040513d601f19601f820116820180604052508101906113249190613fa2565b50600660009054906101000a900473ffffffffffffffffffffffffffffffffffffffff1673ffffffffffffffffffffffffffffffffffffffff1663baa2abde600160009054906101000a900473ffffffffffffffffffffffffffffffffffffffff16600260009054906101000a900473ffffffffffffffffffffffffffffffffffffffff16600360009054906101000a900473ffffffffffffffffffffffffffffffffffffffff1673ffffffffffffffffffffffffffffffffffffffff166370a08231306040518263ffffffff1660e01b81526004016114049190613b58565b602060405180830381865afa158015611421573d6000803e3d6000fd5b505050506040513d601f19601f820116820180604052508101906114459190613d41565b60008030426040518863ffffffff1660e01b815260040161146c9796959493929190614014565b60408051808303816000875af115801561148a573d6000803e3d6000fd5b505050506040513d601f19601f820116820180604052508101906114ae9190614083565b5050505b6000600160009054906101000a900473ffffffffffffffffffffffffffffffffffffffff1673ffffffffffffffffffffffffffffffffffffffff166370a08231306040518263ffffffff1660e01b815260040161150f9190613b58565b602060405180830381865afa15801561152c573d6000803e3d6000fd5b505050506040513d601f19601f820116820180604052508101906115509190613d41565b90506000600260009054906101000a900473ffffffffffffffffffffffffffffffffffffffff1673ffffffffffffffffffffffffffffffffffffffff166370a08231306040518263ffffffff1660e01b81526004016115af9190613b58565b602060405180830381865afa1580156115cc573d6000803e3d6000fd5b505050506040513d601f19601f820116820180604052508101906115f09190613d41565b90506000811115611806576000600460009054906101000a900473ffffffffffffffffffffffffffffffffffffffff1673ffffffffffffffffffffffffffffffffffffffff1663f807cd226040518163ffffffff1660e01b8152600401602060405180830381865afa15801561166a573d6000803e3d6000fd5b505050506040513d601f19601f8201168201806040525081019061168e9190614101565b9050600260009054906101000a900473ffffffffffffffffffffffffffffffffffffffff1673ffffffffffffffffffffffffffffffffffffffff1663a9059cbb82846040518363ffffffff1660e01b81526004016116ed929190613f41565b6020604051808303816000875af115801561170c573d6000803e3d6000fd5b505050506040513d601f19601f820116820180604052508101906117309190613fa2565b508073ffffffffffffffffffffffffffffffffffffffff166388156e6583600260009054906101000a900473ffffffffffffffffffffffffffffffffffffffff16600160009054906101000a900473ffffffffffffffffffffffffffffffffffffffff16306040518563ffffffff1660e01b81526004016117b4949392919061412e565b6020604051808303816000875af11580156117d3573d6000803e3d6000fd5b505050506040513d601f19601f820116820180604052508101906117f79190613d41565b836118029190613e68565b9250505b60008211156118bb57600160009054906101000a900473ffffffffffffffffffffffffffffffffffffffff1673ffffffffffffffffffffffffffffffffffffffff1663a9059cbb33846040518363ffffffff1660e01b815260040161186c929190613f41565b6020604051808303816000875af115801561188b573d6000803e3d6000fd5b505050506040513d601f19601f820116820180604052508101906118af9190613fa2565b508193505050506118bf565b5050505b90565b60008060009054906101000a900473ffffffffffffffffffffffffffffffffffffffff16905090565b6118f3612940565b6000600460009054906101000a900473ffffffffffffffffffffffffffffffffffffffff1673ffffffffffffffffffffffffffffffffffffffff1663f807cd226040518163ffffffff1660e01b8152600401602060405180830381865afa158015611962573d6000803e3d6000fd5b505050506040513d601f19601f820116820180604052508101906119869190614101565b905060006119a160028461199a9190613dcc565b6000612a82565b9050600081846119b19190613dfd565b9050600160009054906101000a900473ffffffffffffffffffffffffffffffffffffffff1673ffffffffffffffffffffffffffffffffffffffff1663a9059cbb84846040518363ffffffff1660e01b8152600401611a10929190613f41565b6020604051808303816000875af1158015611a2f573d6000803e3d6000fd5b505050506040513d601f19601f82011682018060405250810190611a539190613fa2565b508273ffffffffffffffffffffffffffffffffffffffff166388156e6583600160009054906101000a900473ffffffffffffffffffffffffffffffffffffffff16600260009054906101000a900473ffffffffffffffffffffffffffffffffffffffff16306040518563ffffffff1660e01b8152600401611ad7949392919061412e565b6020604051808303816000875af1158015611af6573d6000803e3d6000fd5b505050506040513d601f19601f82011682018060405250810190611b1a9190613d41565b9150600160009054906101000a900473ffffffffffffffffffffffffffffffffffffffff1673ffffffffffffffffffffffffffffffffffffffff1663095ea7b3600660009054906101000a900473ffffffffffffffffffffffffffffffffffffffff16836040518363ffffffff1660e01b8152600401611b9b929190613f41565b6020604051808303816000875af1158015611bba573d6000803e3d6000fd5b505050506040513d601f19601f82011682018060405250810190611bde9190613fa2565b50600260009054906101000a900473ffffffffffffffffffffffffffffffffffffffff1673ffffffffffffffffffffffffffffffffffffffff1663095ea7b3600660009054906101000a900473ffffffffffffffffffffffffffffffffffffffff16846040518363ffffffff1660e01b8152600401611c5e929190613f41565b6020604051808303816000875af1158015611c7d573d6000803e3d6000fd5b505050506040513d601f19601f82011682018060405250810190611ca19190613fa2565b506000600660009054906101000a900473ffffffffffffffffffffffffffffffffffffffff1673ffffffffffffffffffffffffffffffffffffffff1663e8e33700600160009054906101000a900473ffffffffffffffffffffffffffffffffffffffff16600260009054906101000a900473ffffffffffffffffffffffffffffffffffffffff16858760008030426040518963ffffffff1660e01b8152600401611d5298979695949392919061419c565b6060604051808303816000875af1158015611d71573d6000803e3d6000fd5b505050506040513d601f19601f82011682018060405250810190611d95919061421a565b92505050600360009054906101000a900473ffffffffffffffffffffffffffffffffffffffff1673ffffffffffffffffffffffffffffffffffffffff1663095ea7b3600560009054906101000a900473ffffffffffffffffffffffffffffffffffffffff16836040518363ffffffff1660e01b8152600401611e18929190613f41565b6020604051808303816000875af1158015611e37573d6000803e3d6000fd5b505050506040513d601f19601f82011682018060405250810190611e5b9190613fa2565b50600560009054906101000a900473ffffffffffffffffffffffffffffffffffffffff1673ffffffffffffffffffffffffffffffffffffffff1663e2bbb158600754836040518363ffffffff1660e01b8152600401611ebb929190613f18565b600060405180830381600087803b158015611ed557600080fd5b505af1158015611ee9573d6000803e3d6000fd5b505050505050505050565b611efc612940565b86600460006101000a81548173ffffffffffffffffffffffffffffffffffffffff021916908373ffffffffffffffffffffffffffffffffffffffff1602179055508560078190555084600160006101000a81548173ffffffffffffffffffffffffffffffffffffffff021916908373ffffffffffffffffffffffffffffffffffffffff16021790555083600260006101000a81548173ffffffffffffffffffffffffffffffffffffffff021916908373ffffffffffffffffffffffffffffffffffffffff16021790555082600360006101000a81548173ffffffffffffffffffffffffffffffffffffffff021916908373ffffffffffffffffffffffffffffffffffffffff16021790555081600560006101000a81548173ffffffffffffffffffffffffffffffffffffffff021916908373ffffffffffffffffffffffffffffffffffffffff16021790555080600660006101000a81548173ffffffffffffffffffffffffffffffffffffffff021916908373ffffffffffffffffffffffffffffffffffffffff1602179055508473ffffffffffffffffffffffffffffffffffffffff1663313ce5676040518163ffffffff1660e01b8152600401602060405180830381865afa1580156120d4573d6000803e3d6000fd5b505050506040513d601f19601f820116820180604052508101906120f891906142a6565b600a6121049190614406565b6008819055508373ffffffffffffffffffffffffffffffffffffffff1663313ce5676040518163ffffffff1660e01b8152600401602060405180830381865afa158015612155573d6000803e3d6000fd5b505050506040513d601f19601f8201168201806040525081019061217991906142a6565b600a6121859190614406565b60098190555050505050505050565b6000600160009054906101000a900473ffffffffffffffffffffffffffffffffffffffff16905090565b6121c6612940565b600073ffffffffffffffffffffffffffffffffffffffff168173ffffffffffffffffffffffffffffffffffffffff1603612235576040517f08c379a000000000000000000000000000000000000000000000000000000000815260040161222c906144d4565b60405180910390fd5b61223e816129be565b50565b612249612940565b600560009054906101000a900473ffffffffffffffffffffffffffffffffffffffff1673ffffffffffffffffffffffffffffffffffffffff1663441a3e7060075460006040518363ffffffff1660e01b81526004016122a99291906144f4565b600060405180830381600087803b1580156122c357600080fd5b505af11580156122d7573d6000803e3d6000fd5b5050505060007367ee3cb086f8a16f34bee3ca72fad36f7db929e273ffffffffffffffffffffffffffffffffffffffff166370a08231306040518263ffffffff1660e01b815260040161232a9190613b58565b602060405180830381865afa158015612347573d6000803e3d6000fd5b505050506040513d601f19601f8201168201806040525081019061236b9190613d41565b9050600081111561293d576123806000612bdb565b612389816132b7565b50506000600160009054906101000a900473ffffffffffffffffffffffffffffffffffffffff1673ffffffffffffffffffffffffffffffffffffffff166370a08231306040518263ffffffff1660e01b81526004016123e89190613b58565b602060405180830381865afa158015612405573d6000803e3d6000fd5b505050506040513d601f19601f820116820180604052508101906124299190613d41565b90506000600260009054906101000a900473ffffffffffffffffffffffffffffffffffffffff1673ffffffffffffffffffffffffffffffffffffffff166370a08231306040518263ffffffff1660e01b81526004016124889190613b58565b602060405180830381865afa1580156124a5573d6000803e3d6000fd5b505050506040513d601f19601f820116820180604052508101906124c99190613d41565b9050600160009054906101000a900473ffffffffffffffffffffffffffffffffffffffff1673ffffffffffffffffffffffffffffffffffffffff1663095ea7b3600660009054906101000a900473ffffffffffffffffffffffffffffffffffffffff16846040518363ffffffff1660e01b815260040161254a929190613f41565b6020604051808303816000875af1158015612569573d6000803e3d6000fd5b505050506040513d601f19601f8201168201806040525081019061258d9190613fa2565b50600260009054906101000a900473ffffffffffffffffffffffffffffffffffffffff1673ffffffffffffffffffffffffffffffffffffffff1663095ea7b3600660009054906101000a900473ffffffffffffffffffffffffffffffffffffffff16836040518363ffffffff1660e01b815260040161260d929190613f41565b6020604051808303816000875af115801561262c573d6000803e3d6000fd5b505050506040513d601f19601f820116820180604052508101906126509190613fa2565b50600660009054906101000a900473ffffffffffffffffffffffffffffffffffffffff1673ffffffffffffffffffffffffffffffffffffffff1663e8e33700600160009054906101000a900473ffffffffffffffffffffffffffffffffffffffff16600260009054906101000a900473ffffffffffffffffffffffffffffffffffffffff16858560008030426040518963ffffffff1660e01b81526004016126ff98979695949392919061419c565b6060604051808303816000875af115801561271e573d6000803e3d6000fd5b505050506040513d601f19601f82011682018060405250810190612742919061421a565b5050506000600360009054906101000a900473ffffffffffffffffffffffffffffffffffffffff1673ffffffffffffffffffffffffffffffffffffffff166370a08231306040518263ffffffff1660e01b81526004016127a29190613b58565b602060405180830381865afa1580156127bf573d6000803e3d6000fd5b505050506040513d601f19601f820116820180604052508101906127e39190613d41565b9050600360009054906101000a900473ffffffffffffffffffffffffffffffffffffffff1673ffffffffffffffffffffffffffffffffffffffff1663095ea7b3600560009054906101000a900473ffffffffffffffffffffffffffffffffffffffff16836040518363ffffffff1660e01b8152600401612864929190613f41565b6020604051808303816000875af1158015612883573d6000803e3d6000fd5b505050506040513d601f19601f820116820180604052508101906128a79190613fa2565b50600560009054906101000a900473ffffffffffffffffffffffffffffffffffffffff1673ffffffffffffffffffffffffffffffffffffffff1663e2bbb158600754836040518363ffffffff1660e01b8152600401612907929190613f18565b600060405180830381600087803b15801561292157600080fd5b505af1158015612935573d6000803e3d6000fd5b505050505050505b50565b612948613624565b73ffffffffffffffffffffffffffffffffffffffff166129666118c2565b73ffffffffffffffffffffffffffffffffffffffff16146129bc576040517f08c379a00000000000000000000000000000000000000000000000000000000081526004016129b390614569565b60405180910390fd5b565b60008060009054906101000a900473ffffffffffffffffffffffffffffffffffffffff169050816000806101000a81548173ffffffffffffffffffffffffffffffffffffffff021916908373ffffffffffffffffffffffffffffffffffffffff1602179055508173ffffffffffffffffffffffffffffffffffffffff168173ffffffffffffffffffffffffffffffffffffffff167f8be0079c531659141344cd1fd0a4f28419497f9722a3daafe3b4186f6b6457e060405160405180910390a35050565b6000806000600360009054906101000a900473ffffffffffffffffffffffffffffffffffffffff1673ffffffffffffffffffffffffffffffffffffffff16630902f1ac6040518163ffffffff1660e01b8152600401606060405180830381865afa158015612af4573d6000803e3d6000fd5b505050506040513d601f19601f82011682018060405250810190612b18919061460b565b506dffffffffffffffffffffffffffff1691506dffffffffffffffffffffffffffff169150600081670de0b6b3a76400008087612b559190613e68565b85612b609190613ebe565b612b6a9190613dcc565b612b749190613e68565b670de0b6b3a764000086612b889190613e68565b846002612b959190613ebe565b612b9f9190613ebe565b612ba99190613dcc565b90506000670de0b6b3a76400008288612bc29190613ebe565b612bcc9190613dcc565b90508094505050505092915050565b6000600460009054906101000a900473ffffffffffffffffffffffffffffffffffffffff1673ffffffffffffffffffffffffffffffffffffffff1663f807cd226040518163ffffffff1660e01b8152600401602060405180830381865afa158015612c4a573d6000803e3d6000fd5b505050506040513d601f19601f82011682018060405250810190612c6e9190614101565b90506000600260009054906101000a900473ffffffffffffffffffffffffffffffffffffffff1673ffffffffffffffffffffffffffffffffffffffff166370a08231306040518263ffffffff1660e01b8152600401612ccd9190613b58565b602060405180830381865afa158015612cea573d6000803e3d6000fd5b505050506040513d601f19601f82011682018060405250810190612d0e9190613d41565b9050600083600160009054906101000a900473ffffffffffffffffffffffffffffffffffffffff1673ffffffffffffffffffffffffffffffffffffffff166370a08231306040518263ffffffff1660e01b8152600401612d6e9190613b58565b602060405180830381865afa158015612d8b573d6000803e3d6000fd5b505050506040513d601f19601f82011682018060405250810190612daf9190613d41565b612db99190613dfd565b905060008183118015612ddb57506009548284612dd69190613dfd565b915081115b156130385760008473ffffffffffffffffffffffffffffffffffffffff1663baff37ee600284612e0b9190613dcc565b600160009054906101000a900473ffffffffffffffffffffffffffffffffffffffff16600260009054906101000a900473ffffffffffffffffffffffffffffffffffffffff166040518463ffffffff1660e01b8152600401612e6f9392919061465e565b602060405180830381865afa158015612e8c573d6000803e3d6000fd5b505050506040513d601f19601f82011682018060405250810190612eb09190613d41565b9050612ec8600283612ec29190613dcc565b82612a82565b9150600260009054906101000a900473ffffffffffffffffffffffffffffffffffffffff1673ffffffffffffffffffffffffffffffffffffffff1663a9059cbb86846040518363ffffffff1660e01b8152600401612f27929190613f41565b6020604051808303816000875af1158015612f46573d6000803e3d6000fd5b505050506040513d601f19601f82011682018060405250810190612f6a9190613fa2565b508473ffffffffffffffffffffffffffffffffffffffff166388156e6583600260009054906101000a900473ffffffffffffffffffffffffffffffffffffffff16600160009054906101000a900473ffffffffffffffffffffffffffffffffffffffff16306040518563ffffffff1660e01b8152600401612fee949392919061412e565b6020604051808303816000875af115801561300d573d6000803e3d6000fd5b505050506040513d601f19601f820116820180604052508101906130319190613d41565b50506132b0565b8282118015613056575060085483836130519190613dfd565b915081115b156132af5760008473ffffffffffffffffffffffffffffffffffffffff1663baff37ee6002846130869190613dcc565b600160009054906101000a900473ffffffffffffffffffffffffffffffffffffffff16600260009054906101000a900473ffffffffffffffffffffffffffffffffffffffff166040518463ffffffff1660e01b81526004016130ea9392919061465e565b602060405180830381865afa158015613107573d6000803e3d6000fd5b505050506040513d601f19601f8201168201806040525081019061312b9190613d41565b905061314360028361313d9190613dcc565b82612a82565b9150600160009054906101000a900473ffffffffffffffffffffffffffffffffffffffff1673ffffffffffffffffffffffffffffffffffffffff1663a9059cbb86846040518363ffffffff1660e01b81526004016131a2929190613f41565b6020604051808303816000875af11580156131c1573d6000803e3d6000fd5b505050506040513d601f19601f820116820180604052508101906131e59190613fa2565b508473ffffffffffffffffffffffffffffffffffffffff166388156e6583600160009054906101000a900473ffffffffffffffffffffffffffffffffffffffff16600260009054906101000a900473ffffffffffffffffffffffffffffffffffffffff16306040518563ffffffff1660e01b8152600401613269949392919061412e565b6020604051808303816000875af1158015613288573d6000803e3d6000fd5b505050506040513d601f19601f820116820180604052508101906132ac9190613d41565b50505b5b5050505050565b60008060006002846132c99190613dcc565b9050600081856132d99190613dfd565b90506000600460009054906101000a900473ffffffffffffffffffffffffffffffffffffffff1673ffffffffffffffffffffffffffffffffffffffff1663f807cd226040518163ffffffff1660e01b8152600401602060405180830381865afa15801561334a573d6000803e3d6000fd5b505050506040513d601f19601f8201168201806040525081019061336e9190614101565b90507367ee3cb086f8a16f34bee3ca72fad36f7db929e273ffffffffffffffffffffffffffffffffffffffff1663a9059cbb82856040518363ffffffff1660e01b81526004016133bf929190613f41565b6020604051808303816000875af11580156133de573d6000803e3d6000fd5b505050506040513d601f19601f820116820180604052508101906134029190613fa2565b508073ffffffffffffffffffffffffffffffffffffffff166388156e65847367ee3cb086f8a16f34bee3ca72fad36f7db929e2600160009054906101000a900473ffffffffffffffffffffffffffffffffffffffff16306040518563ffffffff1660e01b8152600401613478949392919061412e565b6020604051808303816000875af1158015613497573d6000803e3d6000fd5b505050506040513d601f19601f820116820180604052508101906134bb9190613d41565b94507367ee3cb086f8a16f34bee3ca72fad36f7db929e273ffffffffffffffffffffffffffffffffffffffff1663a9059cbb82846040518363ffffffff1660e01b815260040161350c929190613f41565b6020604051808303816000875af115801561352b573d6000803e3d6000fd5b505050506040513d601f19601f8201168201806040525081019061354f9190613fa2565b508073ffffffffffffffffffffffffffffffffffffffff166388156e65837367ee3cb086f8a16f34bee3ca72fad36f7db929e2600260009054906101000a900473ffffffffffffffffffffffffffffffffffffffff16306040518563ffffffff1660e01b81526004016135c5949392919061412e565b6020604051808303816000875af11580156135e4573d6000803e3d6000fd5b505050506040513d601f19601f820116820180604052508101906136089190613d41565b9350613614858561362c565b8095508196505050505050915091565b600033905090565b6000806000600460009054906101000a900473ffffffffffffffffffffffffffffffffffffffff1673ffffffffffffffffffffffffffffffffffffffff16637fd6f15c6040518163ffffffff1660e01b8152600401602060405180830381865afa15801561369e573d6000803e3d6000fd5b505050506040513d601f19601f820116820180604052508101906136c29190613d41565b90506000600460009054906101000a900473ffffffffffffffffffffffffffffffffffffffff1673ffffffffffffffffffffffffffffffffffffffff1663412753586040518163ffffffff1660e01b8152600401602060405180830381865afa158015613733573d6000803e3d6000fd5b505050506040513d601f19601f820116820180604052508101906137579190613cff565b905060008061271084888a61376c9190613e68565b6137769190613ebe565b6137809190613dcc565b9050600080600360009054906101000a900473ffffffffffffffffffffffffffffffffffffffff1673ffffffffffffffffffffffffffffffffffffffff16630902f1ac6040518163ffffffff1660e01b8152600401606060405180830381865afa1580156137f2573d6000803e3d6000fd5b505050506040513d601f19601f82011682018060405250810190613816919061460b565b506dffffffffffffffffffffffffffff1691506dffffffffffffffffffffffffffff1691506000828a6138499190613ebe565b83856138559190613ebe565b838d6138619190613ebe565b61386b9190613e68565b613875919061469f565b9050600082846138859190613e68565b856138909190613ebe565b9050600081670de0b6b3a7640000846138a99190614733565b6138b3919061484a565b905060008112156138c357600090505b670de0b6b3a76400008113156138df57670de0b6b3a764000090505b80965050505050506000670de0b6b3a764000083836138fe9190613ebe565b6139089190613dcc565b9050600081836139189190613dfd565b9050600160009054906101000a900473ffffffffffffffffffffffffffffffffffffffff1673ffffffffffffffffffffffffffffffffffffffff1663a9059cbb86846040518363ffffffff1660e01b8152600401613977929190613f41565b6020604051808303816000875af1158015613996573d6000803e3d6000fd5b505050506040513d601f19601f820116820180604052508101906139ba9190613fa2565b50600260009054906101000a900473ffffffffffffffffffffffffffffffffffffffff1673ffffffffffffffffffffffffffffffffffffffff1663a9059cbb86836040518363ffffffff1660e01b8152600401613a18929190613f41565b6020604051808303816000875af1158015613a37573d6000803e3d6000fd5b505050506040513d601f19601f82011682018060405250810190613a5b9190613fa2565b50818a613a689190613dfd565b818a613a749190613dfd565b975097505050505050509250929050565b600080fd5b6000819050919050565b613a9d81613a8a565b8114613aa857600080fd5b50565b600081359050613aba81613a94565b92915050565b600060208284031215613ad657613ad5613a85565b5b6000613ae484828501613aab565b91505092915050565b613af681613a8a565b82525050565b6000602082019050613b116000830184613aed565b92915050565b600073ffffffffffffffffffffffffffffffffffffffff82169050919050565b6000613b4282613b17565b9050919050565b613b5281613b37565b82525050565b6000602082019050613b6d6000830184613b49565b92915050565b6000613b7e82613b37565b9050919050565b613b8e81613b73565b8114613b9957600080fd5b50565b600081359050613bab81613b85565b92915050565b6000613bbc82613b37565b9050919050565b613bcc81613bb1565b8114613bd757600080fd5b50565b600081359050613be981613bc3565b92915050565b613bf881613b37565b8114613c0357600080fd5b50565b600081359050613c1581613bef565b92915050565b600080600080600080600060e0888a031215613c3a57613c39613a85565b5b6000613c488a828b01613b9c565b9750506020613c598a828b01613aab565b9650506040613c6a8a828b01613bda565b9550506060613c7b8a828b01613bda565b9450506080613c8c8a828b01613bda565b93505060a0613c9d8a828b01613c06565b92505060c0613cae8a828b01613c06565b91505092959891949750929550565b600060208284031215613cd357613cd2613a85565b5b6000613ce184828501613c06565b91505092915050565b600081519050613cf981613bef565b92915050565b600060208284031215613d1557613d14613a85565b5b6000613d2384828501613cea565b91505092915050565b600081519050613d3b81613a94565b92915050565b600060208284031215613d5757613d56613a85565b5b6000613d6584828501613d2c565b91505092915050565b7f4e487b7100000000000000000000000000000000000000000000000000000000600052601260045260246000fd5b7f4e487b7100000000000000000000000000000000000000000000000000000000600052601160045260246000fd5b6000613dd782613a8a565b9150613de283613a8a565b925082613df257613df1613d6e565b5b828204905092915050565b6000613e0882613a8a565b9150613e1383613a8a565b925082821015613e2657613e25613d9d565b5b828203905092915050565b6000606082019050613e466000830186613aed565b613e536020830185613aed565b613e606040830184613aed565b949350505050565b6000613e7382613a8a565b9150613e7e83613a8a565b9250827fffffffffffffffffffffffffffffffffffffffffffffffffffffffffffffffff03821115613eb357613eb2613d9d565b5b828201905092915050565b6000613ec982613a8a565b9150613ed483613a8a565b9250817fffffffffffffffffffffffffffffffffffffffffffffffffffffffffffffffff0483118215151615613f0d57613f0c613d9d565b5b828202905092915050565b6000604082019050613f2d6000830185613aed565b613f3a6020830184613aed565b9392505050565b6000604082019050613f566000830185613b49565b613f636020830184613aed565b9392505050565b60008115159050919050565b613f7f81613f6a565b8114613f8a57600080fd5b50565b600081519050613f9c81613f76565b92915050565b600060208284031215613fb857613fb7613a85565b5b6000613fc684828501613f8d565b91505092915050565b6000819050919050565b6000819050919050565b6000613ffe613ff9613ff484613fcf565b613fd9565b613a8a565b9050919050565b61400e81613fe3565b82525050565b600060e082019050614029600083018a613b49565b6140366020830189613b49565b6140436040830188613aed565b6140506060830187614005565b61405d6080830186614005565b61406a60a0830185613b49565b61407760c0830184613aed565b98975050505050505050565b6000806040838503121561409a57614099613a85565b5b60006140a885828601613d2c565b92505060206140b985828601613d2c565b9150509250929050565b60006140ce82613b37565b9050919050565b6140de816140c3565b81146140e957600080fd5b50565b6000815190506140fb816140d5565b92915050565b60006020828403121561411757614116613a85565b5b6000614125848285016140ec565b91505092915050565b60006080820190506141436000830187613aed565b6141506020830186613b49565b61415d6040830185613b49565b61416a6060830184613b49565b95945050505050565b60006040820190506141886000830185613aed565b6141956020830184613b49565b9392505050565b6000610100820190506141b2600083018b613b49565b6141bf602083018a613b49565b6141cc6040830189613aed565b6141d96060830188613aed565b6141e66080830187614005565b6141f360a0830186614005565b61420060c0830185613b49565b61420d60e0830184613aed565b9998505050505050505050565b60008060006060848603121561423357614232613a85565b5b600061424186828701613d2c565b935050602061425286828701613d2c565b925050604061426386828701613d2c565b9150509250925092565b600060ff82169050919050565b6142838161426d565b811461428e57600080fd5b50565b6000815190506142a08161427a565b92915050565b6000602082840312156142bc576142bb613a85565b5b60006142ca84828501614291565b91505092915050565b60008160011c9050919050565b6000808291508390505b600185111561432a5780860481111561430657614305613d9d565b5b60018516156143155780820291505b8081029050614323856142d3565b94506142ea565b94509492505050565b60008261434357600190506143ff565b8161435157600090506143ff565b81600181146143675760028114614371576143a0565b60019150506143ff565b60ff84111561438357614382613d9d565b5b8360020a91508482111561439a57614399613d9d565b5b506143ff565b5060208310610133831016604e8410600b84101617156143d55782820a9050838111156143d0576143cf613d9d565b5b6143ff565b6143e284848460016142e0565b925090508184048111156143f9576143f8613d9d565b5b81810290505b9392505050565b600061441182613a8a565b915061441c8361426d565b92506144497fffffffffffffffffffffffffffffffffffffffffffffffffffffffffffffffff8484614333565b905092915050565b600082825260208201905092915050565b7f4f776e61626c653a206e6577206f776e657220697320746865207a65726f206160008201527f6464726573730000000000000000000000000000000000000000000000000000602082015250565b60006144be602683614451565b91506144c982614462565b604082019050919050565b600060208201905081810360008301526144ed816144b1565b9050919050565b60006040820190506145096000830185613aed565b6145166020830184614005565b9392505050565b7f4f776e61626c653a2063616c6c6572206973206e6f7420746865206f776e6572600082015250565b6000614553602083614451565b915061455e8261451d565b602082019050919050565b6000602082019050818103600083015261458281614546565b9050919050565b60006dffffffffffffffffffffffffffff82169050919050565b6145ac81614589565b81146145b757600080fd5b50565b6000815190506145c9816145a3565b92915050565b600063ffffffff82169050919050565b6145e8816145cf565b81146145f357600080fd5b50565b600081519050614605816145df565b92915050565b60008060006060848603121561462457614623613a85565b5b6000614632868287016145ba565b9350506020614643868287016145ba565b9250506040614654868287016145f6565b9150509250925092565b60006060820190506146736000830186613aed565b6146806020830185613b49565b61468d6040830184613b49565b949350505050565b6000819050919050565b60006146aa82614695565b91506146b583614695565b9250827f8000000000000000000000000000000000000000000000000000000000000000018212600084121516156146f0576146ef613d9d565b5b827f7fffffffffffffffffffffffffffffffffffffffffffffffffffffffffffffff01821360008412161561472857614727613d9d565b5b828203905092915050565b600061473e82614695565b915061474983614695565b9250827f7fffffffffffffffffffffffffffffffffffffffffffffffffffffffffffffff048211600084136000841316161561478857614787613d9d565b5b817f800000000000000000000000000000000000000000000000000000000000000005831260008412600084131616156147c5576147c4613d9d565b5b827f8000000000000000000000000000000000000000000000000000000000000000058212600084136000841216161561480257614801613d9d565b5b827f7fffffffffffffffffffffffffffffffffffffffffffffffffffffffffffffff058212600084126000841216161561483f5761483e613d9d565b5b828202905092915050565b600061485582614695565b915061486083614695565b9250826148705761486f613d6e565b5b600160000383147f8000000000000000000000000000000000000000000000000000000000000000831416156148a9576148a8613d9d565b5b82820590509291505056fea2646970667358221220564d7f1e674f89986d3a135798f1050b9fdef6d1317ed1f790d18f5f39c14bc564736f6c634300080f0033",
  "immutableReferences": {},
  "source": "//SPDX-License-Identifier: Unlicense\r\npragma solidity ^0.8.0;\r\nimport \"@openzeppelin/contracts/token/ERC20/IERC20.sol\";\r\nimport \"@uniswap/v2-periphery/contracts/interfaces/IUniswapV2Router02.sol\";\r\nimport \"@uniswap/v2-core/contracts/interfaces/IUniswapV2Pair.sol\";\r\nimport \"@uniswap/v2-core/contracts/interfaces/IUniswapV2Factory.sol\";\r\nimport \"../interfaces/IClipSwapFarm.sol\";\r\nimport \"../interfaces/IStrategy.sol\";\r\nimport \"../interfaces/IDodoStrategy.sol\";\r\nimport \"../main/StrategyRouter.sol\";\r\n\r\n/** Dodo Exchange USDT Liquidity pool.\r\n        How is works\r\n        ------------\r\n        - USDT is converted to an LP token in the BUSD-USDT Pool on the DODO Exchange\r\n        - USDT LP token is staked in the BUSD-USDT liquidity mining farm.\r\n        - Rewards are received as DODO tokens.\r\n        - DODO tokens are sold for USDT and deposited back into the pool.\r\n           \r\n        Functions: \r\n            o deposit()\r\n            o withdraw()\r\n            o withdrawall()\r\n            o compound()\r\n\r\n        params.clip : Contract of the reward token. (In this case Dodo)\r\n        param.farm : Liquidity Mining Farm.\r\n\r\n    @custom:oz-upgrades-unsafe-allow constructor state-variable-immutable\r\n */\r\n\r\ncontract DodoStrategy is Ownable, IStrategy {\r\n    // error CallerUpgrader();\r\n\r\n    // address internal upgrader;\r\n    \r\n    ERC20 internal tokenA; // USDT Token to deposit\r\n    ERC20 internal tokenB; // BUSD \r\n    ERC20 internal lpToken; // BUSD-USDT LpToken\r\n    StrategyRouter internal strategyRouter; // StrategyRouter contract\r\n\r\n    ERC20 internal constant dodo = ERC20(0x67ee3Cb086F8a16f34beE3ca72FAD36F7Db929e2); //reward token\r\n    IClipSwapFarm internal farm; // Dodo farm\r\n    IUniswapV2Router02 internal dodoRouter;  // Dodo Exchange\r\n\r\n    uint256 internal poolId;\r\n\r\n    uint256 private LEFTOVER_THRESHOLD_TOKEN_A;\r\n    uint256 private LEFTOVER_THRESHOLD_TOKEN_B;\r\n    uint256 private constant PERCENT_DENOMINATOR = 10000;\r\n\r\n    // modifier onlyUpgrader() {\r\n    //     if (msg.sender != address(upgrader)) revert CallerUpgrader();\r\n    //     _;\r\n    // }\r\n\r\n    /// @dev construct is intended to initialize immutables on implementation\r\n    constructor() {\r\n        // lock implementation\r\n        // _disableInitializers();\r\n    }\r\n\r\n    function initializeState(\r\n        // address _upgrader,\r\n        StrategyRouter _strategyRouter,\r\n        uint256 _poolId,\r\n        ERC20 _tokenA,\r\n        ERC20 _tokenB,\r\n        ERC20 _lpToken,\r\n        address _farm,\r\n        address _dodoRouter\r\n    ) external onlyOwner {\r\n        // __Ownable_init();\r\n        // __UUPSUpgradeable_init();\r\n        // upgrader = _upgrader;\r\n        strategyRouter = _strategyRouter;\r\n        poolId = _poolId;\r\n        tokenA = _tokenA;\r\n        tokenB = _tokenB;\r\n        lpToken = _lpToken;\r\n        farm = IClipSwapFarm(_farm);\r\n        dodoRouter = IUniswapV2Router02(_dodoRouter);\r\n        LEFTOVER_THRESHOLD_TOKEN_A = 10**_tokenA.decimals();\r\n        LEFTOVER_THRESHOLD_TOKEN_B = 10**_tokenB.decimals();\r\n    }\r\n\r\n    // function _authorizeUpgrade(address newImplementation) internal override onlyUpgrader {}\r\n\r\n    function depositToken() external view override returns (address) {\r\n        return address(tokenA);\r\n    }\r\n\r\n    function deposit(uint256 amount) external override onlyOwner {\r\n        Exchange exchange = strategyRouter.getExchange();\r\n\r\n        // uint256 dexFee = exchange.getFee(amount / 2, address(tokenA), address(tokenB));\r\n        uint256 amountB = calculateSwapAmount(amount / 2, 0);\r\n        // uint256 amountB = calculateSwapAmount(amount / 2);\r\n        uint256 amountA = amount - amountB;\r\n\r\n        tokenA.transfer(address(exchange), amountB);\r\n        amountB = exchange.swap(amountB, address(tokenA), address(tokenB), address(this));\r\n\r\n        tokenA.approve(address(dodoRouter), amountA);\r\n        tokenB.approve(address(dodoRouter), amountB);\r\n        (, , uint256 liquidity) = dodoRouter.addLiquidity(\r\n            address(tokenA),\r\n            address(tokenB),\r\n            amountA,\r\n            amountB,\r\n            0,\r\n            0,\r\n            address(this),\r\n            block.timestamp\r\n        );\r\n\r\n        lpToken.approve(address(farm), liquidity);\r\n        farm.deposit(poolId, liquidity);\r\n    }\r\n\r\n    function withdraw(uint256 strategyTokenAmountToWithdraw)\r\n        external\r\n        override\r\n        onlyOwner\r\n        returns (uint256 amountWithdrawn)\r\n    {\r\n        address token0 = IUniswapV2Pair(address(lpToken)).token0();\r\n        address token1 = IUniswapV2Pair(address(lpToken)).token1();\r\n        uint256 balance0 = IERC20(token0).balanceOf(address(lpToken));\r\n        uint256 balance1 = IERC20(token1).balanceOf(address(lpToken));\r\n\r\n        uint256 amountA = strategyTokenAmountToWithdraw / 2;\r\n        uint256 amountB = strategyTokenAmountToWithdraw - amountA;\r\n\r\n        (balance0, balance1) = token0 == address(tokenA) ? (balance0, balance1) : (balance1, balance0);\r\n\r\n        amountB = dodoRouter.quote(amountB, balance0, balance1);\r\n\r\n        uint256 liquidityToRemove = (lpToken.totalSupply() * (amountA + amountB)) / (balance0 + balance1);\r\n\r\n        farm.withdraw(poolId, liquidityToRemove);\r\n        lpToken.approve(address(dodoRouter), liquidityToRemove);\r\n        (amountA, amountB) = dodoRouter.removeLiquidity(\r\n            address(tokenA),\r\n            address(tokenB),\r\n            lpToken.balanceOf(address(this)),\r\n            0,\r\n            0,\r\n            address(this),\r\n            block.timestamp\r\n        );\r\n\r\n        Exchange exchange = strategyRouter.getExchange();\r\n        tokenB.approve(address(exchange), amountB);\r\n        amountA += exchange.swap(amountB, address(tokenB), address(tokenA), address(this));\r\n        tokenA.transfer(msg.sender, amountA);\r\n        return amountA;\r\n    }\r\n\r\n    function compound() external override onlyOwner {\r\n        // inside withdraw happens DODO rewards collection\r\n        farm.withdraw(poolId, 0);\r\n        // use balance because DODO is harvested on deposit and withdraw calls\r\n        uint256 dodoAmount = dodo.balanceOf(address(this));\r\n\r\n        if (dodoAmount > 0) {\r\n            fix_leftover(0);\r\n            sellReward(dodoAmount);\r\n            uint256 balanceA = tokenA.balanceOf(address(this));\r\n            uint256 balanceB = tokenB.balanceOf(address(this));\r\n\r\n            tokenA.approve(address(dodoRouter), balanceA);\r\n            tokenB.approve(address(dodoRouter), balanceB);\r\n\r\n            dodoRouter.addLiquidity(\r\n                address(tokenA),\r\n                address(tokenB),\r\n                balanceA,\r\n                balanceB,\r\n                0,\r\n                0,\r\n                address(this),\r\n                block.timestamp\r\n            );\r\n\r\n            uint256 lpAmount = lpToken.balanceOf(address(this));\r\n            lpToken.approve(address(farm), lpAmount);\r\n            farm.deposit(poolId, lpAmount);\r\n        }\r\n    }\r\n\r\n    function totalTokens() external view override returns (uint256) {\r\n        (uint256 liquidity, ) = farm.userInfo(poolId, address(this));\r\n\r\n        uint256 _totalSupply = lpToken.totalSupply();\r\n        // this formula is from uniswap.remove_liquidity -> uniswapPair.burn function\r\n        uint256 balanceA = tokenA.balanceOf(address(lpToken));\r\n        uint256 balanceB = tokenB.balanceOf(address(lpToken));\r\n        uint256 amountA = (liquidity * balanceA) / _totalSupply;\r\n        uint256 amountB = (liquidity * balanceB) / _totalSupply;\r\n\r\n        if (amountB > 0) {\r\n            address token0 = IUniswapV2Pair(address(lpToken)).token0();\r\n\r\n            (uint256 _reserve0, uint256 _reserve1) = token0 == address(tokenB)\r\n                ? (balanceB, balanceA)\r\n                : (balanceA, balanceB);\r\n\r\n            // convert amountB to amount tokenA\r\n            amountA += dodoRouter.quote(amountB, _reserve0, _reserve1);\r\n        }\r\n\r\n        return amountA;\r\n    }\r\n\r\n    function withdrawAll() external override onlyOwner returns (uint256 amountWithdrawn) {\r\n        (uint256 amount, ) = farm.userInfo(poolId, address(this));\r\n        if (amount > 0) {\r\n            farm.withdraw(poolId, amount);\r\n            uint256 lpAmount = lpToken.balanceOf(address(this));\r\n            lpToken.approve(address(dodoRouter), lpAmount);\r\n            dodoRouter.removeLiquidity(\r\n                address(tokenA),\r\n                address(tokenB),\r\n                lpToken.balanceOf(address(this)),\r\n                0,\r\n                0,\r\n                address(this),\r\n                block.timestamp\r\n            );\r\n        }\r\n\r\n        uint256 amountA = tokenA.balanceOf(address(this));\r\n        uint256 amountB = tokenB.balanceOf(address(this));\r\n\r\n        if (amountB > 0) {\r\n            Exchange exchange = strategyRouter.getExchange();\r\n            tokenB.transfer(address(exchange), amountB);\r\n            amountA += exchange.swap(amountB, address(tokenB), address(tokenA), address(this));\r\n        }\r\n        if (amountA > 0) {\r\n            tokenA.transfer(msg.sender, amountA);\r\n            return amountA;\r\n        }\r\n    }\r\n\r\n    /// @dev Swaps leftover tokens for a better ratio for LP.\r\n    function fix_leftover(uint256 amountIgnore) private {\r\n        Exchange exchange = strategyRouter.getExchange();\r\n        uint256 amountB = tokenB.balanceOf(address(this));\r\n        uint256 amountA = tokenA.balanceOf(address(this)) - amountIgnore;\r\n        uint256 toSwap;\r\n        if (amountB > amountA && (toSwap = amountB - amountA) > LEFTOVER_THRESHOLD_TOKEN_B) {\r\n            uint256 dexFee = exchange.getFee(toSwap / 2, address(tokenA), address(tokenB));\r\n            toSwap = calculateSwapAmount(toSwap / 2, dexFee);\r\n            tokenB.transfer(address(exchange), toSwap);\r\n            exchange.swap(toSwap, address(tokenB), address(tokenA), address(this));\r\n        } else if (amountA > amountB && (toSwap = amountA - amountB) > LEFTOVER_THRESHOLD_TOKEN_A) {\r\n            uint256 dexFee = exchange.getFee(toSwap / 2, address(tokenA), address(tokenB));\r\n            toSwap = calculateSwapAmount(toSwap / 2, dexFee);\r\n            tokenA.transfer(address(exchange), toSwap);\r\n            exchange.swap(toSwap, address(tokenA), address(tokenB), address(this));\r\n        }\r\n    }\r\n\r\n    // swap dodo for tokenA & tokenB in proportions 50/50\r\n    function sellReward(uint256 dodoAmount) private returns (uint256 receivedA, uint256 receivedB) {\r\n        // sell for lp ratio\r\n        uint256 amountA = dodoAmount / 2;\r\n        uint256 amountB = dodoAmount - amountA;\r\n\r\n        Exchange exchange = strategyRouter.getExchange();\r\n        dodo.transfer(address(exchange), amountA);\r\n        receivedA = exchange.swap(amountA, address(dodo), address(tokenA), address(this));\r\n\r\n        dodo.transfer(address(exchange), amountB);\r\n        receivedB = exchange.swap(amountB, address(dodo), address(tokenB), address(this));\r\n\r\n        (receivedA, receivedB) = collectProtocolCommission(receivedA, receivedB);\r\n    }\r\n\r\n    function collectProtocolCommission(uint256 amountA, uint256 amountB)\r\n        private\r\n        returns (uint256 amountAfterFeeA, uint256 amountAfterFeeB)\r\n    {\r\n        uint256 feePercent = StrategyRouter(strategyRouter).feePercent();\r\n        address feeAddress = StrategyRouter(strategyRouter).feeAddress();\r\n        uint256 ratioUint;\r\n        uint256 feeAmount = ((amountA + amountB) * feePercent) / PERCENT_DENOMINATOR;\r\n        {\r\n            (uint256 r0, uint256 r1, ) = IUniswapV2Pair(address(lpToken)).getReserves();\r\n\r\n            // equation: (a - (c*v))/(b - (c-c*v)) = z/x\r\n            // solution for v = (a*x - b*z + c*z) / (c * (z+x))\r\n            // a,b is current token amounts, z,x is pair reserves, c is total fee amount to take from a+b\r\n            // v is ratio to apply to feeAmount and take fee from a and b\r\n            // a and z should be converted to same decimals as token b (TODO for cases when decimals are different)\r\n            int256 numerator = int256(amountA * r1 + feeAmount * r0) - int256(amountB * r0);\r\n            int256 denominator = int256(feeAmount * (r0 + r1));\r\n            int256 ratio = (numerator * 1e18) / denominator;\r\n            // ratio here could be negative or greater than 1.0\r\n            // only need to be between 0 and 1\r\n            if (ratio < 0) ratio = 0;\r\n            if (ratio > 1e18) ratio = 1e18;\r\n\r\n            ratioUint = uint256(ratio);\r\n        }\r\n\r\n        // these two have same decimals, should adjust A to have A decimals,\r\n        // this is TODO for cases when tokenA and tokenB has different decimals\r\n        uint256 comissionA = (feeAmount * ratioUint) / 1e18;\r\n        uint256 comissionB = feeAmount - comissionA;\r\n\r\n        tokenA.transfer(feeAddress, comissionA);\r\n        tokenB.transfer(feeAddress, comissionB);\r\n\r\n        return (amountA - comissionA, amountB - comissionB);\r\n    }\r\n\r\n    function calculateSwapAmount(uint256 half, uint256 dexFee) private view returns (uint256 amountAfterFee) {\r\n        (uint256 r0, uint256 r1, ) = IUniswapV2Pair(address(lpToken)).getReserves();\r\n        uint256 halfWithFee = (2 * r0 * (dexFee + 1e18)) / ((r0 * (dexFee + 1e18)) / 1e18 + r1);\r\n        uint256 amountB = (half * halfWithFee) / 1e18;\r\n        return amountB;\r\n    }\r\n\r\n\r\n}",
  "sourcePath": "C:\\Users\\FVO_MMILLLER\\Desktop\\elvolution\\Testers\\contracts\\clipStrategies\\DodoStrategy.sol",
  "compiler": {
    "name": "solc",
    "version": "0.8.15+commit.e14f2714.Emscripten.clang"
  },
  "schemaVersion": "3.4.8",
  "updatedAt": "2022-09-08T16:23:05.412Z",
  "devdoc": {
    "custom:oz-upgrades-unsafe-allow": "constructor state-variable-immutable",
    "kind": "dev",
    "methods": {
      "constructor": {
        "details": "construct is intended to initialize immutables on implementation"
      },
      "owner()": {
        "details": "Returns the address of the current owner."
      },
      "renounceOwnership()": {
        "details": "Leaves the contract without owner. It will not be possible to call `onlyOwner` functions anymore. Can only be called by the current owner. NOTE: Renouncing ownership will leave the contract without an owner, thereby removing any functionality that is only available to the owner."
      },
      "transferOwnership(address)": {
        "details": "Transfers ownership of the contract to a new account (`newOwner`). Can only be called by the current owner."
      }
    },
    "version": 1
  },
  "userdoc": {
    "events": {
      "AllocateToStrategies(uint256,uint256)": {
        "notice": "Fires when batch is deposited into strategies."
      },
      "Deposit(address,address,uint256)": {
        "notice": "Fires when user deposits in batch."
      },
      "RedeemReceiptsToShares(address,uint256,uint256[])": {
        "notice": "Fires when user converts his receipt into shares token."
      },
      "RedeemReceiptsToSharesByModerators(address,uint256[])": {
        "notice": "Fires when moderator converts foreign receipts into shares token."
      },
      "WithdrawFromBatch(address,address,uint256)": {
        "notice": "Fires when user withdraw from batch."
      },
      "WithdrawFromStrategies(address,address,uint256)": {
        "notice": "Fires when user withdraw from strategies."
      }
    },
    "kind": "user",
    "methods": {
      "compound()": {
        "notice": "Harvest rewards and reinvest them."
      },
      "deposit(uint256)": {
        "notice": "Deposit token to strategy."
      },
      "depositToken()": {
        "notice": "Token used to deposit to strategy."
      },
      "totalTokens()": {
        "notice": "Approximated amount of token on the strategy."
      },
      "withdrawAll()": {
        "notice": "Withdraw all tokens from strategy."
      }
    },
    "notice": "Dodo Exchange USDT Liquidity pool. How is works ------------ - USDT is converted to an LP token in the BUSD-USDT Pool on the DODO Exchange - USDT LP token is staked in the BUSD-USDT liquidity mining farm. - Rewards are received as DODO tokens. - DODO tokens are sold for USDT and deposited back into the pool. Functions:  o deposit() o withdraw() o withdrawall() o compound() params.clip : Contract of the reward token. (In this case Dodo) param.farm : Liquidity Mining Farm.",
    "version": 1
  }
}