{
  "contractName": "Exchange",
  "abi": [
    {
      "inputs": [],
      "stateMutability": "nonpayable",
      "type": "constructor"
    },
    {
      "inputs": [],
      "name": "RouteNotFound",
      "type": "error"
    },
    {
      "inputs": [],
      "name": "RoutedSwapFailed",
      "type": "error"
    },
    {
      "anonymous": false,
      "inputs": [
        {
          "indexed": false,
          "internalType": "address",
          "name": "previousAdmin",
          "type": "address"
        },
        {
          "indexed": false,
          "internalType": "address",
          "name": "newAdmin",
          "type": "address"
        }
      ],
      "name": "AdminChanged",
      "type": "event"
    },
    {
      "anonymous": false,
      "inputs": [
        {
          "indexed": true,
          "internalType": "address",
          "name": "beacon",
          "type": "address"
        }
      ],
      "name": "BeaconUpgraded",
      "type": "event"
    },
    {
      "anonymous": false,
      "inputs": [
        {
          "indexed": false,
          "internalType": "uint8",
          "name": "version",
          "type": "uint8"
        }
      ],
      "name": "Initialized",
      "type": "event"
    },
    {
      "anonymous": false,
      "inputs": [
        {
          "indexed": true,
          "internalType": "address",
          "name": "previousOwner",
          "type": "address"
        },
        {
          "indexed": true,
          "internalType": "address",
          "name": "newOwner",
          "type": "address"
        }
      ],
      "name": "OwnershipTransferred",
      "type": "event"
    },
    {
      "anonymous": false,
      "inputs": [
        {
          "indexed": true,
          "internalType": "address",
          "name": "implementation",
          "type": "address"
        }
      ],
      "name": "Upgraded",
      "type": "event"
    },
    {
      "inputs": [],
      "name": "owner",
      "outputs": [
        {
          "internalType": "address",
          "name": "",
          "type": "address"
        }
      ],
      "stateMutability": "view",
      "type": "function"
    },
    {
      "inputs": [],
      "name": "proxiableUUID",
      "outputs": [
        {
          "internalType": "bytes32",
          "name": "",
          "type": "bytes32"
        }
      ],
      "stateMutability": "view",
      "type": "function"
    },
    {
      "inputs": [],
      "name": "renounceOwnership",
      "outputs": [],
      "stateMutability": "nonpayable",
      "type": "function"
    },
    {
      "inputs": [
        {
          "internalType": "address",
          "name": "",
          "type": "address"
        },
        {
          "internalType": "address",
          "name": "",
          "type": "address"
        }
      ],
      "name": "routes",
      "outputs": [
        {
          "internalType": "address",
          "name": "defaultRoute",
          "type": "address"
        },
        {
          "internalType": "uint256",
          "name": "limit",
          "type": "uint256"
        },
        {
          "internalType": "address",
          "name": "secondRoute",
          "type": "address"
        }
      ],
      "stateMutability": "view",
      "type": "function"
    },
    {
      "inputs": [
        {
          "internalType": "address",
          "name": "newOwner",
          "type": "address"
        }
      ],
      "name": "transferOwnership",
      "outputs": [],
      "stateMutability": "nonpayable",
      "type": "function"
    },
    {
      "inputs": [
        {
          "internalType": "address",
          "name": "newImplementation",
          "type": "address"
        }
      ],
      "name": "upgradeTo",
      "outputs": [],
      "stateMutability": "nonpayable",
      "type": "function"
    },
    {
      "inputs": [
        {
          "internalType": "address",
          "name": "newImplementation",
          "type": "address"
        },
        {
          "internalType": "bytes",
          "name": "data",
          "type": "bytes"
        }
      ],
      "name": "upgradeToAndCall",
      "outputs": [],
      "stateMutability": "payable",
      "type": "function"
    },
    {
      "inputs": [],
      "name": "initialize",
      "outputs": [],
      "stateMutability": "nonpayable",
      "type": "function"
    },
    {
      "inputs": [
        {
          "internalType": "address[]",
          "name": "tokensA",
          "type": "address[]"
        },
        {
          "internalType": "address[]",
          "name": "tokensB",
          "type": "address[]"
        },
        {
          "internalType": "address[]",
          "name": "plugin",
          "type": "address[]"
        }
      ],
      "name": "setRoute",
      "outputs": [],
      "stateMutability": "nonpayable",
      "type": "function"
    },
    {
      "inputs": [
        {
          "internalType": "address[]",
          "name": "tokensA",
          "type": "address[]"
        },
        {
          "internalType": "address[]",
          "name": "tokensB",
          "type": "address[]"
        },
        {
          "components": [
            {
              "internalType": "address",
              "name": "defaultRoute",
              "type": "address"
            },
            {
              "internalType": "uint256",
              "name": "limit",
              "type": "uint256"
            },
            {
              "internalType": "address",
              "name": "secondRoute",
              "type": "address"
            }
          ],
          "internalType": "struct Exchange.RouteParams[]",
          "name": "_routes",
          "type": "tuple[]"
        }
      ],
      "name": "setRouteEx",
      "outputs": [],
      "stateMutability": "nonpayable",
      "type": "function"
    },
    {
      "inputs": [
        {
          "internalType": "uint256",
          "name": "amountA",
          "type": "uint256"
        },
        {
          "internalType": "address",
          "name": "tokenA",
          "type": "address"
        },
        {
          "internalType": "address",
          "name": "tokenB",
          "type": "address"
        }
      ],
      "name": "getPlugin",
      "outputs": [
        {
          "internalType": "address",
          "name": "plugin",
          "type": "address"
        }
      ],
      "stateMutability": "view",
      "type": "function"
    },
    {
      "inputs": [
        {
          "internalType": "uint256",
          "name": "amountA",
          "type": "uint256"
        },
        {
          "internalType": "address",
          "name": "tokenA",
          "type": "address"
        },
        {
          "internalType": "address",
          "name": "tokenB",
          "type": "address"
        }
      ],
      "name": "getFee",
      "outputs": [
        {
          "internalType": "uint256",
          "name": "feePercent",
          "type": "uint256"
        }
      ],
      "stateMutability": "view",
      "type": "function"
    },
    {
      "inputs": [
        {
          "internalType": "uint256",
          "name": "amountA",
          "type": "uint256"
        },
        {
          "internalType": "address",
          "name": "tokenA",
          "type": "address"
        },
        {
          "internalType": "address",
          "name": "tokenB",
          "type": "address"
        }
      ],
      "name": "getAmountOut",
      "outputs": [
        {
          "internalType": "uint256",
          "name": "amountOut",
          "type": "uint256"
        }
      ],
      "stateMutability": "view",
      "type": "function"
    },
    {
      "inputs": [
        {
          "internalType": "uint256",
          "name": "amountA",
          "type": "uint256"
        },
        {
          "internalType": "address",
          "name": "tokenA",
          "type": "address"
        },
        {
          "internalType": "address",
          "name": "tokenB",
          "type": "address"
        },
        {
          "internalType": "address",
          "name": "to",
          "type": "address"
        }
      ],
      "name": "swap",
      "outputs": [
        {
          "internalType": "uint256",
          "name": "amountReceived",
          "type": "uint256"
        }
      ],
      "stateMutability": "nonpayable",
      "type": "function"
    }
  ],
  "bytecode": "0x60a06040523073ffffffffffffffffffffffffffffffffffffffff1660809073ffffffffffffffffffffffffffffffffffffffff168152503480156200004457600080fd5b50620000556200005b60201b60201c565b62000206565b600060019054906101000a900460ff1615620000ae576040517f08c379a0000000000000000000000000000000000000000000000000000000008152600401620000a590620001a9565b60405180910390fd5b60ff801660008054906101000a900460ff1660ff161015620001205760ff6000806101000a81548160ff021916908360ff1602179055507f7f26b83ff96e1f2b6a682f133852f6798a09c465da95921460cefb384740249860ff604051620001179190620001e9565b60405180910390a15b565b600082825260208201905092915050565b7f496e697469616c697a61626c653a20636f6e747261637420697320696e69746960008201527f616c697a696e6700000000000000000000000000000000000000000000000000602082015250565b60006200019160278362000122565b91506200019e8262000133565b604082019050919050565b60006020820190508181036000830152620001c48162000182565b9050919050565b600060ff82169050919050565b620001e381620001cb565b82525050565b6000602082019050620002006000830184620001d8565b92915050565b608051612ddf6200023e600039600081816104d3015281816105610152818161065b015281816106e901526108100152612ddf6000f3fe6080604052600436106100dd5760003560e01c80638129fc1c1161007f5780639374f8c6116100595780639374f8c61461028d578063baff37ee146102b6578063f2b5dc80146102f3578063f2fde38b14610330576100dd565b80638129fc1c1461020e57806388156e65146102255780638da5cb5b14610262576100dd565b80635055374d116100bb5780635055374d1461015057806352d1902d1461018f5780635e1e6325146101ba578063715018a6146101f7576100dd565b80632467d32c146100e25780633659cfe61461010b5780634f1ef28614610134575b600080fd5b3480156100ee57600080fd5b506101096004803603810190610104919061192b565b610359565b005b34801561011757600080fd5b50610132600480360381019061012d9190611a3d565b6104d1565b005b61014e60048036038101906101499190611bab565b610659565b005b34801561015c57600080fd5b5061017760048036038101906101729190611c07565b610795565b60405161018693929190611c6f565b60405180910390f35b34801561019b57600080fd5b506101a461080c565b6040516101b19190611cbf565b60405180910390f35b3480156101c657600080fd5b506101e160048036038101906101dc9190611d06565b6108c5565b6040516101ee9190611d59565b60405180910390f35b34801561020357600080fd5b5061020c61095d565b005b34801561021a57600080fd5b50610223610971565b005b34801561023157600080fd5b5061024c60048036038101906102479190611d74565b610ab7565b6040516102599190611d59565b60405180910390f35b34801561026e57600080fd5b50610277610c0d565b6040516102849190611ddb565b60405180910390f35b34801561029957600080fd5b506102b460048036038101906102af9190611e4c565b610c37565b005b3480156102c257600080fd5b506102dd60048036038101906102d89190611d06565b610d6e565b6040516102ea9190611d59565b60405180910390f35b3480156102ff57600080fd5b5061031a60048036038101906103159190611d06565b610e04565b6040516103279190611ddb565b60405180910390f35b34801561033c57600080fd5b5061035760048036038101906103529190611a3d565b611103565b005b610361611186565b60005b868690508110156104c8576000806103ca89898581811061038857610387611f00565b5b905060200201602081019061039d9190611a3d565b8888868181106103b0576103af611f00565b5b90506020020160208101906103c59190611a3d565b611204565b915091508484848181106103e1576103e0611f00565b5b90506020020160208101906103f69190611a3d565b60c960008473ffffffffffffffffffffffffffffffffffffffff1673ffffffffffffffffffffffffffffffffffffffff16815260200190815260200160002060008373ffffffffffffffffffffffffffffffffffffffff1673ffffffffffffffffffffffffffffffffffffffff16815260200190815260200160002060000160006101000a81548173ffffffffffffffffffffffffffffffffffffffff021916908373ffffffffffffffffffffffffffffffffffffffff160217905550505080806104c090611f5e565b915050610364565b50505050505050565b7f000000000000000000000000000000000000000000000000000000000000000073ffffffffffffffffffffffffffffffffffffffff163073ffffffffffffffffffffffffffffffffffffffff160361055f576040517f08c379a000000000000000000000000000000000000000000000000000000000815260040161055690612029565b60405180910390fd5b7f000000000000000000000000000000000000000000000000000000000000000073ffffffffffffffffffffffffffffffffffffffff1661059e611253565b73ffffffffffffffffffffffffffffffffffffffff16146105f4576040517f08c379a00000000000000000000000000000000000000000000000000000000081526004016105eb906120bb565b60405180910390fd5b6105fd816112aa565b61065681600067ffffffffffffffff81111561061c5761061b611a80565b5b6040519080825280601f01601f19166020018201604052801561064e5781602001600182028036833780820191505090505b5060006112b5565b50565b7f000000000000000000000000000000000000000000000000000000000000000073ffffffffffffffffffffffffffffffffffffffff163073ffffffffffffffffffffffffffffffffffffffff16036106e7576040517f08c379a00000000000000000000000000000000000000000000000000000000081526004016106de90612029565b60405180910390fd5b7f000000000000000000000000000000000000000000000000000000000000000073ffffffffffffffffffffffffffffffffffffffff16610726611253565b73ffffffffffffffffffffffffffffffffffffffff161461077c576040517f08c379a0000000000000000000000000000000000000000000000000000000008152600401610773906120bb565b60405180910390fd5b610785826112aa565b610791828260016112b5565b5050565b60c9602052816000526040600020602052806000526040600020600091509150508060000160009054906101000a900473ffffffffffffffffffffffffffffffffffffffff16908060010154908060020160009054906101000a900473ffffffffffffffffffffffffffffffffffffffff16905083565b60007f000000000000000000000000000000000000000000000000000000000000000073ffffffffffffffffffffffffffffffffffffffff163073ffffffffffffffffffffffffffffffffffffffff161461089c576040517f08c379a00000000000000000000000000000000000000000000000000000000081526004016108939061214d565b60405180910390fd5b7f360894a13ba1a3210667c828492db98dca3e2076cc3735a920a3ca505d382bbc60001b905090565b6000806108d3858585610e04565b90508073ffffffffffffffffffffffffffffffffffffffff16635e1e63258686866040518463ffffffff1660e01b81526004016109129392919061216d565b602060405180830381865afa15801561092f573d6000803e3d6000fd5b505050506040513d601f19601f8201168201806040525081019061095391906121b9565b9150509392505050565b610965611186565b61096f6000611423565b565b60008060019054906101000a900460ff161590508080156109a25750600160008054906101000a900460ff1660ff16105b806109cf57506109b1306114e9565b1580156109ce5750600160008054906101000a900460ff1660ff16145b5b610a0e576040517f08c379a0000000000000000000000000000000000000000000000000000000008152600401610a0590612258565b60405180910390fd5b60016000806101000a81548160ff021916908360ff1602179055508015610a4b576001600060016101000a81548160ff0219169083151502179055505b610a5361150c565b610a5b611565565b8015610ab45760008060016101000a81548160ff0219169083151502179055507f7f26b83ff96e1f2b6a682f133852f6798a09c465da95921460cefb38474024986001604051610aab91906122ca565b60405180910390a15b50565b600080610ac5868686610e04565b90508473ffffffffffffffffffffffffffffffffffffffff1663a9059cbb82886040518363ffffffff1660e01b8152600401610b029291906122e5565b6020604051808303816000875af1158015610b21573d6000803e3d6000fd5b505050506040513d601f19601f82011682018060405250810190610b459190612346565b508073ffffffffffffffffffffffffffffffffffffffff166388156e65878787876040518563ffffffff1660e01b8152600401610b859493929190612373565b6020604051808303816000875af1158015610ba4573d6000803e3d6000fd5b505050506040513d601f19601f82011682018060405250810190610bc891906121b9565b915060008203610c04576040517fc8e0803f00000000000000000000000000000000000000000000000000000000815260040160405180910390fd5b50949350505050565b6000609760009054906101000a900473ffffffffffffffffffffffffffffffffffffffff16905090565b610c3f611186565b60005b86869050811015610d6557600080610ca8898985818110610c6657610c65611f00565b5b9050602002016020810190610c7b9190611a3d565b888886818110610c8e57610c8d611f00565b5b9050602002016020810190610ca39190611a3d565b611204565b91509150848484818110610cbf57610cbe611f00565b5b90506060020160c960008473ffffffffffffffffffffffffffffffffffffffff1673ffffffffffffffffffffffffffffffffffffffff16815260200190815260200160002060008373ffffffffffffffffffffffffffffffffffffffff1673ffffffffffffffffffffffffffffffffffffffff1681526020019081526020016000208181610d4d9190612592565b90505050508080610d5d90611f5e565b915050610c42565b50505050505050565b600080610d7c858585610e04565b90508073ffffffffffffffffffffffffffffffffffffffff1663fee9989885856040518363ffffffff1660e01b8152600401610db99291906125a0565b602060405180830381865afa158015610dd6573d6000803e3d6000fd5b505050506040513d601f19601f82011682018060405250810190610dfa91906121b9565b9150509392505050565b6000806000610e138585611204565b91509150600060c960008473ffffffffffffffffffffffffffffffffffffffff1673ffffffffffffffffffffffffffffffffffffffff16815260200190815260200160002060008373ffffffffffffffffffffffffffffffffffffffff1673ffffffffffffffffffffffffffffffffffffffff168152602001908152602001600020600101549050600064e8d4a510008773ffffffffffffffffffffffffffffffffffffffff1663313ce5676040518163ffffffff1660e01b8152600401602060405180830381865afa158015610eee573d6000803e3d6000fd5b505050506040513d601f19601f82011682018060405250810190610f1291906125f5565b600a610f1e9190612755565b83610f2991906127a0565b610f339190612829565b90506000821480610f4357508088105b15610fef5760c960008573ffffffffffffffffffffffffffffffffffffffff1673ffffffffffffffffffffffffffffffffffffffff16815260200190815260200160002060008473ffffffffffffffffffffffffffffffffffffffff1673ffffffffffffffffffffffffffffffffffffffff16815260200190815260200160002060000160009054906101000a900473ffffffffffffffffffffffffffffffffffffffff169450611092565b60c960008573ffffffffffffffffffffffffffffffffffffffff1673ffffffffffffffffffffffffffffffffffffffff16815260200190815260200160002060008473ffffffffffffffffffffffffffffffffffffffff1673ffffffffffffffffffffffffffffffffffffffff16815260200190815260200160002060020160009054906101000a900473ffffffffffffffffffffffffffffffffffffffff1694505b600073ffffffffffffffffffffffffffffffffffffffff168573ffffffffffffffffffffffffffffffffffffffff16036110f8576040517fb5c0f44000000000000000000000000000000000000000000000000000000000815260040160405180910390fd5b505050509392505050565b61110b611186565b600073ffffffffffffffffffffffffffffffffffffffff168173ffffffffffffffffffffffffffffffffffffffff160361117a576040517f08c379a0000000000000000000000000000000000000000000000000000000008152600401611171906128cc565b60405180910390fd5b61118381611423565b50565b61118e6115b6565b73ffffffffffffffffffffffffffffffffffffffff166111ac610c0d565b73ffffffffffffffffffffffffffffffffffffffff1614611202576040517f08c379a00000000000000000000000000000000000000000000000000000000081526004016111f990612938565b60405180910390fd5b565b6000808273ffffffffffffffffffffffffffffffffffffffff168473ffffffffffffffffffffffffffffffffffffffff1610611241578284611244565b83835b80925081935050509250929050565b60006112817f360894a13ba1a3210667c828492db98dca3e2076cc3735a920a3ca505d382bbc60001b6115be565b60000160009054906101000a900473ffffffffffffffffffffffffffffffffffffffff16905090565b6112b2611186565b50565b6112e17f4910fdfa16fed3260ed0e7147f7cc6da11a60208b5b9406d12a635614ffd914360001b6115c8565b60000160009054906101000a900460ff161561130557611300836115d2565b61141e565b8273ffffffffffffffffffffffffffffffffffffffff166352d1902d6040518163ffffffff1660e01b8152600401602060405180830381865afa92505050801561136d57506040513d601f19601f8201168201806040525081019061136a9190612984565b60015b6113ac576040517f08c379a00000000000000000000000000000000000000000000000000000000081526004016113a390612a23565b60405180910390fd5b7f360894a13ba1a3210667c828492db98dca3e2076cc3735a920a3ca505d382bbc60001b8114611411576040517f08c379a000000000000000000000000000000000000000000000000000000000815260040161140890612ab5565b60405180910390fd5b5061141d83838361168b565b5b505050565b6000609760009054906101000a900473ffffffffffffffffffffffffffffffffffffffff16905081609760006101000a81548173ffffffffffffffffffffffffffffffffffffffff021916908373ffffffffffffffffffffffffffffffffffffffff1602179055508173ffffffffffffffffffffffffffffffffffffffff168173ffffffffffffffffffffffffffffffffffffffff167f8be0079c531659141344cd1fd0a4f28419497f9722a3daafe3b4186f6b6457e060405160405180910390a35050565b6000808273ffffffffffffffffffffffffffffffffffffffff163b119050919050565b600060019054906101000a900460ff1661155b576040517f08c379a000000000000000000000000000000000000000000000000000000000815260040161155290612b47565b60405180910390fd5b6115636116b7565b565b600060019054906101000a900460ff166115b4576040517f08c379a00000000000000000000000000000000000000000000000000000000081526004016115ab90612b47565b60405180910390fd5b565b600033905090565b6000819050919050565b6000819050919050565b6115db816114e9565b61161a576040517f08c379a000000000000000000000000000000000000000000000000000000000815260040161161190612bd9565b60405180910390fd5b806116477f360894a13ba1a3210667c828492db98dca3e2076cc3735a920a3ca505d382bbc60001b6115be565b60000160006101000a81548173ffffffffffffffffffffffffffffffffffffffff021916908373ffffffffffffffffffffffffffffffffffffffff16021790555050565b61169483611718565b6000825111806116a15750805b156116b2576116b08383611767565b505b505050565b600060019054906101000a900460ff16611706576040517f08c379a00000000000000000000000000000000000000000000000000000000081526004016116fd90612b47565b60405180910390fd5b6117166117116115b6565b611423565b565b611721816115d2565b8073ffffffffffffffffffffffffffffffffffffffff167fbc7cd75a20ee27fd9adebab32041f755214dbc6bffa90cc0225b39da2e5c2d3b60405160405180910390a250565b6060611772836114e9565b6117b1576040517f08c379a00000000000000000000000000000000000000000000000000000000081526004016117a890612c6b565b60405180910390fd5b6000808473ffffffffffffffffffffffffffffffffffffffff16846040516117d99190612d05565b600060405180830381855af49150503d8060008114611814576040519150601f19603f3d011682016040523d82523d6000602084013e611819565b606091505b50915091506118418282604051806060016040528060278152602001612d836027913961184b565b9250505092915050565b6060831561185b578290506118ab565b60008351111561186e5782518084602001fd5b816040517f08c379a00000000000000000000000000000000000000000000000000000000081526004016118a29190612d60565b60405180910390fd5b9392505050565b6000604051905090565b600080fd5b600080fd5b600080fd5b600080fd5b600080fd5b60008083601f8401126118eb576118ea6118c6565b5b8235905067ffffffffffffffff811115611908576119076118cb565b5b602083019150836020820283011115611924576119236118d0565b5b9250929050565b60008060008060008060608789031215611948576119476118bc565b5b600087013567ffffffffffffffff811115611966576119656118c1565b5b61197289828a016118d5565b9650965050602087013567ffffffffffffffff811115611995576119946118c1565b5b6119a189828a016118d5565b9450945050604087013567ffffffffffffffff8111156119c4576119c36118c1565b5b6119d089828a016118d5565b92509250509295509295509295565b600073ffffffffffffffffffffffffffffffffffffffff82169050919050565b6000611a0a826119df565b9050919050565b611a1a816119ff565b8114611a2557600080fd5b50565b600081359050611a3781611a11565b92915050565b600060208284031215611a5357611a526118bc565b5b6000611a6184828501611a28565b91505092915050565b600080fd5b6000601f19601f8301169050919050565b7f4e487b7100000000000000000000000000000000000000000000000000000000600052604160045260246000fd5b611ab882611a6f565b810181811067ffffffffffffffff82111715611ad757611ad6611a80565b5b80604052505050565b6000611aea6118b2565b9050611af68282611aaf565b919050565b600067ffffffffffffffff821115611b1657611b15611a80565b5b611b1f82611a6f565b9050602081019050919050565b82818337600083830152505050565b6000611b4e611b4984611afb565b611ae0565b905082815260208101848484011115611b6a57611b69611a6a565b5b611b75848285611b2c565b509392505050565b600082601f830112611b9257611b916118c6565b5b8135611ba2848260208601611b3b565b91505092915050565b60008060408385031215611bc257611bc16118bc565b5b6000611bd085828601611a28565b925050602083013567ffffffffffffffff811115611bf157611bf06118c1565b5b611bfd85828601611b7d565b9150509250929050565b60008060408385031215611c1e57611c1d6118bc565b5b6000611c2c85828601611a28565b9250506020611c3d85828601611a28565b9150509250929050565b611c50816119ff565b82525050565b6000819050919050565b611c6981611c56565b82525050565b6000606082019050611c846000830186611c47565b611c916020830185611c60565b611c9e6040830184611c47565b949350505050565b6000819050919050565b611cb981611ca6565b82525050565b6000602082019050611cd46000830184611cb0565b92915050565b611ce381611c56565b8114611cee57600080fd5b50565b600081359050611d0081611cda565b92915050565b600080600060608486031215611d1f57611d1e6118bc565b5b6000611d2d86828701611cf1565b9350506020611d3e86828701611a28565b9250506040611d4f86828701611a28565b9150509250925092565b6000602082019050611d6e6000830184611c60565b92915050565b60008060008060808587031215611d8e57611d8d6118bc565b5b6000611d9c87828801611cf1565b9450506020611dad87828801611a28565b9350506040611dbe87828801611a28565b9250506060611dcf87828801611a28565b91505092959194509250565b6000602082019050611df06000830184611c47565b92915050565b60008083601f840112611e0c57611e0b6118c6565b5b8235905067ffffffffffffffff811115611e2957611e286118cb565b5b602083019150836060820283011115611e4557611e446118d0565b5b9250929050565b60008060008060008060608789031215611e6957611e686118bc565b5b600087013567ffffffffffffffff811115611e8757611e866118c1565b5b611e9389828a016118d5565b9650965050602087013567ffffffffffffffff811115611eb657611eb56118c1565b5b611ec289828a016118d5565b9450945050604087013567ffffffffffffffff811115611ee557611ee46118c1565b5b611ef189828a01611df6565b92509250509295509295509295565b7f4e487b7100000000000000000000000000000000000000000000000000000000600052603260045260246000fd5b7f4e487b7100000000000000000000000000000000000000000000000000000000600052601160045260246000fd5b6000611f6982611c56565b91507fffffffffffffffffffffffffffffffffffffffffffffffffffffffffffffffff8203611f9b57611f9a611f2f565b5b600182019050919050565b600082825260208201905092915050565b7f46756e6374696f6e206d7573742062652063616c6c6564207468726f7567682060008201527f64656c656761746563616c6c0000000000000000000000000000000000000000602082015250565b6000612013602c83611fa6565b915061201e82611fb7565b604082019050919050565b6000602082019050818103600083015261204281612006565b9050919050565b7f46756e6374696f6e206d7573742062652063616c6c6564207468726f7567682060008201527f6163746976652070726f78790000000000000000000000000000000000000000602082015250565b60006120a5602c83611fa6565b91506120b082612049565b604082019050919050565b600060208201905081810360008301526120d481612098565b9050919050565b7f555550535570677261646561626c653a206d757374206e6f742062652063616c60008201527f6c6564207468726f7567682064656c656761746563616c6c0000000000000000602082015250565b6000612137603883611fa6565b9150612142826120db565b604082019050919050565b600060208201905081810360008301526121668161212a565b9050919050565b60006060820190506121826000830186611c60565b61218f6020830185611c47565b61219c6040830184611c47565b949350505050565b6000815190506121b381611cda565b92915050565b6000602082840312156121cf576121ce6118bc565b5b60006121dd848285016121a4565b91505092915050565b7f496e697469616c697a61626c653a20636f6e747261637420697320616c72656160008201527f647920696e697469616c697a6564000000000000000000000000000000000000602082015250565b6000612242602e83611fa6565b915061224d826121e6565b604082019050919050565b6000602082019050818103600083015261227181612235565b9050919050565b6000819050919050565b600060ff82169050919050565b6000819050919050565b60006122b46122af6122aa84612278565b61228f565b612282565b9050919050565b6122c481612299565b82525050565b60006020820190506122df60008301846122bb565b92915050565b60006040820190506122fa6000830185611c47565b6123076020830184611c60565b9392505050565b60008115159050919050565b6123238161230e565b811461232e57600080fd5b50565b6000815190506123408161231a565b92915050565b60006020828403121561235c5761235b6118bc565b5b600061236a84828501612331565b91505092915050565b60006080820190506123886000830187611c60565b6123956020830186611c47565b6123a26040830185611c47565b6123af6060830184611c47565b95945050505050565b600081356123c581611a11565b80915050919050565b60008160001b9050919050565b600073ffffffffffffffffffffffffffffffffffffffff6123fb846123ce565b9350801983169250808416831791505092915050565b600061242c612427612422846119df565b61228f565b6119df565b9050919050565b600061243e82612411565b9050919050565b600061245082612433565b9050919050565b6000819050919050565b61246a82612445565b61247d61247682612457565b83546123db565b8255505050565b6000813561249181611cda565b80915050919050565b60007fffffffffffffffffffffffffffffffffffffffffffffffffffffffffffffffff6124c6846123ce565b9350801983169250808416831791505092915050565b60006124f76124f26124ed84611c56565b61228f565b611c56565b9050919050565b6000819050919050565b612511826124dc565b61252461251d826124fe565b835461249a565b8255505050565b60008101600083018061253d816123b8565b90506125498184612461565b50505060018101602083018061255e81612484565b905061256a8184612508565b50505060028101604083018061257f816123b8565b905061258b8184612461565b5050505050565b61259c828261252b565b5050565b60006040820190506125b56000830185611c47565b6125c26020830184611c47565b9392505050565b6125d281612282565b81146125dd57600080fd5b50565b6000815190506125ef816125c9565b92915050565b60006020828403121561260b5761260a6118bc565b5b6000612619848285016125e0565b91505092915050565b60008160011c9050919050565b6000808291508390505b60018511156126795780860481111561265557612654611f2f565b5b60018516156126645780820291505b808102905061267285612622565b9450612639565b94509492505050565b600082612692576001905061274e565b816126a0576000905061274e565b81600181146126b657600281146126c0576126ef565b600191505061274e565b60ff8411156126d2576126d1611f2f565b5b8360020a9150848211156126e9576126e8611f2f565b5b5061274e565b5060208310610133831016604e8410600b84101617156127245782820a90508381111561271f5761271e611f2f565b5b61274e565b612731848484600161262f565b9250905081840481111561274857612747611f2f565b5b81810290505b9392505050565b600061276082611c56565b915061276b83612282565b92506127987fffffffffffffffffffffffffffffffffffffffffffffffffffffffffffffffff8484612682565b905092915050565b60006127ab82611c56565b91506127b683611c56565b9250817fffffffffffffffffffffffffffffffffffffffffffffffffffffffffffffffff04831182151516156127ef576127ee611f2f565b5b828202905092915050565b7f4e487b7100000000000000000000000000000000000000000000000000000000600052601260045260246000fd5b600061283482611c56565b915061283f83611c56565b92508261284f5761284e6127fa565b5b828204905092915050565b7f4f776e61626c653a206e6577206f776e657220697320746865207a65726f206160008201527f6464726573730000000000000000000000000000000000000000000000000000602082015250565b60006128b6602683611fa6565b91506128c18261285a565b604082019050919050565b600060208201905081810360008301526128e5816128a9565b9050919050565b7f4f776e61626c653a2063616c6c6572206973206e6f7420746865206f776e6572600082015250565b6000612922602083611fa6565b915061292d826128ec565b602082019050919050565b6000602082019050818103600083015261295181612915565b9050919050565b61296181611ca6565b811461296c57600080fd5b50565b60008151905061297e81612958565b92915050565b60006020828403121561299a576129996118bc565b5b60006129a88482850161296f565b91505092915050565b7f45524331393637557067726164653a206e657720696d706c656d656e7461746960008201527f6f6e206973206e6f742055555053000000000000000000000000000000000000602082015250565b6000612a0d602e83611fa6565b9150612a18826129b1565b604082019050919050565b60006020820190508181036000830152612a3c81612a00565b9050919050565b7f45524331393637557067726164653a20756e737570706f727465642070726f7860008201527f6961626c65555549440000000000000000000000000000000000000000000000602082015250565b6000612a9f602983611fa6565b9150612aaa82612a43565b604082019050919050565b60006020820190508181036000830152612ace81612a92565b9050919050565b7f496e697469616c697a61626c653a20636f6e7472616374206973206e6f74206960008201527f6e697469616c697a696e67000000000000000000000000000000000000000000602082015250565b6000612b31602b83611fa6565b9150612b3c82612ad5565b604082019050919050565b60006020820190508181036000830152612b6081612b24565b9050919050565b7f455243313936373a206e657720696d706c656d656e746174696f6e206973206e60008201527f6f74206120636f6e747261637400000000000000000000000000000000000000602082015250565b6000612bc3602d83611fa6565b9150612bce82612b67565b604082019050919050565b60006020820190508181036000830152612bf281612bb6565b9050919050565b7f416464726573733a2064656c65676174652063616c6c20746f206e6f6e2d636f60008201527f6e74726163740000000000000000000000000000000000000000000000000000602082015250565b6000612c55602683611fa6565b9150612c6082612bf9565b604082019050919050565b60006020820190508181036000830152612c8481612c48565b9050919050565b600081519050919050565b600081905092915050565b60005b83811015612cbf578082015181840152602081019050612ca4565b83811115612cce576000848401525b50505050565b6000612cdf82612c8b565b612ce98185612c96565b9350612cf9818560208601612ca1565b80840191505092915050565b6000612d118284612cd4565b915081905092915050565b600081519050919050565b6000612d3282612d1c565b612d3c8185611fa6565b9350612d4c818560208601612ca1565b612d5581611a6f565b840191505092915050565b60006020820190508181036000830152612d7a8184612d27565b90509291505056fe416464726573733a206c6f772d6c6576656c2064656c65676174652063616c6c206661696c6564a264697066735822122077a9c03ac58f46ca2e02d97b51ede1b532ef4a7ec1e357ea2a223ddcbadac28464736f6c634300080f0033",
  "immutableReferences": {
    "1233": [
      {
        "length": 32,
        "start": 1235
      },
      {
        "length": 32,
        "start": 1377
      },
      {
        "length": 32,
        "start": 1627
      },
      {
        "length": 32,
        "start": 1769
      },
      {
        "length": 32,
        "start": 2064
      }
    ]
  },
  "source": "//SPDX-License-Identifier: Unlicense\r\npragma solidity ^0.8.0;\r\nimport \"@openzeppelin/contracts/token/ERC20/IERC20.sol\";\r\nimport \"@openzeppelin/contracts/token/ERC20/ERC20.sol\";\r\nimport \"@openzeppelin/contracts-upgradeable/access/OwnableUpgradeable.sol\";\r\nimport \"@openzeppelin/contracts-upgradeable/proxy/utils/UUPSUpgradeable.sol\";\r\nimport \"@uniswap/v2-periphery/contracts/interfaces/IUniswapV2Router02.sol\";\r\nimport \"../interfaces/ICurvePool.sol\";\r\nimport \"../interfaces/IExchangePlugin.sol\";\r\nimport {StrategyRouter} from \"../main/StrategyRouter.sol\";\r\n\r\n// import \"hardhat/console.sol\";\r\n\r\ncontract Exchange is UUPSUpgradeable, OwnableUpgradeable {\r\n    error RoutedSwapFailed();\r\n    error RouteNotFound();\r\n\r\n    struct RouteParams {\r\n        // default exchange to use, could have low slippage but also lower liquidity\r\n        address defaultRoute;\r\n        // whenever input amount is over limit, then should use secondRoute\r\n        uint256 limit;\r\n        // second exchange, could have higher slippage but also higher liquidity\r\n        address secondRoute;\r\n    }\r\n\r\n    // which plugin to use for swap for this pair\r\n    // tokenA -> tokenB -> RouteParams\r\n    mapping(address => mapping(address => RouteParams)) public routes;\r\n\r\n    uint256 private constant LIMIT_PRECISION = 1e12;\r\n\r\n    /// @custom:oz-upgrades-unsafe-allow constructor\r\n    constructor() {\r\n        // lock implementation\r\n        _disableInitializers();\r\n    }\r\n\r\n    function initialize() external initializer {\r\n        __Ownable_init();\r\n        __UUPSUpgradeable_init();\r\n    }\r\n\r\n    function _authorizeUpgrade(address newImplementation) internal override onlyOwner {}\r\n\r\n    /// @notice Choose plugin where pair of tokens should be swapped.\r\n    function setRoute(\r\n        address[] calldata tokensA,\r\n        address[] calldata tokensB,\r\n        address[] calldata plugin\r\n    ) external onlyOwner {\r\n        for (uint256 i = 0; i < tokensA.length; i++) {\r\n            (address token0, address token1) = sortTokens(tokensA[i], tokensB[i]);\r\n            routes[token0][token1].defaultRoute = plugin[i];\r\n        }\r\n    }\r\n\r\n    function setRouteEx(\r\n        address[] calldata tokensA,\r\n        address[] calldata tokensB,\r\n        RouteParams[] calldata _routes\r\n    ) external onlyOwner {\r\n        for (uint256 i = 0; i < tokensA.length; i++) {\r\n            (address token0, address token1) = sortTokens(tokensA[i], tokensB[i]);\r\n            routes[token0][token1] = _routes[i];\r\n        }\r\n    }\r\n\r\n    function getPlugin(\r\n        uint256 amountA,\r\n        address tokenA,\r\n        address tokenB\r\n    ) public view returns (address plugin) {\r\n        (address token0, address token1) = sortTokens(tokenA, tokenB);\r\n        uint256 limit = routes[token0][token1].limit;\r\n        // decimals: 12 + tokenA.decimals - 12 = tokenA.decimals\r\n        uint256 limitWithDecimalsOfTokenA = limit * 10**ERC20(tokenA).decimals() / LIMIT_PRECISION;\r\n        if (limit == 0 || amountA < limitWithDecimalsOfTokenA) plugin = routes[token0][token1].defaultRoute;\r\n        else plugin = routes[token0][token1].secondRoute;\r\n        if (plugin == address(0)) revert RouteNotFound();\r\n        return plugin;\r\n    }\r\n\r\n    function getFee(\r\n        uint256 amountA,\r\n        address tokenA,\r\n        address tokenB\r\n    ) public view returns (uint256 feePercent) {\r\n        address plugin = getPlugin(amountA, address(tokenA), address(tokenB));\r\n        return IExchangePlugin(plugin).getFee(tokenA, tokenB);\r\n    }\r\n\r\n    function getAmountOut(\r\n        uint256 amountA,\r\n        address tokenA,\r\n        address tokenB\r\n    ) external view returns (uint256 amountOut) {\r\n        address plugin = getPlugin(amountA, address(tokenA), address(tokenB));\r\n        return IExchangePlugin(plugin).getAmountOut(amountA, tokenA, tokenB);\r\n    }\r\n\r\n    function swap(\r\n        uint256 amountA,\r\n        address tokenA,\r\n        address tokenB,\r\n        address to\r\n    ) public returns (uint256 amountReceived) {\r\n        address plugin = getPlugin(amountA, address(tokenA), address(tokenB));\r\n        IERC20(tokenA).transfer(plugin, amountA);\r\n        amountReceived = IExchangePlugin(plugin).swap(amountA, tokenA, tokenB, to);\r\n        if (amountReceived == 0) revert RoutedSwapFailed();\r\n    }\r\n\r\n    function sortTokens(address tokenA, address tokenB) internal pure returns (address token0, address token1) {\r\n        (token0, token1) = tokenA < tokenB ? (tokenA, tokenB) : (tokenB, tokenA);\r\n    }\r\n}\r\n",
  "sourcePath": "C:\\Users\\FVO_MMILLLER\\Desktop\\elvolution\\Testers\\contracts\\exchange\\Exchange.sol",
  "compiler": {
    "name": "solc",
    "version": "0.8.15+commit.e14f2714.Emscripten.clang"
  },
  "schemaVersion": "3.4.8",
  "updatedAt": "2022-09-08T16:23:06.513Z",
  "devdoc": {
    "kind": "dev",
    "methods": {
      "constructor": {
        "custom:oz-upgrades-unsafe-allow": "constructor"
      },
      "owner()": {
        "details": "Returns the address of the current owner."
      },
      "proxiableUUID()": {
        "details": "Implementation of the ERC1822 {proxiableUUID} function. This returns the storage slot used by the implementation. It is used to validate that the this implementation remains valid after an upgrade. IMPORTANT: A proxy pointing at a proxiable contract should not be considered proxiable itself, because this risks bricking a proxy that upgrades to it, by delegating to itself until out of gas. Thus it is critical that this function revert if invoked through a proxy. This is guaranteed by the `notDelegated` modifier."
      },
      "renounceOwnership()": {
        "details": "Leaves the contract without owner. It will not be possible to call `onlyOwner` functions anymore. Can only be called by the current owner. NOTE: Renouncing ownership will leave the contract without an owner, thereby removing any functionality that is only available to the owner."
      },
      "transferOwnership(address)": {
        "details": "Transfers ownership of the contract to a new account (`newOwner`). Can only be called by the current owner."
      },
      "upgradeTo(address)": {
        "details": "Upgrade the implementation of the proxy to `newImplementation`. Calls {_authorizeUpgrade}. Emits an {Upgraded} event."
      },
      "upgradeToAndCall(address,bytes)": {
        "details": "Upgrade the implementation of the proxy to `newImplementation`, and subsequently execute the function call encoded in `data`. Calls {_authorizeUpgrade}. Emits an {Upgraded} event."
      }
    },
    "version": 1
  },
  "userdoc": {
    "kind": "user",
    "methods": {
      "setRoute(address[],address[],address[])": {
        "notice": "Choose plugin where pair of tokens should be swapped."
      }
    },
    "version": 1
  }
}