{
  "contractName": "FakeOracle",
  "abi": [
    {
      "inputs": [],
      "stateMutability": "nonpayable",
      "type": "constructor"
    },
    {
      "inputs": [],
      "name": "BadPrice",
      "type": "error"
    },
    {
      "inputs": [],
      "name": "StaleChainlinkPrice",
      "type": "error"
    },
    {
      "anonymous": false,
      "inputs": [
        {
          "indexed": true,
          "internalType": "address",
          "name": "previousOwner",
          "type": "address"
        },
        {
          "indexed": true,
          "internalType": "address",
          "name": "newOwner",
          "type": "address"
        }
      ],
      "name": "OwnershipTransferred",
      "type": "event"
    },
    {
      "inputs": [],
      "name": "BUSD",
      "outputs": [
        {
          "internalType": "address",
          "name": "",
          "type": "address"
        }
      ],
      "stateMutability": "view",
      "type": "function"
    },
    {
      "inputs": [],
      "name": "BUSDT",
      "outputs": [
        {
          "internalType": "address",
          "name": "",
          "type": "address"
        }
      ],
      "stateMutability": "view",
      "type": "function"
    },
    {
      "inputs": [],
      "name": "DAI",
      "outputs": [
        {
          "internalType": "address",
          "name": "",
          "type": "address"
        }
      ],
      "stateMutability": "view",
      "type": "function"
    },
    {
      "inputs": [],
      "name": "USDC",
      "outputs": [
        {
          "internalType": "address",
          "name": "",
          "type": "address"
        }
      ],
      "stateMutability": "view",
      "type": "function"
    },
    {
      "inputs": [],
      "name": "owner",
      "outputs": [
        {
          "internalType": "address",
          "name": "",
          "type": "address"
        }
      ],
      "stateMutability": "view",
      "type": "function"
    },
    {
      "inputs": [],
      "name": "renounceOwnership",
      "outputs": [],
      "stateMutability": "nonpayable",
      "type": "function"
    },
    {
      "inputs": [
        {
          "internalType": "address",
          "name": "newOwner",
          "type": "address"
        }
      ],
      "name": "transferOwnership",
      "outputs": [],
      "stateMutability": "nonpayable",
      "type": "function"
    },
    {
      "inputs": [
        {
          "internalType": "address",
          "name": "base",
          "type": "address"
        },
        {
          "internalType": "uint256",
          "name": "price",
          "type": "uint256"
        }
      ],
      "name": "setPrice",
      "outputs": [],
      "stateMutability": "nonpayable",
      "type": "function"
    },
    {
      "inputs": [
        {
          "internalType": "address",
          "name": "base",
          "type": "address"
        }
      ],
      "name": "getTokenUsdPrice",
      "outputs": [
        {
          "internalType": "uint256",
          "name": "price",
          "type": "uint256"
        },
        {
          "internalType": "uint8",
          "name": "decimals",
          "type": "uint8"
        }
      ],
      "stateMutability": "view",
      "type": "function"
    }
  ],
  "bytecode": "0x608060405234801561001057600080fd5b5061002d6100226101ed60201b60201c565b6101f560201b60201c565b60405180604001604052806305f767a08152602001600860ff1681525060016000738ac76a51cc950d9822d68b83fe1ad97b32cd580d73ffffffffffffffffffffffffffffffffffffffff1673ffffffffffffffffffffffffffffffffffffffff168152602001908152602001600020600061034873ffffffffffffffffffffffffffffffffffffffff1673ffffffffffffffffffffffffffffffffffffffff1681526020019081526020016000206000820151816000015560208201518160010160006101000a81548160ff021916908360ff16021790555090505060405180604001604052806402540be4008152602001600a60ff168152506001600073e9e7cea3dedca5984780bafc599bd69add087d5673ffffffffffffffffffffffffffffffffffffffff1673ffffffffffffffffffffffffffffffffffffffff168152602001908152602001600020600061034873ffffffffffffffffffffffffffffffffffffffff1673ffffffffffffffffffffffffffffffffffffffff1681526020019081526020016000206000820151816000015560208201518160010160006101000a81548160ff021916908360ff1602179055509050506102b9565b600033905090565b60008060009054906101000a900473ffffffffffffffffffffffffffffffffffffffff169050816000806101000a81548173ffffffffffffffffffffffffffffffffffffffff021916908373ffffffffffffffffffffffffffffffffffffffff1602179055508173ffffffffffffffffffffffffffffffffffffffff168173ffffffffffffffffffffffffffffffffffffffff167f8be0079c531659141344cd1fd0a4f28419497f9722a3daafe3b4186f6b6457e060405160405180910390a35050565b61097e806102c86000396000f3fe608060405234801561001057600080fd5b50600436106100915760003560e01c806389a302711161006657806389a302711461010b5780638da5cb5b14610129578063a624cdbe14610147578063e0bab4c414610165578063f2fde38b1461018357610091565b8062593bcf14610096578062e4768b146100c7578063484f4ea9146100e3578063715018a614610101575b600080fd5b6100b060048036038101906100ab91906106bf565b61019f565b6040516100be929190610721565b60405180910390f35b6100e160048036038101906100dc9190610776565b6102bc565b005b6100eb6103f2565b6040516100f891906107c5565b60405180910390f35b61010961040a565b005b61011361041e565b60405161012091906107c5565b60405180910390f35b610131610436565b60405161013e91906107c5565b60405180910390f35b61014f61045f565b60405161015c91906107c5565b60405180910390f35b61016d610477565b60405161017a91906107c5565b60405180910390f35b61019d600480360381019061019891906106bf565b61048f565b005b600080600160008473ffffffffffffffffffffffffffffffffffffffff1673ffffffffffffffffffffffffffffffffffffffff168152602001908152602001600020600061034873ffffffffffffffffffffffffffffffffffffffff1673ffffffffffffffffffffffffffffffffffffffff168152602001908152602001600020600001549150600160008473ffffffffffffffffffffffffffffffffffffffff1673ffffffffffffffffffffffffffffffffffffffff168152602001908152602001600020600061034873ffffffffffffffffffffffffffffffffffffffff1673ffffffffffffffffffffffffffffffffffffffff16815260200190815260200160002060010160009054906101000a900460ff169050915091565b60405180604001604052808281526020018373ffffffffffffffffffffffffffffffffffffffff1663313ce5676040518163ffffffff1660e01b8152600401602060405180830381865afa158015610318573d6000803e3d6000fd5b505050506040513d601f19601f8201168201806040525081019061033c919061080c565b60ff16815250600160008473ffffffffffffffffffffffffffffffffffffffff1673ffffffffffffffffffffffffffffffffffffffff168152602001908152602001600020600061034873ffffffffffffffffffffffffffffffffffffffff1673ffffffffffffffffffffffffffffffffffffffff1681526020019081526020016000206000820151816000015560208201518160010160006101000a81548160ff021916908360ff1602179055509050505050565b73e9e7cea3dedca5984780bafc599bd69add087d5681565b610412610512565b61041c6000610590565b565b738ac76a51cc950d9822d68b83fe1ad97b32cd580d81565b60008060009054906101000a900473ffffffffffffffffffffffffffffffffffffffff16905090565b7355d398326f99059ff775485246999027b319795581565b731af3f329e8be154074d8769d1ffa4ee058b1dbc381565b610497610512565b600073ffffffffffffffffffffffffffffffffffffffff168173ffffffffffffffffffffffffffffffffffffffff1603610506576040517f08c379a00000000000000000000000000000000000000000000000000000000081526004016104fd906108bc565b60405180910390fd5b61050f81610590565b50565b61051a610654565b73ffffffffffffffffffffffffffffffffffffffff16610538610436565b73ffffffffffffffffffffffffffffffffffffffff161461058e576040517f08c379a000000000000000000000000000000000000000000000000000000000815260040161058590610928565b60405180910390fd5b565b60008060009054906101000a900473ffffffffffffffffffffffffffffffffffffffff169050816000806101000a81548173ffffffffffffffffffffffffffffffffffffffff021916908373ffffffffffffffffffffffffffffffffffffffff1602179055508173ffffffffffffffffffffffffffffffffffffffff168173ffffffffffffffffffffffffffffffffffffffff167f8be0079c531659141344cd1fd0a4f28419497f9722a3daafe3b4186f6b6457e060405160405180910390a35050565b600033905090565b600080fd5b600073ffffffffffffffffffffffffffffffffffffffff82169050919050565b600061068c82610661565b9050919050565b61069c81610681565b81146106a757600080fd5b50565b6000813590506106b981610693565b92915050565b6000602082840312156106d5576106d461065c565b5b60006106e3848285016106aa565b91505092915050565b6000819050919050565b6106ff816106ec565b82525050565b600060ff82169050919050565b61071b81610705565b82525050565b600060408201905061073660008301856106f6565b6107436020830184610712565b9392505050565b610753816106ec565b811461075e57600080fd5b50565b6000813590506107708161074a565b92915050565b6000806040838503121561078d5761078c61065c565b5b600061079b858286016106aa565b92505060206107ac85828601610761565b9150509250929050565b6107bf81610681565b82525050565b60006020820190506107da60008301846107b6565b92915050565b6107e981610705565b81146107f457600080fd5b50565b600081519050610806816107e0565b92915050565b6000602082840312156108225761082161065c565b5b6000610830848285016107f7565b91505092915050565b600082825260208201905092915050565b7f4f776e61626c653a206e6577206f776e657220697320746865207a65726f206160008201527f6464726573730000000000000000000000000000000000000000000000000000602082015250565b60006108a6602683610839565b91506108b18261084a565b604082019050919050565b600060208201905081810360008301526108d581610899565b9050919050565b7f4f776e61626c653a2063616c6c6572206973206e6f7420746865206f776e6572600082015250565b6000610912602083610839565b915061091d826108dc565b602082019050919050565b6000602082019050818103600083015261094181610905565b905091905056fea2646970667358221220248f8d1f29776b1147fe054fad966ea71e02556eacb152ea4b5d30c1ad6561a464736f6c634300080f0033",
  "immutableReferences": {},
  "source": "//SPDX-License-Identifier: Unlicense\r\n\r\npragma solidity ^0.8.0;\r\n\r\nimport \"@chainlink/contracts/src/v0.8/interfaces/FeedRegistryInterface.sol\";\r\nimport \"@chainlink/contracts/src/v0.8/Denominations.sol\";\r\nimport \"@openzeppelin/contracts/access/Ownable.sol\";\r\nimport \"@openzeppelin/contracts/token/ERC20/ERC20.sol\";\r\nimport \"../interfaces/IUsdOracle.sol\";\r\n\r\n// import \"hardhat/console.sol\";\r\n\r\ncontract FakeOracle is IUsdOracle, Ownable {\r\n    error StaleChainlinkPrice();\r\n    error BadPrice();\r\n\r\n    struct Price {\r\n        uint256 price;\r\n        uint8 decimals;\r\n    }\r\n\r\n    // addresses from bnb chain!\r\n    address public constant BUSD = 0xe9e7CEA3DedcA5984780Bafc599bD69ADd087D56;\r\n    address public constant BUSDT = 0x55d398326f99059fF775485246999027B3197955;\r\n    address public constant DAI = 0x1AF3F329e8BE154074D8769D1FFa4eE058B1DBc3;\r\n    address public constant USDC = 0x8AC76a51cc950d9822D68b83fE1Ad97B32Cd580d;\r\n    mapping(address => mapping(address => Price)) prices;\r\n\r\n    constructor() {\r\n        prices[USDC][Denominations.USD] = Price(100_100_000, 8); // 1.001$\r\n        prices[BUSD][Denominations.USD] = Price(10_000_000_000, 10); // 1$\r\n    }\r\n\r\n    // set fake prices\r\n    function setPrice(address base, uint256 price) public {\r\n        prices[base][Denominations.USD] = Price(price, ERC20(base).decimals());\r\n    }\r\n\r\n    /**\r\n     * Returns the latest token / usd price and its decimals\r\n     */\r\n    function getTokenUsdPrice(address base) public view override returns (uint256 price, uint8 decimals) {\r\n        price = prices[base][Denominations.USD].price;\r\n        decimals = prices[base][Denominations.USD].decimals;\r\n    }\r\n}\r\n",
  "sourcePath": "C:\\Users\\FVO_MMILLLER\\Desktop\\elvolution\\Testers\\contracts\\oracles\\FakeOracle.sol",
  "compiler": {
    "name": "solc",
    "version": "0.8.15+commit.e14f2714.Emscripten.clang"
  },
  "schemaVersion": "3.4.8",
  "updatedAt": "2022-09-08T16:23:09.394Z",
  "devdoc": {
    "kind": "dev",
    "methods": {
      "owner()": {
        "details": "Returns the address of the current owner."
      },
      "renounceOwnership()": {
        "details": "Leaves the contract without owner. It will not be possible to call `onlyOwner` functions anymore. Can only be called by the current owner. NOTE: Renouncing ownership will leave the contract without an owner, thereby removing any functionality that is only available to the owner."
      },
      "transferOwnership(address)": {
        "details": "Transfers ownership of the contract to a new account (`newOwner`). Can only be called by the current owner."
      }
    },
    "version": 1
  },
  "userdoc": {
    "kind": "user",
    "methods": {
      "getTokenUsdPrice(address)": {
        "notice": "Returns the latest token / usd price and its decimals"
      }
    },
    "version": 1
  }
}