{
  "contractName": "MockStrategy",
  "abi": [
    {
      "inputs": [
        {
          "internalType": "address",
          "name": "depositToken_",
          "type": "address"
        },
        {
          "internalType": "uint256",
          "name": "_mockProfitPercent",
          "type": "uint256"
        }
      ],
      "stateMutability": "nonpayable",
      "type": "constructor"
    },
    {
      "inputs": [],
      "name": "AmountExceedTotalSupply",
      "type": "error"
    },
    {
      "inputs": [],
      "name": "AmountNotSpecified",
      "type": "error"
    },
    {
      "inputs": [],
      "name": "CantRemoveLastStrategy",
      "type": "error"
    },
    {
      "inputs": [],
      "name": "CycleClosed",
      "type": "error"
    },
    {
      "inputs": [],
      "name": "CycleNotClosableYet",
      "type": "error"
    },
    {
      "inputs": [],
      "name": "CycleNotClosed",
      "type": "error"
    },
    {
      "inputs": [],
      "name": "DuplicateStrategy",
      "type": "error"
    },
    {
      "inputs": [],
      "name": "InsufficientShares",
      "type": "error"
    },
    {
      "inputs": [],
      "name": "NodepositDetected",
      "type": "error"
    },
    {
      "inputs": [],
      "name": "NotModerator",
      "type": "error"
    },
    {
      "inputs": [],
      "name": "NotReceiptOwner",
      "type": "error"
    },
    {
      "inputs": [],
      "name": "NothingToRebalance",
      "type": "error"
    },
    {
      "inputs": [],
      "name": "UnsupportedToken",
      "type": "error"
    },
    {
      "anonymous": false,
      "inputs": [
        {
          "indexed": true,
          "internalType": "uint256",
          "name": "closedCycleId",
          "type": "uint256"
        },
        {
          "indexed": false,
          "internalType": "uint256",
          "name": "amount",
          "type": "uint256"
        }
      ],
      "name": "AllocateToStrategies",
      "type": "event"
    },
    {
      "anonymous": false,
      "inputs": [
        {
          "indexed": true,
          "internalType": "address",
          "name": "user",
          "type": "address"
        },
        {
          "indexed": false,
          "internalType": "address",
          "name": "token",
          "type": "address"
        },
        {
          "indexed": false,
          "internalType": "uint256",
          "name": "amount",
          "type": "uint256"
        }
      ],
      "name": "Deposit",
      "type": "event"
    },
    {
      "anonymous": false,
      "inputs": [
        {
          "indexed": true,
          "internalType": "address",
          "name": "previousOwner",
          "type": "address"
        },
        {
          "indexed": true,
          "internalType": "address",
          "name": "newOwner",
          "type": "address"
        }
      ],
      "name": "OwnershipTransferred",
      "type": "event"
    },
    {
      "anonymous": false,
      "inputs": [
        {
          "indexed": true,
          "internalType": "address",
          "name": "user",
          "type": "address"
        },
        {
          "indexed": false,
          "internalType": "uint256",
          "name": "shares",
          "type": "uint256"
        },
        {
          "indexed": false,
          "internalType": "uint256[]",
          "name": "receiptIds",
          "type": "uint256[]"
        }
      ],
      "name": "RedeemReceiptsToShares",
      "type": "event"
    },
    {
      "anonymous": false,
      "inputs": [
        {
          "indexed": true,
          "internalType": "address",
          "name": "moderator",
          "type": "address"
        },
        {
          "indexed": false,
          "internalType": "uint256[]",
          "name": "receiptIds",
          "type": "uint256[]"
        }
      ],
      "name": "RedeemReceiptsToSharesByModerators",
      "type": "event"
    },
    {
      "anonymous": false,
      "inputs": [
        {
          "indexed": false,
          "internalType": "contract Exchange",
          "name": "_exchange",
          "type": "address"
        },
        {
          "indexed": false,
          "internalType": "contract IUsdOracle",
          "name": "_oracle",
          "type": "address"
        },
        {
          "indexed": false,
          "internalType": "contract SharesToken",
          "name": "_sharesToken",
          "type": "address"
        },
        {
          "indexed": false,
          "internalType": "contract Batch",
          "name": "_batch",
          "type": "address"
        },
        {
          "indexed": false,
          "internalType": "contract ReceiptNFT",
          "name": "_receiptNft",
          "type": "address"
        }
      ],
      "name": "SetAddresses",
      "type": "event"
    },
    {
      "anonymous": false,
      "inputs": [
        {
          "indexed": false,
          "internalType": "uint256",
          "name": "newDuration",
          "type": "uint256"
        }
      ],
      "name": "SetCycleDuration",
      "type": "event"
    },
    {
      "anonymous": false,
      "inputs": [
        {
          "indexed": false,
          "internalType": "address",
          "name": "newAddress",
          "type": "address"
        }
      ],
      "name": "SetFeeAddress",
      "type": "event"
    },
    {
      "anonymous": false,
      "inputs": [
        {
          "indexed": false,
          "internalType": "uint256",
          "name": "newPercent",
          "type": "uint256"
        }
      ],
      "name": "SetFeePercent",
      "type": "event"
    },
    {
      "anonymous": false,
      "inputs": [
        {
          "indexed": false,
          "internalType": "uint256",
          "name": "newAmount",
          "type": "uint256"
        }
      ],
      "name": "SetMinDeposit",
      "type": "event"
    },
    {
      "anonymous": false,
      "inputs": [
        {
          "indexed": false,
          "internalType": "uint256",
          "name": "newAmount",
          "type": "uint256"
        }
      ],
      "name": "SetMinUsdPerCycle",
      "type": "event"
    },
    {
      "anonymous": false,
      "inputs": [
        {
          "indexed": true,
          "internalType": "address",
          "name": "user",
          "type": "address"
        },
        {
          "indexed": false,
          "internalType": "address",
          "name": "token",
          "type": "address"
        },
        {
          "indexed": false,
          "internalType": "uint256",
          "name": "amount",
          "type": "uint256"
        }
      ],
      "name": "WithdrawFromBatch",
      "type": "event"
    },
    {
      "anonymous": false,
      "inputs": [
        {
          "indexed": true,
          "internalType": "address",
          "name": "user",
          "type": "address"
        },
        {
          "indexed": false,
          "internalType": "address",
          "name": "token",
          "type": "address"
        },
        {
          "indexed": false,
          "internalType": "uint256",
          "name": "amount",
          "type": "uint256"
        }
      ],
      "name": "WithdrawFromStrategies",
      "type": "event"
    },
    {
      "inputs": [],
      "name": "owner",
      "outputs": [
        {
          "internalType": "address",
          "name": "",
          "type": "address"
        }
      ],
      "stateMutability": "view",
      "type": "function"
    },
    {
      "inputs": [],
      "name": "renounceOwnership",
      "outputs": [],
      "stateMutability": "nonpayable",
      "type": "function"
    },
    {
      "inputs": [
        {
          "internalType": "address",
          "name": "newOwner",
          "type": "address"
        }
      ],
      "name": "transferOwnership",
      "outputs": [],
      "stateMutability": "nonpayable",
      "type": "function"
    },
    {
      "inputs": [],
      "name": "depositToken",
      "outputs": [
        {
          "internalType": "address",
          "name": "",
          "type": "address"
        }
      ],
      "stateMutability": "view",
      "type": "function"
    },
    {
      "inputs": [
        {
          "internalType": "uint256",
          "name": "amount",
          "type": "uint256"
        }
      ],
      "name": "deposit",
      "outputs": [],
      "stateMutability": "nonpayable",
      "type": "function"
    },
    {
      "inputs": [
        {
          "internalType": "uint256",
          "name": "amount",
          "type": "uint256"
        }
      ],
      "name": "withdraw",
      "outputs": [
        {
          "internalType": "uint256",
          "name": "amountWithdrawn",
          "type": "uint256"
        }
      ],
      "stateMutability": "nonpayable",
      "type": "function"
    },
    {
      "inputs": [],
      "name": "compound",
      "outputs": [],
      "stateMutability": "nonpayable",
      "type": "function"
    },
    {
      "inputs": [],
      "name": "totalTokens",
      "outputs": [
        {
          "internalType": "uint256",
          "name": "",
          "type": "uint256"
        }
      ],
      "stateMutability": "view",
      "type": "function"
    },
    {
      "inputs": [],
      "name": "withdrawAll",
      "outputs": [
        {
          "internalType": "uint256",
          "name": "amountWithdrawn",
          "type": "uint256"
        }
      ],
      "stateMutability": "nonpayable",
      "type": "function"
    }
  ],
  "bytecode": "0x60806040523480156200001157600080fd5b5060405162000c8138038062000c81833981810160405281019062000037919062000218565b620000576200004b620000a760201b60201c565b620000af60201b60201c565b81600160006101000a81548173ffffffffffffffffffffffffffffffffffffffff021916908373ffffffffffffffffffffffffffffffffffffffff1602179055508060038190555050506200025f565b600033905090565b60008060009054906101000a900473ffffffffffffffffffffffffffffffffffffffff169050816000806101000a81548173ffffffffffffffffffffffffffffffffffffffff021916908373ffffffffffffffffffffffffffffffffffffffff1602179055508173ffffffffffffffffffffffffffffffffffffffff168173ffffffffffffffffffffffffffffffffffffffff167f8be0079c531659141344cd1fd0a4f28419497f9722a3daafe3b4186f6b6457e060405160405180910390a35050565b600080fd5b600073ffffffffffffffffffffffffffffffffffffffff82169050919050565b6000620001a58262000178565b9050919050565b620001b78162000198565b8114620001c357600080fd5b50565b600081519050620001d781620001ac565b92915050565b6000819050919050565b620001f281620001dd565b8114620001fe57600080fd5b50565b6000815190506200021281620001e7565b92915050565b6000806040838503121562000232576200023162000173565b5b60006200024285828601620001c6565b9250506020620002558582860162000201565b9150509250929050565b610a12806200026f6000396000f3fe608060405234801561001057600080fd5b50600436106100935760003560e01c80638da5cb5b116100665780638da5cb5b1461010e578063b6b55f251461012c578063c89039c514610148578063f2fde38b14610166578063f69e20461461018257610093565b80632e1a7d4d14610098578063715018a6146100c85780637e1c0c09146100d2578063853828b6146100f0575b600080fd5b6100b260048036038101906100ad91906105c0565b61018c565b6040516100bf91906105fc565b60405180910390f35b6100d0610250565b005b6100da610264565b6040516100e791906105fc565b60405180910390f35b6100f861026e565b60405161010591906105fc565b60405180910390f35b610116610324565b6040516101239190610658565b60405180910390f35b610146600480360381019061014191906105c0565b61034d565b005b610150610369565b60405161015d9190610658565b60405180910390f35b610180600480360381019061017b919061069f565b610393565b005b61018a610416565b005b6000600160009054906101000a900473ffffffffffffffffffffffffffffffffffffffff1673ffffffffffffffffffffffffffffffffffffffff1663a9059cbb33846040518363ffffffff1660e01b81526004016101eb9291906106cc565b6020604051808303816000875af115801561020a573d6000803e3d6000fd5b505050506040513d601f19601f8201168201806040525081019061022e919061072d565b5081600260008282546102419190610789565b92505081905550819050919050565b61025861043b565b61026260006104b9565b565b6000600254905090565b6000806002541115610321576002549050600160009054906101000a900473ffffffffffffffffffffffffffffffffffffffff1673ffffffffffffffffffffffffffffffffffffffff1663a9059cbb33836040518363ffffffff1660e01b81526004016102dc9291906106cc565b6020604051808303816000875af11580156102fb573d6000803e3d6000fd5b505050506040513d601f19601f8201168201806040525081019061031f919061072d565b505b90565b60008060009054906101000a900473ffffffffffffffffffffffffffffffffffffffff16905090565b806002600082825461035f91906107bd565b9250508190555050565b6000600160009054906101000a900473ffffffffffffffffffffffffffffffffffffffff16905090565b61039b61043b565b600073ffffffffffffffffffffffffffffffffffffffff168173ffffffffffffffffffffffffffffffffffffffff160361040a576040517f08c379a000000000000000000000000000000000000000000000000000000000815260040161040190610896565b60405180910390fd5b610413816104b9565b50565b61271060035460025461042991906108b6565b610433919061093f565b600281905550565b61044361057d565b73ffffffffffffffffffffffffffffffffffffffff16610461610324565b73ffffffffffffffffffffffffffffffffffffffff16146104b7576040517f08c379a00000000000000000000000000000000000000000000000000000000081526004016104ae906109bc565b60405180910390fd5b565b60008060009054906101000a900473ffffffffffffffffffffffffffffffffffffffff169050816000806101000a81548173ffffffffffffffffffffffffffffffffffffffff021916908373ffffffffffffffffffffffffffffffffffffffff1602179055508173ffffffffffffffffffffffffffffffffffffffff168173ffffffffffffffffffffffffffffffffffffffff167f8be0079c531659141344cd1fd0a4f28419497f9722a3daafe3b4186f6b6457e060405160405180910390a35050565b600033905090565b600080fd5b6000819050919050565b61059d8161058a565b81146105a857600080fd5b50565b6000813590506105ba81610594565b92915050565b6000602082840312156105d6576105d5610585565b5b60006105e4848285016105ab565b91505092915050565b6105f68161058a565b82525050565b600060208201905061061160008301846105ed565b92915050565b600073ffffffffffffffffffffffffffffffffffffffff82169050919050565b600061064282610617565b9050919050565b61065281610637565b82525050565b600060208201905061066d6000830184610649565b92915050565b61067c81610637565b811461068757600080fd5b50565b60008135905061069981610673565b92915050565b6000602082840312156106b5576106b4610585565b5b60006106c38482850161068a565b91505092915050565b60006040820190506106e16000830185610649565b6106ee60208301846105ed565b9392505050565b60008115159050919050565b61070a816106f5565b811461071557600080fd5b50565b60008151905061072781610701565b92915050565b60006020828403121561074357610742610585565b5b600061075184828501610718565b91505092915050565b7f4e487b7100000000000000000000000000000000000000000000000000000000600052601160045260246000fd5b60006107948261058a565b915061079f8361058a565b9250828210156107b2576107b161075a565b5b828203905092915050565b60006107c88261058a565b91506107d38361058a565b9250827fffffffffffffffffffffffffffffffffffffffffffffffffffffffffffffffff038211156108085761080761075a565b5b828201905092915050565b600082825260208201905092915050565b7f4f776e61626c653a206e6577206f776e657220697320746865207a65726f206160008201527f6464726573730000000000000000000000000000000000000000000000000000602082015250565b6000610880602683610813565b915061088b82610824565b604082019050919050565b600060208201905081810360008301526108af81610873565b9050919050565b60006108c18261058a565b91506108cc8361058a565b9250817fffffffffffffffffffffffffffffffffffffffffffffffffffffffffffffffff04831182151516156109055761090461075a565b5b828202905092915050565b7f4e487b7100000000000000000000000000000000000000000000000000000000600052601260045260246000fd5b600061094a8261058a565b91506109558361058a565b92508261096557610964610910565b5b828204905092915050565b7f4f776e61626c653a2063616c6c6572206973206e6f7420746865206f776e6572600082015250565b60006109a6602083610813565b91506109b182610970565b602082019050919050565b600060208201905081810360008301526109d581610999565b905091905056fea2646970667358221220672901c7f70255d83c64ca5b5369533af15af7c898339566f513931ca3aa74e264736f6c634300080f0033",
  "immutableReferences": {},
  "source": "//SPDX-License-Identifier: Unlicens\r\npragma solidity ^0.8.0;\r\n\r\nimport \"@openzeppelin/contracts/utils/math/SafeMath.sol\";\r\nimport \"@openzeppelin/contracts/token/ERC20/ERC20.sol\";\r\nimport \"../interfaces/IStrategy.sol\";\r\nimport \"@openzeppelin/contracts/access/Ownable.sol\";\r\nimport \"hardhat/console.sol\";\r\n\r\ncontract MockStrategy is Ownable, IStrategy {\r\n    address private _depositToken;\r\n    uint256 private balance;\r\n    uint256 private mockProfitPercent;\r\n\r\n    constructor(address depositToken_, uint256 _mockProfitPercent) {\r\n        _depositToken = depositToken_;\r\n        mockProfitPercent = _mockProfitPercent;\r\n    }\r\n\r\n    function depositToken() external view override returns (address) {\r\n        return _depositToken;\r\n    }\r\n\r\n    function deposit(uint256 amount) external override {\r\n        // console.log(\"MockStrategy.deposit\", amount, ERC20(_depositToken).balanceOf(address(this)));\r\n        balance += amount;\r\n    }\r\n\r\n    function withdraw(uint256 amount)\r\n        external\r\n        override\r\n        returns (uint256 amountWithdrawn)\r\n    {\r\n        ERC20(_depositToken).transfer(msg.sender, amount);\r\n        balance -= amount;\r\n        return amount;\r\n    }\r\n\r\n    function compound() external override {\r\n\r\n        balance = (balance * mockProfitPercent) / 10000;\r\n    }\r\n\r\n    function totalTokens() external view override returns (uint256) {\r\n        return balance;\r\n    }\r\n\r\n    function withdrawAll() external override returns (uint256 amountWithdrawn) {\r\n        if (balance > 0) {\r\n            amountWithdrawn = balance;\r\n            ERC20(_depositToken).transfer(msg.sender, amountWithdrawn);\r\n        }\r\n    }\r\n}\r\n",
  "sourcePath": "C:\\Users\\FVO_MMILLLER\\Desktop\\elvolution\\Testers\\contracts\\test\\MockStrategy.sol",
  "compiler": {
    "name": "solc",
    "version": "0.8.15+commit.e14f2714.Emscripten.clang"
  },
  "schemaVersion": "3.4.8",
  "updatedAt": "2022-09-08T16:23:09.764Z",
  "devdoc": {
    "kind": "dev",
    "methods": {
      "owner()": {
        "details": "Returns the address of the current owner."
      },
      "renounceOwnership()": {
        "details": "Leaves the contract without owner. It will not be possible to call `onlyOwner` functions anymore. Can only be called by the current owner. NOTE: Renouncing ownership will leave the contract without an owner, thereby removing any functionality that is only available to the owner."
      },
      "transferOwnership(address)": {
        "details": "Transfers ownership of the contract to a new account (`newOwner`). Can only be called by the current owner."
      },
      "withdraw(uint256)": {
        "details": "Max withdrawable amount is returned by totalTokens."
      }
    },
    "version": 1
  },
  "userdoc": {
    "events": {
      "AllocateToStrategies(uint256,uint256)": {
        "notice": "Fires when batch is deposited into strategies."
      },
      "Deposit(address,address,uint256)": {
        "notice": "Fires when user deposits in batch."
      },
      "RedeemReceiptsToShares(address,uint256,uint256[])": {
        "notice": "Fires when user converts his receipt into shares token."
      },
      "RedeemReceiptsToSharesByModerators(address,uint256[])": {
        "notice": "Fires when moderator converts foreign receipts into shares token."
      },
      "WithdrawFromBatch(address,address,uint256)": {
        "notice": "Fires when user withdraw from batch."
      },
      "WithdrawFromStrategies(address,address,uint256)": {
        "notice": "Fires when user withdraw from strategies."
      }
    },
    "kind": "user",
    "methods": {
      "compound()": {
        "notice": "Harvest rewards and reinvest them."
      },
      "deposit(uint256)": {
        "notice": "Deposit token to strategy."
      },
      "depositToken()": {
        "notice": "Token used to deposit to strategy."
      },
      "totalTokens()": {
        "notice": "Approximated amount of token on the strategy."
      },
      "withdraw(uint256)": {
        "notice": "Withdraw tokens from strategy."
      },
      "withdrawAll()": {
        "notice": "Withdraw all tokens from strategy."
      }
    },
    "version": 1
  }
}