{
  "contractName": "Moderator",
  "abi": [
    {
      "inputs": [],
      "stateMutability": "nonpayable",
      "type": "constructor"
    },
    {
      "anonymous": false,
      "inputs": [
        {
          "indexed": true,
          "internalType": "address",
          "name": "previousOwner",
          "type": "address"
        },
        {
          "indexed": true,
          "internalType": "address",
          "name": "newOwner",
          "type": "address"
        }
      ],
      "name": "OwnershipTransferred",
      "type": "event"
    },
    {
      "inputs": [
        {
          "internalType": "address",
          "name": "",
          "type": "address"
        }
      ],
      "name": "moderators",
      "outputs": [
        {
          "internalType": "bool",
          "name": "",
          "type": "bool"
        }
      ],
      "stateMutability": "view",
      "type": "function"
    },
    {
      "inputs": [],
      "name": "owner",
      "outputs": [
        {
          "internalType": "address",
          "name": "",
          "type": "address"
        }
      ],
      "stateMutability": "view",
      "type": "function"
    },
    {
      "inputs": [],
      "name": "renounceOwnership",
      "outputs": [],
      "stateMutability": "nonpayable",
      "type": "function"
    },
    {
      "inputs": [
        {
          "internalType": "address",
          "name": "newOwner",
          "type": "address"
        }
      ],
      "name": "transferOwnership",
      "outputs": [],
      "stateMutability": "nonpayable",
      "type": "function"
    }
  ],
  "bytecode": "0x608060405234801561001057600080fd5b5061002d61002261005060201b60201c565b61005860201b60201c565b61004b61003e61005060201b60201c565b600161011c60201b60201c565b61043c565b600033905090565b60008060009054906101000a900473ffffffffffffffffffffffffffffffffffffffff169050816000806101000a81548173ffffffffffffffffffffffffffffffffffffffff021916908373ffffffffffffffffffffffffffffffffffffffff1602179055508173ffffffffffffffffffffffffffffffffffffffff168173ffffffffffffffffffffffffffffffffffffffff167f8be0079c531659141344cd1fd0a4f28419497f9722a3daafe3b4186f6b6457e060405160405180910390a35050565b600073ffffffffffffffffffffffffffffffffffffffff168273ffffffffffffffffffffffffffffffffffffffff160361018b576040517f08c379a000000000000000000000000000000000000000000000000000000000815260040161018290610344565b60405180910390fd5b600061019b61028660201b60201c565b905081156101e95780156101e4576040517f08c379a00000000000000000000000000000000000000000000000000000000081526004016101db906103b0565b60405180910390fd5b61022a565b80610229576040517f08c379a00000000000000000000000000000000000000000000000000000000081526004016102209061041c565b60405180910390fd5b5b81600160008573ffffffffffffffffffffffffffffffffffffffff1673ffffffffffffffffffffffffffffffffffffffff16815260200190815260200160002060006101000a81548160ff021916908315150217905550505050565b60006001600061029a61005060201b60201c565b73ffffffffffffffffffffffffffffffffffffffff1673ffffffffffffffffffffffffffffffffffffffff16815260200190815260200160002060009054906101000a900460ff16905090565b600082825260208201905092915050565b7f5a65726f20616464726573730000000000000000000000000000000000000000600082015250565b600061032e600c836102e7565b9150610339826102f8565b602082019050919050565b6000602082019050818103600083015261035d81610321565b9050919050565b7f616c72656164792077686974656c697374656400000000000000000000000000600082015250565b600061039a6013836102e7565b91506103a582610364565b602082019050919050565b600060208201905081810360008301526103c98161038d565b9050919050565b7f4e6f742077686974656c69737465640000000000000000000000000000000000600082015250565b6000610406600f836102e7565b9150610411826103d0565b602082019050919050565b60006020820190508181036000830152610435816103f9565b9050919050565b6105248061044b6000396000f3fe608060405234801561001057600080fd5b506004361061004c5760003560e01c806314d0f1ba14610051578063715018a6146100815780638da5cb5b1461008b578063f2fde38b146100a9575b600080fd5b61006b60048036038101906100669190610352565b6100c5565b604051610078919061039a565b60405180910390f35b6100896100e5565b005b6100936100f9565b6040516100a091906103c4565b60405180910390f35b6100c360048036038101906100be9190610352565b610122565b005b60016020528060005260406000206000915054906101000a900460ff1681565b6100ed6101a5565b6100f76000610223565b565b60008060009054906101000a900473ffffffffffffffffffffffffffffffffffffffff16905090565b61012a6101a5565b600073ffffffffffffffffffffffffffffffffffffffff168173ffffffffffffffffffffffffffffffffffffffff1603610199576040517f08c379a000000000000000000000000000000000000000000000000000000000815260040161019090610462565b60405180910390fd5b6101a281610223565b50565b6101ad6102e7565b73ffffffffffffffffffffffffffffffffffffffff166101cb6100f9565b73ffffffffffffffffffffffffffffffffffffffff1614610221576040517f08c379a0000000000000000000000000000000000000000000000000000000008152600401610218906104ce565b60405180910390fd5b565b60008060009054906101000a900473ffffffffffffffffffffffffffffffffffffffff169050816000806101000a81548173ffffffffffffffffffffffffffffffffffffffff021916908373ffffffffffffffffffffffffffffffffffffffff1602179055508173ffffffffffffffffffffffffffffffffffffffff168173ffffffffffffffffffffffffffffffffffffffff167f8be0079c531659141344cd1fd0a4f28419497f9722a3daafe3b4186f6b6457e060405160405180910390a35050565b600033905090565b600080fd5b600073ffffffffffffffffffffffffffffffffffffffff82169050919050565b600061031f826102f4565b9050919050565b61032f81610314565b811461033a57600080fd5b50565b60008135905061034c81610326565b92915050565b600060208284031215610368576103676102ef565b5b60006103768482850161033d565b91505092915050565b60008115159050919050565b6103948161037f565b82525050565b60006020820190506103af600083018461038b565b92915050565b6103be81610314565b82525050565b60006020820190506103d960008301846103b5565b92915050565b600082825260208201905092915050565b7f4f776e61626c653a206e6577206f776e657220697320746865207a65726f206160008201527f6464726573730000000000000000000000000000000000000000000000000000602082015250565b600061044c6026836103df565b9150610457826103f0565b604082019050919050565b6000602082019050818103600083015261047b8161043f565b9050919050565b7f4f776e61626c653a2063616c6c6572206973206e6f7420746865206f776e6572600082015250565b60006104b86020836103df565b91506104c382610482565b602082019050919050565b600060208201905081810360008301526104e7816104ab565b905091905056fea2646970667358221220781b8038f3e17448ea3261581111e352c72ec9894738c9fcab05b7d34fc17ccd64736f6c634300080f0033",
  "immutableReferences": {},
  "source": "//SPDX-License-Identifier: Unlicense\r\n\r\nimport \"@openzeppelin/contracts/utils/Context.sol\";\r\nimport \"@openzeppelin/contracts/access/Ownable.sol\";\r\n\r\npragma solidity ^0.8.0;\r\n\r\ncontract Moderator is Context, Ownable {\r\n  mapping(address => bool) public moderators;\r\n\r\n  /// @custom:oz-upgrades-unsafe-allow constructor\r\n  constructor() {\r\n    _setModerator(_msgSender(), true);\r\n    // lock implementation\r\n    // _disableInitializers();\r\n  }\r\n\r\n  // function __Moderator_init(address mod) internal virtual initializer {\r\n  //   // __Context_init();\r\n  //   // __Ownable_init();\r\n  //   // _setModerator(mod, true);\r\n  // }\r\n\r\n  /**\r\n    @notice Set wallets that will be moderators.\r\n    @dev Admin function.\r\n  */\r\n  function _setModerator(address moderator, bool isWhitelisted) internal virtual {\r\n    require(moderator != address(0), \"Zero address\");\r\n    bool isModerator = _isModerator();\r\n    if(isWhitelisted) require(!isModerator, \"already whitelisted\");\r\n    else require(isModerator, \"Not whitelisted\");\r\n    moderators[moderator] = isWhitelisted;\r\n  }\r\n\r\n  /// @notice Whether `who` is a moderator or not\r\n  function _isModerator() internal virtual returns (bool) {\r\n    return moderators[_msgSender()];\r\n  }\r\n\r\n}",
  "sourcePath": "C:\\Users\\FVO_MMILLLER\\Desktop\\elvolution\\Testers\\contracts\\main\\Moderator.sol",
  "compiler": {
    "name": "solc",
    "version": "0.8.15+commit.e14f2714.Emscripten.clang"
  },
  "schemaVersion": "3.4.8",
  "updatedAt": "2022-09-08T16:23:09.292Z",
  "devdoc": {
    "kind": "dev",
    "methods": {
      "constructor": {
        "custom:oz-upgrades-unsafe-allow": "constructor"
      },
      "owner()": {
        "details": "Returns the address of the current owner."
      },
      "renounceOwnership()": {
        "details": "Leaves the contract without owner. It will not be possible to call `onlyOwner` functions anymore. Can only be called by the current owner. NOTE: Renouncing ownership will leave the contract without an owner, thereby removing any functionality that is only available to the owner."
      },
      "transferOwnership(address)": {
        "details": "Transfers ownership of the contract to a new account (`newOwner`). Can only be called by the current owner."
      }
    },
    "version": 1
  },
  "userdoc": {
    "kind": "user",
    "methods": {},
    "version": 1
  }
}