{
  "contractName": "ReceiptNFT",
  "abi": [
    {
      "inputs": [],
      "stateMutability": "nonpayable",
      "type": "constructor"
    },
    {
      "inputs": [],
      "name": "InvalidQueryRange",
      "type": "error"
    },
    {
      "inputs": [],
      "name": "NonExistingToken",
      "type": "error"
    },
    {
      "inputs": [],
      "name": "NotManager",
      "type": "error"
    },
    {
      "inputs": [],
      "name": "ReceiptAmountCanOnlyDecrease",
      "type": "error"
    },
    {
      "anonymous": false,
      "inputs": [
        {
          "indexed": false,
          "internalType": "address",
          "name": "previousAdmin",
          "type": "address"
        },
        {
          "indexed": false,
          "internalType": "address",
          "name": "newAdmin",
          "type": "address"
        }
      ],
      "name": "AdminChanged",
      "type": "event"
    },
    {
      "anonymous": false,
      "inputs": [
        {
          "indexed": true,
          "internalType": "address",
          "name": "owner",
          "type": "address"
        },
        {
          "indexed": true,
          "internalType": "address",
          "name": "approved",
          "type": "address"
        },
        {
          "indexed": true,
          "internalType": "uint256",
          "name": "tokenId",
          "type": "uint256"
        }
      ],
      "name": "Approval",
      "type": "event"
    },
    {
      "anonymous": false,
      "inputs": [
        {
          "indexed": true,
          "internalType": "address",
          "name": "owner",
          "type": "address"
        },
        {
          "indexed": true,
          "internalType": "address",
          "name": "operator",
          "type": "address"
        },
        {
          "indexed": false,
          "internalType": "bool",
          "name": "approved",
          "type": "bool"
        }
      ],
      "name": "ApprovalForAll",
      "type": "event"
    },
    {
      "anonymous": false,
      "inputs": [
        {
          "indexed": true,
          "internalType": "address",
          "name": "beacon",
          "type": "address"
        }
      ],
      "name": "BeaconUpgraded",
      "type": "event"
    },
    {
      "anonymous": false,
      "inputs": [
        {
          "indexed": false,
          "internalType": "uint8",
          "name": "version",
          "type": "uint8"
        }
      ],
      "name": "Initialized",
      "type": "event"
    },
    {
      "anonymous": false,
      "inputs": [
        {
          "indexed": true,
          "internalType": "address",
          "name": "previousOwner",
          "type": "address"
        },
        {
          "indexed": true,
          "internalType": "address",
          "name": "newOwner",
          "type": "address"
        }
      ],
      "name": "OwnershipTransferred",
      "type": "event"
    },
    {
      "anonymous": false,
      "inputs": [
        {
          "indexed": true,
          "internalType": "address",
          "name": "from",
          "type": "address"
        },
        {
          "indexed": true,
          "internalType": "address",
          "name": "to",
          "type": "address"
        },
        {
          "indexed": true,
          "internalType": "uint256",
          "name": "tokenId",
          "type": "uint256"
        }
      ],
      "name": "Transfer",
      "type": "event"
    },
    {
      "anonymous": false,
      "inputs": [
        {
          "indexed": true,
          "internalType": "address",
          "name": "implementation",
          "type": "address"
        }
      ],
      "name": "Upgraded",
      "type": "event"
    },
    {
      "inputs": [
        {
          "internalType": "address",
          "name": "to",
          "type": "address"
        },
        {
          "internalType": "uint256",
          "name": "tokenId",
          "type": "uint256"
        }
      ],
      "name": "approve",
      "outputs": [],
      "stateMutability": "nonpayable",
      "type": "function"
    },
    {
      "inputs": [
        {
          "internalType": "address",
          "name": "owner",
          "type": "address"
        }
      ],
      "name": "balanceOf",
      "outputs": [
        {
          "internalType": "uint256",
          "name": "",
          "type": "uint256"
        }
      ],
      "stateMutability": "view",
      "type": "function"
    },
    {
      "inputs": [
        {
          "internalType": "uint256",
          "name": "tokenId",
          "type": "uint256"
        }
      ],
      "name": "getApproved",
      "outputs": [
        {
          "internalType": "address",
          "name": "",
          "type": "address"
        }
      ],
      "stateMutability": "view",
      "type": "function"
    },
    {
      "inputs": [
        {
          "internalType": "address",
          "name": "owner",
          "type": "address"
        },
        {
          "internalType": "address",
          "name": "operator",
          "type": "address"
        }
      ],
      "name": "isApprovedForAll",
      "outputs": [
        {
          "internalType": "bool",
          "name": "",
          "type": "bool"
        }
      ],
      "stateMutability": "view",
      "type": "function"
    },
    {
      "inputs": [
        {
          "internalType": "address",
          "name": "",
          "type": "address"
        }
      ],
      "name": "managers",
      "outputs": [
        {
          "internalType": "bool",
          "name": "",
          "type": "bool"
        }
      ],
      "stateMutability": "view",
      "type": "function"
    },
    {
      "inputs": [],
      "name": "name",
      "outputs": [
        {
          "internalType": "string",
          "name": "",
          "type": "string"
        }
      ],
      "stateMutability": "view",
      "type": "function"
    },
    {
      "inputs": [],
      "name": "owner",
      "outputs": [
        {
          "internalType": "address",
          "name": "",
          "type": "address"
        }
      ],
      "stateMutability": "view",
      "type": "function"
    },
    {
      "inputs": [
        {
          "internalType": "uint256",
          "name": "tokenId",
          "type": "uint256"
        }
      ],
      "name": "ownerOf",
      "outputs": [
        {
          "internalType": "address",
          "name": "",
          "type": "address"
        }
      ],
      "stateMutability": "view",
      "type": "function"
    },
    {
      "inputs": [],
      "name": "proxiableUUID",
      "outputs": [
        {
          "internalType": "bytes32",
          "name": "",
          "type": "bytes32"
        }
      ],
      "stateMutability": "view",
      "type": "function"
    },
    {
      "inputs": [
        {
          "internalType": "uint256",
          "name": "",
          "type": "uint256"
        }
      ],
      "name": "receipts",
      "outputs": [
        {
          "internalType": "uint256",
          "name": "cycleId",
          "type": "uint256"
        },
        {
          "internalType": "uint256",
          "name": "tokenAmountUniform",
          "type": "uint256"
        },
        {
          "internalType": "address",
          "name": "token",
          "type": "address"
        }
      ],
      "stateMutability": "view",
      "type": "function"
    },
    {
      "inputs": [],
      "name": "renounceOwnership",
      "outputs": [],
      "stateMutability": "nonpayable",
      "type": "function"
    },
    {
      "inputs": [
        {
          "internalType": "address",
          "name": "from",
          "type": "address"
        },
        {
          "internalType": "address",
          "name": "to",
          "type": "address"
        },
        {
          "internalType": "uint256",
          "name": "tokenId",
          "type": "uint256"
        }
      ],
      "name": "safeTransferFrom",
      "outputs": [],
      "stateMutability": "nonpayable",
      "type": "function"
    },
    {
      "inputs": [
        {
          "internalType": "address",
          "name": "from",
          "type": "address"
        },
        {
          "internalType": "address",
          "name": "to",
          "type": "address"
        },
        {
          "internalType": "uint256",
          "name": "tokenId",
          "type": "uint256"
        },
        {
          "internalType": "bytes",
          "name": "data",
          "type": "bytes"
        }
      ],
      "name": "safeTransferFrom",
      "outputs": [],
      "stateMutability": "nonpayable",
      "type": "function"
    },
    {
      "inputs": [
        {
          "internalType": "address",
          "name": "operator",
          "type": "address"
        },
        {
          "internalType": "bool",
          "name": "approved",
          "type": "bool"
        }
      ],
      "name": "setApprovalForAll",
      "outputs": [],
      "stateMutability": "nonpayable",
      "type": "function"
    },
    {
      "inputs": [
        {
          "internalType": "bytes4",
          "name": "interfaceId",
          "type": "bytes4"
        }
      ],
      "name": "supportsInterface",
      "outputs": [
        {
          "internalType": "bool",
          "name": "",
          "type": "bool"
        }
      ],
      "stateMutability": "view",
      "type": "function"
    },
    {
      "inputs": [],
      "name": "symbol",
      "outputs": [
        {
          "internalType": "string",
          "name": "",
          "type": "string"
        }
      ],
      "stateMutability": "view",
      "type": "function"
    },
    {
      "inputs": [
        {
          "internalType": "uint256",
          "name": "tokenId",
          "type": "uint256"
        }
      ],
      "name": "tokenURI",
      "outputs": [
        {
          "internalType": "string",
          "name": "",
          "type": "string"
        }
      ],
      "stateMutability": "view",
      "type": "function"
    },
    {
      "inputs": [
        {
          "internalType": "address",
          "name": "from",
          "type": "address"
        },
        {
          "internalType": "address",
          "name": "to",
          "type": "address"
        },
        {
          "internalType": "uint256",
          "name": "tokenId",
          "type": "uint256"
        }
      ],
      "name": "transferFrom",
      "outputs": [],
      "stateMutability": "nonpayable",
      "type": "function"
    },
    {
      "inputs": [
        {
          "internalType": "address",
          "name": "newOwner",
          "type": "address"
        }
      ],
      "name": "transferOwnership",
      "outputs": [],
      "stateMutability": "nonpayable",
      "type": "function"
    },
    {
      "inputs": [
        {
          "internalType": "address",
          "name": "newImplementation",
          "type": "address"
        }
      ],
      "name": "upgradeTo",
      "outputs": [],
      "stateMutability": "nonpayable",
      "type": "function"
    },
    {
      "inputs": [
        {
          "internalType": "address",
          "name": "newImplementation",
          "type": "address"
        },
        {
          "internalType": "bytes",
          "name": "data",
          "type": "bytes"
        }
      ],
      "name": "upgradeToAndCall",
      "outputs": [],
      "stateMutability": "payable",
      "type": "function"
    },
    {
      "inputs": [
        {
          "internalType": "address",
          "name": "strategyRouter",
          "type": "address"
        },
        {
          "internalType": "address",
          "name": "batch",
          "type": "address"
        }
      ],
      "name": "initialize",
      "outputs": [],
      "stateMutability": "nonpayable",
      "type": "function"
    },
    {
      "inputs": [
        {
          "internalType": "uint256",
          "name": "receiptId",
          "type": "uint256"
        },
        {
          "internalType": "uint256",
          "name": "amount",
          "type": "uint256"
        }
      ],
      "name": "setAmount",
      "outputs": [],
      "stateMutability": "nonpayable",
      "type": "function"
    },
    {
      "inputs": [
        {
          "internalType": "uint256",
          "name": "cycleId",
          "type": "uint256"
        },
        {
          "internalType": "uint256",
          "name": "amount",
          "type": "uint256"
        },
        {
          "internalType": "address",
          "name": "token",
          "type": "address"
        },
        {
          "internalType": "address",
          "name": "wallet",
          "type": "address"
        }
      ],
      "name": "mint",
      "outputs": [],
      "stateMutability": "nonpayable",
      "type": "function"
    },
    {
      "inputs": [
        {
          "internalType": "uint256",
          "name": "receiptId",
          "type": "uint256"
        }
      ],
      "name": "burn",
      "outputs": [],
      "stateMutability": "nonpayable",
      "type": "function"
    },
    {
      "inputs": [
        {
          "internalType": "uint256",
          "name": "receiptId",
          "type": "uint256"
        }
      ],
      "name": "getReceipt",
      "outputs": [
        {
          "components": [
            {
              "internalType": "uint256",
              "name": "cycleId",
              "type": "uint256"
            },
            {
              "internalType": "uint256",
              "name": "tokenAmountUniform",
              "type": "uint256"
            },
            {
              "internalType": "address",
              "name": "token",
              "type": "address"
            }
          ],
          "internalType": "struct ReceiptNFT.ReceiptData",
          "name": "",
          "type": "tuple"
        }
      ],
      "stateMutability": "view",
      "type": "function"
    },
    {
      "inputs": [
        {
          "internalType": "address",
          "name": "owner",
          "type": "address"
        },
        {
          "internalType": "uint256",
          "name": "start",
          "type": "uint256"
        },
        {
          "internalType": "uint256",
          "name": "stop",
          "type": "uint256"
        }
      ],
      "name": "getTokensOfOwnerIn",
      "outputs": [
        {
          "internalType": "uint256[]",
          "name": "receiptIds",
          "type": "uint256[]"
        }
      ],
      "stateMutability": "view",
      "type": "function"
    },
    {
      "inputs": [
        {
          "internalType": "address",
          "name": "owner",
          "type": "address"
        }
      ],
      "name": "getTokensOfOwner",
      "outputs": [
        {
          "internalType": "uint256[]",
          "name": "receiptIds",
          "type": "uint256[]"
        }
      ],
      "stateMutability": "view",
      "type": "function"
    }
  ],
  "bytecode": "0x60a06040523073ffffffffffffffffffffffffffffffffffffffff1660809073ffffffffffffffffffffffffffffffffffffffff168152503480156200004457600080fd5b50620000556200005b60201b60201c565b62000206565b600060019054906101000a900460ff1615620000ae576040517f08c379a0000000000000000000000000000000000000000000000000000000008152600401620000a590620001a9565b60405180910390fd5b60ff801660008054906101000a900460ff1660ff161015620001205760ff6000806101000a81548160ff021916908360ff1602179055507f7f26b83ff96e1f2b6a682f133852f6798a09c465da95921460cefb384740249860ff604051620001179190620001e9565b60405180910390a15b565b600082825260208201905092915050565b7f496e697469616c697a61626c653a20636f6e747261637420697320696e69746960008201527f616c697a696e6700000000000000000000000000000000000000000000000000602082015250565b60006200019160278362000122565b91506200019e8262000133565b604082019050919050565b60006020820190508181036000830152620001c48162000182565b9050919050565b600060ff82169050919050565b620001e381620001cb565b82525050565b6000602082019050620002006000830184620001d8565b92915050565b608051614c8a6200023e60003960008181610a7d01528181610b0b01528181610fb70152818161104501526110f50152614c8a6000f3fe6080604052600436106101b75760003560e01c80636352211e116100ec578063b63e6ac31161008a578063c87b56dd11610064578063c87b56dd1461061f578063e985e9c51461065c578063f2fde38b14610699578063fdff9b4d146106c2576101b7565b8063b63e6ac314610590578063b88d4fde146105cd578063c6a023e9146105f6576101b7565b80638da5cb5b116100c65780638da5cb5b146104d457806395d89b41146104ff578063a22cb4651461052a578063a5f5a7f114610553576101b7565b80636352211e1461044357806370a0823114610480578063715018a6146104bd576101b7565b806342842e0e116101595780634f1ef286116101335780634f1ef2861461039657806352d1902d146103b25780635734b968146103dd5780635de6dc5514610406576101b7565b806342842e0e1461031b57806342966c6814610344578063485cc9551461036d576101b7565b8063095ea7b311610195578063095ea7b3146102615780630f7ee1ec1461028a57806323b872dd146102c95780633659cfe6146102f2576101b7565b806301ffc9a7146101bc57806306fdde03146101f9578063081812fc14610224575b600080fd5b3480156101c857600080fd5b506101e360048036038101906101de91906130e1565b6106ff565b6040516101f09190613129565b60405180910390f35b34801561020557600080fd5b5061020e6107e1565b60405161021b91906131dd565b60405180910390f35b34801561023057600080fd5b5061024b60048036038101906102469190613235565b610873565b60405161025891906132a3565b60405180910390f35b34801561026d57600080fd5b50610288600480360381019061028391906132ea565b6108b9565b005b34801561029657600080fd5b506102b160048036038101906102ac9190613235565b6109d0565b6040516102c093929190613339565b60405180910390f35b3480156102d557600080fd5b506102f060048036038101906102eb9190613370565b610a1b565b005b3480156102fe57600080fd5b50610319600480360381019061031491906133c3565b610a7b565b005b34801561032757600080fd5b50610342600480360381019061033d9190613370565b610c03565b005b34801561035057600080fd5b5061036b60048036038101906103669190613235565b610c23565b005b34801561037957600080fd5b50610394600480360381019061038f91906133f0565b610d47565b005b6103b060048036038101906103ab9190613565565b610fb5565b005b3480156103be57600080fd5b506103c76110f1565b6040516103d491906135da565b60405180910390f35b3480156103e957600080fd5b5061040460048036038101906103ff91906135f5565b6111aa565b005b34801561041257600080fd5b5061042d600480360381019061042891906133c3565b61130a565b60405161043a919061371a565b60405180910390f35b34801561044f57600080fd5b5061046a60048036038101906104659190613235565b611404565b60405161047791906132a3565b60405180910390f35b34801561048c57600080fd5b506104a760048036038101906104a291906133c3565b6114b5565b6040516104b4919061373c565b60405180910390f35b3480156104c957600080fd5b506104d261156c565b005b3480156104e057600080fd5b506104e9611580565b6040516104f691906132a3565b60405180910390f35b34801561050b57600080fd5b506105146115aa565b60405161052191906131dd565b60405180910390f35b34801561053657600080fd5b50610551600480360381019061054c9190613783565b61163c565b005b34801561055f57600080fd5b5061057a600480360381019061057591906137c3565b611652565b604051610587919061371a565b60405180910390f35b34801561059c57600080fd5b506105b760048036038101906105b29190613235565b6117db565b6040516105c49190613867565b60405180910390f35b3480156105d957600080fd5b506105f460048036038101906105ef9190613882565b6118b9565b005b34801561060257600080fd5b5061061d60048036038101906106189190613905565b61191b565b005b34801561062b57600080fd5b5061064660048036038101906106419190613235565b611a56565b60405161065391906131dd565b60405180910390f35b34801561066857600080fd5b50610683600480360381019061067e91906133f0565b611abe565b6040516106909190613129565b60405180910390f35b3480156106a557600080fd5b506106c060048036038101906106bb91906133c3565b611b52565b005b3480156106ce57600080fd5b506106e960048036038101906106e491906133c3565b611bd5565b6040516106f69190613129565b60405180910390f35b60007f80ac58cd000000000000000000000000000000000000000000000000000000007bffffffffffffffffffffffffffffffffffffffffffffffffffffffff1916827bffffffffffffffffffffffffffffffffffffffffffffffffffffffff191614806107ca57507f5b5e139f000000000000000000000000000000000000000000000000000000007bffffffffffffffffffffffffffffffffffffffffffffffffffffffff1916827bffffffffffffffffffffffffffffffffffffffffffffffffffffffff1916145b806107da57506107d982611bf6565b5b9050919050565b6060606580546107f090613974565b80601f016020809104026020016040519081016040528092919081815260200182805461081c90613974565b80156108695780601f1061083e57610100808354040283529160200191610869565b820191906000526020600020905b81548152906001019060200180831161084c57829003601f168201915b5050505050905090565b600061087e82611c60565b6069600083815260200190815260200160002060009054906101000a900473ffffffffffffffffffffffffffffffffffffffff169050919050565b60006108c482611404565b90508073ffffffffffffffffffffffffffffffffffffffff168373ffffffffffffffffffffffffffffffffffffffff1603610934576040517f08c379a000000000000000000000000000000000000000000000000000000000815260040161092b90613a17565b60405180910390fd5b8073ffffffffffffffffffffffffffffffffffffffff16610953611cab565b73ffffffffffffffffffffffffffffffffffffffff16148061098257506109818161097c611cab565b611abe565b5b6109c1576040517f08c379a00000000000000000000000000000000000000000000000000000000081526004016109b890613aa9565b60405180910390fd5b6109cb8383611cb3565b505050565b61012e6020528060005260406000206000915090508060000154908060010154908060020160009054906101000a900473ffffffffffffffffffffffffffffffffffffffff16905083565b610a2c610a26611cab565b82611d6c565b610a6b576040517f08c379a0000000000000000000000000000000000000000000000000000000008152600401610a6290613b3b565b60405180910390fd5b610a76838383611e01565b505050565b7f000000000000000000000000000000000000000000000000000000000000000073ffffffffffffffffffffffffffffffffffffffff163073ffffffffffffffffffffffffffffffffffffffff1603610b09576040517f08c379a0000000000000000000000000000000000000000000000000000000008152600401610b0090613bcd565b60405180910390fd5b7f000000000000000000000000000000000000000000000000000000000000000073ffffffffffffffffffffffffffffffffffffffff16610b48612067565b73ffffffffffffffffffffffffffffffffffffffff1614610b9e576040517f08c379a0000000000000000000000000000000000000000000000000000000008152600401610b9590613c5f565b60405180910390fd5b610ba7816120be565b610c0081600067ffffffffffffffff811115610bc657610bc561343a565b5b6040519080825280601f01601f191660200182016040528015610bf85781602001600182028036833780820191505090505b5060006120c9565b50565b610c1e838383604051806020016040528060008152506118b9565b505050565b6000151561012f60003373ffffffffffffffffffffffffffffffffffffffff1673ffffffffffffffffffffffffffffffffffffffff16815260200190815260200160002060009054906101000a900460ff16151503610cae576040517fc0fc8a8a00000000000000000000000000000000000000000000000000000000815260040160405180910390fd5b610cb781612237565b610ced576040517f8e8fe17c00000000000000000000000000000000000000000000000000000000815260040160405180910390fd5b610cf6816122a3565b61012e600082815260200190815260200160002060008082016000905560018201600090556002820160006101000a81549073ffffffffffffffffffffffffffffffffffffffff0219169055505050565b60008060019054906101000a900460ff16159050808015610d785750600160008054906101000a900460ff1660ff16105b80610da55750610d87306123c0565b158015610da45750600160008054906101000a900460ff1660ff16145b5b610de4576040517f08c379a0000000000000000000000000000000000000000000000000000000008152600401610ddb90613cf1565b60405180910390fd5b60016000806101000a81548160ff021916908360ff1602179055508015610e21576001600060016101000a81548160ff0219169083151502179055505b610e296123e3565b610e3161243c565b610ea56040518060400160405280600b81526020017f52656365697074204e46540000000000000000000000000000000000000000008152506040518060400160405280600781526020017f524543454950540000000000000000000000000000000000000000000000000081525061248d565b600161012f60008573ffffffffffffffffffffffffffffffffffffffff1673ffffffffffffffffffffffffffffffffffffffff16815260200190815260200160002060006101000a81548160ff021916908315150217905550600161012f60008473ffffffffffffffffffffffffffffffffffffffff1673ffffffffffffffffffffffffffffffffffffffff16815260200190815260200160002060006101000a81548160ff0219169083151502179055508015610fb05760008060016101000a81548160ff0219169083151502179055507f7f26b83ff96e1f2b6a682f133852f6798a09c465da95921460cefb38474024986001604051610fa79190613d63565b60405180910390a15b505050565b7f000000000000000000000000000000000000000000000000000000000000000073ffffffffffffffffffffffffffffffffffffffff163073ffffffffffffffffffffffffffffffffffffffff1603611043576040517f08c379a000000000000000000000000000000000000000000000000000000000815260040161103a90613bcd565b60405180910390fd5b7f000000000000000000000000000000000000000000000000000000000000000073ffffffffffffffffffffffffffffffffffffffff16611082612067565b73ffffffffffffffffffffffffffffffffffffffff16146110d8576040517f08c379a00000000000000000000000000000000000000000000000000000000081526004016110cf90613c5f565b60405180910390fd5b6110e1826120be565b6110ed828260016120c9565b5050565b60007f000000000000000000000000000000000000000000000000000000000000000073ffffffffffffffffffffffffffffffffffffffff163073ffffffffffffffffffffffffffffffffffffffff1614611181576040517f08c379a000000000000000000000000000000000000000000000000000000000815260040161117890613df0565b60405180910390fd5b7f360894a13ba1a3210667c828492db98dca3e2076cc3735a920a3ca505d382bbc60001b905090565b6000151561012f60003373ffffffffffffffffffffffffffffffffffffffff1673ffffffffffffffffffffffffffffffffffffffff16815260200190815260200160002060009054906101000a900460ff16151503611235576040517fc0fc8a8a00000000000000000000000000000000000000000000000000000000815260040160405180910390fd5b600061012d54905060405180606001604052808681526020018581526020018473ffffffffffffffffffffffffffffffffffffffff1681525061012e6000838152602001908152602001600020600082015181600001556020820151816001015560408201518160020160006101000a81548173ffffffffffffffffffffffffffffffffffffffff021916908373ffffffffffffffffffffffffffffffffffffffff1602179055509050506112ea82826124ea565b61012d60008154809291906112fe90613e3f565b91905055505050505050565b60606000611317836114b5565b90508067ffffffffffffffff8111156113335761133261343a565b5b6040519080825280602002602001820160405280156113615781602001602082028036833780820191505090505b50915060005b60008211156113fd5761137981612237565b80156113b857508373ffffffffffffffffffffffffffffffffffffffff166113a082611404565b73ffffffffffffffffffffffffffffffffffffffff16145b156113ea578083836113c990613e87565b935083815181106113dd576113dc613eb0565b5b6020026020010181815250505b80806113f590613e3f565b915050611367565b5050919050565b6000806067600084815260200190815260200160002060009054906101000a900473ffffffffffffffffffffffffffffffffffffffff169050600073ffffffffffffffffffffffffffffffffffffffff168173ffffffffffffffffffffffffffffffffffffffff16036114ac576040517f08c379a00000000000000000000000000000000000000000000000000000000081526004016114a390613f2b565b60405180910390fd5b80915050919050565b60008073ffffffffffffffffffffffffffffffffffffffff168273ffffffffffffffffffffffffffffffffffffffff1603611525576040517f08c379a000000000000000000000000000000000000000000000000000000000815260040161151c90613fbd565b60405180910390fd5b606860008373ffffffffffffffffffffffffffffffffffffffff1673ffffffffffffffffffffffffffffffffffffffff168152602001908152602001600020549050919050565b6115746126c3565b61157e6000612741565b565b600060fb60009054906101000a900473ffffffffffffffffffffffffffffffffffffffff16905090565b6060606680546115b990613974565b80601f01602080910402602001604051908101604052809291908181526020018280546115e590613974565b80156116325780601f1061160757610100808354040283529160200191611632565b820191906000526020600020905b81548152906001019060200180831161161557829003601f168201915b5050505050905090565b61164e611647611cab565b8383612807565b5050565b606081831061168d576040517f32c1995a00000000000000000000000000000000000000000000000000000000815260040160405180910390fd5b60008061012d549050808411156116a2578093505b60006116ad876114b5565b9050848610156116d05760008686039050818110156116ca578091505b506116d5565b600090505b8067ffffffffffffffff8111156116ef576116ee61343a565b5b60405190808252806020026020018201604052801561171d5781602001602082028036833780820191505090505b50935060008103611730575050506117d4565b60008690505b8581141580156117465750818414155b156117cc5761175481612237565b801561179357508773ffffffffffffffffffffffffffffffffffffffff1661177b82611404565b73ffffffffffffffffffffffffffffffffffffffff16145b156117bf57808585806001019650815181106117b2576117b1613eb0565b5b6020026020010181815250505b8080600101915050611736565b838552505050505b9392505050565b6117e361303e565b600015156117f083612237565b151503611829576040517f8e8fe17c00000000000000000000000000000000000000000000000000000000815260040160405180910390fd5b61012e600083815260200190815260200160002060405180606001604052908160008201548152602001600182015481526020016002820160009054906101000a900473ffffffffffffffffffffffffffffffffffffffff1673ffffffffffffffffffffffffffffffffffffffff1673ffffffffffffffffffffffffffffffffffffffff16815250509050919050565b6118ca6118c4611cab565b83611d6c565b611909576040517f08c379a000000000000000000000000000000000000000000000000000000000815260040161190090613b3b565b60405180910390fd5b61191584848484612973565b50505050565b6000151561012f60003373ffffffffffffffffffffffffffffffffffffffff1673ffffffffffffffffffffffffffffffffffffffff16815260200190815260200160002060009054906101000a900460ff161515036119a6576040517fc0fc8a8a00000000000000000000000000000000000000000000000000000000815260040160405180910390fd5b6119af82612237565b6119e5576040517f8e8fe17c00000000000000000000000000000000000000000000000000000000815260040160405180910390fd5b8061012e6000848152602001908152602001600020600101541015611a36576040517f8b6bb5f400000000000000000000000000000000000000000000000000000000815260040160405180910390fd5b8061012e6000848152602001908152602001600020600101819055505050565b6060611a6182611c60565b6000611a6b6129cf565b90506000815111611a8b5760405180602001604052806000815250611ab6565b80611a95846129e6565b604051602001611aa6929190614019565b6040516020818303038152906040525b915050919050565b6000606a60008473ffffffffffffffffffffffffffffffffffffffff1673ffffffffffffffffffffffffffffffffffffffff16815260200190815260200160002060008373ffffffffffffffffffffffffffffffffffffffff1673ffffffffffffffffffffffffffffffffffffffff16815260200190815260200160002060009054906101000a900460ff16905092915050565b611b5a6126c3565b600073ffffffffffffffffffffffffffffffffffffffff168173ffffffffffffffffffffffffffffffffffffffff1603611bc9576040517f08c379a0000000000000000000000000000000000000000000000000000000008152600401611bc0906140af565b60405180910390fd5b611bd281612741565b50565b61012f6020528060005260406000206000915054906101000a900460ff1681565b60007f01ffc9a7000000000000000000000000000000000000000000000000000000007bffffffffffffffffffffffffffffffffffffffffffffffffffffffff1916827bffffffffffffffffffffffffffffffffffffffffffffffffffffffff1916149050919050565b611c6981612237565b611ca8576040517f08c379a0000000000000000000000000000000000000000000000000000000008152600401611c9f90613f2b565b60405180910390fd5b50565b600033905090565b816069600083815260200190815260200160002060006101000a81548173ffffffffffffffffffffffffffffffffffffffff021916908373ffffffffffffffffffffffffffffffffffffffff160217905550808273ffffffffffffffffffffffffffffffffffffffff16611d2683611404565b73ffffffffffffffffffffffffffffffffffffffff167f8c5be1e5ebec7d5bd14f71427d1e84f3dd0314c0f7b2291e5b200ac8c7c3b92560405160405180910390a45050565b600080611d7883611404565b90508073ffffffffffffffffffffffffffffffffffffffff168473ffffffffffffffffffffffffffffffffffffffff161480611dba5750611db98185611abe565b5b80611df857508373ffffffffffffffffffffffffffffffffffffffff16611de084610873565b73ffffffffffffffffffffffffffffffffffffffff16145b91505092915050565b8273ffffffffffffffffffffffffffffffffffffffff16611e2182611404565b73ffffffffffffffffffffffffffffffffffffffff1614611e77576040517f08c379a0000000000000000000000000000000000000000000000000000000008152600401611e6e90614141565b60405180910390fd5b600073ffffffffffffffffffffffffffffffffffffffff168273ffffffffffffffffffffffffffffffffffffffff1603611ee6576040517f08c379a0000000000000000000000000000000000000000000000000000000008152600401611edd906141d3565b60405180910390fd5b611ef1838383612b46565b611efc600082611cb3565b6001606860008573ffffffffffffffffffffffffffffffffffffffff1673ffffffffffffffffffffffffffffffffffffffff1681526020019081526020016000206000828254611f4c91906141f3565b925050819055506001606860008473ffffffffffffffffffffffffffffffffffffffff1673ffffffffffffffffffffffffffffffffffffffff1681526020019081526020016000206000828254611fa39190614227565b92505081905550816067600083815260200190815260200160002060006101000a81548173ffffffffffffffffffffffffffffffffffffffff021916908373ffffffffffffffffffffffffffffffffffffffff160217905550808273ffffffffffffffffffffffffffffffffffffffff168473ffffffffffffffffffffffffffffffffffffffff167fddf252ad1be2c89b69c2b068fc378daa952ba7f163c4a11628f55a4df523b3ef60405160405180910390a4612062838383612b4b565b505050565b60006120957f360894a13ba1a3210667c828492db98dca3e2076cc3735a920a3ca505d382bbc60001b612b50565b60000160009054906101000a900473ffffffffffffffffffffffffffffffffffffffff16905090565b6120c66126c3565b50565b6120f57f4910fdfa16fed3260ed0e7147f7cc6da11a60208b5b9406d12a635614ffd914360001b612b5a565b60000160009054906101000a900460ff16156121195761211483612b64565b612232565b8273ffffffffffffffffffffffffffffffffffffffff166352d1902d6040518163ffffffff1660e01b8152600401602060405180830381865afa92505050801561218157506040513d601f19601f8201168201806040525081019061217e91906142a9565b60015b6121c0576040517f08c379a00000000000000000000000000000000000000000000000000000000081526004016121b790614348565b60405180910390fd5b7f360894a13ba1a3210667c828492db98dca3e2076cc3735a920a3ca505d382bbc60001b8114612225576040517f08c379a000000000000000000000000000000000000000000000000000000000815260040161221c906143da565b60405180910390fd5b50612231838383612c1d565b5b505050565b60008073ffffffffffffffffffffffffffffffffffffffff166067600084815260200190815260200160002060009054906101000a900473ffffffffffffffffffffffffffffffffffffffff1673ffffffffffffffffffffffffffffffffffffffff1614159050919050565b60006122ae82611404565b90506122bc81600084612b46565b6122c7600083611cb3565b6001606860008373ffffffffffffffffffffffffffffffffffffffff1673ffffffffffffffffffffffffffffffffffffffff168152602001908152602001600020600082825461231791906141f3565b925050819055506067600083815260200190815260200160002060006101000a81549073ffffffffffffffffffffffffffffffffffffffff021916905581600073ffffffffffffffffffffffffffffffffffffffff168273ffffffffffffffffffffffffffffffffffffffff167fddf252ad1be2c89b69c2b068fc378daa952ba7f163c4a11628f55a4df523b3ef60405160405180910390a46123bc81600084612b4b565b5050565b6000808273ffffffffffffffffffffffffffffffffffffffff163b119050919050565b600060019054906101000a900460ff16612432576040517f08c379a00000000000000000000000000000000000000000000000000000000081526004016124299061446c565b60405180910390fd5b61243a612c49565b565b600060019054906101000a900460ff1661248b576040517f08c379a00000000000000000000000000000000000000000000000000000000081526004016124829061446c565b60405180910390fd5b565b600060019054906101000a900460ff166124dc576040517f08c379a00000000000000000000000000000000000000000000000000000000081526004016124d39061446c565b60405180910390fd5b6124e68282612caa565b5050565b600073ffffffffffffffffffffffffffffffffffffffff168273ffffffffffffffffffffffffffffffffffffffff1603612559576040517f08c379a0000000000000000000000000000000000000000000000000000000008152600401612550906144d8565b60405180910390fd5b61256281612237565b156125a2576040517f08c379a000000000000000000000000000000000000000000000000000000000815260040161259990614544565b60405180910390fd5b6125ae60008383612b46565b6001606860008473ffffffffffffffffffffffffffffffffffffffff1673ffffffffffffffffffffffffffffffffffffffff16815260200190815260200160002060008282546125fe9190614227565b92505081905550816067600083815260200190815260200160002060006101000a81548173ffffffffffffffffffffffffffffffffffffffff021916908373ffffffffffffffffffffffffffffffffffffffff160217905550808273ffffffffffffffffffffffffffffffffffffffff16600073ffffffffffffffffffffffffffffffffffffffff167fddf252ad1be2c89b69c2b068fc378daa952ba7f163c4a11628f55a4df523b3ef60405160405180910390a46126bf60008383612b4b565b5050565b6126cb611cab565b73ffffffffffffffffffffffffffffffffffffffff166126e9611580565b73ffffffffffffffffffffffffffffffffffffffff161461273f576040517f08c379a0000000000000000000000000000000000000000000000000000000008152600401612736906145b0565b60405180910390fd5b565b600060fb60009054906101000a900473ffffffffffffffffffffffffffffffffffffffff1690508160fb60006101000a81548173ffffffffffffffffffffffffffffffffffffffff021916908373ffffffffffffffffffffffffffffffffffffffff1602179055508173ffffffffffffffffffffffffffffffffffffffff168173ffffffffffffffffffffffffffffffffffffffff167f8be0079c531659141344cd1fd0a4f28419497f9722a3daafe3b4186f6b6457e060405160405180910390a35050565b8173ffffffffffffffffffffffffffffffffffffffff168373ffffffffffffffffffffffffffffffffffffffff1603612875576040517f08c379a000000000000000000000000000000000000000000000000000000000815260040161286c9061461c565b60405180910390fd5b80606a60008573ffffffffffffffffffffffffffffffffffffffff1673ffffffffffffffffffffffffffffffffffffffff16815260200190815260200160002060008473ffffffffffffffffffffffffffffffffffffffff1673ffffffffffffffffffffffffffffffffffffffff16815260200190815260200160002060006101000a81548160ff0219169083151502179055508173ffffffffffffffffffffffffffffffffffffffff168373ffffffffffffffffffffffffffffffffffffffff167f17307eab39ab6107e8899845ad3d59bd9653f200f220920489ca2b5937696c31836040516129669190613129565b60405180910390a3505050565b61297e848484611e01565b61298a84848484612d1d565b6129c9576040517f08c379a00000000000000000000000000000000000000000000000000000000081526004016129c0906146ae565b60405180910390fd5b50505050565b606060405180602001604052806000815250905090565b606060008203612a2d576040518060400160405280600181526020017f30000000000000000000000000000000000000000000000000000000000000008152509050612b41565b600082905060005b60008214612a5f578080612a4890613e3f565b915050600a82612a5891906146fd565b9150612a35565b60008167ffffffffffffffff811115612a7b57612a7a61343a565b5b6040519080825280601f01601f191660200182016040528015612aad5781602001600182028036833780820191505090505b5090505b60008514612b3a57600182612ac691906141f3565b9150600a85612ad5919061472e565b6030612ae19190614227565b60f81b818381518110612af757612af6613eb0565b5b60200101907effffffffffffffffffffffffffffffffffffffffffffffffffffffffffffff1916908160001a905350600a85612b3391906146fd565b9450612ab1565b8093505050505b919050565b505050565b505050565b6000819050919050565b6000819050919050565b612b6d816123c0565b612bac576040517f08c379a0000000000000000000000000000000000000000000000000000000008152600401612ba3906147d1565b60405180910390fd5b80612bd97f360894a13ba1a3210667c828492db98dca3e2076cc3735a920a3ca505d382bbc60001b612b50565b60000160006101000a81548173ffffffffffffffffffffffffffffffffffffffff021916908373ffffffffffffffffffffffffffffffffffffffff16021790555050565b612c2683612ea4565b600082511180612c335750805b15612c4457612c428383612ef3565b505b505050565b600060019054906101000a900460ff16612c98576040517f08c379a0000000000000000000000000000000000000000000000000000000008152600401612c8f9061446c565b60405180910390fd5b612ca8612ca3611cab565b612741565b565b600060019054906101000a900460ff16612cf9576040517f08c379a0000000000000000000000000000000000000000000000000000000008152600401612cf09061446c565b60405180910390fd5b8160659081612d089190614993565b508060669081612d189190614993565b505050565b6000612d3e8473ffffffffffffffffffffffffffffffffffffffff166123c0565b15612e97578373ffffffffffffffffffffffffffffffffffffffff1663150b7a02612d67611cab565b8786866040518563ffffffff1660e01b8152600401612d899493929190614aba565b6020604051808303816000875af1925050508015612dc557506040513d601f19601f82011682018060405250810190612dc29190614b1b565b60015b612e47573d8060008114612df5576040519150601f19603f3d011682016040523d82523d6000602084013e612dfa565b606091505b506000815103612e3f576040517f08c379a0000000000000000000000000000000000000000000000000000000008152600401612e36906146ae565b60405180910390fd5b805181602001fd5b63150b7a0260e01b7bffffffffffffffffffffffffffffffffffffffffffffffffffffffff1916817bffffffffffffffffffffffffffffffffffffffffffffffffffffffff191614915050612e9c565b600190505b949350505050565b612ead81612b64565b8073ffffffffffffffffffffffffffffffffffffffff167fbc7cd75a20ee27fd9adebab32041f755214dbc6bffa90cc0225b39da2e5c2d3b60405160405180910390a250565b6060612efe836123c0565b612f3d576040517f08c379a0000000000000000000000000000000000000000000000000000000008152600401612f3490614bba565b60405180910390fd5b6000808473ffffffffffffffffffffffffffffffffffffffff1684604051612f659190614c16565b600060405180830381855af49150503d8060008114612fa0576040519150601f19603f3d011682016040523d82523d6000602084013e612fa5565b606091505b5091509150612fcd8282604051806060016040528060278152602001614c2e60279139612fd7565b9250505092915050565b60608315612fe757829050613037565b600083511115612ffa5782518084602001fd5b816040517f08c379a000000000000000000000000000000000000000000000000000000000815260040161302e91906131dd565b60405180910390fd5b9392505050565b60405180606001604052806000815260200160008152602001600073ffffffffffffffffffffffffffffffffffffffff1681525090565b6000604051905090565b600080fd5b600080fd5b60007fffffffff0000000000000000000000000000000000000000000000000000000082169050919050565b6130be81613089565b81146130c957600080fd5b50565b6000813590506130db816130b5565b92915050565b6000602082840312156130f7576130f661307f565b5b6000613105848285016130cc565b91505092915050565b60008115159050919050565b6131238161310e565b82525050565b600060208201905061313e600083018461311a565b92915050565b600081519050919050565b600082825260208201905092915050565b60005b8381101561317e578082015181840152602081019050613163565b8381111561318d576000848401525b50505050565b6000601f19601f8301169050919050565b60006131af82613144565b6131b9818561314f565b93506131c9818560208601613160565b6131d281613193565b840191505092915050565b600060208201905081810360008301526131f781846131a4565b905092915050565b6000819050919050565b613212816131ff565b811461321d57600080fd5b50565b60008135905061322f81613209565b92915050565b60006020828403121561324b5761324a61307f565b5b600061325984828501613220565b91505092915050565b600073ffffffffffffffffffffffffffffffffffffffff82169050919050565b600061328d82613262565b9050919050565b61329d81613282565b82525050565b60006020820190506132b86000830184613294565b92915050565b6132c781613282565b81146132d257600080fd5b50565b6000813590506132e4816132be565b92915050565b600080604083850312156133015761330061307f565b5b600061330f858286016132d5565b925050602061332085828601613220565b9150509250929050565b613333816131ff565b82525050565b600060608201905061334e600083018661332a565b61335b602083018561332a565b6133686040830184613294565b949350505050565b6000806000606084860312156133895761338861307f565b5b6000613397868287016132d5565b93505060206133a8868287016132d5565b92505060406133b986828701613220565b9150509250925092565b6000602082840312156133d9576133d861307f565b5b60006133e7848285016132d5565b91505092915050565b600080604083850312156134075761340661307f565b5b6000613415858286016132d5565b9250506020613426858286016132d5565b9150509250929050565b600080fd5b600080fd5b7f4e487b7100000000000000000000000000000000000000000000000000000000600052604160045260246000fd5b61347282613193565b810181811067ffffffffffffffff821117156134915761349061343a565b5b80604052505050565b60006134a4613075565b90506134b08282613469565b919050565b600067ffffffffffffffff8211156134d0576134cf61343a565b5b6134d982613193565b9050602081019050919050565b82818337600083830152505050565b6000613508613503846134b5565b61349a565b90508281526020810184848401111561352457613523613435565b5b61352f8482856134e6565b509392505050565b600082601f83011261354c5761354b613430565b5b813561355c8482602086016134f5565b91505092915050565b6000806040838503121561357c5761357b61307f565b5b600061358a858286016132d5565b925050602083013567ffffffffffffffff8111156135ab576135aa613084565b5b6135b785828601613537565b9150509250929050565b6000819050919050565b6135d4816135c1565b82525050565b60006020820190506135ef60008301846135cb565b92915050565b6000806000806080858703121561360f5761360e61307f565b5b600061361d87828801613220565b945050602061362e87828801613220565b935050604061363f878288016132d5565b9250506060613650878288016132d5565b91505092959194509250565b600081519050919050565b600082825260208201905092915050565b6000819050602082019050919050565b613691816131ff565b82525050565b60006136a38383613688565b60208301905092915050565b6000602082019050919050565b60006136c78261365c565b6136d18185613667565b93506136dc83613678565b8060005b8381101561370d5781516136f48882613697565b97506136ff836136af565b9250506001810190506136e0565b5085935050505092915050565b6000602082019050818103600083015261373481846136bc565b905092915050565b6000602082019050613751600083018461332a565b92915050565b6137608161310e565b811461376b57600080fd5b50565b60008135905061377d81613757565b92915050565b6000806040838503121561379a5761379961307f565b5b60006137a8858286016132d5565b92505060206137b98582860161376e565b9150509250929050565b6000806000606084860312156137dc576137db61307f565b5b60006137ea868287016132d5565b93505060206137fb86828701613220565b925050604061380c86828701613220565b9150509250925092565b61381f81613282565b82525050565b60608201600082015161383b6000850182613688565b50602082015161384e6020850182613688565b5060408201516138616040850182613816565b50505050565b600060608201905061387c6000830184613825565b92915050565b6000806000806080858703121561389c5761389b61307f565b5b60006138aa878288016132d5565b94505060206138bb878288016132d5565b93505060406138cc87828801613220565b925050606085013567ffffffffffffffff8111156138ed576138ec613084565b5b6138f987828801613537565b91505092959194509250565b6000806040838503121561391c5761391b61307f565b5b600061392a85828601613220565b925050602061393b85828601613220565b9150509250929050565b7f4e487b7100000000000000000000000000000000000000000000000000000000600052602260045260246000fd5b6000600282049050600182168061398c57607f821691505b60208210810361399f5761399e613945565b5b50919050565b7f4552433732313a20617070726f76616c20746f2063757272656e74206f776e6560008201527f7200000000000000000000000000000000000000000000000000000000000000602082015250565b6000613a0160218361314f565b9150613a0c826139a5565b604082019050919050565b60006020820190508181036000830152613a30816139f4565b9050919050565b7f4552433732313a20617070726f76652063616c6c6572206973206e6f7420746f60008201527f6b656e206f776e6572206e6f7220617070726f76656420666f7220616c6c0000602082015250565b6000613a93603e8361314f565b9150613a9e82613a37565b604082019050919050565b60006020820190508181036000830152613ac281613a86565b9050919050565b7f4552433732313a2063616c6c6572206973206e6f7420746f6b656e206f776e6560008201527f72206e6f7220617070726f766564000000000000000000000000000000000000602082015250565b6000613b25602e8361314f565b9150613b3082613ac9565b604082019050919050565b60006020820190508181036000830152613b5481613b18565b9050919050565b7f46756e6374696f6e206d7573742062652063616c6c6564207468726f7567682060008201527f64656c656761746563616c6c0000000000000000000000000000000000000000602082015250565b6000613bb7602c8361314f565b9150613bc282613b5b565b604082019050919050565b60006020820190508181036000830152613be681613baa565b9050919050565b7f46756e6374696f6e206d7573742062652063616c6c6564207468726f7567682060008201527f6163746976652070726f78790000000000000000000000000000000000000000602082015250565b6000613c49602c8361314f565b9150613c5482613bed565b604082019050919050565b60006020820190508181036000830152613c7881613c3c565b9050919050565b7f496e697469616c697a61626c653a20636f6e747261637420697320616c72656160008201527f647920696e697469616c697a6564000000000000000000000000000000000000602082015250565b6000613cdb602e8361314f565b9150613ce682613c7f565b604082019050919050565b60006020820190508181036000830152613d0a81613cce565b9050919050565b6000819050919050565b600060ff82169050919050565b6000819050919050565b6000613d4d613d48613d4384613d11565b613d28565b613d1b565b9050919050565b613d5d81613d32565b82525050565b6000602082019050613d786000830184613d54565b92915050565b7f555550535570677261646561626c653a206d757374206e6f742062652063616c60008201527f6c6564207468726f7567682064656c656761746563616c6c0000000000000000602082015250565b6000613dda60388361314f565b9150613de582613d7e565b604082019050919050565b60006020820190508181036000830152613e0981613dcd565b9050919050565b7f4e487b7100000000000000000000000000000000000000000000000000000000600052601160045260246000fd5b6000613e4a826131ff565b91507fffffffffffffffffffffffffffffffffffffffffffffffffffffffffffffffff8203613e7c57613e7b613e10565b5b600182019050919050565b6000613e92826131ff565b915060008203613ea557613ea4613e10565b5b600182039050919050565b7f4e487b7100000000000000000000000000000000000000000000000000000000600052603260045260246000fd5b7f4552433732313a20696e76616c696420746f6b656e2049440000000000000000600082015250565b6000613f1560188361314f565b9150613f2082613edf565b602082019050919050565b60006020820190508181036000830152613f4481613f08565b9050919050565b7f4552433732313a2061646472657373207a65726f206973206e6f74206120766160008201527f6c6964206f776e65720000000000000000000000000000000000000000000000602082015250565b6000613fa760298361314f565b9150613fb282613f4b565b604082019050919050565b60006020820190508181036000830152613fd681613f9a565b9050919050565b600081905092915050565b6000613ff382613144565b613ffd8185613fdd565b935061400d818560208601613160565b80840191505092915050565b60006140258285613fe8565b91506140318284613fe8565b91508190509392505050565b7f4f776e61626c653a206e6577206f776e657220697320746865207a65726f206160008201527f6464726573730000000000000000000000000000000000000000000000000000602082015250565b600061409960268361314f565b91506140a48261403d565b604082019050919050565b600060208201905081810360008301526140c88161408c565b9050919050565b7f4552433732313a207472616e736665722066726f6d20696e636f72726563742060008201527f6f776e6572000000000000000000000000000000000000000000000000000000602082015250565b600061412b60258361314f565b9150614136826140cf565b604082019050919050565b6000602082019050818103600083015261415a8161411e565b9050919050565b7f4552433732313a207472616e7366657220746f20746865207a65726f2061646460008201527f7265737300000000000000000000000000000000000000000000000000000000602082015250565b60006141bd60248361314f565b91506141c882614161565b604082019050919050565b600060208201905081810360008301526141ec816141b0565b9050919050565b60006141fe826131ff565b9150614209836131ff565b92508282101561421c5761421b613e10565b5b828203905092915050565b6000614232826131ff565b915061423d836131ff565b9250827fffffffffffffffffffffffffffffffffffffffffffffffffffffffffffffffff0382111561427257614271613e10565b5b828201905092915050565b614286816135c1565b811461429157600080fd5b50565b6000815190506142a38161427d565b92915050565b6000602082840312156142bf576142be61307f565b5b60006142cd84828501614294565b91505092915050565b7f45524331393637557067726164653a206e657720696d706c656d656e7461746960008201527f6f6e206973206e6f742055555053000000000000000000000000000000000000602082015250565b6000614332602e8361314f565b915061433d826142d6565b604082019050919050565b6000602082019050818103600083015261436181614325565b9050919050565b7f45524331393637557067726164653a20756e737570706f727465642070726f7860008201527f6961626c65555549440000000000000000000000000000000000000000000000602082015250565b60006143c460298361314f565b91506143cf82614368565b604082019050919050565b600060208201905081810360008301526143f3816143b7565b9050919050565b7f496e697469616c697a61626c653a20636f6e7472616374206973206e6f74206960008201527f6e697469616c697a696e67000000000000000000000000000000000000000000602082015250565b6000614456602b8361314f565b9150614461826143fa565b604082019050919050565b6000602082019050818103600083015261448581614449565b9050919050565b7f4552433732313a206d696e7420746f20746865207a65726f2061646472657373600082015250565b60006144c260208361314f565b91506144cd8261448c565b602082019050919050565b600060208201905081810360008301526144f1816144b5565b9050919050565b7f4552433732313a20746f6b656e20616c7265616479206d696e74656400000000600082015250565b600061452e601c8361314f565b9150614539826144f8565b602082019050919050565b6000602082019050818103600083015261455d81614521565b9050919050565b7f4f776e61626c653a2063616c6c6572206973206e6f7420746865206f776e6572600082015250565b600061459a60208361314f565b91506145a582614564565b602082019050919050565b600060208201905081810360008301526145c98161458d565b9050919050565b7f4552433732313a20617070726f766520746f2063616c6c657200000000000000600082015250565b600061460660198361314f565b9150614611826145d0565b602082019050919050565b60006020820190508181036000830152614635816145f9565b9050919050565b7f4552433732313a207472616e7366657220746f206e6f6e20455243373231526560008201527f63656976657220696d706c656d656e7465720000000000000000000000000000602082015250565b600061469860328361314f565b91506146a38261463c565b604082019050919050565b600060208201905081810360008301526146c78161468b565b9050919050565b7f4e487b7100000000000000000000000000000000000000000000000000000000600052601260045260246000fd5b6000614708826131ff565b9150614713836131ff565b925082614723576147226146ce565b5b828204905092915050565b6000614739826131ff565b9150614744836131ff565b925082614754576147536146ce565b5b828206905092915050565b7f455243313936373a206e657720696d706c656d656e746174696f6e206973206e60008201527f6f74206120636f6e747261637400000000000000000000000000000000000000602082015250565b60006147bb602d8361314f565b91506147c68261475f565b604082019050919050565b600060208201905081810360008301526147ea816147ae565b9050919050565b60008190508160005260206000209050919050565b60006020601f8301049050919050565b600082821b905092915050565b6000600883026148537fffffffffffffffffffffffffffffffffffffffffffffffffffffffffffffffff82614816565b61485d8683614816565b95508019841693508086168417925050509392505050565b600061489061488b614886846131ff565b613d28565b6131ff565b9050919050565b6000819050919050565b6148aa83614875565b6148be6148b682614897565b848454614823565b825550505050565b600090565b6148d36148c6565b6148de8184846148a1565b505050565b5b81811015614902576148f76000826148cb565b6001810190506148e4565b5050565b601f82111561494757614918816147f1565b61492184614806565b81016020851015614930578190505b61494461493c85614806565b8301826148e3565b50505b505050565b600082821c905092915050565b600061496a6000198460080261494c565b1980831691505092915050565b60006149838383614959565b9150826002028217905092915050565b61499c82613144565b67ffffffffffffffff8111156149b5576149b461343a565b5b6149bf8254613974565b6149ca828285614906565b600060209050601f8311600181146149fd57600084156149eb578287015190505b6149f58582614977565b865550614a5d565b601f198416614a0b866147f1565b60005b82811015614a3357848901518255600182019150602085019450602081019050614a0e565b86831015614a505784890151614a4c601f891682614959565b8355505b6001600288020188555050505b505050505050565b600081519050919050565b600082825260208201905092915050565b6000614a8c82614a65565b614a968185614a70565b9350614aa6818560208601613160565b614aaf81613193565b840191505092915050565b6000608082019050614acf6000830187613294565b614adc6020830186613294565b614ae9604083018561332a565b8181036060830152614afb8184614a81565b905095945050505050565b600081519050614b15816130b5565b92915050565b600060208284031215614b3157614b3061307f565b5b6000614b3f84828501614b06565b91505092915050565b7f416464726573733a2064656c65676174652063616c6c20746f206e6f6e2d636f60008201527f6e74726163740000000000000000000000000000000000000000000000000000602082015250565b6000614ba460268361314f565b9150614baf82614b48565b604082019050919050565b60006020820190508181036000830152614bd381614b97565b9050919050565b600081905092915050565b6000614bf082614a65565b614bfa8185614bda565b9350614c0a818560208601613160565b80840191505092915050565b6000614c228284614be5565b91508190509291505056fe416464726573733a206c6f772d6c6576656c2064656c65676174652063616c6c206661696c6564a2646970667358221220e66de61c161df378959da3bd2439b595b1e0bd98dbd9613a6ab969c2a85eed1b64736f6c634300080f0033",
  "immutableReferences": {
    "1233": [
      {
        "length": 32,
        "start": 2685
      },
      {
        "length": 32,
        "start": 2827
      },
      {
        "length": 32,
        "start": 4023
      },
      {
        "length": 32,
        "start": 4165
      },
      {
        "length": 32,
        "start": 4341
      }
    ]
  },
  "source": "//SPDX-License-Identifier: Unlicense\r\npragma solidity ^0.8.0;\r\n\r\nimport \"@openzeppelin/contracts-upgradeable/token/ERC721/ERC721Upgradeable.sol\";\r\nimport \"@openzeppelin/contracts-upgradeable/access/OwnableUpgradeable.sol\";\r\nimport \"@openzeppelin/contracts-upgradeable/proxy/utils/UUPSUpgradeable.sol\";\r\nimport \"@openzeppelin/contracts-upgradeable/proxy/utils/Initializable.sol\";\r\n\r\ncontract ReceiptNFT is ERC721Upgradeable, UUPSUpgradeable, OwnableUpgradeable {\r\n\r\n    error NonExistingToken();\r\n    error ReceiptAmountCanOnlyDecrease();\r\n    error NotManager();\r\n    /// Invalid query range (`start` >= `stop`).\r\n    error InvalidQueryRange();\r\n\r\n    struct ReceiptData {\r\n        uint256 cycleId;\r\n        uint256 tokenAmountUniform; // in token\r\n        address token;\r\n    }\r\n\r\n    uint256 private _receiptsCounter;\r\n\r\n    mapping(uint256 => ReceiptData) public receipts;\r\n    mapping(address => bool) public managers;\r\n\r\n    modifier onlyManager() {\r\n        if (managers[msg.sender] == false) revert NotManager();\r\n        _;\r\n    }\r\n\r\n    /// @custom:oz-upgrades-unsafe-allow constructor\r\n    constructor() {\r\n        // lock implementation\r\n        _disableInitializers();\r\n    }\r\n\r\n    function initialize(address strategyRouter, address batch) external initializer {\r\n        __Ownable_init();\r\n        __UUPSUpgradeable_init();\r\n        __ERC721_init(\"Receipt NFT\", \"RECEIPT\");\r\n\r\n        managers[strategyRouter] = true;\r\n        managers[batch] = true;\r\n    }\r\n\r\n    function _authorizeUpgrade(address newImplementation) internal override onlyOwner {}\r\n\r\n    function setAmount(uint256 receiptId, uint256 amount) external onlyManager {\r\n        if (!_exists(receiptId)) revert NonExistingToken();\r\n        if (receipts[receiptId].tokenAmountUniform < amount) revert ReceiptAmountCanOnlyDecrease();\r\n        receipts[receiptId].tokenAmountUniform = amount;\r\n    }\r\n\r\n    function mint(\r\n        uint256 cycleId,\r\n        uint256 amount,\r\n        address token,\r\n        address wallet\r\n    ) external onlyManager {\r\n        uint256 _receiptId = _receiptsCounter;\r\n        receipts[_receiptId] = ReceiptData({cycleId: cycleId, token: token, tokenAmountUniform: amount});\r\n        _mint(wallet, _receiptId);\r\n        _receiptsCounter++;\r\n    }\r\n\r\n    function burn(uint256 receiptId) external onlyManager {\r\n        if(!_exists(receiptId)) revert NonExistingToken();\r\n        _burn(receiptId);\r\n        delete receipts[receiptId];\r\n    }\r\n\r\n    /// @notice Get receipt data recorded in NFT.\r\n    function getReceipt(uint256 receiptId) external view returns (ReceiptData memory) {\r\n        if (_exists(receiptId) == false) revert NonExistingToken();\r\n        return receipts[receiptId];\r\n    }\r\n\r\n    /**\r\n     * @dev Returns an array of token IDs owned by `owner`,\r\n     * in the range [`start`, `stop`].\r\n     *\r\n     * This function allows for tokens to be queried if the collection\r\n     * grows too big for a single call of {ReceiptNFT-getTokensOfOwner}.\r\n     *\r\n     * Requirements:\r\n     *\r\n     * - `start <= receiptId < stop`\r\n     */\r\n    function getTokensOfOwnerIn(\r\n        address owner,\r\n        uint256 start,\r\n        uint256 stop\r\n    ) public view returns (uint256[] memory receiptIds) {\r\n        unchecked {\r\n            if (start >= stop) revert InvalidQueryRange();\r\n            uint256 receiptIdsIdx;\r\n            uint256 stopLimit = _receiptsCounter;\r\n            // Set `stop = min(stop, stopLimit)`.\r\n            if (stop > stopLimit) {\r\n                // At this point `start` could be greater than `stop`.\r\n                stop = stopLimit;\r\n            }\r\n            uint256 receiptIdsMaxLength = balanceOf(owner);\r\n            // Set `receiptIdsMaxLength = min(balanceOf(owner), stop - start)`,\r\n            // to cater for cases where `balanceOf(owner)` is too big.\r\n            if (start < stop) {\r\n                uint256 rangeLength = stop - start;\r\n                if (rangeLength < receiptIdsMaxLength) {\r\n                    receiptIdsMaxLength = rangeLength;\r\n                }\r\n            } else {\r\n                receiptIdsMaxLength = 0;\r\n            }\r\n            receiptIds = new uint256[](receiptIdsMaxLength);\r\n            if (receiptIdsMaxLength == 0) {\r\n                return receiptIds;\r\n            }\r\n\r\n            // We want to scan tokens in range [start <= receiptId < stop].\r\n            // And if whole range is owned by user or when receiptIdsMaxLength is less than range,\r\n            // then we also want to exit loop when array is full.\r\n            uint256 receiptId = start;\r\n            while (receiptId != stop && receiptIdsIdx != receiptIdsMaxLength) {\r\n                if (_exists(receiptId) && ownerOf(receiptId) == owner) {\r\n                    receiptIds[receiptIdsIdx++] = receiptId;\r\n                }\r\n                receiptId++;\r\n            }\r\n\r\n            // If after scan we haven't filled array, then downsize the array to fit.\r\n            assembly {\r\n                mstore(receiptIds, receiptIdsIdx)\r\n            }\r\n            return receiptIds;\r\n        }\r\n    }\r\n\r\n    /**\r\n     * @dev Returns an array of token IDs owned by `owner`.\r\n     *\r\n     * This function scans the ownership mapping and is O(totalSupply) in complexity.\r\n     * It is meant to be called off-chain.\r\n     *\r\n     * See {ReceiptNFT-getTokensOfOwnerIn} for splitting the scan into\r\n     * multiple smaller scans if the collection is large enough to cause\r\n     * an out-of-gas error.\r\n     */\r\n    function getTokensOfOwner(address owner) public view returns (uint256[] memory receiptIds) {\r\n        uint256 balance = balanceOf(owner);\r\n        receiptIds = new uint256[](balance);\r\n        uint256 receiptId;\r\n\r\n        while (balance > 0) {\r\n            if (_exists(receiptId) && ownerOf(receiptId) == owner) {\r\n                receiptIds[--balance] = receiptId;\r\n            }\r\n            receiptId++;\r\n        }\r\n    }\r\n}\r\n",
  "sourcePath": "C:\\Users\\FVO_MMILLLER\\Desktop\\elvolution\\Testers\\contracts\\main\\ReceiptNFT.sol",
  "compiler": {
    "name": "solc",
    "version": "0.8.15+commit.e14f2714.Emscripten.clang"
  },
  "schemaVersion": "3.4.8",
  "updatedAt": "2022-09-08T16:23:09.297Z",
  "devdoc": {
    "kind": "dev",
    "methods": {
      "approve(address,uint256)": {
        "details": "See {IERC721-approve}."
      },
      "balanceOf(address)": {
        "details": "See {IERC721-balanceOf}."
      },
      "constructor": {
        "custom:oz-upgrades-unsafe-allow": "constructor"
      },
      "getApproved(uint256)": {
        "details": "See {IERC721-getApproved}."
      },
      "getTokensOfOwner(address)": {
        "details": "Returns an array of token IDs owned by `owner`. This function scans the ownership mapping and is O(totalSupply) in complexity. It is meant to be called off-chain. See {ReceiptNFT-getTokensOfOwnerIn} for splitting the scan into multiple smaller scans if the collection is large enough to cause an out-of-gas error."
      },
      "getTokensOfOwnerIn(address,uint256,uint256)": {
        "details": "Returns an array of token IDs owned by `owner`, in the range [`start`, `stop`]. This function allows for tokens to be queried if the collection grows too big for a single call of {ReceiptNFT-getTokensOfOwner}. Requirements: - `start <= receiptId < stop`"
      },
      "isApprovedForAll(address,address)": {
        "details": "See {IERC721-isApprovedForAll}."
      },
      "name()": {
        "details": "See {IERC721Metadata-name}."
      },
      "owner()": {
        "details": "Returns the address of the current owner."
      },
      "ownerOf(uint256)": {
        "details": "See {IERC721-ownerOf}."
      },
      "proxiableUUID()": {
        "details": "Implementation of the ERC1822 {proxiableUUID} function. This returns the storage slot used by the implementation. It is used to validate that the this implementation remains valid after an upgrade. IMPORTANT: A proxy pointing at a proxiable contract should not be considered proxiable itself, because this risks bricking a proxy that upgrades to it, by delegating to itself until out of gas. Thus it is critical that this function revert if invoked through a proxy. This is guaranteed by the `notDelegated` modifier."
      },
      "renounceOwnership()": {
        "details": "Leaves the contract without owner. It will not be possible to call `onlyOwner` functions anymore. Can only be called by the current owner. NOTE: Renouncing ownership will leave the contract without an owner, thereby removing any functionality that is only available to the owner."
      },
      "safeTransferFrom(address,address,uint256)": {
        "details": "See {IERC721-safeTransferFrom}."
      },
      "safeTransferFrom(address,address,uint256,bytes)": {
        "details": "See {IERC721-safeTransferFrom}."
      },
      "setApprovalForAll(address,bool)": {
        "details": "See {IERC721-setApprovalForAll}."
      },
      "supportsInterface(bytes4)": {
        "details": "See {IERC165-supportsInterface}."
      },
      "symbol()": {
        "details": "See {IERC721Metadata-symbol}."
      },
      "tokenURI(uint256)": {
        "details": "See {IERC721Metadata-tokenURI}."
      },
      "transferFrom(address,address,uint256)": {
        "details": "See {IERC721-transferFrom}."
      },
      "transferOwnership(address)": {
        "details": "Transfers ownership of the contract to a new account (`newOwner`). Can only be called by the current owner."
      },
      "upgradeTo(address)": {
        "details": "Upgrade the implementation of the proxy to `newImplementation`. Calls {_authorizeUpgrade}. Emits an {Upgraded} event."
      },
      "upgradeToAndCall(address,bytes)": {
        "details": "Upgrade the implementation of the proxy to `newImplementation`, and subsequently execute the function call encoded in `data`. Calls {_authorizeUpgrade}. Emits an {Upgraded} event."
      }
    },
    "version": 1
  },
  "userdoc": {
    "errors": {
      "InvalidQueryRange()": [
        {
          "notice": "Invalid query range (`start` >= `stop`)."
        }
      ]
    },
    "kind": "user",
    "methods": {
      "getReceipt(uint256)": {
        "notice": "Get receipt data recorded in NFT."
      }
    },
    "version": 1
  }
}