{
  "contractName": "StargateStrategy",
  "abi": [
    {
      "inputs": [],
      "stateMutability": "nonpayable",
      "type": "constructor"
    },
    {
      "inputs": [],
      "name": "AmountExceedTotalSupply",
      "type": "error"
    },
    {
      "inputs": [],
      "name": "AmountNotSpecified",
      "type": "error"
    },
    {
      "inputs": [],
      "name": "CantRemoveLastStrategy",
      "type": "error"
    },
    {
      "inputs": [],
      "name": "CycleClosed",
      "type": "error"
    },
    {
      "inputs": [],
      "name": "CycleNotClosableYet",
      "type": "error"
    },
    {
      "inputs": [],
      "name": "CycleNotClosed",
      "type": "error"
    },
    {
      "inputs": [],
      "name": "DuplicateStrategy",
      "type": "error"
    },
    {
      "inputs": [],
      "name": "InsufficientShares",
      "type": "error"
    },
    {
      "inputs": [],
      "name": "NodepositDetected",
      "type": "error"
    },
    {
      "inputs": [],
      "name": "NotModerator",
      "type": "error"
    },
    {
      "inputs": [],
      "name": "NotReceiptOwner",
      "type": "error"
    },
    {
      "inputs": [],
      "name": "NothingToRebalance",
      "type": "error"
    },
    {
      "inputs": [],
      "name": "UnsupportedToken",
      "type": "error"
    },
    {
      "anonymous": false,
      "inputs": [
        {
          "indexed": true,
          "internalType": "uint256",
          "name": "closedCycleId",
          "type": "uint256"
        },
        {
          "indexed": false,
          "internalType": "uint256",
          "name": "amount",
          "type": "uint256"
        }
      ],
      "name": "AllocateToStrategies",
      "type": "event"
    },
    {
      "anonymous": false,
      "inputs": [
        {
          "indexed": true,
          "internalType": "address",
          "name": "user",
          "type": "address"
        },
        {
          "indexed": false,
          "internalType": "address",
          "name": "token",
          "type": "address"
        },
        {
          "indexed": false,
          "internalType": "uint256",
          "name": "amount",
          "type": "uint256"
        }
      ],
      "name": "Deposit",
      "type": "event"
    },
    {
      "anonymous": false,
      "inputs": [
        {
          "indexed": true,
          "internalType": "address",
          "name": "previousOwner",
          "type": "address"
        },
        {
          "indexed": true,
          "internalType": "address",
          "name": "newOwner",
          "type": "address"
        }
      ],
      "name": "OwnershipTransferred",
      "type": "event"
    },
    {
      "anonymous": false,
      "inputs": [
        {
          "indexed": true,
          "internalType": "address",
          "name": "user",
          "type": "address"
        },
        {
          "indexed": false,
          "internalType": "uint256",
          "name": "shares",
          "type": "uint256"
        },
        {
          "indexed": false,
          "internalType": "uint256[]",
          "name": "receiptIds",
          "type": "uint256[]"
        }
      ],
      "name": "RedeemReceiptsToShares",
      "type": "event"
    },
    {
      "anonymous": false,
      "inputs": [
        {
          "indexed": true,
          "internalType": "address",
          "name": "moderator",
          "type": "address"
        },
        {
          "indexed": false,
          "internalType": "uint256[]",
          "name": "receiptIds",
          "type": "uint256[]"
        }
      ],
      "name": "RedeemReceiptsToSharesByModerators",
      "type": "event"
    },
    {
      "anonymous": false,
      "inputs": [
        {
          "indexed": false,
          "internalType": "contract Exchange",
          "name": "_exchange",
          "type": "address"
        },
        {
          "indexed": false,
          "internalType": "contract IUsdOracle",
          "name": "_oracle",
          "type": "address"
        },
        {
          "indexed": false,
          "internalType": "contract SharesToken",
          "name": "_sharesToken",
          "type": "address"
        },
        {
          "indexed": false,
          "internalType": "contract Batch",
          "name": "_batch",
          "type": "address"
        },
        {
          "indexed": false,
          "internalType": "contract ReceiptNFT",
          "name": "_receiptNft",
          "type": "address"
        }
      ],
      "name": "SetAddresses",
      "type": "event"
    },
    {
      "anonymous": false,
      "inputs": [
        {
          "indexed": false,
          "internalType": "uint256",
          "name": "newDuration",
          "type": "uint256"
        }
      ],
      "name": "SetCycleDuration",
      "type": "event"
    },
    {
      "anonymous": false,
      "inputs": [
        {
          "indexed": false,
          "internalType": "address",
          "name": "newAddress",
          "type": "address"
        }
      ],
      "name": "SetFeeAddress",
      "type": "event"
    },
    {
      "anonymous": false,
      "inputs": [
        {
          "indexed": false,
          "internalType": "uint256",
          "name": "newPercent",
          "type": "uint256"
        }
      ],
      "name": "SetFeePercent",
      "type": "event"
    },
    {
      "anonymous": false,
      "inputs": [
        {
          "indexed": false,
          "internalType": "uint256",
          "name": "newAmount",
          "type": "uint256"
        }
      ],
      "name": "SetMinDeposit",
      "type": "event"
    },
    {
      "anonymous": false,
      "inputs": [
        {
          "indexed": false,
          "internalType": "uint256",
          "name": "newAmount",
          "type": "uint256"
        }
      ],
      "name": "SetMinUsdPerCycle",
      "type": "event"
    },
    {
      "anonymous": false,
      "inputs": [
        {
          "indexed": true,
          "internalType": "address",
          "name": "user",
          "type": "address"
        },
        {
          "indexed": false,
          "internalType": "address",
          "name": "token",
          "type": "address"
        },
        {
          "indexed": false,
          "internalType": "uint256",
          "name": "amount",
          "type": "uint256"
        }
      ],
      "name": "WithdrawFromBatch",
      "type": "event"
    },
    {
      "anonymous": false,
      "inputs": [
        {
          "indexed": true,
          "internalType": "address",
          "name": "user",
          "type": "address"
        },
        {
          "indexed": false,
          "internalType": "address",
          "name": "token",
          "type": "address"
        },
        {
          "indexed": false,
          "internalType": "uint256",
          "name": "amount",
          "type": "uint256"
        }
      ],
      "name": "WithdrawFromStrategies",
      "type": "event"
    },
    {
      "inputs": [],
      "name": "owner",
      "outputs": [
        {
          "internalType": "address",
          "name": "",
          "type": "address"
        }
      ],
      "stateMutability": "view",
      "type": "function"
    },
    {
      "inputs": [],
      "name": "renounceOwnership",
      "outputs": [],
      "stateMutability": "nonpayable",
      "type": "function"
    },
    {
      "inputs": [
        {
          "internalType": "address",
          "name": "newOwner",
          "type": "address"
        }
      ],
      "name": "transferOwnership",
      "outputs": [],
      "stateMutability": "nonpayable",
      "type": "function"
    },
    {
      "inputs": [
        {
          "internalType": "contract StrategyRouter",
          "name": "_strategyRouter",
          "type": "address"
        },
        {
          "internalType": "uint256",
          "name": "_poolId",
          "type": "uint256"
        },
        {
          "internalType": "contract ERC20",
          "name": "_tokenA",
          "type": "address"
        },
        {
          "internalType": "contract ERC20",
          "name": "_lpToken",
          "type": "address"
        },
        {
          "internalType": "contract ERC20",
          "name": "_stgRewardToken",
          "type": "address"
        },
        {
          "internalType": "address",
          "name": "_farm",
          "type": "address"
        },
        {
          "internalType": "address",
          "name": "_stgRouter",
          "type": "address"
        },
        {
          "internalType": "address",
          "name": "_stargateRouter",
          "type": "address"
        }
      ],
      "name": "initializeState",
      "outputs": [],
      "stateMutability": "nonpayable",
      "type": "function"
    },
    {
      "inputs": [],
      "name": "depositToken",
      "outputs": [
        {
          "internalType": "address",
          "name": "",
          "type": "address"
        }
      ],
      "stateMutability": "view",
      "type": "function"
    },
    {
      "inputs": [
        {
          "internalType": "uint256",
          "name": "amount",
          "type": "uint256"
        }
      ],
      "name": "deposit",
      "outputs": [],
      "stateMutability": "nonpayable",
      "type": "function"
    },
    {
      "inputs": [
        {
          "internalType": "uint256",
          "name": "amtToWithdraw",
          "type": "uint256"
        }
      ],
      "name": "withdraw",
      "outputs": [
        {
          "internalType": "uint256",
          "name": "amountWithdrawn",
          "type": "uint256"
        }
      ],
      "stateMutability": "nonpayable",
      "type": "function"
    },
    {
      "inputs": [],
      "name": "compound",
      "outputs": [],
      "stateMutability": "nonpayable",
      "type": "function"
    },
    {
      "inputs": [],
      "name": "withdrawAll",
      "outputs": [
        {
          "internalType": "uint256",
          "name": "amountWithdrawn",
          "type": "uint256"
        }
      ],
      "stateMutability": "nonpayable",
      "type": "function"
    },
    {
      "inputs": [],
      "name": "totalTokens",
      "outputs": [
        {
          "internalType": "uint256",
          "name": "",
          "type": "uint256"
        }
      ],
      "stateMutability": "view",
      "type": "function"
    }
  ],
  "bytecode": "0x60806040523480156200001157600080fd5b5062000032620000266200003860201b60201c565b6200004060201b60201c565b62000104565b600033905090565b60008060009054906101000a900473ffffffffffffffffffffffffffffffffffffffff169050816000806101000a81548173ffffffffffffffffffffffffffffffffffffffff021916908373ffffffffffffffffffffffffffffffffffffffff1602179055508173ffffffffffffffffffffffffffffffffffffffff168173ffffffffffffffffffffffffffffffffffffffff167f8be0079c531659141344cd1fd0a4f28419497f9722a3daafe3b4186f6b6457e060405160405180910390a35050565b6141d380620001146000396000f3fe608060405234801561001057600080fd5b506004361061009e5760003560e01c80638da5cb5b116100665780638da5cb5b14610135578063b6b55f2514610153578063c89039c51461016f578063f2fde38b1461018d578063f69e2046146101a95761009e565b8063075626dc146100a35780632e1a7d4d146100bf578063715018a6146100ef5780637e1c0c09146100f9578063853828b614610117575b600080fd5b6100bd60048036038101906100b891906132a1565b6101b3565b005b6100d960048036038101906100d49190613357565b610495565b6040516100e69190613393565b60405180910390f35b6100f7610a26565b005b610101610a3a565b60405161010e9190613393565b60405180910390f35b61011f610eef565b60405161012c9190613393565b60405180910390f35b61013d611694565b60405161014a91906133bd565b60405180910390f35b61016d60048036038101906101689190613357565b6116bd565b005b610177611972565b60405161018491906133bd565b60405180910390f35b6101a760048036038101906101a291906133d8565b61199c565b005b6101b1611a1f565b005b6101bb6120cb565b87600360006101000a81548173ffffffffffffffffffffffffffffffffffffffff021916908373ffffffffffffffffffffffffffffffffffffffff1602179055508660088190555085600160006101000a81548173ffffffffffffffffffffffffffffffffffffffff021916908373ffffffffffffffffffffffffffffffffffffffff16021790555084600260006101000a81548173ffffffffffffffffffffffffffffffffffffffff021916908373ffffffffffffffffffffffffffffffffffffffff16021790555083600560006101000a81548173ffffffffffffffffffffffffffffffffffffffff021916908373ffffffffffffffffffffffffffffffffffffffff16021790555082600660006101000a81548173ffffffffffffffffffffffffffffffffffffffff021916908373ffffffffffffffffffffffffffffffffffffffff16021790555081600760006101000a81548173ffffffffffffffffffffffffffffffffffffffff021916908373ffffffffffffffffffffffffffffffffffffffff16021790555080600460006101000a81548173ffffffffffffffffffffffffffffffffffffffff021916908373ffffffffffffffffffffffffffffffffffffffff1602179055508573ffffffffffffffffffffffffffffffffffffffff1663313ce5676040518163ffffffff1660e01b8152600401602060405180830381865afa1580156103d4573d6000803e3d6000fd5b505050506040513d601f19601f820116820180604052508101906103f8919061343e565b600a61040491906135cd565b6009819055508373ffffffffffffffffffffffffffffffffffffffff1663313ce5676040518163ffffffff1660e01b8152600401602060405180830381865afa158015610455573d6000803e3d6000fd5b505050506040513d601f19601f82011682018060405250810190610479919061343e565b600a61048591906135cd565b600a819055505050505050505050565b600061049f6120cb565b600660009054906101000a900473ffffffffffffffffffffffffffffffffffffffff1673ffffffffffffffffffffffffffffffffffffffff1663441a3e70600854846040518363ffffffff1660e01b81526004016104fe929190613618565b600060405180830381600087803b15801561051857600080fd5b505af115801561052c573d6000803e3d6000fd5b505050506000600560009054906101000a900473ffffffffffffffffffffffffffffffffffffffff1673ffffffffffffffffffffffffffffffffffffffff166370a08231306040518263ffffffff1660e01b815260040161058d91906133bd565b602060405180830381865afa1580156105aa573d6000803e3d6000fd5b505050506040513d601f19601f820116820180604052508101906105ce9190613656565b9050600460009054906101000a900473ffffffffffffffffffffffffffffffffffffffff1673ffffffffffffffffffffffffffffffffffffffff16638f2e1d186061600854606130863060405160200161062891906133bd565b60405160208183030381529060405260405180606001604052806000815260200160008152602001604051806020016040528060008152508152506040518863ffffffff1660e01b8152600401610685979695949392919061386a565b600060405180830381600087803b15801561069f57600080fd5b505af11580156106b3573d6000803e3d6000fd5b50505050600260009054906101000a900473ffffffffffffffffffffffffffffffffffffffff1673ffffffffffffffffffffffffffffffffffffffff1663095ea7b3600760009054906101000a900473ffffffffffffffffffffffffffffffffffffffff16856040518363ffffffff1660e01b81526004016107369291906138e7565b6020604051808303816000875af1158015610755573d6000803e3d6000fd5b505050506040513d601f19601f820116820180604052508101906107799190613948565b506000600360009054906101000a900473ffffffffffffffffffffffffffffffffffffffff1673ffffffffffffffffffffffffffffffffffffffff1663f807cd226040518163ffffffff1660e01b8152600401602060405180830381865afa1580156107e9573d6000803e3d6000fd5b505050506040513d601f19601f8201168201806040525081019061080d91906139b3565b9050600560009054906101000a900473ffffffffffffffffffffffffffffffffffffffff1673ffffffffffffffffffffffffffffffffffffffff1663095ea7b382846040518363ffffffff1660e01b815260040161086c9291906138e7565b6020604051808303816000875af115801561088b573d6000803e3d6000fd5b505050506040513d601f19601f820116820180604052508101906108af9190613948565b5060008173ffffffffffffffffffffffffffffffffffffffff166388156e6584600560009054906101000a900473ffffffffffffffffffffffffffffffffffffffff16600160009054906101000a900473ffffffffffffffffffffffffffffffffffffffff16306040518563ffffffff1660e01b815260040161093594939291906139e0565b6020604051808303816000875af1158015610954573d6000803e3d6000fd5b505050506040513d601f19601f820116820180604052508101906109789190613656565b9050600160009054906101000a900473ffffffffffffffffffffffffffffffffffffffff1673ffffffffffffffffffffffffffffffffffffffff1663a9059cbb33836040518363ffffffff1660e01b81526004016109d79291906138e7565b6020604051808303816000875af11580156109f6573d6000803e3d6000fd5b505050506040513d601f19601f82011682018060405250810190610a1a9190613948565b50809350505050919050565b610a2e6120cb565b610a386000612149565b565b600080600660009054906101000a900473ffffffffffffffffffffffffffffffffffffffff1673ffffffffffffffffffffffffffffffffffffffff166393f1a40b600854306040518363ffffffff1660e01b8152600401610a9c929190613a25565b6040805180830381865afa158015610ab8573d6000803e3d6000fd5b505050506040513d601f19601f82011682018060405250810190610adc9190613a4e565b5090506000600260009054906101000a900473ffffffffffffffffffffffffffffffffffffffff1673ffffffffffffffffffffffffffffffffffffffff166318160ddd6040518163ffffffff1660e01b8152600401602060405180830381865afa158015610b4e573d6000803e3d6000fd5b505050506040513d601f19601f82011682018060405250810190610b729190613656565b90506000600160009054906101000a900473ffffffffffffffffffffffffffffffffffffffff1673ffffffffffffffffffffffffffffffffffffffff166370a08231600260009054906101000a900473ffffffffffffffffffffffffffffffffffffffff166040518263ffffffff1660e01b8152600401610bf391906133bd565b602060405180830381865afa158015610c10573d6000803e3d6000fd5b505050506040513d601f19601f82011682018060405250810190610c349190613656565b90506000600560009054906101000a900473ffffffffffffffffffffffffffffffffffffffff1673ffffffffffffffffffffffffffffffffffffffff166370a08231600260009054906101000a900473ffffffffffffffffffffffffffffffffffffffff166040518263ffffffff1660e01b8152600401610cb591906133bd565b602060405180830381865afa158015610cd2573d6000803e3d6000fd5b505050506040513d601f19601f82011682018060405250810190610cf69190613656565b90506000838386610d079190613a8e565b610d119190613b17565b90506000848387610d229190613a8e565b610d2c9190613b17565b90506000811115610ee3576000600260009054906101000a900473ffffffffffffffffffffffffffffffffffffffff1673ffffffffffffffffffffffffffffffffffffffff16630dfe16816040518163ffffffff1660e01b8152600401602060405180830381865afa158015610da6573d6000803e3d6000fd5b505050506040513d601f19601f82011682018060405250810190610dca9190613b5d565b9050600080600560009054906101000a900473ffffffffffffffffffffffffffffffffffffffff1673ffffffffffffffffffffffffffffffffffffffff168373ffffffffffffffffffffffffffffffffffffffff1614610e2b578686610e2e565b85875b91509150600760009054906101000a900473ffffffffffffffffffffffffffffffffffffffff1673ffffffffffffffffffffffffffffffffffffffff1663ad615dec8584846040518463ffffffff1660e01b8152600401610e9193929190613b8a565b602060405180830381865afa158015610eae573d6000803e3d6000fd5b505050506040513d601f19601f82011682018060405250810190610ed29190613656565b85610edd9190613bc1565b94505050505b81965050505050505090565b6000610ef96120cb565b6000600660009054906101000a900473ffffffffffffffffffffffffffffffffffffffff1673ffffffffffffffffffffffffffffffffffffffff166393f1a40b600854306040518363ffffffff1660e01b8152600401610f5a929190613a25565b6040805180830381865afa158015610f76573d6000803e3d6000fd5b505050506040513d601f19601f82011682018060405250810190610f9a9190613a4e565b509050600081111561128457600660009054906101000a900473ffffffffffffffffffffffffffffffffffffffff1673ffffffffffffffffffffffffffffffffffffffff1663441a3e70600854836040518363ffffffff1660e01b8152600401611005929190613618565b600060405180830381600087803b15801561101f57600080fd5b505af1158015611033573d6000803e3d6000fd5b505050506000600260009054906101000a900473ffffffffffffffffffffffffffffffffffffffff1673ffffffffffffffffffffffffffffffffffffffff166370a08231306040518263ffffffff1660e01b815260040161109491906133bd565b602060405180830381865afa1580156110b1573d6000803e3d6000fd5b505050506040513d601f19601f820116820180604052508101906110d59190613656565b9050600260009054906101000a900473ffffffffffffffffffffffffffffffffffffffff1673ffffffffffffffffffffffffffffffffffffffff1663095ea7b3600760009054906101000a900473ffffffffffffffffffffffffffffffffffffffff16836040518363ffffffff1660e01b81526004016111569291906138e7565b6020604051808303816000875af1158015611175573d6000803e3d6000fd5b505050506040513d601f19601f820116820180604052508101906111999190613948565b50600460009054906101000a900473ffffffffffffffffffffffffffffffffffffffff1673ffffffffffffffffffffffffffffffffffffffff16638f2e1d1860616008546008543086306040516020016111f391906133bd565b60405160208183030381529060405260405180606001604052806000815260200160008152602001604051806020016040528060008152508152506040518863ffffffff1660e01b81526004016112509796959493929190613c17565b600060405180830381600087803b15801561126a57600080fd5b505af115801561127e573d6000803e3d6000fd5b50505050505b6000600160009054906101000a900473ffffffffffffffffffffffffffffffffffffffff1673ffffffffffffffffffffffffffffffffffffffff166370a08231306040518263ffffffff1660e01b81526004016112e191906133bd565b602060405180830381865afa1580156112fe573d6000803e3d6000fd5b505050506040513d601f19601f820116820180604052508101906113229190613656565b90506000600560009054906101000a900473ffffffffffffffffffffffffffffffffffffffff1673ffffffffffffffffffffffffffffffffffffffff166370a08231306040518263ffffffff1660e01b815260040161138191906133bd565b602060405180830381865afa15801561139e573d6000803e3d6000fd5b505050506040513d601f19601f820116820180604052508101906113c29190613656565b905060008111156115d8576000600360009054906101000a900473ffffffffffffffffffffffffffffffffffffffff1673ffffffffffffffffffffffffffffffffffffffff1663f807cd226040518163ffffffff1660e01b8152600401602060405180830381865afa15801561143c573d6000803e3d6000fd5b505050506040513d601f19601f8201168201806040525081019061146091906139b3565b9050600560009054906101000a900473ffffffffffffffffffffffffffffffffffffffff1673ffffffffffffffffffffffffffffffffffffffff1663a9059cbb82846040518363ffffffff1660e01b81526004016114bf9291906138e7565b6020604051808303816000875af11580156114de573d6000803e3d6000fd5b505050506040513d601f19601f820116820180604052508101906115029190613948565b508073ffffffffffffffffffffffffffffffffffffffff166388156e6583600560009054906101000a900473ffffffffffffffffffffffffffffffffffffffff16600160009054906101000a900473ffffffffffffffffffffffffffffffffffffffff16306040518563ffffffff1660e01b815260040161158694939291906139e0565b6020604051808303816000875af11580156115a5573d6000803e3d6000fd5b505050506040513d601f19601f820116820180604052508101906115c99190613656565b836115d49190613bc1565b9250505b600082111561168d57600160009054906101000a900473ffffffffffffffffffffffffffffffffffffffff1673ffffffffffffffffffffffffffffffffffffffff1663a9059cbb33846040518363ffffffff1660e01b815260040161163e9291906138e7565b6020604051808303816000875af115801561165d573d6000803e3d6000fd5b505050506040513d601f19601f820116820180604052508101906116819190613948565b50819350505050611691565b5050505b90565b60008060009054906101000a900473ffffffffffffffffffffffffffffffffffffffff16905090565b6116c56120cb565b600160009054906101000a900473ffffffffffffffffffffffffffffffffffffffff1673ffffffffffffffffffffffffffffffffffffffff1663095ea7b3600460009054906101000a900473ffffffffffffffffffffffffffffffffffffffff16836040518363ffffffff1660e01b81526004016117449291906138e7565b6020604051808303816000875af1158015611763573d6000803e3d6000fd5b505050506040513d601f19601f820116820180604052508101906117879190613948565b50600460009054906101000a900473ffffffffffffffffffffffffffffffffffffffff1673ffffffffffffffffffffffffffffffffffffffff166387b21efc60085483306040518463ffffffff1660e01b81526004016117e993929190613c94565b600060405180830381600087803b15801561180357600080fd5b505af1158015611817573d6000803e3d6000fd5b50505050600560009054906101000a900473ffffffffffffffffffffffffffffffffffffffff1673ffffffffffffffffffffffffffffffffffffffff1663095ea7b3600660009054906101000a900473ffffffffffffffffffffffffffffffffffffffff16836040518363ffffffff1660e01b815260040161189a9291906138e7565b6020604051808303816000875af11580156118b9573d6000803e3d6000fd5b505050506040513d601f19601f820116820180604052508101906118dd9190613948565b50600660009054906101000a900473ffffffffffffffffffffffffffffffffffffffff1673ffffffffffffffffffffffffffffffffffffffff1663e2bbb158600854836040518363ffffffff1660e01b815260040161193d929190613618565b600060405180830381600087803b15801561195757600080fd5b505af115801561196b573d6000803e3d6000fd5b5050505050565b6000600160009054906101000a900473ffffffffffffffffffffffffffffffffffffffff16905090565b6119a46120cb565b600073ffffffffffffffffffffffffffffffffffffffff168173ffffffffffffffffffffffffffffffffffffffff1603611a13576040517f08c379a0000000000000000000000000000000000000000000000000000000008152600401611a0a90613d4e565b60405180910390fd5b611a1c81612149565b50565b611a276120cb565b600660009054906101000a900473ffffffffffffffffffffffffffffffffffffffff1673ffffffffffffffffffffffffffffffffffffffff1663441a3e7060085460006040518363ffffffff1660e01b8152600401611a87929190613da9565b600060405180830381600087803b158015611aa157600080fd5b505af1158015611ab5573d6000803e3d6000fd5b505050506000600560009054906101000a900473ffffffffffffffffffffffffffffffffffffffff1673ffffffffffffffffffffffffffffffffffffffff166370a08231306040518263ffffffff1660e01b8152600401611b1691906133bd565b602060405180830381865afa158015611b33573d6000803e3d6000fd5b505050506040513d601f19601f82011682018060405250810190611b579190613656565b905060008111156120c857611b6c600061220d565b611b75816128e9565b50506000600160009054906101000a900473ffffffffffffffffffffffffffffffffffffffff1673ffffffffffffffffffffffffffffffffffffffff166370a08231306040518263ffffffff1660e01b8152600401611bd491906133bd565b602060405180830381865afa158015611bf1573d6000803e3d6000fd5b505050506040513d601f19601f82011682018060405250810190611c159190613656565b90506000600560009054906101000a900473ffffffffffffffffffffffffffffffffffffffff1673ffffffffffffffffffffffffffffffffffffffff166370a08231306040518263ffffffff1660e01b8152600401611c7491906133bd565b602060405180830381865afa158015611c91573d6000803e3d6000fd5b505050506040513d601f19601f82011682018060405250810190611cb59190613656565b9050600160009054906101000a900473ffffffffffffffffffffffffffffffffffffffff1673ffffffffffffffffffffffffffffffffffffffff1663095ea7b3600460009054906101000a900473ffffffffffffffffffffffffffffffffffffffff16846040518363ffffffff1660e01b8152600401611d369291906138e7565b6020604051808303816000875af1158015611d55573d6000803e3d6000fd5b505050506040513d601f19601f82011682018060405250810190611d799190613948565b50600560009054906101000a900473ffffffffffffffffffffffffffffffffffffffff1673ffffffffffffffffffffffffffffffffffffffff1663095ea7b3600760009054906101000a900473ffffffffffffffffffffffffffffffffffffffff16836040518363ffffffff1660e01b8152600401611df99291906138e7565b6020604051808303816000875af1158015611e18573d6000803e3d6000fd5b505050506040513d601f19601f82011682018060405250810190611e3c9190613948565b50600460009054906101000a900473ffffffffffffffffffffffffffffffffffffffff1673ffffffffffffffffffffffffffffffffffffffff166387b21efc60085484306040518463ffffffff1660e01b8152600401611e9e93929190613c94565b600060405180830381600087803b158015611eb857600080fd5b505af1158015611ecc573d6000803e3d6000fd5b505050506000600260009054906101000a900473ffffffffffffffffffffffffffffffffffffffff1673ffffffffffffffffffffffffffffffffffffffff166370a08231306040518263ffffffff1660e01b8152600401611f2d91906133bd565b602060405180830381865afa158015611f4a573d6000803e3d6000fd5b505050506040513d601f19601f82011682018060405250810190611f6e9190613656565b9050600260009054906101000a900473ffffffffffffffffffffffffffffffffffffffff1673ffffffffffffffffffffffffffffffffffffffff1663095ea7b3600660009054906101000a900473ffffffffffffffffffffffffffffffffffffffff16836040518363ffffffff1660e01b8152600401611fef9291906138e7565b6020604051808303816000875af115801561200e573d6000803e3d6000fd5b505050506040513d601f19601f820116820180604052508101906120329190613948565b50600660009054906101000a900473ffffffffffffffffffffffffffffffffffffffff1673ffffffffffffffffffffffffffffffffffffffff1663e2bbb158600854836040518363ffffffff1660e01b8152600401612092929190613618565b600060405180830381600087803b1580156120ac57600080fd5b505af11580156120c0573d6000803e3d6000fd5b505050505050505b50565b6120d3612c8e565b73ffffffffffffffffffffffffffffffffffffffff166120f1611694565b73ffffffffffffffffffffffffffffffffffffffff1614612147576040517f08c379a000000000000000000000000000000000000000000000000000000000815260040161213e90613e1e565b60405180910390fd5b565b60008060009054906101000a900473ffffffffffffffffffffffffffffffffffffffff169050816000806101000a81548173ffffffffffffffffffffffffffffffffffffffff021916908373ffffffffffffffffffffffffffffffffffffffff1602179055508173ffffffffffffffffffffffffffffffffffffffff168173ffffffffffffffffffffffffffffffffffffffff167f8be0079c531659141344cd1fd0a4f28419497f9722a3daafe3b4186f6b6457e060405160405180910390a35050565b6000600360009054906101000a900473ffffffffffffffffffffffffffffffffffffffff1673ffffffffffffffffffffffffffffffffffffffff1663f807cd226040518163ffffffff1660e01b8152600401602060405180830381865afa15801561227c573d6000803e3d6000fd5b505050506040513d601f19601f820116820180604052508101906122a091906139b3565b90506000600560009054906101000a900473ffffffffffffffffffffffffffffffffffffffff1673ffffffffffffffffffffffffffffffffffffffff166370a08231306040518263ffffffff1660e01b81526004016122ff91906133bd565b602060405180830381865afa15801561231c573d6000803e3d6000fd5b505050506040513d601f19601f820116820180604052508101906123409190613656565b9050600083600160009054906101000a900473ffffffffffffffffffffffffffffffffffffffff1673ffffffffffffffffffffffffffffffffffffffff166370a08231306040518263ffffffff1660e01b81526004016123a091906133bd565b602060405180830381865afa1580156123bd573d6000803e3d6000fd5b505050506040513d601f19601f820116820180604052508101906123e19190613656565b6123eb9190613e3e565b90506000818311801561240d5750600a5482846124089190613e3e565b915081115b1561266a5760008473ffffffffffffffffffffffffffffffffffffffff1663baff37ee60028461243d9190613b17565b600160009054906101000a900473ffffffffffffffffffffffffffffffffffffffff16600560009054906101000a900473ffffffffffffffffffffffffffffffffffffffff166040518463ffffffff1660e01b81526004016124a193929190613e72565b602060405180830381865afa1580156124be573d6000803e3d6000fd5b505050506040513d601f19601f820116820180604052508101906124e29190613656565b90506124fa6002836124f49190613b17565b82612c96565b9150600560009054906101000a900473ffffffffffffffffffffffffffffffffffffffff1673ffffffffffffffffffffffffffffffffffffffff1663a9059cbb86846040518363ffffffff1660e01b81526004016125599291906138e7565b6020604051808303816000875af1158015612578573d6000803e3d6000fd5b505050506040513d601f19601f8201168201806040525081019061259c9190613948565b508473ffffffffffffffffffffffffffffffffffffffff166388156e6583600560009054906101000a900473ffffffffffffffffffffffffffffffffffffffff16600160009054906101000a900473ffffffffffffffffffffffffffffffffffffffff16306040518563ffffffff1660e01b815260040161262094939291906139e0565b6020604051808303816000875af115801561263f573d6000803e3d6000fd5b505050506040513d601f19601f820116820180604052508101906126639190613656565b50506128e2565b8282118015612688575060095483836126839190613e3e565b915081115b156128e15760008473ffffffffffffffffffffffffffffffffffffffff1663baff37ee6002846126b89190613b17565b600160009054906101000a900473ffffffffffffffffffffffffffffffffffffffff16600560009054906101000a900473ffffffffffffffffffffffffffffffffffffffff166040518463ffffffff1660e01b815260040161271c93929190613e72565b602060405180830381865afa158015612739573d6000803e3d6000fd5b505050506040513d601f19601f8201168201806040525081019061275d9190613656565b905061277560028361276f9190613b17565b82612c96565b9150600160009054906101000a900473ffffffffffffffffffffffffffffffffffffffff1673ffffffffffffffffffffffffffffffffffffffff1663a9059cbb86846040518363ffffffff1660e01b81526004016127d49291906138e7565b6020604051808303816000875af11580156127f3573d6000803e3d6000fd5b505050506040513d601f19601f820116820180604052508101906128179190613948565b508473ffffffffffffffffffffffffffffffffffffffff166388156e6583600160009054906101000a900473ffffffffffffffffffffffffffffffffffffffff16600560009054906101000a900473ffffffffffffffffffffffffffffffffffffffff16306040518563ffffffff1660e01b815260040161289b94939291906139e0565b6020604051808303816000875af11580156128ba573d6000803e3d6000fd5b505050506040513d601f19601f820116820180604052508101906128de9190613656565b50505b5b5050505050565b60008060006002846128fb9190613b17565b90506000818561290b9190613e3e565b90506000600360009054906101000a900473ffffffffffffffffffffffffffffffffffffffff1673ffffffffffffffffffffffffffffffffffffffff1663f807cd226040518163ffffffff1660e01b8152600401602060405180830381865afa15801561297c573d6000803e3d6000fd5b505050506040513d601f19601f820116820180604052508101906129a091906139b3565b9050600560009054906101000a900473ffffffffffffffffffffffffffffffffffffffff1673ffffffffffffffffffffffffffffffffffffffff1663a9059cbb82856040518363ffffffff1660e01b81526004016129ff9291906138e7565b6020604051808303816000875af1158015612a1e573d6000803e3d6000fd5b505050506040513d601f19601f82011682018060405250810190612a429190613948565b508073ffffffffffffffffffffffffffffffffffffffff166388156e6584600560009054906101000a900473ffffffffffffffffffffffffffffffffffffffff16600160009054906101000a900473ffffffffffffffffffffffffffffffffffffffff16306040518563ffffffff1660e01b8152600401612ac694939291906139e0565b6020604051808303816000875af1158015612ae5573d6000803e3d6000fd5b505050506040513d601f19601f82011682018060405250810190612b099190613656565b9450600560009054906101000a900473ffffffffffffffffffffffffffffffffffffffff1673ffffffffffffffffffffffffffffffffffffffff1663a9059cbb82846040518363ffffffff1660e01b8152600401612b689291906138e7565b6020604051808303816000875af1158015612b87573d6000803e3d6000fd5b505050506040513d601f19601f82011682018060405250810190612bab9190613948565b508073ffffffffffffffffffffffffffffffffffffffff166388156e6583600560009054906101000a900473ffffffffffffffffffffffffffffffffffffffff16600560009054906101000a900473ffffffffffffffffffffffffffffffffffffffff16306040518563ffffffff1660e01b8152600401612c2f94939291906139e0565b6020604051808303816000875af1158015612c4e573d6000803e3d6000fd5b505050506040513d601f19601f82011682018060405250810190612c729190613656565b9350612c7e8585612def565b8095508196505050505050915091565b600033905090565b6000806000600560009054906101000a900473ffffffffffffffffffffffffffffffffffffffff1673ffffffffffffffffffffffffffffffffffffffff16630902f1ac6040518163ffffffff1660e01b8152600401606060405180830381865afa158015612d08573d6000803e3d6000fd5b505050506040513d601f19601f82011682018060405250810190612d2c9190613f2b565b506dffffffffffffffffffffffffffff1691506dffffffffffffffffffffffffffff169150600081670de0b6b3a76400008087612d699190613bc1565b85612d749190613a8e565b612d7e9190613b17565b612d889190613bc1565b670de0b6b3a764000086612d9c9190613bc1565b846002612da99190613a8e565b612db39190613a8e565b612dbd9190613b17565b90506000670de0b6b3a76400008288612dd69190613a8e565b612de09190613b17565b90508094505050505092915050565b6000806000600360009054906101000a900473ffffffffffffffffffffffffffffffffffffffff1673ffffffffffffffffffffffffffffffffffffffff16637fd6f15c6040518163ffffffff1660e01b8152600401602060405180830381865afa158015612e61573d6000803e3d6000fd5b505050506040513d601f19601f82011682018060405250810190612e859190613656565b90506000600360009054906101000a900473ffffffffffffffffffffffffffffffffffffffff1673ffffffffffffffffffffffffffffffffffffffff1663412753586040518163ffffffff1660e01b8152600401602060405180830381865afa158015612ef6573d6000803e3d6000fd5b505050506040513d601f19601f82011682018060405250810190612f1a9190613b5d565b905060008061271084888a612f2f9190613bc1565b612f399190613a8e565b612f439190613b17565b9050600080600260009054906101000a900473ffffffffffffffffffffffffffffffffffffffff1673ffffffffffffffffffffffffffffffffffffffff16630902f1ac6040518163ffffffff1660e01b8152600401606060405180830381865afa158015612fb5573d6000803e3d6000fd5b505050506040513d601f19601f82011682018060405250810190612fd99190613f2b565b506dffffffffffffffffffffffffffff1691506dffffffffffffffffffffffffffff1691506000828a61300c9190613a8e565b83856130189190613a8e565b838d6130249190613a8e565b61302e9190613bc1565b6130389190613f88565b9050600082846130489190613bc1565b856130539190613a8e565b9050600081670de0b6b3a76400008461306c919061401c565b6130769190614133565b9050600081121561308657600090505b670de0b6b3a76400008113156130a257670de0b6b3a764000090505b80965050505050506000670de0b6b3a764000083836130c19190613a8e565b6130cb9190613b17565b9050600160009054906101000a900473ffffffffffffffffffffffffffffffffffffffff1673ffffffffffffffffffffffffffffffffffffffff1663a9059cbb85836040518363ffffffff1660e01b815260040161312a9291906138e7565b6020604051808303816000875af1158015613149573d6000803e3d6000fd5b505050506040513d601f19601f8201168201806040525081019061316d9190613948565b50808961317a9190613e3e565b60009650965050505050509250929050565b600080fd5b600073ffffffffffffffffffffffffffffffffffffffff82169050919050565b60006131bc82613191565b9050919050565b60006131ce826131b1565b9050919050565b6131de816131c3565b81146131e957600080fd5b50565b6000813590506131fb816131d5565b92915050565b6000819050919050565b61321481613201565b811461321f57600080fd5b50565b6000813590506132318161320b565b92915050565b6000613242826131b1565b9050919050565b61325281613237565b811461325d57600080fd5b50565b60008135905061326f81613249565b92915050565b61327e816131b1565b811461328957600080fd5b50565b60008135905061329b81613275565b92915050565b600080600080600080600080610100898b0312156132c2576132c161318c565b5b60006132d08b828c016131ec565b98505060206132e18b828c01613222565b97505060406132f28b828c01613260565b96505060606133038b828c01613260565b95505060806133148b828c01613260565b94505060a06133258b828c0161328c565b93505060c06133368b828c0161328c565b92505060e06133478b828c0161328c565b9150509295985092959890939650565b60006020828403121561336d5761336c61318c565b5b600061337b84828501613222565b91505092915050565b61338d81613201565b82525050565b60006020820190506133a86000830184613384565b92915050565b6133b7816131b1565b82525050565b60006020820190506133d260008301846133ae565b92915050565b6000602082840312156133ee576133ed61318c565b5b60006133fc8482850161328c565b91505092915050565b600060ff82169050919050565b61341b81613405565b811461342657600080fd5b50565b60008151905061343881613412565b92915050565b6000602082840312156134545761345361318c565b5b600061346284828501613429565b91505092915050565b7f4e487b7100000000000000000000000000000000000000000000000000000000600052601160045260246000fd5b60008160011c9050919050565b6000808291508390505b60018511156134f1578086048111156134cd576134cc61346b565b5b60018516156134dc5780820291505b80810290506134ea8561349a565b94506134b1565b94509492505050565b60008261350a57600190506135c6565b8161351857600090506135c6565b816001811461352e576002811461353857613567565b60019150506135c6565b60ff84111561354a5761354961346b565b5b8360020a9150848211156135615761356061346b565b5b506135c6565b5060208310610133831016604e8410600b841016171561359c5782820a9050838111156135975761359661346b565b5b6135c6565b6135a984848460016134a7565b925090508184048111156135c0576135bf61346b565b5b81810290505b9392505050565b60006135d882613201565b91506135e383613405565b92506136107fffffffffffffffffffffffffffffffffffffffffffffffffffffffffffffffff84846134fa565b905092915050565b600060408201905061362d6000830185613384565b61363a6020830184613384565b9392505050565b6000815190506136508161320b565b92915050565b60006020828403121561366c5761366b61318c565b5b600061367a84828501613641565b91505092915050565b6000819050919050565b600061ffff82169050919050565b6000819050919050565b60006136c06136bb6136b684613683565b61369b565b61368d565b9050919050565b6136d0816136a5565b82525050565b60006136f16136ec6136e784613683565b61369b565b613201565b9050919050565b613701816136d6565b82525050565b600061371282613191565b9050919050565b61372281613707565b82525050565b600081519050919050565b600082825260208201905092915050565b60005b83811015613762578082015181840152602081019050613747565b83811115613771576000848401525b50505050565b6000601f19601f8301169050919050565b600061379382613728565b61379d8185613733565b93506137ad818560208601613744565b6137b681613777565b840191505092915050565b6137ca81613201565b82525050565b600082825260208201905092915050565b60006137ec82613728565b6137f681856137d0565b9350613806818560208601613744565b61380f81613777565b840191505092915050565b600060608301600083015161383260008601826137c1565b50602083015161384560208601826137c1565b506040830151848203604086015261385d82826137e1565b9150508091505092915050565b600060e08201905061387f600083018a6136c7565b61388c6020830189613384565b61389960408301886136f8565b6138a66060830187613719565b6138b36080830186613384565b81810360a08301526138c58185613788565b905081810360c08301526138d9818461381a565b905098975050505050505050565b60006040820190506138fc60008301856133ae565b6139096020830184613384565b9392505050565b60008115159050919050565b61392581613910565b811461393057600080fd5b50565b6000815190506139428161391c565b92915050565b60006020828403121561395e5761395d61318c565b5b600061396c84828501613933565b91505092915050565b6000613980826131b1565b9050919050565b61399081613975565b811461399b57600080fd5b50565b6000815190506139ad81613987565b92915050565b6000602082840312156139c9576139c861318c565b5b60006139d78482850161399e565b91505092915050565b60006080820190506139f56000830187613384565b613a0260208301866133ae565b613a0f60408301856133ae565b613a1c60608301846133ae565b95945050505050565b6000604082019050613a3a6000830185613384565b613a4760208301846133ae565b9392505050565b60008060408385031215613a6557613a6461318c565b5b6000613a7385828601613641565b9250506020613a8485828601613641565b9150509250929050565b6000613a9982613201565b9150613aa483613201565b9250817fffffffffffffffffffffffffffffffffffffffffffffffffffffffffffffffff0483118215151615613add57613adc61346b565b5b828202905092915050565b7f4e487b7100000000000000000000000000000000000000000000000000000000600052601260045260246000fd5b6000613b2282613201565b9150613b2d83613201565b925082613b3d57613b3c613ae8565b5b828204905092915050565b600081519050613b5781613275565b92915050565b600060208284031215613b7357613b7261318c565b5b6000613b8184828501613b48565b91505092915050565b6000606082019050613b9f6000830186613384565b613bac6020830185613384565b613bb96040830184613384565b949350505050565b6000613bcc82613201565b9150613bd783613201565b9250827fffffffffffffffffffffffffffffffffffffffffffffffffffffffffffffffff03821115613c0c57613c0b61346b565b5b828201905092915050565b600060e082019050613c2c600083018a6136c7565b613c396020830189613384565b613c466040830188613384565b613c536060830187613719565b613c606080830186613384565b81810360a0830152613c728185613788565b905081810360c0830152613c86818461381a565b905098975050505050505050565b6000606082019050613ca96000830186613384565b613cb66020830185613384565b613cc360408301846133ae565b949350505050565b600082825260208201905092915050565b7f4f776e61626c653a206e6577206f776e657220697320746865207a65726f206160008201527f6464726573730000000000000000000000000000000000000000000000000000602082015250565b6000613d38602683613ccb565b9150613d4382613cdc565b604082019050919050565b60006020820190508181036000830152613d6781613d2b565b9050919050565b6000819050919050565b6000613d93613d8e613d8984613d6e565b61369b565b613201565b9050919050565b613da381613d78565b82525050565b6000604082019050613dbe6000830185613384565b613dcb6020830184613d9a565b9392505050565b7f4f776e61626c653a2063616c6c6572206973206e6f7420746865206f776e6572600082015250565b6000613e08602083613ccb565b9150613e1382613dd2565b602082019050919050565b60006020820190508181036000830152613e3781613dfb565b9050919050565b6000613e4982613201565b9150613e5483613201565b925082821015613e6757613e6661346b565b5b828203905092915050565b6000606082019050613e876000830186613384565b613e9460208301856133ae565b613ea160408301846133ae565b949350505050565b60006dffffffffffffffffffffffffffff82169050919050565b613ecc81613ea9565b8114613ed757600080fd5b50565b600081519050613ee981613ec3565b92915050565b600063ffffffff82169050919050565b613f0881613eef565b8114613f1357600080fd5b50565b600081519050613f2581613eff565b92915050565b600080600060608486031215613f4457613f4361318c565b5b6000613f5286828701613eda565b9350506020613f6386828701613eda565b9250506040613f7486828701613f16565b9150509250925092565b6000819050919050565b6000613f9382613f7e565b9150613f9e83613f7e565b9250827f800000000000000000000000000000000000000000000000000000000000000001821260008412151615613fd957613fd861346b565b5b827f7fffffffffffffffffffffffffffffffffffffffffffffffffffffffffffffff0182136000841216156140115761401061346b565b5b828203905092915050565b600061402782613f7e565b915061403283613f7e565b9250827f7fffffffffffffffffffffffffffffffffffffffffffffffffffffffffffffff04821160008413600084131616156140715761407061346b565b5b817f800000000000000000000000000000000000000000000000000000000000000005831260008412600084131616156140ae576140ad61346b565b5b827f800000000000000000000000000000000000000000000000000000000000000005821260008413600084121616156140eb576140ea61346b565b5b827f7fffffffffffffffffffffffffffffffffffffffffffffffffffffffffffffff05821260008412600084121616156141285761412761346b565b5b828202905092915050565b600061413e82613f7e565b915061414983613f7e565b92508261415957614158613ae8565b5b600160000383147f8000000000000000000000000000000000000000000000000000000000000000831416156141925761419161346b565b5b82820590509291505056fea2646970667358221220feda75e11f1c26dbd147680a6ea7c4f8cdd981d9c23148ae55f63ca054027a9364736f6c634300080f0033",
  "immutableReferences": {},
  "source": "//SPDX-License-Identifier: Unlicense\r\npragma solidity ^0.8.0;\r\nimport \"@openzeppelin/contracts/token/ERC20/IERC20.sol\";\r\nimport \"@uniswap/v2-periphery/contracts/interfaces/IUniswapV2Router02.sol\";\r\nimport \"@uniswap/v2-core/contracts/interfaces/IUniswapV2Pair.sol\";\r\nimport \"@uniswap/v2-core/contracts/interfaces/IUniswapV2Factory.sol\";\r\nimport \"../interfaces/IStrategy.sol\";\r\nimport \"../interfaces/IStargateRouter.sol\";\r\nimport \"../interfaces/IClipSwapFarm.sol\";\r\nimport \"../main/StrategyRouter.sol\";\r\n\r\n/** Stargate USDT Liquidity pool.\r\n        How is works\r\n        ------------\r\n        - USDT Deposited into a single-sided liquidity pool on Stargate on the Binance Smart Chain\r\n        - USDT Lp Token is staked in the USDT Liquidity Mining Farm.\r\n        - Rewards are received as STG.\r\n        - STG Tokens are sold out for USDT on PancakeSwap and deposited back into the pool.\r\n\r\n        stg : Contract of the reward token. (In this case STG)\r\n        farm : Liquidity Mining Farm.\r\n    \r\n    Functions: \r\n        o deposit()\r\n        o withdraw()\r\n        o withdrawall()\r\n        o compound()\r\n\r\n    @custom:oz-upgrades-unsafe-allow constructor state-variable-immutable\r\n */\r\n\r\ncontract StargateStrategy is Ownable, IStrategy {\r\n    // error CallerUpgrader();\r\n\r\n    // address internal upgrader;\r\n    \r\n    ERC20 internal tokenA;\r\n    // ERC20 internal stgRewardToken;\r\n    ERC20 internal lpToken;\r\n    StrategyRouter internal strategyRouter;\r\n\r\n    address internal stargateRouter;\r\n\r\n    ERC20 internal stgRewardToken;\r\n    IClipSwapFarm internal farm;\r\n    IUniswapV2Router02 internal stgRouter;\r\n\r\n    uint256 internal poolId;\r\n\r\n    uint256 private leftOver_threshold_Token_A;\r\n    uint256 private leftIOver_Threshold_Token_B;\r\n    uint256 private constant PERCENT_DENOMINATOR = 10000;\r\n\r\n    // modifier onlyUpgrader() {\r\n    //     if (msg.sender != address(upgrader)) revert CallerUpgrader();\r\n    //     _;\r\n    // }\r\n\r\n    /// @dev construct is intended to initialize immutables on implementation\r\n    constructor() {\r\n        // lock implementation\r\n        // _disableInitializers();\r\n    }\r\n\r\n    function initializeState(\r\n        // address _upgrader,\r\n        StrategyRouter _strategyRouter,\r\n        uint256 _poolId,\r\n        ERC20 _tokenA,\r\n        ERC20 _lpToken,\r\n        ERC20 _stgRewardToken,\r\n        address _farm,\r\n        address _stgRouter,\r\n        address _stargateRouter\r\n    ) public onlyOwner {\r\n        // __Ownable_init();\r\n        // __UUPSUpgradeable_init();\r\n        // upgrader = _upgrader;\r\n        strategyRouter = _strategyRouter;\r\n        poolId = _poolId;\r\n        tokenA = _tokenA;\r\n        lpToken = _lpToken;\r\n        stgRewardToken = _stgRewardToken ;\r\n        farm = IClipSwapFarm(_farm);\r\n        stgRouter = IUniswapV2Router02(_stgRouter);\r\n        stargateRouter = _stargateRouter;\r\n        leftOver_threshold_Token_A = 10**_tokenA.decimals();\r\n        leftIOver_Threshold_Token_B = 10**_stgRewardToken.decimals();\r\n    }\r\n\r\n    // function _authorizeUpgrade(address newImplementation) internal override onlyUpgrader {}\r\n\r\n    function depositToken() external view override returns (address) {\r\n        return address(tokenA);\r\n    }\r\n\r\n    function deposit(uint256 amount) external override onlyOwner {\r\n        // Exchange exchange = strategyRouter.getExchange();\r\n        tokenA.approve(address(stargateRouter), amount);\r\n        IStargateRouter(stargateRouter).addLiquidity(poolId, amount, address(address(this))); \r\n        stgRewardToken.approve(address(farm), amount);\r\n        farm.deposit(poolId, amount);\r\n    }\r\n\r\n    function withdraw(uint256 amtToWithdraw)\r\n        external\r\n        override\r\n        onlyOwner\r\n        returns (uint256 amountWithdrawn)\r\n    {\r\n        IClipSwapFarm(farm).withdraw(poolId, amtToWithdraw);\r\n        uint256 balance1 = stgRewardToken.balanceOf(address(this));\r\n        // stgRewardToken.approve(address(stgRouter), amtToWithdraw);\r\n        IStargateRouter(stargateRouter).redeemLocal(\r\n            97, //testnet \r\n            poolId, \r\n            97, // BSC testnet\r\n            payable(address(this)), \r\n            balance1, \r\n            abi.encode(address(this)), \r\n            IStargateRouter.lzTxObj(0, 0, \"\")\r\n        );\r\n        lpToken.approve(address(stgRouter), amtToWithdraw);\r\n\r\n        Exchange exchange = strategyRouter.getExchange();\r\n        stgRewardToken.approve(address(exchange), balance1);\r\n        uint amountA = exchange.swap(balance1, address(stgRewardToken), address(tokenA), address(this));\r\n        tokenA.transfer(msg.sender, amountA);\r\n       \r\n        return amountA;\r\n    }\r\n\r\n    function compound() external override onlyOwner {\r\n        // inside withdraw happens STG rewards collection\r\n        farm.withdraw(poolId, 0);\r\n        // use balance because STG is harvested on deposit and withdraw calls\r\n        uint256 stgAmount = stgRewardToken.balanceOf(address(this));\r\n\r\n        if (stgAmount > 0) {\r\n            fix_leftover(0);\r\n            sellReward(stgAmount);\r\n            uint256 balanceA = tokenA.balanceOf(address(this));\r\n            uint256 balanceB = stgRewardToken.balanceOf(address(this));\r\n\r\n            tokenA.approve(address(stargateRouter), balanceA);\r\n            stgRewardToken.approve(address(stgRouter), balanceB);\r\n            IStargateRouter(stargateRouter).addLiquidity(poolId, balanceA, address(this));\r\n\r\n            uint256 lpAmount = lpToken.balanceOf(address(this));\r\n            lpToken.approve(address(farm), lpAmount);\r\n            farm.deposit(poolId, lpAmount);\r\n        }\r\n    }\r\n\r\n\r\n    function withdrawAll() external override onlyOwner returns (uint256 amountWithdrawn) {\r\n        (uint256 amount, ) = farm.userInfo(poolId, address(this));\r\n        if (amount > 0) {\r\n            farm.withdraw(poolId, amount);\r\n            uint256 lpAmount = lpToken.balanceOf(address(this));\r\n            lpToken.approve(address(stgRouter), lpAmount);\r\n            IStargateRouter(stargateRouter).redeemLocal(\r\n                97, //Testnet \r\n                poolId, \r\n                poolId, \r\n                payable(address(this)), \r\n                lpAmount, \r\n                abi.encode(address(this)), \r\n                IStargateRouter.lzTxObj(0, 0, \"\")\r\n            );\r\n        }\r\n\r\n        uint256 amountA = tokenA.balanceOf(address(this));\r\n        uint256 amountB = stgRewardToken.balanceOf(address(this));\r\n\r\n        if (amountB > 0) {\r\n            Exchange exchange = strategyRouter.getExchange();\r\n            stgRewardToken.transfer(address(exchange), amountB);\r\n            amountA += exchange.swap(amountB, address(stgRewardToken), address(tokenA), address(this));\r\n        }\r\n        if (amountA > 0) {\r\n            tokenA.transfer(msg.sender, amountA);\r\n            return amountA;\r\n        }\r\n    }\r\n\r\n    function totalTokens() external view override returns (uint256) {\r\n        (uint256 liquidity, ) = farm.userInfo(poolId, address(this));\r\n\r\n        uint256 _totalSupply = lpToken.totalSupply();\r\n        // this formula is from uniswap.remove_liquidity -> uniswapPair.burn function\r\n        uint256 balanceA = tokenA.balanceOf(address(lpToken));\r\n        uint256 balanceB = stgRewardToken.balanceOf(address(lpToken));\r\n        uint256 amountA = (liquidity * balanceA) / _totalSupply;\r\n        uint256 amountB = (liquidity * balanceB) / _totalSupply;\r\n\r\n        if (amountB > 0) {\r\n            address token0 = IUniswapV2Pair(address(lpToken)).token0();\r\n\r\n            (uint256 _reserve0, uint256 _reserve1) = token0 == address(stgRewardToken)\r\n                ? (balanceB, balanceA)\r\n                : (balanceA, balanceB);\r\n\r\n            // convert amountB to amount tokenA\r\n            amountA += stgRouter.quote(amountB, _reserve0, _reserve1);\r\n        }\r\n\r\n        return amountA;\r\n    }\r\n\r\n\r\n    /// @dev Swaps leftover tokens for a better ratio for LP.\r\n    function fix_leftover(uint256 amountIgnore) private {\r\n        Exchange exchange = strategyRouter.getExchange();\r\n        uint256 amountB = stgRewardToken.balanceOf(address(this));\r\n        uint256 amountA = tokenA.balanceOf(address(this)) - amountIgnore;\r\n        uint256 toSwap;\r\n        if (amountB > amountA && (toSwap = amountB - amountA) > leftIOver_Threshold_Token_B) {\r\n            uint256 dexFee = exchange.getFee(toSwap / 2, address(tokenA), address(stgRewardToken));\r\n            toSwap = calculateSwapAmount(toSwap / 2, dexFee);\r\n            stgRewardToken.transfer(address(exchange), toSwap);\r\n            exchange.swap(toSwap, address(stgRewardToken), address(tokenA), address(this));\r\n        } else if (amountA > amountB && (toSwap = amountA - amountB) > leftOver_threshold_Token_A) {\r\n            uint256 dexFee = exchange.getFee(toSwap / 2, address(tokenA), address(stgRewardToken));\r\n            toSwap = calculateSwapAmount(toSwap / 2, dexFee);\r\n            tokenA.transfer(address(exchange), toSwap);\r\n            exchange.swap(toSwap, address(tokenA), address(stgRewardToken), address(this));\r\n        }\r\n    }\r\n\r\n    // swap stgRewardToken for tokenA & stgRewardToken in proportions 50/50\r\n    function sellReward(uint256 stgRewardTokenAmount) private returns (uint256 receivedA, uint256 receivedB) {\r\n        // sell for lp ratio\r\n        uint256 amountA = stgRewardTokenAmount / 2;\r\n        uint256 amountB = stgRewardTokenAmount - amountA;\r\n\r\n        Exchange exchange = strategyRouter.getExchange();\r\n        stgRewardToken.transfer(address(exchange), amountA);\r\n        receivedA = exchange.swap(amountA, address(stgRewardToken), address(tokenA), address(this));\r\n\r\n        stgRewardToken.transfer(address(exchange), amountB);\r\n        receivedB = exchange.swap(amountB, address(stgRewardToken), address(stgRewardToken), address(this));\r\n\r\n        (receivedA, receivedB) = collectProtocolCommission(receivedA, receivedB);\r\n    }\r\n\r\n    function collectProtocolCommission(uint256 amountA, uint256 amountB)\r\n        private\r\n        returns (uint256 amountAfterFeeA, uint256 amountAfterFeeB)\r\n    {\r\n        uint256 feePercent = StrategyRouter(strategyRouter).feePercent();\r\n        address feeAddress = StrategyRouter(strategyRouter).feeAddress();\r\n        uint256 ratioUint;\r\n        uint256 feeAmount = ((amountA + amountB) * feePercent) / PERCENT_DENOMINATOR;\r\n        {\r\n            (uint256 r0, uint256 r1, ) = IUniswapV2Pair(address(lpToken)).getReserves();\r\n\r\n            // equation: (a - (c*v))/(b - (c-c*v)) = z/x\r\n            // solution for v = (a*x - b*z + c*z) / (c * (z+x))\r\n            // a,b is current token amounts, z,x is pair reserves, c is total fee amount to take from a+b\r\n            // v is ratio to apply to feeAmount and take fee from a and b\r\n            // a and z should be converted to same decimals as token b (TODO for cases when decimals are different)\r\n            int256 numerator = int256(amountA * r1 + feeAmount * r0) - int256(amountB * r0);\r\n            int256 denominator = int256(feeAmount * (r0 + r1));\r\n            int256 ratio = (numerator * 1e18) / denominator;\r\n            // ratio here could be negative or greater than 1.0\r\n            // only need to be between 0 and 1\r\n            if (ratio < 0) ratio = 0;\r\n            if (ratio > 1e18) ratio = 1e18;\r\n\r\n            ratioUint = uint256(ratio);\r\n        }\r\n\r\n        // these two have same decimals, should adjust A to have A decimals,\r\n        // this is TODO for cases when tokenA and stgRewardToken has different decimals\r\n        uint256 comissionA = (feeAmount * ratioUint) / 1e18;\r\n        // uint256 comissionB = feeAmount - comissionA;\r\n\r\n        tokenA.transfer(feeAddress, comissionA);\r\n        // stgRewardToken.transfer(feeAddress, comissionB);\r\n\r\n        return (amountA - comissionA, 0);\r\n    }\r\n\r\n    function calculateSwapAmount(uint256 half, uint256 dexFee) private view returns (uint256 amountAfterFee) {\r\n        (uint256 r0, uint256 r1, ) = IUniswapV2Pair(address(stgRewardToken)).getReserves();\r\n        uint256 halfWithFee = (2 * r0 * (dexFee + 1e18)) / ((r0 * (dexFee + 1e18)) / 1e18 + r1);\r\n        uint256 amountB = (half * halfWithFee) / 1e18;\r\n        return amountB;\r\n    }\r\n}",
  "sourcePath": "C:\\Users\\FVO_MMILLLER\\Desktop\\elvolution\\Testers\\contracts\\clipStrategies\\StargateStrategy.sol",
  "compiler": {
    "name": "solc",
    "version": "0.8.15+commit.e14f2714.Emscripten.clang"
  },
  "schemaVersion": "3.4.8",
  "updatedAt": "2022-09-08T16:23:06.322Z",
  "devdoc": {
    "custom:oz-upgrades-unsafe-allow": "constructor state-variable-immutable",
    "kind": "dev",
    "methods": {
      "constructor": {
        "details": "construct is intended to initialize immutables on implementation"
      },
      "owner()": {
        "details": "Returns the address of the current owner."
      },
      "renounceOwnership()": {
        "details": "Leaves the contract without owner. It will not be possible to call `onlyOwner` functions anymore. Can only be called by the current owner. NOTE: Renouncing ownership will leave the contract without an owner, thereby removing any functionality that is only available to the owner."
      },
      "transferOwnership(address)": {
        "details": "Transfers ownership of the contract to a new account (`newOwner`). Can only be called by the current owner."
      }
    },
    "version": 1
  },
  "userdoc": {
    "events": {
      "AllocateToStrategies(uint256,uint256)": {
        "notice": "Fires when batch is deposited into strategies."
      },
      "Deposit(address,address,uint256)": {
        "notice": "Fires when user deposits in batch."
      },
      "RedeemReceiptsToShares(address,uint256,uint256[])": {
        "notice": "Fires when user converts his receipt into shares token."
      },
      "RedeemReceiptsToSharesByModerators(address,uint256[])": {
        "notice": "Fires when moderator converts foreign receipts into shares token."
      },
      "WithdrawFromBatch(address,address,uint256)": {
        "notice": "Fires when user withdraw from batch."
      },
      "WithdrawFromStrategies(address,address,uint256)": {
        "notice": "Fires when user withdraw from strategies."
      }
    },
    "kind": "user",
    "methods": {
      "compound()": {
        "notice": "Harvest rewards and reinvest them."
      },
      "deposit(uint256)": {
        "notice": "Deposit token to strategy."
      },
      "depositToken()": {
        "notice": "Token used to deposit to strategy."
      },
      "totalTokens()": {
        "notice": "Approximated amount of token on the strategy."
      },
      "withdrawAll()": {
        "notice": "Withdraw all tokens from strategy."
      }
    },
    "notice": "Stargate USDT Liquidity pool. How is works ------------ - USDT Deposited into a single-sided liquidity pool on Stargate on the Binance Smart Chain - USDT Lp Token is staked in the USDT Liquidity Mining Farm. - Rewards are received as STG. - STG Tokens are sold out for USDT on PancakeSwap and deposited back into the pool. stg : Contract of the reward token. (In this case STG) farm : Liquidity Mining Farm. Functions:  o deposit() o withdraw() o withdrawall() o compound()",
    "version": 1
  }
}