{
  "contractName": "StrategyRouter",
  "abi": [
    {
      "inputs": [],
      "stateMutability": "nonpayable",
      "type": "constructor"
    },
    {
      "inputs": [],
      "name": "AmountExceedTotalSupply",
      "type": "error"
    },
    {
      "inputs": [],
      "name": "AmountNotSpecified",
      "type": "error"
    },
    {
      "inputs": [],
      "name": "CantRemoveLastStrategy",
      "type": "error"
    },
    {
      "inputs": [],
      "name": "CycleClosed",
      "type": "error"
    },
    {
      "inputs": [],
      "name": "CycleNotClosableYet",
      "type": "error"
    },
    {
      "inputs": [],
      "name": "CycleNotClosed",
      "type": "error"
    },
    {
      "inputs": [],
      "name": "DuplicateStrategy",
      "type": "error"
    },
    {
      "inputs": [],
      "name": "InsufficientShares",
      "type": "error"
    },
    {
      "inputs": [],
      "name": "NotModerator",
      "type": "error"
    },
    {
      "inputs": [],
      "name": "NotReceiptOwner",
      "type": "error"
    },
    {
      "inputs": [],
      "name": "NothingToRebalance",
      "type": "error"
    },
    {
      "inputs": [],
      "name": "UnsupportedToken",
      "type": "error"
    },
    {
      "anonymous": false,
      "inputs": [
        {
          "indexed": true,
          "internalType": "uint256",
          "name": "closedCycleId",
          "type": "uint256"
        },
        {
          "indexed": false,
          "internalType": "uint256",
          "name": "amount",
          "type": "uint256"
        }
      ],
      "name": "AllocateToStrategies",
      "type": "event"
    },
    {
      "anonymous": false,
      "inputs": [
        {
          "indexed": true,
          "internalType": "address",
          "name": "user",
          "type": "address"
        },
        {
          "indexed": false,
          "internalType": "address",
          "name": "token",
          "type": "address"
        },
        {
          "indexed": false,
          "internalType": "uint256",
          "name": "amount",
          "type": "uint256"
        }
      ],
      "name": "Deposit",
      "type": "event"
    },
    {
      "anonymous": false,
      "inputs": [
        {
          "indexed": true,
          "internalType": "address",
          "name": "previousOwner",
          "type": "address"
        },
        {
          "indexed": true,
          "internalType": "address",
          "name": "newOwner",
          "type": "address"
        }
      ],
      "name": "OwnershipTransferred",
      "type": "event"
    },
    {
      "anonymous": false,
      "inputs": [
        {
          "indexed": true,
          "internalType": "address",
          "name": "user",
          "type": "address"
        },
        {
          "indexed": false,
          "internalType": "uint256",
          "name": "shares",
          "type": "uint256"
        },
        {
          "indexed": false,
          "internalType": "uint256[]",
          "name": "receiptIds",
          "type": "uint256[]"
        }
      ],
      "name": "RedeemReceiptsToShares",
      "type": "event"
    },
    {
      "anonymous": false,
      "inputs": [
        {
          "indexed": true,
          "internalType": "address",
          "name": "moderator",
          "type": "address"
        },
        {
          "indexed": false,
          "internalType": "uint256[]",
          "name": "receiptIds",
          "type": "uint256[]"
        }
      ],
      "name": "RedeemReceiptsToSharesByModerators",
      "type": "event"
    },
    {
      "anonymous": false,
      "inputs": [
        {
          "indexed": false,
          "internalType": "contract Exchange",
          "name": "_exchange",
          "type": "address"
        },
        {
          "indexed": false,
          "internalType": "contract IUsdOracle",
          "name": "_oracle",
          "type": "address"
        },
        {
          "indexed": false,
          "internalType": "contract SharesToken",
          "name": "_sharesToken",
          "type": "address"
        },
        {
          "indexed": false,
          "internalType": "contract Batch",
          "name": "_batch",
          "type": "address"
        },
        {
          "indexed": false,
          "internalType": "contract ReceiptNFT",
          "name": "_receiptNft",
          "type": "address"
        }
      ],
      "name": "SetAddresses",
      "type": "event"
    },
    {
      "anonymous": false,
      "inputs": [
        {
          "indexed": false,
          "internalType": "uint256",
          "name": "newDuration",
          "type": "uint256"
        }
      ],
      "name": "SetCycleDuration",
      "type": "event"
    },
    {
      "anonymous": false,
      "inputs": [
        {
          "indexed": false,
          "internalType": "address",
          "name": "newAddress",
          "type": "address"
        }
      ],
      "name": "SetFeeAddress",
      "type": "event"
    },
    {
      "anonymous": false,
      "inputs": [
        {
          "indexed": false,
          "internalType": "uint256",
          "name": "newPercent",
          "type": "uint256"
        }
      ],
      "name": "SetFeePercent",
      "type": "event"
    },
    {
      "anonymous": false,
      "inputs": [
        {
          "indexed": false,
          "internalType": "uint256",
          "name": "newAmount",
          "type": "uint256"
        }
      ],
      "name": "SetMinDeposit",
      "type": "event"
    },
    {
      "anonymous": false,
      "inputs": [
        {
          "indexed": false,
          "internalType": "uint256",
          "name": "newAmount",
          "type": "uint256"
        }
      ],
      "name": "SetMinUsdPerCycle",
      "type": "event"
    },
    {
      "anonymous": false,
      "inputs": [
        {
          "indexed": true,
          "internalType": "address",
          "name": "user",
          "type": "address"
        },
        {
          "indexed": false,
          "internalType": "address",
          "name": "token",
          "type": "address"
        },
        {
          "indexed": false,
          "internalType": "uint256",
          "name": "amount",
          "type": "uint256"
        }
      ],
      "name": "WithdrawFromBatch",
      "type": "event"
    },
    {
      "anonymous": false,
      "inputs": [
        {
          "indexed": true,
          "internalType": "address",
          "name": "user",
          "type": "address"
        },
        {
          "indexed": false,
          "internalType": "address",
          "name": "token",
          "type": "address"
        },
        {
          "indexed": false,
          "internalType": "uint256",
          "name": "amount",
          "type": "uint256"
        }
      ],
      "name": "WithdrawFromStrategies",
      "type": "event"
    },
    {
      "inputs": [],
      "name": "currentCycleId",
      "outputs": [
        {
          "internalType": "uint256",
          "name": "",
          "type": "uint256"
        }
      ],
      "stateMutability": "view",
      "type": "function"
    },
    {
      "inputs": [],
      "name": "cycleDuration",
      "outputs": [
        {
          "internalType": "uint256",
          "name": "",
          "type": "uint256"
        }
      ],
      "stateMutability": "view",
      "type": "function"
    },
    {
      "inputs": [
        {
          "internalType": "uint256",
          "name": "",
          "type": "uint256"
        }
      ],
      "name": "cycles",
      "outputs": [
        {
          "internalType": "uint256",
          "name": "startAt",
          "type": "uint256"
        },
        {
          "internalType": "uint256",
          "name": "totalDepositedInUsd",
          "type": "uint256"
        },
        {
          "internalType": "uint256",
          "name": "pricePerShare",
          "type": "uint256"
        },
        {
          "internalType": "uint256",
          "name": "receivedByStrategiesInUsd",
          "type": "uint256"
        }
      ],
      "stateMutability": "view",
      "type": "function"
    },
    {
      "inputs": [],
      "name": "exchange",
      "outputs": [
        {
          "internalType": "contract Exchange",
          "name": "",
          "type": "address"
        }
      ],
      "stateMutability": "view",
      "type": "function"
    },
    {
      "inputs": [],
      "name": "feeAddress",
      "outputs": [
        {
          "internalType": "address",
          "name": "",
          "type": "address"
        }
      ],
      "stateMutability": "view",
      "type": "function"
    },
    {
      "inputs": [],
      "name": "feePercent",
      "outputs": [
        {
          "internalType": "uint256",
          "name": "",
          "type": "uint256"
        }
      ],
      "stateMutability": "view",
      "type": "function"
    },
    {
      "inputs": [],
      "name": "minDeposit",
      "outputs": [
        {
          "internalType": "uint256",
          "name": "",
          "type": "uint256"
        }
      ],
      "stateMutability": "view",
      "type": "function"
    },
    {
      "inputs": [],
      "name": "minUsdPerCycle",
      "outputs": [
        {
          "internalType": "uint256",
          "name": "",
          "type": "uint256"
        }
      ],
      "stateMutability": "view",
      "type": "function"
    },
    {
      "inputs": [
        {
          "internalType": "address",
          "name": "",
          "type": "address"
        }
      ],
      "name": "moderators",
      "outputs": [
        {
          "internalType": "bool",
          "name": "",
          "type": "bool"
        }
      ],
      "stateMutability": "view",
      "type": "function"
    },
    {
      "inputs": [],
      "name": "owner",
      "outputs": [
        {
          "internalType": "address",
          "name": "",
          "type": "address"
        }
      ],
      "stateMutability": "view",
      "type": "function"
    },
    {
      "inputs": [],
      "name": "renounceOwnership",
      "outputs": [],
      "stateMutability": "nonpayable",
      "type": "function"
    },
    {
      "inputs": [
        {
          "internalType": "uint256",
          "name": "",
          "type": "uint256"
        }
      ],
      "name": "strategies",
      "outputs": [
        {
          "internalType": "address",
          "name": "strategyAddress",
          "type": "address"
        },
        {
          "internalType": "address",
          "name": "depositToken",
          "type": "address"
        },
        {
          "internalType": "uint256",
          "name": "weight",
          "type": "uint256"
        }
      ],
      "stateMutability": "view",
      "type": "function"
    },
    {
      "inputs": [
        {
          "internalType": "address",
          "name": "newOwner",
          "type": "address"
        }
      ],
      "name": "transferOwnership",
      "outputs": [],
      "stateMutability": "nonpayable",
      "type": "function"
    },
    {
      "inputs": [],
      "name": "initializeState",
      "outputs": [],
      "stateMutability": "nonpayable",
      "type": "function"
    },
    {
      "inputs": [
        {
          "internalType": "contract Exchange",
          "name": "_exchange",
          "type": "address"
        },
        {
          "internalType": "contract IUsdOracle",
          "name": "_oracle",
          "type": "address"
        },
        {
          "internalType": "contract SharesToken",
          "name": "_sharesToken",
          "type": "address"
        },
        {
          "internalType": "contract Batch",
          "name": "_batch",
          "type": "address"
        },
        {
          "internalType": "contract ReceiptNFT",
          "name": "_receiptNft",
          "type": "address"
        }
      ],
      "name": "setAddresses",
      "outputs": [],
      "stateMutability": "nonpayable",
      "type": "function"
    },
    {
      "inputs": [],
      "name": "allocateToStrategies",
      "outputs": [],
      "stateMutability": "nonpayable",
      "type": "function"
    },
    {
      "inputs": [],
      "name": "compoundAll",
      "outputs": [],
      "stateMutability": "nonpayable",
      "type": "function"
    },
    {
      "inputs": [],
      "name": "getSupportedTokens",
      "outputs": [
        {
          "internalType": "address[]",
          "name": "",
          "type": "address[]"
        }
      ],
      "stateMutability": "view",
      "type": "function"
    },
    {
      "inputs": [
        {
          "internalType": "uint256",
          "name": "_strategyId",
          "type": "uint256"
        }
      ],
      "name": "getStrategyPercentWeight",
      "outputs": [
        {
          "internalType": "uint256",
          "name": "strategyPercentAllocation",
          "type": "uint256"
        }
      ],
      "stateMutability": "view",
      "type": "function"
    },
    {
      "inputs": [],
      "name": "getStrategiesCount",
      "outputs": [
        {
          "internalType": "uint256",
          "name": "count",
          "type": "uint256"
        }
      ],
      "stateMutability": "view",
      "type": "function"
    },
    {
      "inputs": [],
      "name": "getStrategies",
      "outputs": [
        {
          "components": [
            {
              "internalType": "address",
              "name": "strategyAddress",
              "type": "address"
            },
            {
              "internalType": "address",
              "name": "depositToken",
              "type": "address"
            },
            {
              "internalType": "uint256",
              "name": "weight",
              "type": "uint256"
            }
          ],
          "internalType": "struct StrategyRouter.StrategyInfo[]",
          "name": "",
          "type": "tuple[]"
        }
      ],
      "stateMutability": "view",
      "type": "function"
    },
    {
      "inputs": [
        {
          "internalType": "uint256",
          "name": "i",
          "type": "uint256"
        }
      ],
      "name": "getStrategyDepositToken",
      "outputs": [
        {
          "internalType": "address",
          "name": "",
          "type": "address"
        }
      ],
      "stateMutability": "view",
      "type": "function"
    },
    {
      "inputs": [],
      "name": "getStrategiesValue",
      "outputs": [
        {
          "internalType": "uint256",
          "name": "totalBalance",
          "type": "uint256"
        },
        {
          "internalType": "uint256[]",
          "name": "balances",
          "type": "uint256[]"
        }
      ],
      "stateMutability": "view",
      "type": "function"
    },
    {
      "inputs": [],
      "name": "getBatchValueUsd",
      "outputs": [
        {
          "internalType": "uint256",
          "name": "totalBalance",
          "type": "uint256"
        },
        {
          "internalType": "uint256[]",
          "name": "balances",
          "type": "uint256[]"
        }
      ],
      "stateMutability": "view",
      "type": "function"
    },
    {
      "inputs": [],
      "name": "getExchange",
      "outputs": [
        {
          "internalType": "contract Exchange",
          "name": "",
          "type": "address"
        }
      ],
      "stateMutability": "view",
      "type": "function"
    },
    {
      "inputs": [
        {
          "internalType": "uint256[]",
          "name": "receiptIds",
          "type": "uint256[]"
        }
      ],
      "name": "calculateSharesFromReceipts",
      "outputs": [
        {
          "internalType": "uint256",
          "name": "shares",
          "type": "uint256"
        }
      ],
      "stateMutability": "view",
      "type": "function"
    },
    {
      "inputs": [
        {
          "internalType": "uint256[]",
          "name": "receiptIds",
          "type": "uint256[]"
        }
      ],
      "name": "redeemReceiptsToSharesByModerators",
      "outputs": [],
      "stateMutability": "nonpayable",
      "type": "function"
    },
    {
      "inputs": [
        {
          "internalType": "uint256",
          "name": "amountShares",
          "type": "uint256"
        }
      ],
      "name": "calculateSharesUsdValue",
      "outputs": [
        {
          "internalType": "uint256",
          "name": "amountUsd",
          "type": "uint256"
        }
      ],
      "stateMutability": "view",
      "type": "function"
    },
    {
      "inputs": [
        {
          "internalType": "uint256",
          "name": "amount",
          "type": "uint256"
        }
      ],
      "name": "calculateSharesAmountFromUsdAmount",
      "outputs": [
        {
          "internalType": "uint256",
          "name": "shares",
          "type": "uint256"
        }
      ],
      "stateMutability": "view",
      "type": "function"
    },
    {
      "inputs": [
        {
          "internalType": "address",
          "name": "tokenAddress",
          "type": "address"
        }
      ],
      "name": "supportsToken",
      "outputs": [
        {
          "internalType": "bool",
          "name": "isSupported",
          "type": "bool"
        }
      ],
      "stateMutability": "view",
      "type": "function"
    },
    {
      "inputs": [
        {
          "internalType": "uint256[]",
          "name": "receiptIds",
          "type": "uint256[]"
        }
      ],
      "name": "redeemReceiptsToShares",
      "outputs": [
        {
          "internalType": "uint256",
          "name": "shares",
          "type": "uint256"
        }
      ],
      "stateMutability": "nonpayable",
      "type": "function"
    },
    {
      "inputs": [
        {
          "internalType": "uint256[]",
          "name": "receiptIds",
          "type": "uint256[]"
        },
        {
          "internalType": "address",
          "name": "withdrawToken",
          "type": "address"
        },
        {
          "internalType": "uint256",
          "name": "shares",
          "type": "uint256"
        }
      ],
      "name": "withdrawFromStrategies",
      "outputs": [],
      "stateMutability": "nonpayable",
      "type": "function"
    },
    {
      "inputs": [
        {
          "internalType": "uint256[]",
          "name": "receiptIds",
          "type": "uint256[]"
        }
      ],
      "name": "withdrawFromBatch",
      "outputs": [],
      "stateMutability": "nonpayable",
      "type": "function"
    },
    {
      "inputs": [
        {
          "internalType": "address",
          "name": "depositToken",
          "type": "address"
        },
        {
          "internalType": "uint256",
          "name": "_amount",
          "type": "uint256"
        }
      ],
      "name": "depositToBatch",
      "outputs": [],
      "stateMutability": "nonpayable",
      "type": "function"
    },
    {
      "inputs": [
        {
          "internalType": "address",
          "name": "tokenAddress",
          "type": "address"
        },
        {
          "internalType": "bool",
          "name": "supported",
          "type": "bool"
        }
      ],
      "name": "setSupportedToken",
      "outputs": [],
      "stateMutability": "nonpayable",
      "type": "function"
    },
    {
      "inputs": [
        {
          "internalType": "address",
          "name": "_feeAddress",
          "type": "address"
        }
      ],
      "name": "setFeesCollectionAddress",
      "outputs": [],
      "stateMutability": "nonpayable",
      "type": "function"
    },
    {
      "inputs": [
        {
          "internalType": "uint256",
          "name": "percent",
          "type": "uint256"
        }
      ],
      "name": "setFeesPercent",
      "outputs": [],
      "stateMutability": "nonpayable",
      "type": "function"
    },
    {
      "inputs": [
        {
          "internalType": "uint256",
          "name": "amount",
          "type": "uint256"
        }
      ],
      "name": "setMinUsdPerCycle",
      "outputs": [],
      "stateMutability": "nonpayable",
      "type": "function"
    },
    {
      "inputs": [
        {
          "internalType": "uint256",
          "name": "amount",
          "type": "uint256"
        }
      ],
      "name": "setMinDepositUsd",
      "outputs": [],
      "stateMutability": "nonpayable",
      "type": "function"
    },
    {
      "inputs": [
        {
          "internalType": "uint256",
          "name": "duration",
          "type": "uint256"
        }
      ],
      "name": "setCycleDuration",
      "outputs": [],
      "stateMutability": "nonpayable",
      "type": "function"
    },
    {
      "inputs": [
        {
          "internalType": "address",
          "name": "_strategyAddress",
          "type": "address"
        },
        {
          "internalType": "address",
          "name": "_depositTokenAddress",
          "type": "address"
        },
        {
          "internalType": "uint256",
          "name": "_weight",
          "type": "uint256"
        }
      ],
      "name": "addStrategy",
      "outputs": [],
      "stateMutability": "nonpayable",
      "type": "function"
    },
    {
      "inputs": [
        {
          "internalType": "uint256",
          "name": "_strategyId",
          "type": "uint256"
        },
        {
          "internalType": "uint256",
          "name": "_weight",
          "type": "uint256"
        }
      ],
      "name": "updateStrategy",
      "outputs": [],
      "stateMutability": "nonpayable",
      "type": "function"
    },
    {
      "inputs": [
        {
          "internalType": "uint256",
          "name": "_strategyId",
          "type": "uint256"
        }
      ],
      "name": "removeStrategy",
      "outputs": [],
      "stateMutability": "nonpayable",
      "type": "function"
    },
    {
      "inputs": [],
      "name": "rebalanceBatch",
      "outputs": [
        {
          "internalType": "uint256[]",
          "name": "balances",
          "type": "uint256[]"
        }
      ],
      "stateMutability": "nonpayable",
      "type": "function"
    },
    {
      "inputs": [],
      "name": "rebalanceStrategies",
      "outputs": [
        {
          "internalType": "uint256[]",
          "name": "balances",
          "type": "uint256[]"
        }
      ],
      "stateMutability": "nonpayable",
      "type": "function"
    },
    {
      "inputs": [
        {
          "internalType": "address",
          "name": "moderator",
          "type": "address"
        },
        {
          "internalType": "bool",
          "name": "isWhitelisted",
          "type": "bool"
        }
      ],
      "name": "setModerator",
      "outputs": [],
      "stateMutability": "nonpayable",
      "type": "function"
    }
  ],
  "bytecode": "0x60806040523480156200001157600080fd5b5062000032620000266200005a60201b60201c565b6200006260201b60201c565b62000054620000466200005a60201b60201c565b60016200012660201b60201c565b62000467565b600033905090565b60008060009054906101000a900473ffffffffffffffffffffffffffffffffffffffff169050816000806101000a81548173ffffffffffffffffffffffffffffffffffffffff021916908373ffffffffffffffffffffffffffffffffffffffff1602179055508173ffffffffffffffffffffffffffffffffffffffff168173ffffffffffffffffffffffffffffffffffffffff167f8be0079c531659141344cd1fd0a4f28419497f9722a3daafe3b4186f6b6457e060405160405180910390a35050565b600073ffffffffffffffffffffffffffffffffffffffff168273ffffffffffffffffffffffffffffffffffffffff160362000198576040517f08c379a00000000000000000000000000000000000000000000000000000000081526004016200018f9062000361565b60405180910390fd5b6000620001aa6200029d60201b60201c565b90508115620001fd578015620001f7576040517f08c379a0000000000000000000000000000000000000000000000000000000008152600401620001ee90620003d3565b60405180910390fd5b62000241565b8062000240576040517f08c379a0000000000000000000000000000000000000000000000000000000008152600401620002379062000445565b60405180910390fd5b5b81600160008573ffffffffffffffffffffffffffffffffffffffff1673ffffffffffffffffffffffffffffffffffffffff16815260200190815260200160002060006101000a81548160ff021916908315150217905550505050565b600060016000620002b36200005a60201b60201c565b73ffffffffffffffffffffffffffffffffffffffff1673ffffffffffffffffffffffffffffffffffffffff16815260200190815260200160002060009054906101000a900460ff16905090565b600082825260208201905092915050565b7f5a65726f20616464726573730000000000000000000000000000000000000000600082015250565b600062000349600c8362000300565b9150620003568262000311565b602082019050919050565b600060208201905081810360008301526200037c816200033a565b9050919050565b7f616c72656164792077686974656c697374656400000000000000000000000000600082015250565b6000620003bb60138362000300565b9150620003c88262000383565b602082019050919050565b60006020820190508181036000830152620003ee81620003ac565b9050919050565b7f4e6f742077686974656c69737465640000000000000000000000000000000000600082015250565b60006200042d600f8362000300565b91506200043a82620003f5565b602082019050919050565b6000602082019050818103600083015262000460816200041e565b9050919050565b615ebe80620004776000396000f3fe608060405234801561001057600080fd5b506004361061028a5760003560e01c80638cc239341161015c578063c0cbbca6116100ce578063e51f4d5b11610087578063e51f4d5b1461077e578063e7986466146107ae578063ea92d190146107ca578063f2fde38b146107e8578063f67a48d214610804578063f807cd22146108205761028a565b8063c0cbbca6146106ba578063d2f7265a146106d6578063d3c7c2c7146106f4578063d574ea3d14610712578063da55c90314610744578063e1518136146107625761028a565b8063a8c3a4dc11610120578063a8c3a4dc146105e1578063aaacdda0146105fd578063ae48242d1461061b578063afbce3b914610639578063b49a60bb1461066c578063b93caffc1461068a5761028a565b80638cc239341461054f5780638da5cb5b1461056b5780638f6a49a1146105895780639b05ddb3146105a7578063a4b5f93b146105b15761028a565b80634ebc20b8116102005780636863a895116101b95780636863a895146104b5578063715018a6146104e557806373b69321146104ef5780637e9abcd31461050b5780637fd6f15c1461052757806382571195146105455761028a565b80634ebc20b8146103f45780634ff1894f1461041357806356c099781461042f5780635bec4cb41461045f5780635dd68acd1461047d5780636502b327146104995761028a565b80631941278911610252578063194127891461035a5780631c0a2cac146103645780633ee2b01d14610380578063412753581461039c57806341b3d185146103ba5780634b704acd146103d85761028a565b8063061f76501461028f5780630d04e387146102bf57806313669f6c146102de57806314d0f1ba1461030e5780631711c9ce1461033e575b600080fd5b6102a960048036038101906102a49190614556565b61083e565b6040516102b6919061459e565b60405180910390f35b6102c76108e3565b6040516102d5929190614690565b60405180910390f35b6102f860048036038101906102f391906146ec565b610985565b6040516103059190614719565b60405180910390f35b61032860048036038101906103239190614556565b610999565b604051610335919061459e565b60405180910390f35b61035860048036038101906103539190614799565b6109b9565b005b610362610a52565b005b61037e600480360381019061037991906147e6565b611478565b005b61039a60048036038101906103959190614852565b611604565b005b6103a461161a565b6040516103b191906148a1565b60405180910390f35b6103c2611640565b6040516103cf9190614719565b60405180910390f35b6103f260048036038101906103ed91906148bc565b611646565b005b6103fc6118e0565b60405161040a929190614690565b60405180910390f35b61042d6004803603810190610428919061490f565b611992565b005b61044960048036038101906104449190614799565b611f18565b6040516104569190614719565b60405180910390f35b6104676120ba565b6040516104749190614719565b60405180910390f35b61049760048036038101906104929190614ab9565b6120c0565b005b6104b360048036038101906104ae9190614b34565b612253565b005b6104cf60048036038101906104ca91906146ec565b612289565b6040516104dc9190614719565b60405180910390f35b6104ed6123b2565b005b610509600480360381019061050491906146ec565b6123c6565b005b610525600480360381019061052091906146ec565b612495565b005b61052f6124de565b60405161053c9190614719565b60405180910390f35b61054d6124e4565b005b610569600480360381019061056491906146ec565b612513565b005b61057361255c565b60405161058091906148a1565b60405180910390f35b610591612585565b60405161059e9190614719565b60405180910390f35b6105af612592565b005b6105cb60048036038101906105c691906146ec565b612700565b6040516105d891906148a1565b60405180910390f35b6105fb60048036038101906105f691906146ec565b61274f565b005b610605612798565b6040516106129190614719565b60405180910390f35b61062361279e565b6040516106309190614b74565b60405180910390f35b610653600480360381019061064e91906146ec565b61284f565b6040516106639493929190614b96565b60405180910390f35b61067461287f565b6040516106819190614cdb565b60405180910390f35b6106a4600480360381019061069f9190614799565b612994565b6040516106b19190614719565b60405180910390f35b6106d460048036038101906106cf91906146ec565b612a98565b005b6106de6131d5565b6040516106eb9190614d5c565b60405180910390f35b6106fc6131fb565b6040516107099190614e26565b60405180910390f35b61072c600480360381019061072791906146ec565b613298565b60405161073b93929190614e48565b60405180910390f35b61074c613312565b6040516107599190614719565b60405180910390f35b61077c60048036038101906107779190614556565b613318565b005b610798600480360381019061079391906146ec565b6133d4565b6040516107a59190614719565b60405180910390f35b6107c860048036038101906107c39190614852565b6134bd565b005b6107d2613558565b6040516107df9190614b74565b60405180910390f35b61080260048036038101906107fd9190614556565b6135ff565b005b61081e60048036038101906108199190614799565b613682565b005b6108286137cc565b6040516108359190614d5c565b60405180910390f35b6000600b60009054906101000a900473ffffffffffffffffffffffffffffffffffffffff1673ffffffffffffffffffffffffffffffffffffffff1663061f7650836040518263ffffffff1660e01b815260040161089b91906148a1565b602060405180830381865afa1580156108b8573d6000803e3d6000fd5b505050506040513d601f19601f820116820180604052508101906108dc9190614e94565b9050919050565b60006060600b60009054906101000a900473ffffffffffffffffffffffffffffffffffffffff1673ffffffffffffffffffffffffffffffffffffffff16630d04e3876040518163ffffffff1660e01b8152600401600060405180830381865afa158015610954573d6000803e3d6000fd5b505050506040513d6000823e3d601f19601f8201168201806040525081019061097d9190615025565b915091509091565b600061099282600d6137f6565b9050919050565b60016020528060005260406000206000915054906101000a900460ff1681565b600b60009054906101000a900473ffffffffffffffffffffffffffffffffffffffff1673ffffffffffffffffffffffffffffffffffffffff16638db777313384846006546040518563ffffffff1660e01b8152600401610a1c94939291906150f1565b600060405180830381600087803b158015610a3657600080fd5b505af1158015610a4a573d6000803e3d6000fd5b505050505050565b600060065490506000610a636108e3565b50905042600254600e600085815260200190815260200160002060000154610a8b9190615160565b118015610a99575060035481105b15610ad0576040517f4b1e480600000000000000000000000000000000000000000000000000000000815260040160405180910390fd5b6000610ada6131fb565b905060005b8151811015610cf4576000828281518110610afd57610afc6151b6565b5b602002602001015173ffffffffffffffffffffffffffffffffffffffff166370a08231600b60009054906101000a900473ffffffffffffffffffffffffffffffffffffffff166040518263ffffffff1660e01b8152600401610b5f91906148a1565b602060405180830381865afa158015610b7c573d6000803e3d6000fd5b505050506040513d601f19601f82011682018060405250810190610ba091906151e5565b1115610ce157600080600960009054906101000a900473ffffffffffffffffffffffffffffffffffffffff1673ffffffffffffffffffffffffffffffffffffffff1662593bcf858581518110610bf957610bf86151b6565b5b60200260200101516040518263ffffffff1660e01b8152600401610c1d91906148a1565b6040805180830381865afa158015610c39573d6000803e3d6000fd5b505050506040513d601f19601f82011682018060405250810190610c5d919061524b565b91509150610c6d828260126138a0565b600e60008881526020019081526020016000206004016000868681518110610c9857610c976151b6565b5b602002602001015173ffffffffffffffffffffffffffffffffffffffff1673ffffffffffffffffffffffffffffffffffffffff1681526020019081526020016000208190555050505b8080610cec9061528b565b915050610adf565b50506000600d80549050905060005b81811015610dc357600d8181548110610d1f57610d1e6151b6565b5b906000526020600020906003020160000160009054906101000a900473ffffffffffffffffffffffffffffffffffffffff1673ffffffffffffffffffffffffffffffffffffffff1663f69e20466040518163ffffffff1660e01b8152600401600060405180830381600087803b158015610d9857600080fd5b505af1158015610dac573d6000803e3d6000fd5b505050508080610dbb9061528b565b915050610d03565b506000610dce6118e0565b5090506000600b60009054906101000a900473ffffffffffffffffffffffffffffffffffffffff1673ffffffffffffffffffffffffffffffffffffffff16637d7c2a1c6040518163ffffffff1660e01b81526004016000604051808303816000875af1158015610e42573d6000803e3d6000fd5b505050506040513d6000823e3d601f19601f82011682018060405250810190610e6b91906152d3565b905060005b838110156110b4576000600d8281548110610e8e57610e8d6151b6565b5b906000526020600020906003020160010160009054906101000a900473ffffffffffffffffffffffffffffffffffffffff1690506000838381518110610ed757610ed66151b6565b5b602002602001015111156110a057600b60009054906101000a900473ffffffffffffffffffffffffffffffffffffffff1673ffffffffffffffffffffffffffffffffffffffff1663beabacc882600d8581548110610f3857610f376151b6565b5b906000526020600020906003020160000160009054906101000a900473ffffffffffffffffffffffffffffffffffffffff16868681518110610f7d57610f7c6151b6565b5b60200260200101516040518463ffffffff1660e01b8152600401610fa393929190614e48565b600060405180830381600087803b158015610fbd57600080fd5b505af1158015610fd1573d6000803e3d6000fd5b50505050600d8281548110610fe957610fe86151b6565b5b906000526020600020906003020160000160009054906101000a900473ffffffffffffffffffffffffffffffffffffffff1673ffffffffffffffffffffffffffffffffffffffff1663b6b55f25848481518110611049576110486151b6565b5b60200260200101516040518263ffffffff1660e01b815260040161106d9190614719565b600060405180830381600087803b15801561108757600080fd5b505af115801561109b573d6000803e3d6000fd5b505050505b5080806110ac9061528b565b915050610e70565b5060006110bf6118e0565b509050600083826110d0919061531c565b90506000600a60009054906101000a900473ffffffffffffffffffffffffffffffffffffffff1673ffffffffffffffffffffffffffffffffffffffff166318160ddd6040518163ffffffff1660e01b8152600401602060405180830381865afa158015611141573d6000803e3d6000fd5b505050506040513d601f19601f8201168201806040525081019061116591906151e5565b9050600081036112cc57600a60009054906101000a900473ffffffffffffffffffffffffffffffffffffffff1673ffffffffffffffffffffffffffffffffffffffff166340c10f1930846040518363ffffffff1660e01b81526004016111cc929190615350565b600060405180830381600087803b1580156111e657600080fd5b505af11580156111fa573d6000803e3d6000fd5b50505050600a60009054906101000a900473ffffffffffffffffffffffffffffffffffffffff1673ffffffffffffffffffffffffffffffffffffffff166318160ddd6040518163ffffffff1660e01b8152600401602060405180830381865afa15801561126b573d6000803e3d6000fd5b505050506040513d601f19601f8201168201806040525081019061128f91906151e5565b670de0b6b3a7640000846112a39190615379565b6112ad9190615402565b600e60008a8152602001908152602001600020600201819055506113cf565b80670de0b6b3a7640000866112e19190615379565b6112eb9190615402565b600e60008a8152602001908152602001600020600201819055506000600e60008a815260200190815260200160002060020154670de0b6b3a7640000846113329190615379565b61133c9190615402565b9050600a60009054906101000a900473ffffffffffffffffffffffffffffffffffffffff1673ffffffffffffffffffffffffffffffffffffffff166340c10f1930836040518363ffffffff1660e01b815260040161139b929190615350565b600060405180830381600087803b1580156113b557600080fd5b505af11580156113c9573d6000803e3d6000fd5b50505050505b81600e60008a81526020019081526020016000206003018190555086600e60008a815260200190815260200160002060010181905550877f9050602c4afcf506208e847e2ba8e1c935dba51897ee6f3aac4cd84f832b7c24836040516114359190614719565b60405180910390a260066000815461144c9061528b565b9190508190555042600e60008a8152602001908152602001600020600001819055505050505050505050565b600b60009054906101000a900473ffffffffffffffffffffffffffffffffffffffff1673ffffffffffffffffffffffffffffffffffffffff166320e8c5653384846006546040518563ffffffff1660e01b81526004016114db9493929190615433565b600060405180830381600087803b1580156114f557600080fd5b505af1158015611509573d6000803e3d6000fd5b505050508173ffffffffffffffffffffffffffffffffffffffff166323b872dd33600b60009054906101000a900473ffffffffffffffffffffffffffffffffffffffff16846040518463ffffffff1660e01b815260040161156c93929190614e48565b6020604051808303816000875af115801561158b573d6000803e3d6000fd5b505050506040513d601f19601f820116820180604052508101906115af9190614e94565b503373ffffffffffffffffffffffffffffffffffffffff167f5548c837ab068cf56a2c2479df0882a4922fd203edb7517321831d95078c5f6283836040516115f8929190615350565b60405180910390a25050565b61160c61391d565b611616828261399b565b5050565b600c60009054906101000a900473ffffffffffffffffffffffffffffffffffffffff1681565b60045481565b61164e61391d565b6116578261083e565b61168d576040517f6a17288200000000000000000000000000000000000000000000000000000000815260040160405180910390fd5b6000600d80549050905060005b8181101561175f578473ffffffffffffffffffffffffffffffffffffffff16600d82815481106116cd576116cc6151b6565b5b906000526020600020906003020160000160009054906101000a900473ffffffffffffffffffffffffffffffffffffffff1673ffffffffffffffffffffffffffffffffffffffff160361174c576040517fcc5fde6900000000000000000000000000000000000000000000000000000000815260040160405180910390fd5b80806117579061528b565b91505061169a565b50600d60405180606001604052808673ffffffffffffffffffffffffffffffffffffffff1681526020018673ffffffffffffffffffffffffffffffffffffffff1663c89039c56040518163ffffffff1660e01b8152600401602060405180830381865afa1580156117d4573d6000803e3d6000fd5b505050506040513d601f19601f820116820180604052508101906117f8919061548d565b73ffffffffffffffffffffffffffffffffffffffff16815260200184815250908060018154018082558091505060019003906000526020600020906003020160009091909190915060008201518160000160006101000a81548173ffffffffffffffffffffffffffffffffffffffff021916908373ffffffffffffffffffffffffffffffffffffffff16021790555060208201518160010160006101000a81548173ffffffffffffffffffffffffffffffffffffffff021916908373ffffffffffffffffffffffffffffffffffffffff16021790555060408201518160020155505050505050565b6000606073__StrategyRouterLib_____________________63c752ec77600960009054906101000a900473ffffffffffffffffffffffffffffffffffffffff16600d6040518363ffffffff1660e01b81526004016119409291906154e2565b600060405180830381865af415801561195d573d6000803e3d6000fd5b505050506040513d6000823e3d601f19601f820116820180604052508101906119869190615025565b80925081935050509091565b600081036119cc576040517ff9acdc6100000000000000000000000000000000000000000000000000000000815260040160405180910390fd5b6119d58261083e565b611a0b576040517f6a17288200000000000000000000000000000000000000000000000000000000815260040160405180910390fd5b6000600760009054906101000a900473ffffffffffffffffffffffffffffffffffffffff16905060006006549050600080600090505b87879050811015611dc2576000888883818110611a6157611a606151b6565b5b9050602002013590503373ffffffffffffffffffffffffffffffffffffffff168573ffffffffffffffffffffffffffffffffffffffff16636352211e836040518263ffffffff1660e01b8152600401611aba9190614719565b602060405180830381865afa158015611ad7573d6000803e3d6000fd5b505050506040513d601f19601f82011682018060405250810190611afb919061548d565b73ffffffffffffffffffffffffffffffffffffffff1614611b48576040517faef2965e00000000000000000000000000000000000000000000000000000000815260040160405180910390fd5b600073__StrategyRouterLib_____________________6330ce7926838789600e6040518563ffffffff1660e01b8152600401611b889493929190615542565b602060405180830381865af4158015611ba5573d6000803e3d6000fd5b505050506040513d601f19601f82011682018060405250810190611bc991906151e5565b90508084611bd79190615160565b935086841115611d335760008785611bef919061531c565b90508085611bfd919061531c565b94506000600760009054906101000a900473ffffffffffffffffffffffffffffffffffffffff1673ffffffffffffffffffffffffffffffffffffffff1663b63e6ac3856040518263ffffffff1660e01b8152600401611c5c9190614719565b606060405180830381865afa158015611c79573d6000803e3d6000fd5b505050506040513d601f19601f82011682018060405250810190611c9d91906155f0565b9050600083838360200151611cb29190615379565b611cbc9190615402565b90508873ffffffffffffffffffffffffffffffffffffffff1663c6a023e986836040518363ffffffff1660e01b8152600401611cf992919061561d565b600060405180830381600087803b158015611d1357600080fd5b505af1158015611d27573d6000803e3d6000fd5b50505050505050611d9f565b8573ffffffffffffffffffffffffffffffffffffffff166342966c68836040518263ffffffff1660e01b8152600401611d6c9190614719565b600060405180830381600087803b158015611d8657600080fd5b505af1158015611d9a573d6000803e3d6000fd5b505050505b868403611dad575050611dc2565b50508080611dba9061528b565b915050611a41565b5083811015611e6857600a60009054906101000a900473ffffffffffffffffffffffffffffffffffffffff1673ffffffffffffffffffffffffffffffffffffffff16633e4b96f733308488611e17919061531c565b6040518463ffffffff1660e01b8152600401611e3593929190614e48565b600060405180830381600087803b158015611e4f57600080fd5b505af1158015611e63573d6000803e3d6000fd5b505050505b6000611e7385612289565b9050600a60009054906101000a900473ffffffffffffffffffffffffffffffffffffffff1673ffffffffffffffffffffffffffffffffffffffff16639dc29fac30876040518363ffffffff1660e01b8152600401611ed2929190615350565b600060405180830381600087803b158015611eec57600080fd5b505af1158015611f00573d6000803e3d6000fd5b50505050611f0e8187613aff565b5050505050505050565b600073__StrategyRouterLib_____________________63df6ed7d98484600654600760009054906101000a900473ffffffffffffffffffffffffffffffffffffffff16600e6040518663ffffffff1660e01b8152600401611f7e9594939291906156b3565b602060405180830381865af4158015611f9b573d6000803e3d6000fd5b505050506040513d601f19601f82011682018060405250810190611fbf91906151e5565b9050600a60009054906101000a900473ffffffffffffffffffffffffffffffffffffffff1673ffffffffffffffffffffffffffffffffffffffff1663a9059cbb33836040518363ffffffff1660e01b815260040161201e929190615350565b6020604051808303816000875af115801561203d573d6000803e3d6000fd5b505050506040513d601f19601f820116820180604052508101906120619190614e94565b503373ffffffffffffffffffffffffffffffffffffffff167fe0b02703cefb9a8f9de0632e77e258c217e450c01adf4d1d1a4a0da289cbb3e28285856040516120ac93929190615701565b60405180910390a292915050565b60025481565b6120c861391d565b84600860006101000a81548173ffffffffffffffffffffffffffffffffffffffff021916908373ffffffffffffffffffffffffffffffffffffffff16021790555083600960006101000a81548173ffffffffffffffffffffffffffffffffffffffff021916908373ffffffffffffffffffffffffffffffffffffffff16021790555082600a60006101000a81548173ffffffffffffffffffffffffffffffffffffffff021916908373ffffffffffffffffffffffffffffffffffffffff16021790555081600b60006101000a81548173ffffffffffffffffffffffffffffffffffffffff021916908373ffffffffffffffffffffffffffffffffffffffff16021790555080600760006101000a81548173ffffffffffffffffffffffffffffffffffffffff021916908373ffffffffffffffffffffffffffffffffffffffff1602179055507fa10c70a2559ee9a0e78e9836ab24a7ae0783080a0489eb6885aab330c8935dff8585858585604051612244959493929190615793565b60405180910390a15050505050565b61225b61391d565b80600d83815481106122705761226f6151b6565b5b9060005260206000209060030201600201819055505050565b600080600a60009054906101000a900473ffffffffffffffffffffffffffffffffffffffff1673ffffffffffffffffffffffffffffffffffffffff166318160ddd6040518163ffffffff1660e01b8152600401602060405180830381865afa1580156122f9573d6000803e3d6000fd5b505050506040513d601f19601f8201168201806040525081019061231d91906151e5565b905080831115612359576040517f41d97ee700000000000000000000000000000000000000000000000000000000815260040160405180910390fd5b60006123636118e0565b509050600082670de0b6b3a76400008361237d9190615379565b6123879190615402565b9050670de0b6b3a7640000818661239e9190615379565b6123a89190615402565b9350505050919050565b6123ba61391d565b6123c460006141f0565b565b6123ce61391d565b600b60009054906101000a900473ffffffffffffffffffffffffffffffffffffffff1673ffffffffffffffffffffffffffffffffffffffff166373b69321826040518263ffffffff1660e01b81526004016124299190614719565b600060405180830381600087803b15801561244357600080fd5b505af1158015612457573d6000803e3d6000fd5b505050507f8335b9d95c5f85895bf6ed3f9d159211b514ab77f7e20509e553c657cfa39b4e8160405161248a9190614719565b60405180910390a150565b61249d61391d565b806005819055507f54b9dbb1167ce9a1e141b9c71f73394e64bf53da85077b4bcdcff626ba943f58816040516124d39190614719565b60405180910390a150565b60055481565b6124ec61391d565b42600e60008081526020019081526020016000206000018190555062015180600281905550565b61251b61391d565b806002819055507f48836419bf4e636fd244cf85ef6507ed459662fcf36bd040775e5fb746455f66816040516125519190614719565b60405180910390a150565b60008060009054906101000a900473ffffffffffffffffffffffffffffffffffffffff16905090565b6000600d80549050905090565b6000600a60009054906101000a900473ffffffffffffffffffffffffffffffffffffffff1673ffffffffffffffffffffffffffffffffffffffff166318160ddd6040518163ffffffff1660e01b8152600401602060405180830381865afa158015612601573d6000803e3d6000fd5b505050506040513d601f19601f8201168201806040525081019061262591906151e5565b0361262f57600080fd5b6000600d80549050905060005b818110156126fc57600d8181548110612658576126576151b6565b5b906000526020600020906003020160000160009054906101000a900473ffffffffffffffffffffffffffffffffffffffff1673ffffffffffffffffffffffffffffffffffffffff1663f69e20466040518163ffffffff1660e01b8152600401600060405180830381600087803b1580156126d157600080fd5b505af11580156126e5573d6000803e3d6000fd5b5050505080806126f49061528b565b91505061263c565b5050565b6000600d8281548110612716576127156151b6565b5b906000526020600020906003020160010160009054906101000a900473ffffffffffffffffffffffffffffffffffffffff169050919050565b61275761391d565b806003819055507fc2a104c90d506191cfd8880d5f25e266372dc979de6702e8528115e94302b4ea8160405161278d9190614719565b60405180910390a150565b60065481565b60606127a861391d565b73__StrategyRouterLib_____________________63ca29e509600860009054906101000a900473ffffffffffffffffffffffffffffffffffffffff16600d6040518363ffffffff1660e01b81526004016128049291906157f5565b600060405180830381865af4158015612821573d6000803e3d6000fd5b505050506040513d6000823e3d601f19601f8201168201806040525081019061284a91906152d3565b905090565b600e6020528060005260406000206000915090508060000154908060010154908060020154908060030154905084565b6060600d805480602002602001604051908101604052809291908181526020016000905b8282101561298b57838290600052602060002090600302016040518060600160405290816000820160009054906101000a900473ffffffffffffffffffffffffffffffffffffffff1673ffffffffffffffffffffffffffffffffffffffff1673ffffffffffffffffffffffffffffffffffffffff1681526020016001820160009054906101000a900473ffffffffffffffffffffffffffffffffffffffff1673ffffffffffffffffffffffffffffffffffffffff1673ffffffffffffffffffffffffffffffffffffffff168152602001600282015481525050815260200190600101906128a3565b50505050905090565b600080600760009054906101000a900473ffffffffffffffffffffffffffffffffffffffff1690506000600654905060005b85859050811015612a8f5760008686838181106129e6576129e56151b6565b5b90506020020135905073__StrategyRouterLib_____________________6330ce7926828587600e6040518563ffffffff1660e01b8152600401612a2d9493929190615542565b602060405180830381865af4158015612a4a573d6000803e3d6000fd5b505050506040513d601f19601f82011682018060405250810190612a6e91906151e5565b85612a799190615160565b9450508080612a879061528b565b9150506129c6565b50505092915050565b612aa061391d565b6002600d805490501015612ae0576040517f39911ef300000000000000000000000000000000000000000000000000000000815260040160405180910390fd5b6000600d8281548110612af657612af56151b6565b5b90600052602060002090600302016040518060600160405290816000820160009054906101000a900473ffffffffffffffffffffffffffffffffffffffff1673ffffffffffffffffffffffffffffffffffffffff1673ffffffffffffffffffffffffffffffffffffffff1681526020016001820160009054906101000a900473ffffffffffffffffffffffffffffffffffffffff1673ffffffffffffffffffffffffffffffffffffffff1673ffffffffffffffffffffffffffffffffffffffff168152602001600282015481525050905060008160000151905060008260200151905060006001600d80549050612bed919061531c565b9050600d8181548110612c0357612c026151b6565b5b9060005260206000209060030201600d8681548110612c2557612c246151b6565b5b90600052602060002090600302016000820160009054906101000a900473ffffffffffffffffffffffffffffffffffffffff168160000160006101000a81548173ffffffffffffffffffffffffffffffffffffffff021916908373ffffffffffffffffffffffffffffffffffffffff1602179055506001820160009054906101000a900473ffffffffffffffffffffffffffffffffffffffff168160010160006101000a81548173ffffffffffffffffffffffffffffffffffffffff021916908373ffffffffffffffffffffffffffffffffffffffff16021790555060028201548160020155905050600d805480612d2057612d1f61581e565b5b6001900381819060005260206000209060030201600080820160006101000a81549073ffffffffffffffffffffffffffffffffffffffff02191690556001820160006101000a81549073ffffffffffffffffffffffffffffffffffffffff02191690556002820160009055505090558273ffffffffffffffffffffffffffffffffffffffff1663f69e20466040518163ffffffff1660e01b8152600401600060405180830381600087803b158015612dd757600080fd5b505af1158015612deb573d6000803e3d6000fd5b5050505060008373ffffffffffffffffffffffffffffffffffffffff1663853828b66040518163ffffffff1660e01b81526004016020604051808303816000875af1158015612e3e573d6000803e3d6000fd5b505050506040513d601f19601f82011682018060405250810190612e6291906151e5565b905060005b82811015612f2757600d8181548110612e8357612e826151b6565b5b906000526020600020906003020160000160009054906101000a900473ffffffffffffffffffffffffffffffffffffffff1673ffffffffffffffffffffffffffffffffffffffff1663f69e20466040518163ffffffff1660e01b8152600401600060405180830381600087803b158015612efc57600080fd5b505af1158015612f10573d6000803e3d6000fd5b505050508080612f1f9061528b565b915050612e67565b5060005b82811015613161576000670de0b6b3a7640000612f4783610985565b84612f529190615379565b612f5c9190615402565b90506000600d8381548110612f7457612f736151b6565b5b906000526020600020906003020160010160009054906101000a900473ffffffffffffffffffffffffffffffffffffffff169050612fd6600860009054906101000a900473ffffffffffffffffffffffffffffffffffffffff168388846142b4565b91508073ffffffffffffffffffffffffffffffffffffffff1663a9059cbb600d8581548110613008576130076151b6565b5b906000526020600020906003020160000160009054906101000a900473ffffffffffffffffffffffffffffffffffffffff16846040518363ffffffff1660e01b8152600401613058929190615350565b6020604051808303816000875af1158015613077573d6000803e3d6000fd5b505050506040513d601f19601f8201168201806040525081019061309b9190614e94565b50600d83815481106130b0576130af6151b6565b5b906000526020600020906003020160000160009054906101000a900473ffffffffffffffffffffffffffffffffffffffff1673ffffffffffffffffffffffffffffffffffffffff1663b6b55f25836040518263ffffffff1660e01b815260040161311a9190614719565b600060405180830381600087803b15801561313457600080fd5b505af1158015613148573d6000803e3d6000fd5b50505050505080806131599061528b565b915050612f2b565b508373ffffffffffffffffffffffffffffffffffffffff1663f2fde38b336040518263ffffffff1660e01b815260040161319b91906148a1565b600060405180830381600087803b1580156131b557600080fd5b505af11580156131c9573d6000803e3d6000fd5b50505050505050505050565b600860009054906101000a900473ffffffffffffffffffffffffffffffffffffffff1681565b6060600b60009054906101000a900473ffffffffffffffffffffffffffffffffffffffff1673ffffffffffffffffffffffffffffffffffffffff1663d3c7c2c76040518163ffffffff1660e01b8152600401600060405180830381865afa15801561326a573d6000803e3d6000fd5b505050506040513d6000823e3d601f19601f820116820180604052508101906132939190615910565b905090565b600d81815481106132a857600080fd5b90600052602060002090600302016000915090508060000160009054906101000a900473ffffffffffffffffffffffffffffffffffffffff16908060010160009054906101000a900473ffffffffffffffffffffffffffffffffffffffff16908060020154905083565b60035481565b61332061391d565b600073ffffffffffffffffffffffffffffffffffffffff168173ffffffffffffffffffffffffffffffffffffffff160361335957600080fd5b80600c60006101000a81548173ffffffffffffffffffffffffffffffffffffffff021916908373ffffffffffffffffffffffffffffffffffffffff1602179055507ffcb8a963756b148f85a52537b63147b6c4b40af694099c901ac3b99d317a2db8816040516133c991906148a1565b60405180910390a150565b6000806133df6118e0565b5090506000600a60009054906101000a900473ffffffffffffffffffffffffffffffffffffffff1673ffffffffffffffffffffffffffffffffffffffff166318160ddd6040518163ffffffff1660e01b8152600401602060405180830381865afa158015613451573d6000803e3d6000fd5b505050506040513d601f19601f8201168201806040525081019061347591906151e5565b670de0b6b3a7640000836134899190615379565b6134939190615402565b905080670de0b6b3a7640000856134aa9190615379565b6134b49190615402565b92505050919050565b6134c561391d565b600b60009054906101000a900473ffffffffffffffffffffffffffffffffffffffff1673ffffffffffffffffffffffffffffffffffffffff1663e798646683836040518363ffffffff1660e01b8152600401613522929190615959565b600060405180830381600087803b15801561353c57600080fd5b505af1158015613550573d6000803e3d6000fd5b505050505050565b606061356261391d565b600b60009054906101000a900473ffffffffffffffffffffffffffffffffffffffff1673ffffffffffffffffffffffffffffffffffffffff16637d7c2a1c6040518163ffffffff1660e01b81526004016000604051808303816000875af11580156135d1573d6000803e3d6000fd5b505050506040513d6000823e3d601f19601f820116820180604052508101906135fa91906152d3565b905090565b61360761391d565b600073ffffffffffffffffffffffffffffffffffffffff168173ffffffffffffffffffffffffffffffffffffffff1603613676576040517f08c379a000000000000000000000000000000000000000000000000000000000815260040161366d90615a05565b60405180910390fd5b61367f816141f0565b50565b61368a6143fd565b6136c0576040517feaa45d6a00000000000000000000000000000000000000000000000000000000815260040160405180910390fd5b73__StrategyRouterLib_____________________631033a4a28383600654600760009054906101000a900473ffffffffffffffffffffffffffffffffffffffff16600a60009054906101000a900473ffffffffffffffffffffffffffffffffffffffff16600e6040518763ffffffff1660e01b815260040161374896959493929190615a34565b60006040518083038186803b15801561376057600080fd5b505af4158015613774573d6000803e3d6000fd5b505050503373ffffffffffffffffffffffffffffffffffffffff167f1ea9832714787d86443a74dc04c6faae554c37128086e2942302cce7d9e8193283836040516137c0929190615a90565b60405180910390a25050565b6000600860009054906101000a900473ffffffffffffffffffffffffffffffffffffffff16905090565b60008060008380549050905060005b81811015613852578481815481106138205761381f6151b6565b5b9060005260206000209060030201600201548361383d9190615160565b9250808061384a9061528b565b915050613805565b5081670de0b6b3a76400008587815481106138705761386f6151b6565b5b90600052602060002090600302016002015461388c9190615379565b6138969190615402565b9250505092915050565b60008160ff168360ff1610156138da5782826138bc9190615ab4565b600a6138c89190615c1b565b846138d39190615379565b9050613916565b8160ff168360ff1611156139125781836138f49190615ab4565b600a6139009190615c1b565b8461390b9190615402565b9050613916565b8390505b9392505050565b613925614458565b73ffffffffffffffffffffffffffffffffffffffff1661394361255c565b73ffffffffffffffffffffffffffffffffffffffff1614613999576040517f08c379a000000000000000000000000000000000000000000000000000000000815260040161399090615cb2565b60405180910390fd5b565b600073ffffffffffffffffffffffffffffffffffffffff168273ffffffffffffffffffffffffffffffffffffffff1603613a0a576040517f08c379a0000000000000000000000000000000000000000000000000000000008152600401613a0190615d1e565b60405180910390fd5b6000613a146143fd565b90508115613a62578015613a5d576040517f08c379a0000000000000000000000000000000000000000000000000000000008152600401613a5490615d8a565b60405180910390fd5b613aa3565b80613aa2576040517f08c379a0000000000000000000000000000000000000000000000000000000008152600401613a9990615df6565b60405180910390fd5b5b81600160008573ffffffffffffffffffffffffffffffffffffffff1673ffffffffffffffffffffffffffffffffffffffff16815260200190815260200160002060006101000a81548160ff021916908315150217905550505050565b6000613b096118e0565b9150506000600d8054905090506000807fffffffffffffffffffffffffffffffffffffffffffffffffffffffffffffffff905060005b83811015613c03576000600d8281548110613b5d57613b5c6151b6565b5b906000526020600020906003020160010160009054906101000a900473ffffffffffffffffffffffffffffffffffffffff16905087868381518110613ba557613ba46151b6565b5b602002602001015110613bef578192508673ffffffffffffffffffffffffffffffffffffffff168173ffffffffffffffffffffffffffffffffffffffff1603613bee5750613c03565b5b508080613bfb9061528b565b915050613b3f565b507fffffffffffffffffffffffffffffffffffffffffffffffffffffffffffffffff8114613e76576000600d8281548110613c4157613c406151b6565b5b906000526020600020906003020160010160009054906101000a900473ffffffffffffffffffffffffffffffffffffffff169050600080600960009054906101000a900473ffffffffffffffffffffffffffffffffffffffff1673ffffffffffffffffffffffffffffffffffffffff1662593bcf846040518263ffffffff1660e01b8152600401613cd291906148a1565b6040805180830381865afa158015613cee573d6000803e3d6000fd5b505050506040513d601f19601f82011682018060405250810190613d12919061524b565b915091508181600a613d249190615c1b565b8a613d2f9190615379565b613d399190615402565b9450613d458584614460565b9450600d8481548110613d5b57613d5a6151b6565b5b906000526020600020906003020160000160009054906101000a900473ffffffffffffffffffffffffffffffffffffffff1673ffffffffffffffffffffffffffffffffffffffff16632e1a7d4d866040518263ffffffff1660e01b8152600401613dc59190614719565b6020604051808303816000875af1158015613de4573d6000803e3d6000fd5b505050506040513d601f19601f82011682018060405250810190613e0891906151e5565b94508773ffffffffffffffffffffffffffffffffffffffff168373ffffffffffffffffffffffffffffffffffffffff1614613e6e57613e6b600860009054906101000a900473ffffffffffffffffffffffffffffffffffffffff1686858b6142b4565b94505b600098505050505b600086146141195760005b83811015614117576000600d8281548110613e9f57613e9e6151b6565b5b906000526020600020906003020160010160009054906101000a900473ffffffffffffffffffffffffffffffffffffffff1690506000806000600960009054906101000a900473ffffffffffffffffffffffffffffffffffffffff1673ffffffffffffffffffffffffffffffffffffffff1662593bcf856040518263ffffffff1660e01b8152600401613f3291906148a1565b6040805180830381865afa158015613f4e573d6000803e3d6000fd5b505050506040513d601f19601f82011682018060405250810190613f72919061524b565b915091508a898681518110613f8a57613f896151b6565b5b602002602001015110613f9d578a613fb9565b888581518110613fb057613faf6151b6565b5b60200260200101515b9250828b039a508181600a613fce9190615c1b565b84613fd99190615379565b613fe39190615402565b9250613fef8385614460565b9250600d8581548110614005576140046151b6565b5b906000526020600020906003020160000160009054906101000a900473ffffffffffffffffffffffffffffffffffffffff1673ffffffffffffffffffffffffffffffffffffffff16632e1a7d4d846040518263ffffffff1660e01b815260040161406f9190614719565b6020604051808303816000875af115801561408e573d6000803e3d6000fd5b505050506040513d601f19601f820116820180604052508101906140b291906151e5565b92506140e2600860009054906101000a900473ffffffffffffffffffffffffffffffffffffffff1684868d6142b4565b876140ed9190615160565b965060008b036141005750505050614117565b50505050808061410f9061528b565b915050613e81565b505b8473ffffffffffffffffffffffffffffffffffffffff1663a9059cbb33846040518363ffffffff1660e01b8152600401614154929190615350565b6020604051808303816000875af1158015614173573d6000803e3d6000fd5b505050506040513d601f19601f820116820180604052508101906141979190614e94565b503373ffffffffffffffffffffffffffffffffffffffff167fc024f8f3e7b557f9f59d1cd7148d83fb9d36683f4058cc1f3ee7c59c95b0d67a86846040516141e0929190615350565b60405180910390a2505050505050565b60008060009054906101000a900473ffffffffffffffffffffffffffffffffffffffff169050816000806101000a81548173ffffffffffffffffffffffffffffffffffffffff021916908373ffffffffffffffffffffffffffffffffffffffff1602179055508173ffffffffffffffffffffffffffffffffffffffff168173ffffffffffffffffffffffffffffffffffffffff167f8be0079c531659141344cd1fd0a4f28419497f9722a3daafe3b4186f6b6457e060405160405180910390a35050565b60008173ffffffffffffffffffffffffffffffffffffffff168373ffffffffffffffffffffffffffffffffffffffff16146143f1578273ffffffffffffffffffffffffffffffffffffffff1663a9059cbb86866040518363ffffffff1660e01b8152600401614324929190615350565b6020604051808303816000875af1158015614343573d6000803e3d6000fd5b505050506040513d601f19601f820116820180604052508101906143679190614e94565b508473ffffffffffffffffffffffffffffffffffffffff166388156e65858585306040518563ffffffff1660e01b81526004016143a79493929190615e16565b6020604051808303816000875af11580156143c6573d6000803e3d6000fd5b505050506040513d601f19601f820116820180604052508101906143ea91906151e5565b90506143f5565b8390505b949350505050565b60006001600061440b614458565b73ffffffffffffffffffffffffffffffffffffffff1673ffffffffffffffffffffffffffffffffffffffff16815260200190815260200160002060009054906101000a900460ff16905090565b600033905090565b60006144dc8360128473ffffffffffffffffffffffffffffffffffffffff1663313ce5676040518163ffffffff1660e01b8152600401602060405180830381865afa1580156144b3573d6000803e3d6000fd5b505050506040513d601f19601f820116820180604052508101906144d79190615e5b565b6138a0565b905092915050565b6000604051905090565b600080fd5b600080fd5b600073ffffffffffffffffffffffffffffffffffffffff82169050919050565b6000614523826144f8565b9050919050565b61453381614518565b811461453e57600080fd5b50565b6000813590506145508161452a565b92915050565b60006020828403121561456c5761456b6144ee565b5b600061457a84828501614541565b91505092915050565b60008115159050919050565b61459881614583565b82525050565b60006020820190506145b3600083018461458f565b92915050565b6000819050919050565b6145cc816145b9565b82525050565b600081519050919050565b600082825260208201905092915050565b6000819050602082019050919050565b614607816145b9565b82525050565b600061461983836145fe565b60208301905092915050565b6000602082019050919050565b600061463d826145d2565b61464781856145dd565b9350614652836145ee565b8060005b8381101561468357815161466a888261460d565b975061467583614625565b925050600181019050614656565b5085935050505092915050565b60006040820190506146a560008301856145c3565b81810360208301526146b78184614632565b90509392505050565b6146c9816145b9565b81146146d457600080fd5b50565b6000813590506146e6816146c0565b92915050565b600060208284031215614702576147016144ee565b5b6000614710848285016146d7565b91505092915050565b600060208201905061472e60008301846145c3565b92915050565b600080fd5b600080fd5b600080fd5b60008083601f84011261475957614758614734565b5b8235905067ffffffffffffffff81111561477657614775614739565b5b6020830191508360208202830111156147925761479161473e565b5b9250929050565b600080602083850312156147b0576147af6144ee565b5b600083013567ffffffffffffffff8111156147ce576147cd6144f3565b5b6147da85828601614743565b92509250509250929050565b600080604083850312156147fd576147fc6144ee565b5b600061480b85828601614541565b925050602061481c858286016146d7565b9150509250929050565b61482f81614583565b811461483a57600080fd5b50565b60008135905061484c81614826565b92915050565b60008060408385031215614869576148686144ee565b5b600061487785828601614541565b92505060206148888582860161483d565b9150509250929050565b61489b81614518565b82525050565b60006020820190506148b66000830184614892565b92915050565b6000806000606084860312156148d5576148d46144ee565b5b60006148e386828701614541565b93505060206148f486828701614541565b9250506040614905868287016146d7565b9150509250925092565b60008060008060608587031215614929576149286144ee565b5b600085013567ffffffffffffffff811115614947576149466144f3565b5b61495387828801614743565b9450945050602061496687828801614541565b9250506040614977878288016146d7565b91505092959194509250565b600061498e82614518565b9050919050565b61499e81614983565b81146149a957600080fd5b50565b6000813590506149bb81614995565b92915050565b60006149cc82614518565b9050919050565b6149dc816149c1565b81146149e757600080fd5b50565b6000813590506149f9816149d3565b92915050565b6000614a0a82614518565b9050919050565b614a1a816149ff565b8114614a2557600080fd5b50565b600081359050614a3781614a11565b92915050565b6000614a4882614518565b9050919050565b614a5881614a3d565b8114614a6357600080fd5b50565b600081359050614a7581614a4f565b92915050565b6000614a8682614518565b9050919050565b614a9681614a7b565b8114614aa157600080fd5b50565b600081359050614ab381614a8d565b92915050565b600080600080600060a08688031215614ad557614ad46144ee565b5b6000614ae3888289016149ac565b9550506020614af4888289016149ea565b9450506040614b0588828901614a28565b9350506060614b1688828901614a66565b9250506080614b2788828901614aa4565b9150509295509295909350565b60008060408385031215614b4b57614b4a6144ee565b5b6000614b59858286016146d7565b9250506020614b6a858286016146d7565b9150509250929050565b60006020820190508181036000830152614b8e8184614632565b905092915050565b6000608082019050614bab60008301876145c3565b614bb860208301866145c3565b614bc560408301856145c3565b614bd260608301846145c3565b95945050505050565b600081519050919050565b600082825260208201905092915050565b6000819050602082019050919050565b614c1081614518565b82525050565b606082016000820151614c2c6000850182614c07565b506020820151614c3f6020850182614c07565b506040820151614c5260408501826145fe565b50505050565b6000614c648383614c16565b60608301905092915050565b6000602082019050919050565b6000614c8882614bdb565b614c928185614be6565b9350614c9d83614bf7565b8060005b83811015614cce578151614cb58882614c58565b9750614cc083614c70565b925050600181019050614ca1565b5085935050505092915050565b60006020820190508181036000830152614cf58184614c7d565b905092915050565b6000819050919050565b6000614d22614d1d614d18846144f8565b614cfd565b6144f8565b9050919050565b6000614d3482614d07565b9050919050565b6000614d4682614d29565b9050919050565b614d5681614d3b565b82525050565b6000602082019050614d716000830184614d4d565b92915050565b600081519050919050565b600082825260208201905092915050565b6000819050602082019050919050565b6000614daf8383614c07565b60208301905092915050565b6000602082019050919050565b6000614dd382614d77565b614ddd8185614d82565b9350614de883614d93565b8060005b83811015614e19578151614e008882614da3565b9750614e0b83614dbb565b925050600181019050614dec565b5085935050505092915050565b60006020820190508181036000830152614e408184614dc8565b905092915050565b6000606082019050614e5d6000830186614892565b614e6a6020830185614892565b614e7760408301846145c3565b949350505050565b600081519050614e8e81614826565b92915050565b600060208284031215614eaa57614ea96144ee565b5b6000614eb884828501614e7f565b91505092915050565b600081519050614ed0816146c0565b92915050565b6000601f19601f8301169050919050565b7f4e487b7100000000000000000000000000000000000000000000000000000000600052604160045260246000fd5b614f1f82614ed6565b810181811067ffffffffffffffff82111715614f3e57614f3d614ee7565b5b80604052505050565b6000614f516144e4565b9050614f5d8282614f16565b919050565b600067ffffffffffffffff821115614f7d57614f7c614ee7565b5b602082029050602081019050919050565b6000614fa1614f9c84614f62565b614f47565b90508083825260208201905060208402830185811115614fc457614fc361473e565b5b835b81811015614fed5780614fd98882614ec1565b845260208401935050602081019050614fc6565b5050509392505050565b600082601f83011261500c5761500b614734565b5b815161501c848260208601614f8e565b91505092915050565b6000806040838503121561503c5761503b6144ee565b5b600061504a85828601614ec1565b925050602083015167ffffffffffffffff81111561506b5761506a6144f3565b5b61507785828601614ff7565b9150509250929050565b600080fd5b82818337600083830152505050565b60006150a183856145dd565b93507f07ffffffffffffffffffffffffffffffffffffffffffffffffffffffffffffff8311156150d4576150d3615081565b5b6020830292506150e5838584615086565b82840190509392505050565b60006060820190506151066000830187614892565b8181036020830152615119818587615095565b905061512860408301846145c3565b95945050505050565b7f4e487b7100000000000000000000000000000000000000000000000000000000600052601160045260246000fd5b600061516b826145b9565b9150615176836145b9565b9250827fffffffffffffffffffffffffffffffffffffffffffffffffffffffffffffffff038211156151ab576151aa615131565b5b828201905092915050565b7f4e487b7100000000000000000000000000000000000000000000000000000000600052603260045260246000fd5b6000602082840312156151fb576151fa6144ee565b5b600061520984828501614ec1565b91505092915050565b600060ff82169050919050565b61522881615212565b811461523357600080fd5b50565b6000815190506152458161521f565b92915050565b60008060408385031215615262576152616144ee565b5b600061527085828601614ec1565b925050602061528185828601615236565b9150509250929050565b6000615296826145b9565b91507fffffffffffffffffffffffffffffffffffffffffffffffffffffffffffffffff82036152c8576152c7615131565b5b600182019050919050565b6000602082840312156152e9576152e86144ee565b5b600082015167ffffffffffffffff811115615307576153066144f3565b5b61531384828501614ff7565b91505092915050565b6000615327826145b9565b9150615332836145b9565b92508282101561534557615344615131565b5b828203905092915050565b60006040820190506153656000830185614892565b61537260208301846145c3565b9392505050565b6000615384826145b9565b915061538f836145b9565b9250817fffffffffffffffffffffffffffffffffffffffffffffffffffffffffffffffff04831182151516156153c8576153c7615131565b5b828202905092915050565b7f4e487b7100000000000000000000000000000000000000000000000000000000600052601260045260246000fd5b600061540d826145b9565b9150615418836145b9565b925082615428576154276153d3565b5b828204905092915050565b60006080820190506154486000830187614892565b6154556020830186614892565b61546260408301856145c3565b61546f60608301846145c3565b95945050505050565b6000815190506154878161452a565b92915050565b6000602082840312156154a3576154a26144ee565b5b60006154b184828501615478565b91505092915050565b60006154c582614d29565b9050919050565b6154d5816154ba565b82525050565b8082525050565b60006040820190506154f760008301856154cc565b61550460208301846154db565b9392505050565b615514816145b9565b82525050565b600061552582614d29565b9050919050565b6155358161551a565b82525050565b8082525050565b6000608082019050615557600083018761550b565b615564602083018661550b565b615571604083018561552c565b61557e606083018461553b565b95945050505050565b600080fd5b6000606082840312156155a2576155a1615587565b5b6155ac6060614f47565b905060006155bc84828501614ec1565b60008301525060206155d084828501614ec1565b60208301525060406155e484828501615478565b60408301525092915050565b600060608284031215615606576156056144ee565b5b60006156148482850161558c565b91505092915050565b600060408201905061563260008301856145c3565b61563f60208301846145c3565b9392505050565b600082825260208201905092915050565b60006156638385615646565b93507f07ffffffffffffffffffffffffffffffffffffffffffffffffffffffffffffff83111561569657615695615081565b5b6020830292506156a7838584615086565b82840190509392505050565b600060808201905081810360008301526156ce818789615657565b90506156dd602083018661550b565b6156ea604083018561552c565b6156f7606083018461553b565b9695505050505050565b600060408201905061571660008301866145c3565b8181036020830152615729818486615095565b9050949350505050565b61573c816154ba565b82525050565b600061574d82614d29565b9050919050565b61575d81615742565b82525050565b600061576e82614d29565b9050919050565b61577e81615763565b82525050565b61578d8161551a565b82525050565b600060a0820190506157a86000830188614d4d565b6157b56020830187615733565b6157c26040830186615754565b6157cf6060830185615775565b6157dc6080830184615784565b9695505050505050565b6157ef81614d3b565b82525050565b600060408201905061580a60008301856157e6565b61581760208301846154db565b9392505050565b7f4e487b7100000000000000000000000000000000000000000000000000000000600052603160045260246000fd5b600067ffffffffffffffff82111561586857615867614ee7565b5b602082029050602081019050919050565b600061588c6158878461584d565b614f47565b905080838252602082019050602084028301858111156158af576158ae61473e565b5b835b818110156158d857806158c48882615478565b8452602084019350506020810190506158b1565b5050509392505050565b600082601f8301126158f7576158f6614734565b5b8151615907848260208601615879565b91505092915050565b600060208284031215615926576159256144ee565b5b600082015167ffffffffffffffff811115615944576159436144f3565b5b615950848285016158e2565b91505092915050565b600060408201905061596e6000830185614892565b61597b602083018461458f565b9392505050565b600082825260208201905092915050565b7f4f776e61626c653a206e6577206f776e657220697320746865207a65726f206160008201527f6464726573730000000000000000000000000000000000000000000000000000602082015250565b60006159ef602683615982565b91506159fa82615993565b604082019050919050565b60006020820190508181036000830152615a1e816159e2565b9050919050565b615a2e81615742565b82525050565b600060a0820190508181036000830152615a4f81888a615657565b9050615a5e602083018761550b565b615a6b604083018661552c565b615a786060830185615a25565b615a85608083018461553b565b979650505050505050565b60006020820190508181036000830152615aab818486615095565b90509392505050565b6000615abf82615212565b9150615aca83615212565b925082821015615add57615adc615131565b5b828203905092915050565b60008160011c9050919050565b6000808291508390505b6001851115615b3f57808604811115615b1b57615b1a615131565b5b6001851615615b2a5780820291505b8081029050615b3885615ae8565b9450615aff565b94509492505050565b600082615b585760019050615c14565b81615b665760009050615c14565b8160018114615b7c5760028114615b8657615bb5565b6001915050615c14565b60ff841115615b9857615b97615131565b5b8360020a915084821115615baf57615bae615131565b5b50615c14565b5060208310610133831016604e8410600b8410161715615bea5782820a905083811115615be557615be4615131565b5b615c14565b615bf78484846001615af5565b92509050818404811115615c0e57615c0d615131565b5b81810290505b9392505050565b6000615c26826145b9565b9150615c3183615212565b9250615c5e7fffffffffffffffffffffffffffffffffffffffffffffffffffffffffffffffff8484615b48565b905092915050565b7f4f776e61626c653a2063616c6c6572206973206e6f7420746865206f776e6572600082015250565b6000615c9c602083615982565b9150615ca782615c66565b602082019050919050565b60006020820190508181036000830152615ccb81615c8f565b9050919050565b7f5a65726f20616464726573730000000000000000000000000000000000000000600082015250565b6000615d08600c83615982565b9150615d1382615cd2565b602082019050919050565b60006020820190508181036000830152615d3781615cfb565b9050919050565b7f616c72656164792077686974656c697374656400000000000000000000000000600082015250565b6000615d74601383615982565b9150615d7f82615d3e565b602082019050919050565b60006020820190508181036000830152615da381615d67565b9050919050565b7f4e6f742077686974656c69737465640000000000000000000000000000000000600082015250565b6000615de0600f83615982565b9150615deb82615daa565b602082019050919050565b60006020820190508181036000830152615e0f81615dd3565b9050919050565b6000608082019050615e2b60008301876145c3565b615e386020830186614892565b615e456040830185614892565b615e526060830184614892565b95945050505050565b600060208284031215615e7157615e706144ee565b5b6000615e7f84828501615236565b9150509291505056fea2646970667358221220aae250c6c0aa7e75902fe18ee292867b8f2d18867d92bcf6fce0528bca9e7f0e64736f6c634300080f0033",
  "immutableReferences": {},
  "source": "//SPDX-License-Identifier: Unlicense\r\npragma solidity ^0.8.0;\r\n\r\nimport \"@openzeppelin/contracts/token/ERC20/IERC20.sol\";\r\nimport \"@openzeppelin/contracts/token/ERC20/ERC20.sol\";\r\nimport \"@openzeppelin/contracts/access/Ownable.sol\";\r\n// import \"@openzeppelin/contracts/proxy/utils/Initializable.sol\";\r\n// import \"@openzeppelin/contracts/proxy/utils/UUPS.sol\";\r\nimport \"@uniswap/v2-periphery/contracts/interfaces/IUniswapV2Router02.sol\";\r\nimport \"../interfaces/IStrategy.sol\";\r\nimport \"../interfaces/IUsdOracle.sol\";\r\nimport {ReceiptNFT} from \"./ReceiptNFT.sol\";\r\nimport {Exchange} from \"../exchange/Exchange.sol\";\r\nimport {SharesToken} from \"./SharesToken.sol\";\r\nimport \"./Batch.sol\";\r\nimport \"./StrategyRouterLib.sol\";\r\nimport \"./Moderator.sol\";\r\n\r\n// import \"hardhat/console.sol\";\r\n\r\n/// @custom:oz-upgrades-unsafe-allow external-library-linking\r\ncontract StrategyRouter is  Moderator {\r\n    /* EVENTS */\r\n\r\n    /// @notice Fires when user deposits in batch.\r\n    /// @param token Supported token that user want to deposit.\r\n    /// @param amount Amount of `token` transferred from user.\r\n    event Deposit(address indexed user, address token, uint256 amount);\r\n    /// @notice Fires when batch is deposited into strategies.\r\n    /// @param closedCycleId Index of the cycle that is closed.\r\n    /// @param amount Sum of different tokens deposited into strategies.\r\n    event AllocateToStrategies(uint256 indexed closedCycleId, uint256 amount);\r\n    /// @notice Fires when user withdraw from batch.\r\n    /// @param token Supported token that user requested to receive after withdraw.\r\n    /// @param amount Amount of `token` received by user.\r\n    event WithdrawFromBatch(address indexed user, address token, uint256 amount);\r\n    /// @notice Fires when user withdraw from strategies.\r\n    /// @param token Supported token that user requested to receive after withdraw.\r\n    /// @param amount Amount of `token` received by user.\r\n    event WithdrawFromStrategies(address indexed user, address token, uint256 amount);\r\n    /// @notice Fires when user converts his receipt into shares token.\r\n    /// @param shares Amount of shares received by user.\r\n    /// @param receiptIds Indexes of the receipts burned.\r\n    event RedeemReceiptsToShares(address indexed user, uint256 shares, uint256[] receiptIds);\r\n    /// @notice Fires when moderator converts foreign receipts into shares token.\r\n    /// @param receiptIds Indexes of the receipts burned.\r\n    event RedeemReceiptsToSharesByModerators(address indexed moderator, uint256[] receiptIds);\r\n\r\n    // Events for setters.\r\n    event SetMinDeposit(uint256 newAmount);\r\n    event SetCycleDuration(uint256 newDuration);\r\n    event SetMinUsdPerCycle(uint256 newAmount);\r\n    event SetFeeAddress(address newAddress);\r\n    event SetFeePercent(uint256 newPercent);\r\n    event SetAddresses(\r\n        Exchange _exchange,\r\n        IUsdOracle _oracle,\r\n        SharesToken _sharesToken,\r\n        Batch _batch,\r\n        ReceiptNFT _receiptNft\r\n    );\r\n\r\n    /* ERRORS */\r\n    error AmountExceedTotalSupply();\r\n    error UnsupportedToken();\r\n    error NotReceiptOwner();\r\n    error CycleNotClosed();\r\n    error CycleClosed();\r\n    error InsufficientShares();\r\n    error DuplicateStrategy();\r\n    error CycleNotClosableYet();\r\n    error AmountNotSpecified();\r\n    error CantRemoveLastStrategy();\r\n    error NothingToRebalance();\r\n    error NotModerator();\r\n\r\n    struct StrategyInfo {\r\n        address strategyAddress;\r\n        address depositToken;\r\n        uint256 weight;\r\n    }\r\n\r\n    struct Cycle {\r\n        // block.timestamp at which cycle started\r\n        uint256 startAt;\r\n        // batch USD value before deposited into strategies\r\n        uint256 totalDepositedInUsd;\r\n        // price per share in USD\r\n        uint256 pricePerShare;\r\n        // USD value received by strategies\r\n        uint256 receivedByStrategiesInUsd;\r\n        // tokens price at time of the deposit to strategies\r\n        mapping(address => uint256) prices;\r\n    }\r\n\r\n    uint8 private constant UNIFORM_DECIMALS = 18;\r\n    uint256 private constant PRECISION = 1e18;\r\n\r\n    uint256 public cycleDuration;\r\n    uint256 public minUsdPerCycle;\r\n    uint256 public minDeposit;\r\n    uint256 public feePercent;\r\n    uint256 public currentCycleId;\r\n\r\n    ReceiptNFT private receiptContract;\r\n    Exchange public exchange;\r\n    IUsdOracle private oracle;\r\n    SharesToken private sharesToken;\r\n    Batch private batch;\r\n    address public feeAddress;\r\n\r\n    StrategyInfo[] public strategies;\r\n    mapping(uint256 => Cycle) public cycles;\r\n\r\n    modifier onlyModerators() {\r\n        if (!_isModerator()) revert NotModerator();\r\n        _;\r\n    }\r\n\r\n    /// @custom:oz-upgrades-unsafe-allow constructor\r\n    constructor() {\r\n        // lock implementation\r\n        // _disableInitializers();\r\n    }\r\n\r\n    function initializeState() public onlyOwner {\r\n        // __Ownable_init();\r\n        // __UUPS_init();\r\n        // __Moderator_init(msg.sender);\r\n\r\n        cycles[0].startAt = block.timestamp;\r\n        cycleDuration = 1 days;\r\n    }\r\n\r\n    function setAddresses(\r\n        Exchange _exchange,\r\n        IUsdOracle _oracle,\r\n        SharesToken _sharesToken,\r\n        Batch _batch,\r\n        ReceiptNFT _receiptNft\r\n    ) external onlyOwner {\r\n        exchange = _exchange;\r\n        oracle = _oracle;\r\n        sharesToken = _sharesToken;\r\n        batch = _batch;\r\n        receiptContract = _receiptNft;\r\n        emit SetAddresses(_exchange, _oracle, _sharesToken, _batch, _receiptNft);\r\n    }\r\n\r\n    // function _authorizeUpgrade(address newImplementation) internal override onlyOwner {}\r\n\r\n    /**\r\n        Universal Functions\r\n\r\n        @notice Send pending money collected in the batch into the strategies.\r\n        @notice Can be called when `cycleDuration` seconds has been passed or\r\n                batch usd value has reached `minUsdPerCycle`.\r\n    */\r\n    function allocateToStrategies() external {\r\n        /*\r\n        step 1 - preparing data and assigning local variables for later reference\r\n        step 2 - check requirements to launch a cycle\r\n            condition #1: at least `cycleDuration` time must be passed\r\n            condition #2: deposit in the current cycle are more than minimum threshold\r\n        step 3 - store USD price of supported tokens as cycle information\r\n        step 4 - collect yield and re-deposit/re-stake depending on strategy\r\n        step 5 - rebalance token in batch to match our desired strategies ratio\r\n        step 6 - batch transfers funds to strategies and strategies deposit tokens to their respective farms\r\n        step 7 - we calculate share price for the current cycle and calculate a new amount of shares to issue\r\n        step 8 - store remaining information for the current cycle\r\n        */\r\n        // step 1\r\n        uint256 _currentCycleId = currentCycleId;\r\n        (uint256 batchValueInUsd, ) = getBatchValueUsd();\r\n\r\n        // step 2\r\n        if (cycles[_currentCycleId].startAt + cycleDuration > block.timestamp && batchValueInUsd < minUsdPerCycle)\r\n            revert CycleNotClosableYet();\r\n\r\n        // step 3\r\n        {\r\n            address[] memory tokens = getSupportedTokens();\r\n            for (uint256 i = 0; i < tokens.length; i++) {\r\n                if (ERC20(tokens[i]).balanceOf(address(batch)) > 0) {\r\n                    (uint256 priceUsd, uint8 priceDecimals) = oracle.getTokenUsdPrice(tokens[i]);\r\n                    cycles[_currentCycleId].prices[tokens[i]] = StrategyRouterLib.changeDecimals(\r\n                        priceUsd,\r\n                        priceDecimals,\r\n                        UNIFORM_DECIMALS\r\n                    );\r\n                }\r\n            }\r\n        }\r\n\r\n        // step 4\r\n        uint256 strategiesLength = strategies.length;\r\n        for (uint256 i; i < strategiesLength; i++) {\r\n            IStrategy(strategies[i].strategyAddress).compound();\r\n        }\r\n\r\n        // step 5\r\n        (uint256 balanceAfterCompoundInUsd, ) = getStrategiesValue();\r\n        uint256[] memory depositAmountsInTokens = batch.rebalance();\r\n\r\n        // step 6\r\n        for (uint256 i; i < strategiesLength; i++) {\r\n            address strategyDepositToken = strategies[i].depositToken;\r\n\r\n            if (depositAmountsInTokens[i] > 0) {\r\n                batch.transfer(strategyDepositToken, strategies[i].strategyAddress, depositAmountsInTokens[i]);\r\n\r\n                IStrategy(strategies[i].strategyAddress).deposit(depositAmountsInTokens[i]);\r\n            }\r\n        }\r\n\r\n        // step 7\r\n        (uint256 balanceAfterDepositInUsd, ) = getStrategiesValue();\r\n        uint256 receivedByStrategiesInUsd = balanceAfterDepositInUsd - balanceAfterCompoundInUsd;\r\n\r\n        uint256 totalShares = sharesToken.totalSupply();\r\n        if (totalShares == 0) {\r\n            sharesToken.mint(address(this), receivedByStrategiesInUsd);\r\n            cycles[_currentCycleId].pricePerShare = (balanceAfterDepositInUsd * PRECISION) / sharesToken.totalSupply();\r\n        } else {\r\n            cycles[_currentCycleId].pricePerShare = (balanceAfterCompoundInUsd * PRECISION) / totalShares;\r\n\r\n            uint256 newShares = (receivedByStrategiesInUsd * PRECISION) / cycles[_currentCycleId].pricePerShare;\r\n            sharesToken.mint(address(this), newShares);\r\n        }\r\n\r\n        // step 8\r\n        cycles[_currentCycleId].receivedByStrategiesInUsd = receivedByStrategiesInUsd;\r\n        cycles[_currentCycleId].totalDepositedInUsd = batchValueInUsd;\r\n\r\n        emit AllocateToStrategies(_currentCycleId, receivedByStrategiesInUsd);\r\n        // start new cycle\r\n        ++currentCycleId;\r\n        cycles[_currentCycleId].startAt = block.timestamp;\r\n    }\r\n\r\n    /**\r\n        @notice Harvest yield from farms, and reinvest these rewards into strategies.\r\n        @notice Part of the harvested rewards is taken as protocol comission.\r\n    */\r\n    function compoundAll() external {\r\n        if (sharesToken.totalSupply() == 0) revert();\r\n\r\n        uint256 len = strategies.length;\r\n        for (uint256 i; i < len; i++) {\r\n            IStrategy(strategies[i].strategyAddress).compound();\r\n        }\r\n    }\r\n\r\n    /// @dev Returns list of supported tokens.\r\n    function getSupportedTokens() public view returns (address[] memory) {\r\n        return batch.getSupportedTokens();\r\n    }\r\n\r\n    /// @dev Returns strategy weight as percent of total weight.\r\n    function getStrategyPercentWeight(uint256 _strategyId) public view returns (uint256 strategyPercentAllocation) {\r\n        return StrategyRouterLib.getStrategyPercentWeight(_strategyId, strategies);\r\n    }\r\n\r\n    /// @notice Returns count of strategies.\r\n    function getStrategiesCount() public view returns (uint256 count) {\r\n        return strategies.length;\r\n    }\r\n\r\n    /// @notice Returns array of strategies.\r\n    function getStrategies() public view returns (StrategyInfo[] memory) {\r\n        return strategies;\r\n    }\r\n\r\n    /// @notice Returns deposit token of the strategy.\r\n    function getStrategyDepositToken(uint256 i) public view returns (address) {\r\n        return strategies[i].depositToken;\r\n    }\r\n\r\n    /// @notice Returns usd value of the token balances and their sum in the strategies.\r\n    /// @notice All returned amounts have `UNIFORM_DECIMALS` decimals.\r\n    /// @return totalBalance Total usd value.\r\n    /// @return balances Array of usd value of token balances.\r\n    function getStrategiesValue() public view returns (uint256 totalBalance, uint256[] memory balances) {\r\n        (totalBalance, balances) = StrategyRouterLib.getStrategiesValue(oracle, strategies);\r\n    }\r\n\r\n    /// @notice Returns usd values of the tokens balances and their sum in the batch.\r\n    /// @notice All returned amounts have `UNIFORM_DECIMALS` decimals.\r\n    /// @return totalBalance Total batch usd value.\r\n    /// @return balances Array of usd value of token balances in the batch.\r\n    function getBatchValueUsd() public view returns (uint256 totalBalance, uint256[] memory balances) {\r\n        return batch.getBatchValueUsd();\r\n    }\r\n\r\n    /// @notice Returns stored address of the `Exchange` contract.\r\n    function getExchange() public view returns (Exchange) {\r\n        return exchange;\r\n    }\r\n\r\n    /// @notice Calculates amount of redeemable shares by burning receipts.\r\n    /// @notice Cycle noted in receipts should be closed.\r\n    function calculateSharesFromReceipts(uint256[] calldata receiptIds) public view returns (uint256 shares) {\r\n        ReceiptNFT _receiptContract = receiptContract;\r\n        uint256 _currentCycleId = currentCycleId;\r\n        for (uint256 i = 0; i < receiptIds.length; i++) {\r\n            uint256 receiptId = receiptIds[i];\r\n            shares += StrategyRouterLib.calculateSharesFromReceipt(\r\n                receiptId,\r\n                _currentCycleId,\r\n                _receiptContract,\r\n                cycles\r\n            );\r\n        }\r\n    }\r\n\r\n    /// @notice Reedem shares for receipts on behalf of their owners.\r\n    /// @notice Cycle noted in receipts should be closed.\r\n    /// @notice Only callable by moderators.\r\n    function redeemReceiptsToSharesByModerators(uint256[] calldata receiptIds) public onlyModerators {\r\n        StrategyRouterLib.redeemReceiptsToSharesByModerators(\r\n            receiptIds,\r\n            currentCycleId,\r\n            receiptContract,\r\n            sharesToken,\r\n            cycles\r\n        );\r\n        emit RedeemReceiptsToSharesByModerators(msg.sender, receiptIds);\r\n    }\r\n\r\n    /// @notice Calculate current usd value of shares.\r\n    /// @dev Returned amount has `UNIFORM_DECIMALS` decimals.\r\n    function calculateSharesUsdValue(uint256 amountShares) public view returns (uint256 amountUsd) {\r\n        uint256 totalShares = sharesToken.totalSupply();\r\n        if (amountShares > totalShares) revert AmountExceedTotalSupply();\r\n        (uint256 strategiesLockedUsd, ) = getStrategiesValue();\r\n        uint256 currentPricePerShare = (strategiesLockedUsd * PRECISION) / totalShares;\r\n\r\n        return (amountShares * currentPricePerShare) / PRECISION;\r\n    }\r\n\r\n    /// @notice Calculate shares amount from usd value.\r\n    /// @dev Returned amount has `UNIFORM_DECIMALS` decimals.\r\n    function calculateSharesAmountFromUsdAmount(uint256 amount) public view returns (uint256 shares) {\r\n        (uint256 strategiesLockedUsd, ) = getStrategiesValue();\r\n        uint256 currentPricePerShare = (strategiesLockedUsd * PRECISION) / sharesToken.totalSupply();\r\n        shares = (amount * PRECISION) / currentPricePerShare;\r\n    }\r\n\r\n    /// @notice Returns whether this token is supported.\r\n    /// @param tokenAddress Token address to lookup.\r\n    function supportsToken(address tokenAddress) public view returns (bool isSupported) {\r\n        return batch.supportsToken(tokenAddress);\r\n    }\r\n\r\n    // User Functions\r\n\r\n    /// @notice Convert receipts into share tokens.\r\n    /// @notice Cycle noted in receipt should be closed.\r\n    /// @return shares Amount of shares redeemed by burning receipts.\r\n    function redeemReceiptsToShares(uint256[] calldata receiptIds) public returns (uint256 shares) {\r\n        shares = StrategyRouterLib.burnReceipts(receiptIds, currentCycleId, receiptContract, cycles);\r\n        sharesToken.transfer(msg.sender, shares);\r\n        emit RedeemReceiptsToShares(msg.sender, shares, receiptIds);\r\n    }\r\n\r\n    /// @notice Withdraw tokens from strategies.\r\n    /// @notice On partial withdraw leftover shares transferred to user.\r\n    /// @notice If not enough shares unlocked from receipt, or no receipts are passed, then shares will be taken from user.\r\n    /// @notice Receipts are burned.\r\n    /// @notice Cycle noted in receipts should be closed.\r\n    /// @param receiptIds Array of ReceiptNFT ids.\r\n    /// @param withdrawToken Supported token that user wish to receive.\r\n    /// @param shares Amount of shares to withdraw.\r\n    function withdrawFromStrategies(\r\n        uint256[] calldata receiptIds,\r\n        address withdrawToken,\r\n        uint256 shares\r\n    ) external {\r\n        if (shares == 0) revert AmountNotSpecified();\r\n        if (!supportsToken(withdrawToken)) revert UnsupportedToken();\r\n\r\n        // uint256 unlockedShares = StrategyRouterLib.burnReceipts(receiptIds, currentCycleId, receiptContract, cycles);\r\n        ReceiptNFT _receiptContract = receiptContract;\r\n        uint256 _currentCycleId = currentCycleId;\r\n        uint256 unlockedShares;\r\n\r\n        // first try to get all shares from receipts\r\n        for (uint256 i = 0; i < receiptIds.length; i++) {\r\n            uint256 receiptId = receiptIds[i];\r\n            if (_receiptContract.ownerOf(receiptId) != msg.sender) revert NotReceiptOwner();\r\n            uint256 receiptShares = StrategyRouterLib.calculateSharesFromReceipt(\r\n                receiptId,\r\n                _currentCycleId,\r\n                _receiptContract,\r\n                cycles\r\n            );\r\n            unlockedShares += receiptShares;\r\n            if(unlockedShares > shares) {\r\n                // receipts fulfilled requested shares and more,  \r\n                // so get rid of extra shares and update receipt amount\r\n                uint256 leftoverShares = unlockedShares - shares;\r\n                unlockedShares -= leftoverShares;\r\n\r\n                ReceiptNFT.ReceiptData memory receipt = receiptContract.getReceipt(receiptId);\r\n                uint256 newReceiptAmount = receipt.tokenAmountUniform * leftoverShares / receiptShares;\r\n                _receiptContract.setAmount(receiptId, newReceiptAmount);\r\n            } else {\r\n                // unlocked shares less or equal to requested, so can take whole receipt amount\r\n                _receiptContract.burn(receiptId);\r\n            }\r\n            if(unlockedShares == shares) break;\r\n        }\r\n\r\n        // if receipts didn't fulfilled requested shares amount, then try to take more from caller \r\n        if (unlockedShares < shares) {\r\n            // lack of shares -> get from user\r\n            sharesToken.transferFromAutoApproved(msg.sender, address(this), shares - unlockedShares);\r\n        }\r\n\r\n        // shares into usd using current PPS\r\n        uint256 usdToWithdraw = calculateSharesUsdValue(shares);\r\n        sharesToken.burn(address(this), shares);\r\n        _withdrawFromStrategies(usdToWithdraw, withdrawToken);\r\n    }\r\n\r\n    /// @notice Withdraw tokens from batch.\r\n    /// @notice Receipts are burned and user receives amount of tokens that was noted.\r\n    /// @notice Cycle noted in receipts should be current cycle.\r\n    /// @param receiptIds Receipt NFTs ids.\r\n    function withdrawFromBatch(uint256[] calldata receiptIds) public {\r\n        batch.withdraw(msg.sender, receiptIds, currentCycleId);\r\n    }\r\n\r\n    /// @notice Deposit token into batch.\r\n    /// @param depositToken Supported token to deposit.\r\n    /// @param _amount Amount to deposit.\r\n    /// @dev User should approve `_amount` of `depositToken` to this contract.\r\n    function depositToBatch(address depositToken, uint256 _amount) external {\r\n        batch.deposit(msg.sender, depositToken, _amount, currentCycleId);\r\n        IERC20(depositToken).transferFrom(msg.sender, address(batch), _amount);\r\n        emit Deposit(msg.sender, depositToken, _amount);\r\n    }\r\n\r\n    /**\r\n        @notice Set token as supported for user deposit and withdraw.\r\n        @dev Admin function.\r\n        Note: Dual function that activates and deactivates supported token. \r\n    */ \r\n    function setSupportedToken(address tokenAddress, bool supported) external onlyOwner {\r\n        batch.setSupportedToken(tokenAddress, supported);\r\n    }\r\n\r\n    /// @notice Set address for fees collected by protocol.\r\n    /// @dev Admin function.\r\n    function setFeesCollectionAddress(address _feeAddress) external onlyOwner {\r\n        if (_feeAddress == address(0)) revert();\r\n        feeAddress = _feeAddress;\r\n        emit SetFeeAddress(_feeAddress);\r\n    }\r\n\r\n    /// @notice Set percent to take from harvested rewards as protocol fee.\r\n    /// @dev Admin function.\r\n    function setFeesPercent(uint256 percent) external onlyOwner {\r\n        feePercent = percent;\r\n        emit SetFeePercent(percent);\r\n    }\r\n\r\n    /// @notice Minimum usd needed to be able to close the cycle.\r\n    /// @param amount Amount of usd, must be `UNIFORM_DECIMALS` decimals.\r\n    /// @dev Admin function.\r\n    function setMinUsdPerCycle(uint256 amount) external onlyOwner {\r\n        minUsdPerCycle = amount;\r\n        emit SetMinUsdPerCycle(amount);\r\n    }\r\n\r\n    /// @notice Minimum to be deposited in the batch.\r\n    /// @param amount Amount of usd, must be `UNIFORM_DECIMALS` decimals.\r\n    /// @dev Admin function.\r\n    function setMinDepositUsd(uint256 amount) external onlyOwner {\r\n        batch.setMinDepositUsd(amount);\r\n        emit SetMinDeposit(amount);\r\n    }\r\n\r\n    /// @notice Minimum time needed to be able to close the cycle.\r\n    /// @param duration Duration of cycle in seconds.\r\n    /// @dev Admin function.\r\n    function setCycleDuration(uint256 duration) external onlyOwner {\r\n        cycleDuration = duration;\r\n        emit SetCycleDuration(duration);\r\n    }\r\n\r\n    /// @notice Add strategy.\r\n    /// @param _strategyAddress Address of the strategy.\r\n    /// @param _depositTokenAddress Token to be deposited into strategy.\r\n    /// @param _weight Weight of the strategy. Used to split user deposit between strategies.\r\n    /// @dev Admin function.\r\n    /// @dev Deposit token must be supported by the router.\r\n    function addStrategy(\r\n        address _strategyAddress,\r\n        address _depositTokenAddress,\r\n        uint256 _weight\r\n    ) external onlyOwner {\r\n        if (!supportsToken(_depositTokenAddress)) revert UnsupportedToken();\r\n        uint256 len = strategies.length;\r\n        for (uint256 i = 0; i < len; i++) {\r\n            if (strategies[i].strategyAddress == _strategyAddress) revert DuplicateStrategy();\r\n        }\r\n\r\n        strategies.push(\r\n            StrategyInfo({\r\n                strategyAddress: _strategyAddress,\r\n                depositToken: IStrategy(_strategyAddress).depositToken(),\r\n                weight: _weight\r\n            })\r\n        );\r\n    }\r\n\r\n    /// @notice Update strategy weight.\r\n    /// @param _strategyId Id of the strategy.\r\n    /// @param _weight New weight of the strategy.\r\n    /// @dev Admin function.\r\n    function updateStrategy(uint256 _strategyId, uint256 _weight) external onlyOwner {\r\n        strategies[_strategyId].weight = _weight;\r\n    }\r\n\r\n    /// @notice Remove strategy and deposit its balance in other strategies.\r\n    /// @notice Will revert when there is only 1 strategy left.\r\n    /// @param _strategyId Id of the strategy.\r\n    /// @dev Admin function.\r\n    function removeStrategy(uint256 _strategyId) external onlyOwner {\r\n        if (strategies.length < 2) revert CantRemoveLastStrategy();\r\n        StrategyInfo memory removedStrategyInfo = strategies[_strategyId];\r\n        IStrategy removedStrategy = IStrategy(removedStrategyInfo.strategyAddress);\r\n        address removedDepositToken = removedStrategyInfo.depositToken;\r\n\r\n        uint256 len = strategies.length - 1;\r\n        strategies[_strategyId] = strategies[len];\r\n        strategies.pop();\r\n\r\n        // compound removed strategy\r\n        removedStrategy.compound();\r\n\r\n        // withdraw all from removed strategy\r\n        uint256 withdrawnAmount = removedStrategy.withdrawAll();\r\n\r\n        // compound all strategies\r\n        for (uint256 i; i < len; i++) {\r\n            IStrategy(strategies[i].strategyAddress).compound();\r\n        }\r\n\r\n        // deposit withdrawn funds into other strategies\r\n        for (uint256 i; i < len; i++) {\r\n            uint256 depositAmount = (withdrawnAmount * getStrategyPercentWeight(i)) / PRECISION;\r\n            address strategyDepositToken = strategies[i].depositToken;\r\n\r\n            depositAmount = StrategyRouterLib.trySwap(\r\n                exchange,\r\n                depositAmount,\r\n                removedDepositToken,\r\n                strategyDepositToken\r\n            );\r\n            IERC20(strategyDepositToken).transfer(strategies[i].strategyAddress, depositAmount);\r\n            IStrategy(strategies[i].strategyAddress).deposit(depositAmount);\r\n        }\r\n        Ownable(address(removedStrategy)).transferOwnership(msg.sender);\r\n    }\r\n\r\n    /// @notice Rebalance batch, so that token balances will match strategies weight.\r\n    /// @return balances Batch token balances after rebalancing.\r\n    /// @dev Admin function.\r\n    function rebalanceBatch() external onlyOwner returns (uint256[] memory balances) {\r\n        return batch.rebalance();\r\n    }\r\n\r\n    /// @notice Rebalance strategies, so that their balances will match their weights.\r\n    /// @return balances Balances of the strategies after rebalancing.\r\n    /// @dev Admin function.\r\n    function rebalanceStrategies() external onlyOwner returns (uint256[] memory balances) {\r\n        return StrategyRouterLib.rebalanceStrategies(exchange, strategies);\r\n    }\r\n\r\n    // Internals\r\n\r\n    /// @param withdrawAmountUsd - USD value to withdraw. `UNIFORM_DECIMALS` decimals.\r\n    /// @param withdrawToken Supported token to receive after withdraw.\r\n    function _withdrawFromStrategies(uint256 withdrawAmountUsd, address withdrawToken) private {\r\n        (, uint256[] memory strategyTokenBalancesUsd) = getStrategiesValue();\r\n        uint256 strategiesCount = strategies.length;\r\n\r\n        uint256 tokenAmountToWithdraw;\r\n\r\n        // find token to withdraw requested token without extra swaps\r\n        // otherwise try to find token that is sufficient to fulfill requested amount\r\n        uint256 supportedTokenId = type(uint256).max; // index of strategy, uint.max means not found\r\n        for (uint256 i; i < strategiesCount; i++) {\r\n            address strategyDepositToken = strategies[i].depositToken;\r\n            if (strategyTokenBalancesUsd[i] >= withdrawAmountUsd) {\r\n                supportedTokenId = i;\r\n                if (strategyDepositToken == withdrawToken) break;\r\n            }\r\n        }\r\n\r\n        if (supportedTokenId != type(uint256).max) {\r\n            address tokenAddress = strategies[supportedTokenId].depositToken;\r\n            (uint256 tokenUsdPrice, uint8 oraclePriceDecimals) = oracle.getTokenUsdPrice(tokenAddress);\r\n\r\n            // convert usd to token amount\r\n            tokenAmountToWithdraw = (withdrawAmountUsd * 10**oraclePriceDecimals) / tokenUsdPrice;\r\n            // convert uniform decimals to token decimas\r\n            tokenAmountToWithdraw = StrategyRouterLib.fromUniform(tokenAmountToWithdraw, tokenAddress);\r\n\r\n            // withdraw from strategy\r\n            tokenAmountToWithdraw = IStrategy(strategies[supportedTokenId].strategyAddress).withdraw(\r\n                tokenAmountToWithdraw\r\n            );\r\n            // is withdrawn token not the one that's requested?\r\n            if (tokenAddress != withdrawToken) {\r\n                // swap withdrawn token to the requested one\r\n                tokenAmountToWithdraw = StrategyRouterLib.trySwap(\r\n                    exchange,\r\n                    tokenAmountToWithdraw,\r\n                    tokenAddress,\r\n                    withdrawToken\r\n                );\r\n            }\r\n            withdrawAmountUsd = 0;\r\n        }\r\n\r\n        // if we didn't fulfilled withdraw amount above,\r\n        // swap tokens one by one until withraw amount is fulfilled\r\n        if (withdrawAmountUsd != 0) {\r\n            for (uint256 i; i < strategiesCount; i++) {\r\n                address tokenAddress = strategies[i].depositToken;\r\n                uint256 tokenAmountToSwap;\r\n                (uint256 tokenUsdPrice, uint8 oraclePriceDecimals) = oracle.getTokenUsdPrice(tokenAddress);\r\n\r\n                // at this moment its in USD\r\n                tokenAmountToSwap = strategyTokenBalancesUsd[i] < withdrawAmountUsd\r\n                    ? strategyTokenBalancesUsd[i]\r\n                    : withdrawAmountUsd;\r\n                unchecked {\r\n                    withdrawAmountUsd -= tokenAmountToSwap;\r\n                }\r\n                // convert usd value into token amount\r\n                tokenAmountToSwap = (tokenAmountToSwap * 10**oraclePriceDecimals) / tokenUsdPrice;\r\n                // adjust decimals of the token amount\r\n                tokenAmountToSwap = StrategyRouterLib.fromUniform(tokenAmountToSwap, tokenAddress);\r\n                tokenAmountToSwap = IStrategy(strategies[i].strategyAddress).withdraw(tokenAmountToSwap);\r\n                // swap for requested token\r\n                tokenAmountToWithdraw += StrategyRouterLib.trySwap(\r\n                    exchange,\r\n                    tokenAmountToSwap,\r\n                    tokenAddress,\r\n                    withdrawToken\r\n                );\r\n                if (withdrawAmountUsd == 0) break;\r\n            }\r\n        }\r\n\r\n        IERC20(withdrawToken).transfer(msg.sender, tokenAmountToWithdraw);\r\n        emit WithdrawFromStrategies(msg.sender, withdrawToken, tokenAmountToWithdraw);\r\n    }\r\n\r\n    /// @dev Sets new moderator\r\n    function setModerator(address moderator, bool isWhitelisted) public onlyOwner {\r\n        _setModerator(moderator, isWhitelisted);\r\n    }\r\n}\r\n",
  "sourcePath": "C:\\Users\\FVO_MMILLLER\\Desktop\\elvolution\\Testers\\contracts\\main\\StrategyRouter.sol",
  "compiler": {
    "name": "solc",
    "version": "0.8.15+commit.e14f2714.Emscripten.clang"
  },
  "schemaVersion": "3.4.8",
  "updatedAt": "2022-09-08T16:23:09.338Z",
  "devdoc": {
    "custom:oz-upgrades-unsafe-allow": "external-library-linking",
    "events": {
      "AllocateToStrategies(uint256,uint256)": {
        "params": {
          "amount": "Sum of different tokens deposited into strategies.",
          "closedCycleId": "Index of the cycle that is closed."
        }
      },
      "Deposit(address,address,uint256)": {
        "params": {
          "amount": "Amount of `token` transferred from user.",
          "token": "Supported token that user want to deposit."
        }
      },
      "RedeemReceiptsToShares(address,uint256,uint256[])": {
        "params": {
          "receiptIds": "Indexes of the receipts burned.",
          "shares": "Amount of shares received by user."
        }
      },
      "RedeemReceiptsToSharesByModerators(address,uint256[])": {
        "params": {
          "receiptIds": "Indexes of the receipts burned."
        }
      },
      "WithdrawFromBatch(address,address,uint256)": {
        "params": {
          "amount": "Amount of `token` received by user.",
          "token": "Supported token that user requested to receive after withdraw."
        }
      },
      "WithdrawFromStrategies(address,address,uint256)": {
        "params": {
          "amount": "Amount of `token` received by user.",
          "token": "Supported token that user requested to receive after withdraw."
        }
      }
    },
    "kind": "dev",
    "methods": {
      "addStrategy(address,address,uint256)": {
        "details": "Admin function.Deposit token must be supported by the router.",
        "params": {
          "_depositTokenAddress": "Token to be deposited into strategy.",
          "_strategyAddress": "Address of the strategy.",
          "_weight": "Weight of the strategy. Used to split user deposit between strategies."
        }
      },
      "calculateSharesAmountFromUsdAmount(uint256)": {
        "details": "Returned amount has `UNIFORM_DECIMALS` decimals."
      },
      "calculateSharesUsdValue(uint256)": {
        "details": "Returned amount has `UNIFORM_DECIMALS` decimals."
      },
      "constructor": {
        "custom:oz-upgrades-unsafe-allow": "constructor"
      },
      "depositToBatch(address,uint256)": {
        "details": "User should approve `_amount` of `depositToken` to this contract.",
        "params": {
          "_amount": "Amount to deposit.",
          "depositToken": "Supported token to deposit."
        }
      },
      "getBatchValueUsd()": {
        "returns": {
          "balances": "Array of usd value of token balances in the batch.",
          "totalBalance": "Total batch usd value."
        }
      },
      "getStrategiesValue()": {
        "returns": {
          "balances": "Array of usd value of token balances.",
          "totalBalance": "Total usd value."
        }
      },
      "getStrategyPercentWeight(uint256)": {
        "details": "Returns strategy weight as percent of total weight."
      },
      "getSupportedTokens()": {
        "details": "Returns list of supported tokens."
      },
      "owner()": {
        "details": "Returns the address of the current owner."
      },
      "rebalanceBatch()": {
        "details": "Admin function.",
        "returns": {
          "balances": "Batch token balances after rebalancing."
        }
      },
      "rebalanceStrategies()": {
        "details": "Admin function.",
        "returns": {
          "balances": "Balances of the strategies after rebalancing."
        }
      },
      "redeemReceiptsToShares(uint256[])": {
        "returns": {
          "shares": "Amount of shares redeemed by burning receipts."
        }
      },
      "removeStrategy(uint256)": {
        "details": "Admin function.",
        "params": {
          "_strategyId": "Id of the strategy."
        }
      },
      "renounceOwnership()": {
        "details": "Leaves the contract without owner. It will not be possible to call `onlyOwner` functions anymore. Can only be called by the current owner. NOTE: Renouncing ownership will leave the contract without an owner, thereby removing any functionality that is only available to the owner."
      },
      "setCycleDuration(uint256)": {
        "details": "Admin function.",
        "params": {
          "duration": "Duration of cycle in seconds."
        }
      },
      "setFeesCollectionAddress(address)": {
        "details": "Admin function."
      },
      "setFeesPercent(uint256)": {
        "details": "Admin function."
      },
      "setMinDepositUsd(uint256)": {
        "details": "Admin function.",
        "params": {
          "amount": "Amount of usd, must be `UNIFORM_DECIMALS` decimals."
        }
      },
      "setMinUsdPerCycle(uint256)": {
        "details": "Admin function.",
        "params": {
          "amount": "Amount of usd, must be `UNIFORM_DECIMALS` decimals."
        }
      },
      "setModerator(address,bool)": {
        "details": "Sets new moderator"
      },
      "setSupportedToken(address,bool)": {
        "details": "Admin function. Note: Dual function that activates and deactivates supported token. "
      },
      "supportsToken(address)": {
        "params": {
          "tokenAddress": "Token address to lookup."
        }
      },
      "transferOwnership(address)": {
        "details": "Transfers ownership of the contract to a new account (`newOwner`). Can only be called by the current owner."
      },
      "updateStrategy(uint256,uint256)": {
        "details": "Admin function.",
        "params": {
          "_strategyId": "Id of the strategy.",
          "_weight": "New weight of the strategy."
        }
      },
      "withdrawFromBatch(uint256[])": {
        "params": {
          "receiptIds": "Receipt NFTs ids."
        }
      },
      "withdrawFromStrategies(uint256[],address,uint256)": {
        "params": {
          "receiptIds": "Array of ReceiptNFT ids.",
          "shares": "Amount of shares to withdraw.",
          "withdrawToken": "Supported token that user wish to receive."
        }
      }
    },
    "version": 1
  },
  "userdoc": {
    "events": {
      "AllocateToStrategies(uint256,uint256)": {
        "notice": "Fires when batch is deposited into strategies."
      },
      "Deposit(address,address,uint256)": {
        "notice": "Fires when user deposits in batch."
      },
      "RedeemReceiptsToShares(address,uint256,uint256[])": {
        "notice": "Fires when user converts his receipt into shares token."
      },
      "RedeemReceiptsToSharesByModerators(address,uint256[])": {
        "notice": "Fires when moderator converts foreign receipts into shares token."
      },
      "WithdrawFromBatch(address,address,uint256)": {
        "notice": "Fires when user withdraw from batch."
      },
      "WithdrawFromStrategies(address,address,uint256)": {
        "notice": "Fires when user withdraw from strategies."
      }
    },
    "kind": "user",
    "methods": {
      "addStrategy(address,address,uint256)": {
        "notice": "Add strategy."
      },
      "allocateToStrategies()": {
        "notice": "Universal FunctionsSend pending money collected in the batch into the strategies.Can be called when `cycleDuration` seconds has been passed or batch usd value has reached `minUsdPerCycle`."
      },
      "calculateSharesAmountFromUsdAmount(uint256)": {
        "notice": "Calculate shares amount from usd value."
      },
      "calculateSharesFromReceipts(uint256[])": {
        "notice": "Calculates amount of redeemable shares by burning receipts.Cycle noted in receipts should be closed."
      },
      "calculateSharesUsdValue(uint256)": {
        "notice": "Calculate current usd value of shares."
      },
      "compoundAll()": {
        "notice": "Harvest yield from farms, and reinvest these rewards into strategies.Part of the harvested rewards is taken as protocol comission."
      },
      "depositToBatch(address,uint256)": {
        "notice": "Deposit token into batch."
      },
      "getBatchValueUsd()": {
        "notice": "Returns usd values of the tokens balances and their sum in the batch.All returned amounts have `UNIFORM_DECIMALS` decimals."
      },
      "getExchange()": {
        "notice": "Returns stored address of the `Exchange` contract."
      },
      "getStrategies()": {
        "notice": "Returns array of strategies."
      },
      "getStrategiesCount()": {
        "notice": "Returns count of strategies."
      },
      "getStrategiesValue()": {
        "notice": "Returns usd value of the token balances and their sum in the strategies.All returned amounts have `UNIFORM_DECIMALS` decimals."
      },
      "getStrategyDepositToken(uint256)": {
        "notice": "Returns deposit token of the strategy."
      },
      "rebalanceBatch()": {
        "notice": "Rebalance batch, so that token balances will match strategies weight."
      },
      "rebalanceStrategies()": {
        "notice": "Rebalance strategies, so that their balances will match their weights."
      },
      "redeemReceiptsToShares(uint256[])": {
        "notice": "Convert receipts into share tokens.Cycle noted in receipt should be closed."
      },
      "redeemReceiptsToSharesByModerators(uint256[])": {
        "notice": "Reedem shares for receipts on behalf of their owners.Cycle noted in receipts should be closed.Only callable by moderators."
      },
      "removeStrategy(uint256)": {
        "notice": "Remove strategy and deposit its balance in other strategies.Will revert when there is only 1 strategy left."
      },
      "setCycleDuration(uint256)": {
        "notice": "Minimum time needed to be able to close the cycle."
      },
      "setFeesCollectionAddress(address)": {
        "notice": "Set address for fees collected by protocol."
      },
      "setFeesPercent(uint256)": {
        "notice": "Set percent to take from harvested rewards as protocol fee."
      },
      "setMinDepositUsd(uint256)": {
        "notice": "Minimum to be deposited in the batch."
      },
      "setMinUsdPerCycle(uint256)": {
        "notice": "Minimum usd needed to be able to close the cycle."
      },
      "setSupportedToken(address,bool)": {
        "notice": "Set token as supported for user deposit and withdraw."
      },
      "supportsToken(address)": {
        "notice": "Returns whether this token is supported."
      },
      "updateStrategy(uint256,uint256)": {
        "notice": "Update strategy weight."
      },
      "withdrawFromBatch(uint256[])": {
        "notice": "Withdraw tokens from batch.Receipts are burned and user receives amount of tokens that was noted.Cycle noted in receipts should be current cycle."
      },
      "withdrawFromStrategies(uint256[],address,uint256)": {
        "notice": "Withdraw tokens from strategies.On partial withdraw leftover shares transferred to user.If not enough shares unlocked from receipt, or no receipts are passed, then shares will be taken from user.Receipts are burned.Cycle noted in receipts should be closed."
      }
    },
    "version": 1
  }
}