{
  "contractName": "UniswapPlugin",
  "abi": [
    {
      "inputs": [],
      "stateMutability": "nonpayable",
      "type": "constructor"
    },
    {
      "inputs": [],
      "name": "RouteNotFound",
      "type": "error"
    },
    {
      "inputs": [],
      "name": "RoutedSwapFailed",
      "type": "error"
    },
    {
      "anonymous": false,
      "inputs": [
        {
          "indexed": true,
          "internalType": "address",
          "name": "previousOwner",
          "type": "address"
        },
        {
          "indexed": true,
          "internalType": "address",
          "name": "newOwner",
          "type": "address"
        }
      ],
      "name": "OwnershipTransferred",
      "type": "event"
    },
    {
      "inputs": [],
      "name": "owner",
      "outputs": [
        {
          "internalType": "address",
          "name": "",
          "type": "address"
        }
      ],
      "stateMutability": "view",
      "type": "function"
    },
    {
      "inputs": [],
      "name": "renounceOwnership",
      "outputs": [],
      "stateMutability": "nonpayable",
      "type": "function"
    },
    {
      "inputs": [
        {
          "internalType": "address",
          "name": "newOwner",
          "type": "address"
        }
      ],
      "name": "transferOwnership",
      "outputs": [],
      "stateMutability": "nonpayable",
      "type": "function"
    },
    {
      "inputs": [],
      "name": "uniswapRouter",
      "outputs": [
        {
          "internalType": "contract IUniswapV2Router02",
          "name": "",
          "type": "address"
        }
      ],
      "stateMutability": "view",
      "type": "function"
    },
    {
      "inputs": [
        {
          "internalType": "address",
          "name": "",
          "type": "address"
        },
        {
          "internalType": "address",
          "name": "",
          "type": "address"
        }
      ],
      "name": "useWeth",
      "outputs": [
        {
          "internalType": "bool",
          "name": "",
          "type": "bool"
        }
      ],
      "stateMutability": "view",
      "type": "function"
    },
    {
      "inputs": [
        {
          "internalType": "address",
          "name": "_uniswapRouter",
          "type": "address"
        }
      ],
      "name": "setUniswapRouter",
      "outputs": [],
      "stateMutability": "nonpayable",
      "type": "function"
    },
    {
      "inputs": [
        {
          "internalType": "address",
          "name": "tokenA",
          "type": "address"
        },
        {
          "internalType": "address",
          "name": "tokenB",
          "type": "address"
        },
        {
          "internalType": "bool",
          "name": "_useWeth",
          "type": "bool"
        }
      ],
      "name": "setUseWeth",
      "outputs": [],
      "stateMutability": "nonpayable",
      "type": "function"
    },
    {
      "inputs": [
        {
          "internalType": "address",
          "name": "tokenA",
          "type": "address"
        },
        {
          "internalType": "address",
          "name": "tokenB",
          "type": "address"
        }
      ],
      "name": "isUseWeth",
      "outputs": [
        {
          "internalType": "bool",
          "name": "",
          "type": "bool"
        }
      ],
      "stateMutability": "view",
      "type": "function"
    },
    {
      "inputs": [
        {
          "internalType": "uint256",
          "name": "amountA",
          "type": "uint256"
        },
        {
          "internalType": "address",
          "name": "tokenA",
          "type": "address"
        },
        {
          "internalType": "address",
          "name": "tokenB",
          "type": "address"
        },
        {
          "internalType": "address",
          "name": "to",
          "type": "address"
        }
      ],
      "name": "swap",
      "outputs": [
        {
          "internalType": "uint256",
          "name": "amountReceivedTokenB",
          "type": "uint256"
        }
      ],
      "stateMutability": "nonpayable",
      "type": "function"
    },
    {
      "inputs": [
        {
          "internalType": "address",
          "name": "",
          "type": "address"
        },
        {
          "internalType": "address",
          "name": "",
          "type": "address"
        }
      ],
      "name": "getFee",
      "outputs": [
        {
          "internalType": "uint256",
          "name": "feePercent",
          "type": "uint256"
        }
      ],
      "stateMutability": "pure",
      "type": "function"
    },
    {
      "inputs": [
        {
          "internalType": "uint256",
          "name": "amountA",
          "type": "uint256"
        },
        {
          "internalType": "address",
          "name": "tokenA",
          "type": "address"
        },
        {
          "internalType": "address",
          "name": "tokenB",
          "type": "address"
        }
      ],
      "name": "getAmountOut",
      "outputs": [
        {
          "internalType": "uint256",
          "name": "amountOut",
          "type": "uint256"
        }
      ],
      "stateMutability": "view",
      "type": "function"
    }
  ],
  "bytecode": "0x608060405234801561001057600080fd5b5061002d61002261003260201b60201c565b61003a60201b60201c565b6100fe565b600033905090565b60008060009054906101000a900473ffffffffffffffffffffffffffffffffffffffff169050816000806101000a81548173ffffffffffffffffffffffffffffffffffffffff021916908373ffffffffffffffffffffffffffffffffffffffff1602179055508173ffffffffffffffffffffffffffffffffffffffff168173ffffffffffffffffffffffffffffffffffffffff167f8be0079c531659141344cd1fd0a4f28419497f9722a3daafe3b4186f6b6457e060405160405180910390a35050565b61193e8061010d6000396000f3fe608060405234801561001057600080fd5b50600436106100a95760003560e01c80638da5cb5b116100715780638da5cb5b14610166578063a5c4548414610184578063bea9849e146101a0578063f2fde38b146101bc578063fee99898146101d8578063fff2f85614610208576100a9565b80631aec7f75146100ae5780635e1e6325146100de578063715018a61461010e578063735de9f71461011857806388156e6514610136575b600080fd5b6100c860048036038101906100c391906110a0565b610238565b6040516100d591906110fb565b60405180910390f35b6100f860048036038101906100f3919061114c565b6102df565b60405161010591906111ae565b60405180910390f35b610116610736565b005b61012061074a565b60405161012d9190611228565b60405180910390f35b610150600480360381019061014b9190611243565b610770565b60405161015d91906111ae565b60405180910390f35b61016e610a62565b60405161017b91906112b9565b60405180910390f35b61019e60048036038101906101999190611300565b610a8b565b005b6101ba60048036038101906101b59190611353565b610b3f565b005b6101d660048036038101906101d19190611353565b610b8b565b005b6101f260048036038101906101ed91906110a0565b610c0e565b6040516101ff91906111ae565b60405180910390f35b610222600480360381019061021d91906110a0565b610c20565b60405161022f91906110fb565b60405180910390f35b60008060006102478585610c4f565b91509150600160008373ffffffffffffffffffffffffffffffffffffffff1673ffffffffffffffffffffffffffffffffffffffff16815260200190815260200160002060008273ffffffffffffffffffffffffffffffffffffffff1673ffffffffffffffffffffffffffffffffffffffff16815260200190815260200160002060009054906101000a900460ff169250505092915050565b60006102eb8383610238565b15610581576000600367ffffffffffffffff81111561030d5761030c611380565b5b60405190808252806020026020018201604052801561033b5781602001602082028036833780820191505090505b5090508381600081518110610353576103526113af565b5b602002602001019073ffffffffffffffffffffffffffffffffffffffff16908173ffffffffffffffffffffffffffffffffffffffff1681525050600260009054906101000a900473ffffffffffffffffffffffffffffffffffffffff1673ffffffffffffffffffffffffffffffffffffffff1663ad5c46486040518163ffffffff1660e01b8152600401602060405180830381865afa1580156103fa573d6000803e3d6000fd5b505050506040513d601f19601f8201168201806040525081019061041e91906113f3565b81600181518110610432576104316113af565b5b602002602001019073ffffffffffffffffffffffffffffffffffffffff16908173ffffffffffffffffffffffffffffffffffffffff16815250508281600281518110610481576104806113af565b5b602002602001019073ffffffffffffffffffffffffffffffffffffffff16908173ffffffffffffffffffffffffffffffffffffffff1681525050600260009054906101000a900473ffffffffffffffffffffffffffffffffffffffff1673ffffffffffffffffffffffffffffffffffffffff1663d06ca61f86836040518363ffffffff1660e01b81526004016105189291906114de565b600060405180830381865afa158015610535573d6000803e3d6000fd5b505050506040513d6000823e3d601f19601f8201168201806040525081019061055e919061164d565b600281518110610571576105706113af565b5b602002602001015191505061072f565b6000600367ffffffffffffffff81111561059e5761059d611380565b5b6040519080825280602002602001820160405280156105cc5781602001602082028036833780820191505090505b50905083816000815181106105e4576105e36113af565b5b602002602001019073ffffffffffffffffffffffffffffffffffffffff16908173ffffffffffffffffffffffffffffffffffffffff16815250508281600181518110610633576106326113af565b5b602002602001019073ffffffffffffffffffffffffffffffffffffffff16908173ffffffffffffffffffffffffffffffffffffffff1681525050600260009054906101000a900473ffffffffffffffffffffffffffffffffffffffff1673ffffffffffffffffffffffffffffffffffffffff1663d06ca61f86836040518363ffffffff1660e01b81526004016106ca9291906114de565b600060405180830381865afa1580156106e7573d6000803e3d6000fd5b505050506040513d6000823e3d601f19601f82011682018060405250810190610710919061164d565b600181518110610723576107226113af565b5b60200260200101519150505b9392505050565b61073e610c9e565b6107486000610d1c565b565b600260009054906101000a900473ffffffffffffffffffffffffffffffffffffffff1681565b600061077c8484610238565b1561095f576000600367ffffffffffffffff81111561079e5761079d611380565b5b6040519080825280602002602001820160405280156107cc5781602001602082028036833780820191505090505b50905084816000815181106107e4576107e36113af565b5b602002602001019073ffffffffffffffffffffffffffffffffffffffff16908173ffffffffffffffffffffffffffffffffffffffff1681525050600260009054906101000a900473ffffffffffffffffffffffffffffffffffffffff1673ffffffffffffffffffffffffffffffffffffffff1663ad5c46486040518163ffffffff1660e01b8152600401602060405180830381865afa15801561088b573d6000803e3d6000fd5b505050506040513d601f19601f820116820180604052508101906108af91906113f3565b816001815181106108c3576108c26113af565b5b602002602001019073ffffffffffffffffffffffffffffffffffffffff16908173ffffffffffffffffffffffffffffffffffffffff16815250508381600281518110610912576109116113af565b5b602002602001019073ffffffffffffffffffffffffffffffffffffffff16908173ffffffffffffffffffffffffffffffffffffffff1681525050610957868285610de0565b915050610a5a565b6000600267ffffffffffffffff81111561097c5761097b611380565b5b6040519080825280602002602001820160405280156109aa5781602001602082028036833780820191505090505b50905084816000815181106109c2576109c16113af565b5b602002602001019073ffffffffffffffffffffffffffffffffffffffff16908173ffffffffffffffffffffffffffffffffffffffff16815250508381600181518110610a1157610a106113af565b5b602002602001019073ffffffffffffffffffffffffffffffffffffffff16908173ffffffffffffffffffffffffffffffffffffffff1681525050610a56868285610de0565b9150505b949350505050565b60008060009054906101000a900473ffffffffffffffffffffffffffffffffffffffff16905090565b610a93610c9e565b600080610aa08585610c4f565b9150915082600160008473ffffffffffffffffffffffffffffffffffffffff1673ffffffffffffffffffffffffffffffffffffffff16815260200190815260200160002060008373ffffffffffffffffffffffffffffffffffffffff1673ffffffffffffffffffffffffffffffffffffffff16815260200190815260200160002060006101000a81548160ff0219169083151502179055505050505050565b610b47610c9e565b80600260006101000a81548173ffffffffffffffffffffffffffffffffffffffff021916908373ffffffffffffffffffffffffffffffffffffffff16021790555050565b610b93610c9e565b600073ffffffffffffffffffffffffffffffffffffffff168173ffffffffffffffffffffffffffffffffffffffff1603610c02576040517f08c379a0000000000000000000000000000000000000000000000000000000008152600401610bf990611719565b60405180910390fd5b610c0b81610d1c565b50565b60006608e1bc9bf04000905092915050565b60016020528160005260406000206020528060005260406000206000915091509054906101000a900460ff1681565b6000808273ffffffffffffffffffffffffffffffffffffffff168473ffffffffffffffffffffffffffffffffffffffff1610610c8c578284610c8f565b83835b80925081935050509250929050565b610ca6611026565b73ffffffffffffffffffffffffffffffffffffffff16610cc4610a62565b73ffffffffffffffffffffffffffffffffffffffff1614610d1a576040517f08c379a0000000000000000000000000000000000000000000000000000000008152600401610d1190611785565b60405180910390fd5b565b60008060009054906101000a900473ffffffffffffffffffffffffffffffffffffffff169050816000806101000a81548173ffffffffffffffffffffffffffffffffffffffff021916908373ffffffffffffffffffffffffffffffffffffffff1602179055508173ffffffffffffffffffffffffffffffffffffffff168173ffffffffffffffffffffffffffffffffffffffff167f8be0079c531659141344cd1fd0a4f28419497f9722a3daafe3b4186f6b6457e060405160405180910390a35050565b600082600081518110610df657610df56113af565b5b602002602001015173ffffffffffffffffffffffffffffffffffffffff1663095ea7b3600260009054906101000a900473ffffffffffffffffffffffffffffffffffffffff16866040518363ffffffff1660e01b8152600401610e5a9291906117a5565b6020604051808303816000875af1158015610e79573d6000803e3d6000fd5b505050506040513d601f19601f82011682018060405250810190610e9d91906117e3565b506000600260009054906101000a900473ffffffffffffffffffffffffffffffffffffffff1673ffffffffffffffffffffffffffffffffffffffff166338ed17398660008730426040518663ffffffff1660e01b8152600401610f0495949392919061184b565b6000604051808303816000875af1158015610f23573d6000803e3d6000fd5b505050506040513d6000823e3d601f19601f82011682018060405250810190610f4c919061164d565b60018551610f5a91906118d4565b81518110610f6b57610f6a6113af565b5b602002602001015190508360018551610f8491906118d4565b81518110610f9557610f946113af565b5b602002602001015173ffffffffffffffffffffffffffffffffffffffff1663a9059cbb84836040518363ffffffff1660e01b8152600401610fd79291906117a5565b6020604051808303816000875af1158015610ff6573d6000803e3d6000fd5b505050506040513d601f19601f8201168201806040525081019061101a91906117e3565b50809150509392505050565b600033905090565b6000604051905090565b600080fd5b600080fd5b600073ffffffffffffffffffffffffffffffffffffffff82169050919050565b600061106d82611042565b9050919050565b61107d81611062565b811461108857600080fd5b50565b60008135905061109a81611074565b92915050565b600080604083850312156110b7576110b6611038565b5b60006110c58582860161108b565b92505060206110d68582860161108b565b9150509250929050565b60008115159050919050565b6110f5816110e0565b82525050565b600060208201905061111060008301846110ec565b92915050565b6000819050919050565b61112981611116565b811461113457600080fd5b50565b60008135905061114681611120565b92915050565b60008060006060848603121561116557611164611038565b5b600061117386828701611137565b93505060206111848682870161108b565b92505060406111958682870161108b565b9150509250925092565b6111a881611116565b82525050565b60006020820190506111c3600083018461119f565b92915050565b6000819050919050565b60006111ee6111e96111e484611042565b6111c9565b611042565b9050919050565b6000611200826111d3565b9050919050565b6000611212826111f5565b9050919050565b61122281611207565b82525050565b600060208201905061123d6000830184611219565b92915050565b6000806000806080858703121561125d5761125c611038565b5b600061126b87828801611137565b945050602061127c8782880161108b565b935050604061128d8782880161108b565b925050606061129e8782880161108b565b91505092959194509250565b6112b381611062565b82525050565b60006020820190506112ce60008301846112aa565b92915050565b6112dd816110e0565b81146112e857600080fd5b50565b6000813590506112fa816112d4565b92915050565b60008060006060848603121561131957611318611038565b5b60006113278682870161108b565b93505060206113388682870161108b565b9250506040611349868287016112eb565b9150509250925092565b60006020828403121561136957611368611038565b5b60006113778482850161108b565b91505092915050565b7f4e487b7100000000000000000000000000000000000000000000000000000000600052604160045260246000fd5b7f4e487b7100000000000000000000000000000000000000000000000000000000600052603260045260246000fd5b6000815190506113ed81611074565b92915050565b60006020828403121561140957611408611038565b5b6000611417848285016113de565b91505092915050565b600081519050919050565b600082825260208201905092915050565b6000819050602082019050919050565b61145581611062565b82525050565b6000611467838361144c565b60208301905092915050565b6000602082019050919050565b600061148b82611420565b611495818561142b565b93506114a08361143c565b8060005b838110156114d15781516114b8888261145b565b97506114c383611473565b9250506001810190506114a4565b5085935050505092915050565b60006040820190506114f3600083018561119f565b81810360208301526115058184611480565b90509392505050565b600080fd5b6000601f19601f8301169050919050565b61152d82611513565b810181811067ffffffffffffffff8211171561154c5761154b611380565b5b80604052505050565b600061155f61102e565b905061156b8282611524565b919050565b600067ffffffffffffffff82111561158b5761158a611380565b5b602082029050602081019050919050565b600080fd5b6000815190506115b081611120565b92915050565b60006115c96115c484611570565b611555565b905080838252602082019050602084028301858111156115ec576115eb61159c565b5b835b81811015611615578061160188826115a1565b8452602084019350506020810190506115ee565b5050509392505050565b600082601f8301126116345761163361150e565b5b81516116448482602086016115b6565b91505092915050565b60006020828403121561166357611662611038565b5b600082015167ffffffffffffffff8111156116815761168061103d565b5b61168d8482850161161f565b91505092915050565b600082825260208201905092915050565b7f4f776e61626c653a206e6577206f776e657220697320746865207a65726f206160008201527f6464726573730000000000000000000000000000000000000000000000000000602082015250565b6000611703602683611696565b915061170e826116a7565b604082019050919050565b60006020820190508181036000830152611732816116f6565b9050919050565b7f4f776e61626c653a2063616c6c6572206973206e6f7420746865206f776e6572600082015250565b600061176f602083611696565b915061177a82611739565b602082019050919050565b6000602082019050818103600083015261179e81611762565b9050919050565b60006040820190506117ba60008301856112aa565b6117c7602083018461119f565b9392505050565b6000815190506117dd816112d4565b92915050565b6000602082840312156117f9576117f8611038565b5b6000611807848285016117ce565b91505092915050565b6000819050919050565b600061183561183061182b84611810565b6111c9565b611116565b9050919050565b6118458161181a565b82525050565b600060a082019050611860600083018861119f565b61186d602083018761183c565b818103604083015261187f8186611480565b905061188e60608301856112aa565b61189b608083018461119f565b9695505050505050565b7f4e487b7100000000000000000000000000000000000000000000000000000000600052601160045260246000fd5b60006118df82611116565b91506118ea83611116565b9250828210156118fd576118fc6118a5565b5b82820390509291505056fea2646970667358221220b327c21844be76c63c15a7ff38a4fb0431ff09005a890ab1a816f4eadbd0b49664736f6c634300080f0033",
  "immutableReferences": {},
  "source": "//SPDX-License-Identifier: Unlicense\r\npragma solidity ^0.8.0;\r\nimport \"@openzeppelin/contracts/token/ERC20/IERC20.sol\";\r\nimport \"@openzeppelin/contracts/access/Ownable.sol\";\r\nimport \"@uniswap/v2-periphery/contracts/interfaces/IUniswapV2Router02.sol\";\r\nimport \"../interfaces/ICurvePool.sol\";\r\nimport \"../interfaces/IExchangePlugin.sol\";\r\nimport \"../main/StrategyRouter.sol\";\r\n\r\n// import \"hardhat/console.sol\";\r\n\r\ncontract UniswapPlugin is IExchangePlugin, Ownable {\r\n    error RoutedSwapFailed();\r\n    error RouteNotFound();\r\n\r\n    // whether swap for the pair should be done through WETH as intermediary\r\n    mapping(address => mapping(address => bool)) public useWeth;\r\n\r\n    IUniswapV2Router02 public uniswapRouter;\r\n\r\n    constructor() {}\r\n\r\n    /// @notice Set uniswap02-like router.\r\n    function setUniswapRouter(address _uniswapRouter) external onlyOwner {\r\n        uniswapRouter = IUniswapV2Router02(_uniswapRouter);\r\n    }\r\n\r\n    function setUseWeth(\r\n        address tokenA,\r\n        address tokenB,\r\n        bool _useWeth\r\n    ) external onlyOwner {\r\n        (address token0, address token1) = sortTokens(tokenA, tokenB);\r\n        useWeth[token0][token1] = _useWeth;\r\n    }\r\n\r\n    function isUseWeth(address tokenA, address tokenB) public view returns (bool) {\r\n        (address token0, address token1) = sortTokens(tokenA, tokenB);\r\n        return useWeth[token0][token1];\r\n    }\r\n\r\n    function swap(\r\n        uint256 amountA,\r\n        address tokenA,\r\n        address tokenB,\r\n        address to\r\n    ) public override returns (uint256 amountReceivedTokenB) {\r\n        if (isUseWeth(tokenA, tokenB)) {\r\n            address[] memory path = new address[](3);\r\n            path[0] = address(tokenA);\r\n            path[1] = uniswapRouter.WETH();\r\n            path[2] = address(tokenB);\r\n\r\n            return _swap(amountA, path, to);\r\n        } else {\r\n            address[] memory path = new address[](2);\r\n            path[0] = address(tokenA);\r\n            path[1] = address(tokenB);\r\n\r\n            return _swap(amountA, path, to);\r\n        }\r\n    }\r\n\r\n    function getFee(address, address) public pure override returns (uint256 feePercent) {\r\n        return 25e14; // 0.25% or 0.0025 with 18 decimals\r\n    }\r\n\r\n    function getAmountOut(\r\n        uint256 amountA,\r\n        address tokenA,\r\n        address tokenB\r\n    ) external view override returns (uint256 amountOut) {\r\n        if (isUseWeth(tokenA, tokenB)) {\r\n            address[] memory path = new address[](3);\r\n            path[0] = address(tokenA);\r\n            path[1] = uniswapRouter.WETH();\r\n            path[2] = address(tokenB);\r\n            return uniswapRouter.getAmountsOut(amountA, path)[2];\r\n        } else {\r\n            address[] memory path = new address[](3);\r\n            path[0] = address(tokenA);\r\n            path[1] = address(tokenB);\r\n            return uniswapRouter.getAmountsOut(amountA, path)[1];\r\n        }\r\n    }\r\n\r\n    function _swap(\r\n        uint256 amountA,\r\n        address[] memory path,\r\n        address to\r\n    ) private returns (uint256 amountReceivedTokenB) {\r\n        IERC20(path[0]).approve(address(uniswapRouter), amountA);\r\n\r\n        uint256 received = uniswapRouter.swapExactTokensForTokens(amountA, 0, path, address(this), block.timestamp)[\r\n            path.length - 1\r\n        ];\r\n\r\n        IERC20(path[path.length - 1]).transfer(to, received);\r\n\r\n        return received;\r\n    }\r\n\r\n    function sortTokens(address tokenA, address tokenB) internal pure returns (address token0, address token1) {\r\n        (token0, token1) = tokenA < tokenB ? (tokenA, tokenB) : (tokenB, tokenA);\r\n    }\r\n}\r\n",
  "sourcePath": "C:\\Users\\FVO_MMILLLER\\Desktop\\elvolution\\Testers\\contracts\\exchange\\UniswapPlugin.sol",
  "compiler": {
    "name": "solc",
    "version": "0.8.15+commit.e14f2714.Emscripten.clang"
  },
  "schemaVersion": "3.4.8",
  "updatedAt": "2022-09-08T16:23:06.530Z",
  "devdoc": {
    "kind": "dev",
    "methods": {
      "owner()": {
        "details": "Returns the address of the current owner."
      },
      "renounceOwnership()": {
        "details": "Leaves the contract without owner. It will not be possible to call `onlyOwner` functions anymore. Can only be called by the current owner. NOTE: Renouncing ownership will leave the contract without an owner, thereby removing any functionality that is only available to the owner."
      },
      "transferOwnership(address)": {
        "details": "Transfers ownership of the contract to a new account (`newOwner`). Can only be called by the current owner."
      }
    },
    "version": 1
  },
  "userdoc": {
    "kind": "user",
    "methods": {
      "getAmountOut(uint256,address,address)": {
        "notice": "Synonym of the uniswapV2's function, estimates amount you receive after swap."
      },
      "setUniswapRouter(address)": {
        "notice": "Set uniswap02-like router."
      }
    },
    "version": 1
  }
}